{
	"TradeContract.sol": {
		"TradeContract": {
			"abi": [
				{
					"inputs": [],
					"stateMutability": "nonpayable",
					"type": "constructor"
				},
				{
					"inputs": [
						{
							"internalType": "address",
							"name": "owner",
							"type": "address"
						}
					],
					"name": "OwnableInvalidOwner",
					"type": "error"
				},
				{
					"inputs": [
						{
							"internalType": "address",
							"name": "account",
							"type": "address"
						}
					],
					"name": "OwnableUnauthorizedAccount",
					"type": "error"
				},
				{
					"anonymous": false,
					"inputs": [
						{
							"indexed": false,
							"internalType": "uint256",
							"name": "orderId",
							"type": "uint256"
						},
						{
							"indexed": false,
							"internalType": "address",
							"name": "buyer",
							"type": "address"
						},
						{
							"indexed": false,
							"internalType": "bool",
							"name": "isRegistered",
							"type": "bool"
						},
						{
							"indexed": false,
							"internalType": "bool",
							"name": "isClaimed",
							"type": "bool"
						}
					],
					"name": "BuyerDetails",
					"type": "event"
				},
				{
					"anonymous": false,
					"inputs": [
						{
							"indexed": false,
							"internalType": "uint256",
							"name": "orderId",
							"type": "uint256"
						}
					],
					"name": "OrderCancelled",
					"type": "event"
				},
				{
					"anonymous": false,
					"inputs": [
						{
							"indexed": false,
							"internalType": "address",
							"name": "buyer",
							"type": "address"
						},
						{
							"indexed": false,
							"internalType": "uint256",
							"name": "tokenAmount",
							"type": "uint256"
						},
						{
							"indexed": false,
							"internalType": "address",
							"name": "tokenContract",
							"type": "address"
						}
					],
					"name": "OrderCompleted",
					"type": "event"
				},
				{
					"anonymous": false,
					"inputs": [
						{
							"indexed": false,
							"internalType": "uint256",
							"name": "orderId",
							"type": "uint256"
						},
						{
							"indexed": false,
							"internalType": "address",
							"name": "seller",
							"type": "address"
						},
						{
							"indexed": false,
							"internalType": "uint256",
							"name": "tokenAmount",
							"type": "uint256"
						},
						{
							"indexed": false,
							"internalType": "address",
							"name": "tokenContract",
							"type": "address"
						}
					],
					"name": "OrderCreated",
					"type": "event"
				},
				{
					"anonymous": false,
					"inputs": [
						{
							"indexed": false,
							"internalType": "uint256",
							"name": "orderId",
							"type": "uint256"
						},
						{
							"indexed": false,
							"internalType": "address",
							"name": "seller",
							"type": "address"
						},
						{
							"indexed": false,
							"internalType": "uint256",
							"name": "tokenAmount",
							"type": "uint256"
						},
						{
							"indexed": false,
							"internalType": "address",
							"name": "tokenContract",
							"type": "address"
						},
						{
							"indexed": false,
							"internalType": "enum TradeContract.OrderState",
							"name": "state",
							"type": "uint8"
						}
					],
					"name": "OrderDetails",
					"type": "event"
				},
				{
					"anonymous": false,
					"inputs": [
						{
							"indexed": true,
							"internalType": "address",
							"name": "previousOwner",
							"type": "address"
						},
						{
							"indexed": true,
							"internalType": "address",
							"name": "newOwner",
							"type": "address"
						}
					],
					"name": "OwnershipTransferred",
					"type": "event"
				},
				{
					"inputs": [
						{
							"internalType": "uint256",
							"name": "orderId",
							"type": "uint256"
						}
					],
					"name": "cancelOrder",
					"outputs": [],
					"stateMutability": "nonpayable",
					"type": "function"
				},
				{
					"inputs": [
						{
							"internalType": "uint256",
							"name": "orderId",
							"type": "uint256"
						},
						{
							"internalType": "uint256",
							"name": "chosenRandomNumber",
							"type": "uint256"
						},
						{
							"internalType": "address",
							"name": "buyer",
							"type": "address"
						}
					],
					"name": "completeOrder",
					"outputs": [],
					"stateMutability": "nonpayable",
					"type": "function"
				},
				{
					"inputs": [
						{
							"internalType": "uint256",
							"name": "_tokenAmount",
							"type": "uint256"
						},
						{
							"internalType": "address",
							"name": "_tokenContract",
							"type": "address"
						}
					],
					"name": "createOrder",
					"outputs": [],
					"stateMutability": "nonpayable",
					"type": "function"
				},
				{
					"inputs": [
						{
							"internalType": "uint256",
							"name": "orderId",
							"type": "uint256"
						}
					],
					"name": "getOrderDetails",
					"outputs": [],
					"stateMutability": "nonpayable",
					"type": "function"
				},
				{
					"inputs": [],
					"name": "nextOrderId",
					"outputs": [
						{
							"internalType": "uint256",
							"name": "",
							"type": "uint256"
						}
					],
					"stateMutability": "view",
					"type": "function"
				},
				{
					"inputs": [
						{
							"internalType": "uint256",
							"name": "",
							"type": "uint256"
						}
					],
					"name": "orders",
					"outputs": [
						{
							"internalType": "uint256",
							"name": "orderId",
							"type": "uint256"
						},
						{
							"internalType": "address",
							"name": "seller",
							"type": "address"
						},
						{
							"internalType": "uint256",
							"name": "tokenAmount",
							"type": "uint256"
						},
						{
							"internalType": "address",
							"name": "tokenContract",
							"type": "address"
						},
						{
							"internalType": "enum TradeContract.OrderState",
							"name": "state",
							"type": "uint8"
						}
					],
					"stateMutability": "view",
					"type": "function"
				},
				{
					"inputs": [],
					"name": "owner",
					"outputs": [
						{
							"internalType": "address",
							"name": "",
							"type": "address"
						}
					],
					"stateMutability": "view",
					"type": "function"
				},
				{
					"inputs": [
						{
							"internalType": "uint256",
							"name": "orderId",
							"type": "uint256"
						},
						{
							"internalType": "uint256",
							"name": "randomNumber",
							"type": "uint256"
						}
					],
					"name": "registerBuyer",
					"outputs": [],
					"stateMutability": "nonpayable",
					"type": "function"
				},
				{
					"inputs": [],
					"name": "renounceOwnership",
					"outputs": [],
					"stateMutability": "nonpayable",
					"type": "function"
				},
				{
					"inputs": [
						{
							"internalType": "address",
							"name": "newOwner",
							"type": "address"
						}
					],
					"name": "transferOwnership",
					"outputs": [],
					"stateMutability": "nonpayable",
					"type": "function"
				}
			],
			"devdoc": {
				"errors": {
					"OwnableInvalidOwner(address)": [
						{
							"details": "The owner is not a valid owner account. (eg. `address(0)`)"
						}
					],
					"OwnableUnauthorizedAccount(address)": [
						{
							"details": "The caller account is not authorized to perform an operation."
						}
					]
				},
				"kind": "dev",
				"methods": {
					"owner()": {
						"details": "Returns the address of the current owner."
					},
					"renounceOwnership()": {
						"details": "Leaves the contract without owner. It will not be possible to call `onlyOwner` functions. Can only be called by the current owner. NOTE: Renouncing ownership will leave the contract without an owner, thereby disabling any functionality that is only available to the owner."
					},
					"transferOwnership(address)": {
						"details": "Transfers ownership of the contract to a new account (`newOwner`). Can only be called by the current owner."
					}
				},
				"version": 1
			},
			"evm": {
				"assembly": "    /* \"TradeContract.sol\":231:4138  contract TradeContract is Ownable {... */\n  mstore(0x40, 0x80)\n    /* \"TradeContract.sol\":1174:1210  constructor() Ownable(msg.sender) {} */\n  callvalue\n  dup1\n  iszero\n  tag_1\n  jumpi\n  0x00\n  dup1\n  revert\ntag_1:\n  pop\n    /* \"TradeContract.sol\":1196:1206  msg.sender */\n  caller\n    /* \"@openzeppelin/contracts/access/Ownable.sol\":1296:1297  0 */\n  0x00\n    /* \"@openzeppelin/contracts/access/Ownable.sol\":1272:1298  initialOwner == address(0) */\n  0xffffffffffffffffffffffffffffffffffffffff\n  and\n    /* \"@openzeppelin/contracts/access/Ownable.sol\":1272:1284  initialOwner */\n  dup2\n    /* \"@openzeppelin/contracts/access/Ownable.sol\":1272:1298  initialOwner == address(0) */\n  0xffffffffffffffffffffffffffffffffffffffff\n  and\n  sub\n    /* \"@openzeppelin/contracts/access/Ownable.sol\":1268:1363  if (initialOwner == address(0)) {... */\n  tag_5\n  jumpi\n    /* \"@openzeppelin/contracts/access/Ownable.sol\":1349:1350  0 */\n  0x00\n    /* \"@openzeppelin/contracts/access/Ownable.sol\":1321:1352  OwnableInvalidOwner(address(0)) */\n  mload(0x40)\n  0x1e4fbdf700000000000000000000000000000000000000000000000000000000\n  dup2\n  mstore\n  0x04\n  add\n  tag_6\n  swap2\n  swap1\n  tag_7\n  jump\t// in\ntag_6:\n  mload(0x40)\n  dup1\n  swap2\n  sub\n  swap1\n  revert\n    /* \"@openzeppelin/contracts/access/Ownable.sol\":1268:1363  if (initialOwner == address(0)) {... */\ntag_5:\n    /* \"@openzeppelin/contracts/access/Ownable.sol\":1372:1404  _transferOwnership(initialOwner) */\n  tag_8\n    /* \"@openzeppelin/contracts/access/Ownable.sol\":1391:1403  initialOwner */\n  dup2\n    /* \"@openzeppelin/contracts/access/Ownable.sol\":1372:1390  _transferOwnership */\n  shl(0x20, tag_9)\n    /* \"@openzeppelin/contracts/access/Ownable.sol\":1372:1404  _transferOwnership(initialOwner) */\n  0x20\n  shr\n  jump\t// in\ntag_8:\n    /* \"@openzeppelin/contracts/access/Ownable.sol\":1224:1411  constructor(address initialOwner) {... */\n  pop\n    /* \"TradeContract.sol\":231:4138  contract TradeContract is Ownable {... */\n  jump(tag_11)\n    /* \"@openzeppelin/contracts/access/Ownable.sol\":2911:3098  function _transferOwnership(address newOwner) internal virtual {... */\ntag_9:\n    /* \"@openzeppelin/contracts/access/Ownable.sol\":2984:3000  address oldOwner */\n  0x00\n    /* \"@openzeppelin/contracts/access/Ownable.sol\":3003:3009  _owner */\n  dup1\n  0x00\n  swap1\n  sload\n  swap1\n  0x0100\n  exp\n  swap1\n  div\n  0xffffffffffffffffffffffffffffffffffffffff\n  and\n    /* \"@openzeppelin/contracts/access/Ownable.sol\":2984:3009  address oldOwner = _owner */\n  swap1\n  pop\n    /* \"@openzeppelin/contracts/access/Ownable.sol\":3028:3036  newOwner */\n  dup2\n    /* \"@openzeppelin/contracts/access/Ownable.sol\":3019:3025  _owner */\n  0x00\n  dup1\n    /* \"@openzeppelin/contracts/access/Ownable.sol\":3019:3036  _owner = newOwner */\n  0x0100\n  exp\n  dup2\n  sload\n  dup2\n  0xffffffffffffffffffffffffffffffffffffffff\n  mul\n  not\n  and\n  swap1\n  dup4\n  0xffffffffffffffffffffffffffffffffffffffff\n  and\n  mul\n  or\n  swap1\n  sstore\n  pop\n    /* \"@openzeppelin/contracts/access/Ownable.sol\":3082:3090  newOwner */\n  dup2\n    /* \"@openzeppelin/contracts/access/Ownable.sol\":3051:3091  OwnershipTransferred(oldOwner, newOwner) */\n  0xffffffffffffffffffffffffffffffffffffffff\n  and\n    /* \"@openzeppelin/contracts/access/Ownable.sol\":3072:3080  oldOwner */\n  dup2\n    /* \"@openzeppelin/contracts/access/Ownable.sol\":3051:3091  OwnershipTransferred(oldOwner, newOwner) */\n  0xffffffffffffffffffffffffffffffffffffffff\n  and\n  0x8be0079c531659141344cd1fd0a4f28419497f9722a3daafe3b4186f6b6457e0\n  mload(0x40)\n  mload(0x40)\n  dup1\n  swap2\n  sub\n  swap1\n  log3\n    /* \"@openzeppelin/contracts/access/Ownable.sol\":2974:3098  {... */\n  pop\n    /* \"@openzeppelin/contracts/access/Ownable.sol\":2911:3098  function _transferOwnership(address newOwner) internal virtual {... */\n  pop\n  jump\t// out\n    /* \"#utility.yul\":7:133   */\ntag_13:\n    /* \"#utility.yul\":44:51   */\n  0x00\n    /* \"#utility.yul\":84:126   */\n  0xffffffffffffffffffffffffffffffffffffffff\n    /* \"#utility.yul\":77:82   */\n  dup3\n    /* \"#utility.yul\":73:127   */\n  and\n    /* \"#utility.yul\":62:127   */\n  swap1\n  pop\n    /* \"#utility.yul\":7:133   */\n  swap2\n  swap1\n  pop\n  jump\t// out\n    /* \"#utility.yul\":139:235   */\ntag_14:\n    /* \"#utility.yul\":176:183   */\n  0x00\n    /* \"#utility.yul\":205:229   */\n  tag_19\n    /* \"#utility.yul\":223:228   */\n  dup3\n    /* \"#utility.yul\":205:229   */\n  tag_13\n  jump\t// in\ntag_19:\n    /* \"#utility.yul\":194:229   */\n  swap1\n  pop\n    /* \"#utility.yul\":139:235   */\n  swap2\n  swap1\n  pop\n  jump\t// out\n    /* \"#utility.yul\":241:359   */\ntag_15:\n    /* \"#utility.yul\":328:352   */\n  tag_21\n    /* \"#utility.yul\":346:351   */\n  dup2\n    /* \"#utility.yul\":328:352   */\n  tag_14\n  jump\t// in\ntag_21:\n    /* \"#utility.yul\":323:326   */\n  dup3\n    /* \"#utility.yul\":316:353   */\n  mstore\n    /* \"#utility.yul\":241:359   */\n  pop\n  pop\n  jump\t// out\n    /* \"#utility.yul\":365:587   */\ntag_7:\n    /* \"#utility.yul\":458:462   */\n  0x00\n    /* \"#utility.yul\":496:498   */\n  0x20\n    /* \"#utility.yul\":485:494   */\n  dup3\n    /* \"#utility.yul\":481:499   */\n  add\n    /* \"#utility.yul\":473:499   */\n  swap1\n  pop\n    /* \"#utility.yul\":509:580   */\n  tag_23\n    /* \"#utility.yul\":577:578   */\n  0x00\n    /* \"#utility.yul\":566:575   */\n  dup4\n    /* \"#utility.yul\":562:579   */\n  add\n    /* \"#utility.yul\":553:559   */\n  dup5\n    /* \"#utility.yul\":509:580   */\n  tag_15\n  jump\t// in\ntag_23:\n    /* \"#utility.yul\":365:587   */\n  swap3\n  swap2\n  pop\n  pop\n  jump\t// out\n    /* \"TradeContract.sol\":231:4138  contract TradeContract is Ownable {... */\ntag_11:\n  dataSize(sub_0)\n  dup1\n  dataOffset(sub_0)\n  0x00\n  codecopy\n  0x00\n  return\nstop\n\nsub_0: assembly {\n        /* \"TradeContract.sol\":231:4138  contract TradeContract is Ownable {... */\n      mstore(0x40, 0x80)\n      callvalue\n      dup1\n      iszero\n      tag_1\n      jumpi\n      0x00\n      dup1\n      revert\n    tag_1:\n      pop\n      jumpi(tag_2, lt(calldatasize, 0x04))\n      shr(0xe0, calldataload(0x00))\n      dup1\n      0x8da5cb5b\n      gt\n      tag_13\n      jumpi\n      dup1\n      0x8da5cb5b\n      eq\n      tag_8\n      jumpi\n      dup1\n      0xa85c38ef\n      eq\n      tag_9\n      jumpi\n      dup1\n      0xcfbd978f\n      eq\n      tag_10\n      jumpi\n      dup1\n      0xec7dd7bb\n      eq\n      tag_11\n      jumpi\n      dup1\n      0xf2fde38b\n      eq\n      tag_12\n      jumpi\n      jump(tag_2)\n    tag_13:\n      dup1\n      0x07540ca6\n      eq\n      tag_3\n      jumpi\n      dup1\n      0x2a58b330\n      eq\n      tag_4\n      jumpi\n      dup1\n      0x514fcac7\n      eq\n      tag_5\n      jumpi\n      dup1\n      0x687b1df8\n      eq\n      tag_6\n      jumpi\n      dup1\n      0x715018a6\n      eq\n      tag_7\n      jumpi\n    tag_2:\n      0x00\n      dup1\n      revert\n        /* \"TradeContract.sol\":1511:2132  function createOrder(uint256 _tokenAmount, address _tokenContract) external {... */\n    tag_3:\n      tag_14\n      0x04\n      dup1\n      calldatasize\n      sub\n      dup2\n      add\n      swap1\n      tag_15\n      swap2\n      swap1\n      tag_16\n      jump\t// in\n    tag_15:\n      tag_17\n      jump\t// in\n    tag_14:\n      stop\n        /* \"TradeContract.sol\":665:691  uint256 public nextOrderId */\n    tag_4:\n      tag_18\n      tag_19\n      jump\t// in\n    tag_18:\n      mload(0x40)\n      tag_20\n      swap2\n      swap1\n      tag_21\n      jump\t// in\n    tag_20:\n      mload(0x40)\n      dup1\n      swap2\n      sub\n      swap1\n      return\n        /* \"TradeContract.sol\":3579:3853  function cancelOrder(uint256 orderId) external onlyOwner orderExists(orderId) {... */\n    tag_5:\n      tag_22\n      0x04\n      dup1\n      calldatasize\n      sub\n      dup2\n      add\n      swap1\n      tag_23\n      swap2\n      swap1\n      tag_24\n      jump\t// in\n    tag_23:\n      tag_25\n      jump\t// in\n    tag_22:\n      stop\n        /* \"TradeContract.sol\":2139:2767  function registerBuyer(uint256 orderId, uint256 randomNumber) external {... */\n    tag_6:\n      tag_26\n      0x04\n      dup1\n      calldatasize\n      sub\n      dup2\n      add\n      swap1\n      tag_27\n      swap2\n      swap1\n      tag_28\n      jump\t// in\n    tag_27:\n      tag_29\n      jump\t// in\n    tag_26:\n      stop\n        /* \"@openzeppelin/contracts/access/Ownable.sol\":2292:2393  function renounceOwnership() public virtual onlyOwner {... */\n    tag_7:\n      tag_30\n      tag_31\n      jump\t// in\n    tag_30:\n      stop\n        /* \"@openzeppelin/contracts/access/Ownable.sol\":1637:1722  function owner() public view virtual returns (address) {... */\n    tag_8:\n      tag_32\n      tag_33\n      jump\t// in\n    tag_32:\n      mload(0x40)\n      tag_34\n      swap2\n      swap1\n      tag_35\n      jump\t// in\n    tag_34:\n      mload(0x40)\n      dup1\n      swap2\n      sub\n      swap1\n      return\n        /* \"TradeContract.sol\":620:659  mapping(uint256 => Order) public orders */\n    tag_9:\n      tag_36\n      0x04\n      dup1\n      calldatasize\n      sub\n      dup2\n      add\n      swap1\n      tag_37\n      swap2\n      swap1\n      tag_24\n      jump\t// in\n    tag_37:\n      tag_38\n      jump\t// in\n    tag_36:\n      mload(0x40)\n      tag_39\n      swap6\n      swap5\n      swap4\n      swap3\n      swap2\n      swap1\n      tag_40\n      jump\t// in\n    tag_39:\n      mload(0x40)\n      dup1\n      swap2\n      sub\n      swap1\n      return\n        /* \"TradeContract.sol\":2773:3573  function completeOrder(uint256 orderId, uint256 chosenRandomNumber,address buyer) external onlyBuyer(orderId) {... */\n    tag_10:\n      tag_41\n      0x04\n      dup1\n      calldatasize\n      sub\n      dup2\n      add\n      swap1\n      tag_42\n      swap2\n      swap1\n      tag_43\n      jump\t// in\n    tag_42:\n      tag_44\n      jump\t// in\n    tag_41:\n      stop\n        /* \"TradeContract.sol\":3859:4136  function getOrderDetails(uint256 orderId) external  {... */\n    tag_11:\n      tag_45\n      0x04\n      dup1\n      calldatasize\n      sub\n      dup2\n      add\n      swap1\n      tag_46\n      swap2\n      swap1\n      tag_24\n      jump\t// in\n    tag_46:\n      tag_47\n      jump\t// in\n    tag_45:\n      stop\n        /* \"@openzeppelin/contracts/access/Ownable.sol\":2542:2757  function transferOwnership(address newOwner) public virtual onlyOwner {... */\n    tag_12:\n      tag_48\n      0x04\n      dup1\n      calldatasize\n      sub\n      dup2\n      add\n      swap1\n      tag_49\n      swap2\n      swap1\n      tag_50\n      jump\t// in\n    tag_49:\n      tag_51\n      jump\t// in\n    tag_48:\n      stop\n        /* \"TradeContract.sol\":1511:2132  function createOrder(uint256 _tokenAmount, address _tokenContract) external {... */\n    tag_17:\n        /* \"TradeContract.sol\":1620:1621  0 */\n      0x00\n        /* \"TradeContract.sol\":1605:1617  _tokenAmount */\n      dup3\n        /* \"TradeContract.sol\":1605:1621  _tokenAmount > 0 */\n      gt\n        /* \"TradeContract.sol\":1597:1661  require(_tokenAmount > 0, \"Token amount must be greater than 0\") */\n      tag_53\n      jumpi\n      mload(0x40)\n      0x08c379a000000000000000000000000000000000000000000000000000000000\n      dup2\n      mstore\n      0x04\n      add\n      tag_54\n      swap1\n      tag_55\n      jump\t// in\n    tag_54:\n      mload(0x40)\n      dup1\n      swap2\n      sub\n      swap1\n      revert\n    tag_53:\n        /* \"TradeContract.sol\":1705:1706  0 */\n      0x00\n        /* \"TradeContract.sol\":1679:1707  _tokenContract != address(0) */\n      0xffffffffffffffffffffffffffffffffffffffff\n      and\n        /* \"TradeContract.sol\":1679:1693  _tokenContract */\n      dup2\n        /* \"TradeContract.sol\":1679:1707  _tokenContract != address(0) */\n      0xffffffffffffffffffffffffffffffffffffffff\n      and\n      sub\n        /* \"TradeContract.sol\":1671:1742  require(_tokenContract != address(0), \"Invalid token contract address\") */\n      tag_56\n      jumpi\n      mload(0x40)\n      0x08c379a000000000000000000000000000000000000000000000000000000000\n      dup2\n      mstore\n      0x04\n      add\n      tag_57\n      swap1\n      tag_58\n      jump\t// in\n    tag_57:\n      mload(0x40)\n      dup1\n      swap2\n      sub\n      swap1\n      revert\n    tag_56:\n        /* \"TradeContract.sol\":1753:1764  nextOrderId */\n      0x02\n      0x00\n        /* \"TradeContract.sol\":1753:1766  nextOrderId++ */\n      dup2\n      sload\n      dup1\n      swap3\n      swap2\n      swap1\n      tag_59\n      swap1\n      tag_60\n      jump\t// in\n    tag_59:\n      swap2\n      swap1\n      pop\n      sstore\n      pop\n        /* \"TradeContract.sol\":1814:1825  nextOrderId */\n      sload(0x02)\n        /* \"TradeContract.sol\":1785:1791  orders */\n      0x01\n        /* \"TradeContract.sol\":1785:1804  orders[nextOrderId] */\n      0x00\n        /* \"TradeContract.sol\":1792:1803  nextOrderId */\n      sload(0x02)\n        /* \"TradeContract.sol\":1785:1804  orders[nextOrderId] */\n      dup2\n      mstore\n      0x20\n      add\n      swap1\n      dup2\n      mstore\n      0x20\n      add\n      0x00\n      keccak256\n        /* \"TradeContract.sol\":1785:1812  orders[nextOrderId].orderId */\n      0x00\n      add\n        /* \"TradeContract.sol\":1785:1825  orders[nextOrderId].orderId= nextOrderId */\n      dup2\n      swap1\n      sstore\n      pop\n        /* \"TradeContract.sol\":1863:1873  msg.sender */\n      caller\n        /* \"TradeContract.sol\":1835:1841  orders */\n      0x01\n        /* \"TradeContract.sol\":1835:1854  orders[nextOrderId] */\n      0x00\n        /* \"TradeContract.sol\":1842:1853  nextOrderId */\n      sload(0x02)\n        /* \"TradeContract.sol\":1835:1854  orders[nextOrderId] */\n      dup2\n      mstore\n      0x20\n      add\n      swap1\n      dup2\n      mstore\n      0x20\n      add\n      0x00\n      keccak256\n        /* \"TradeContract.sol\":1835:1861  orders[nextOrderId].seller */\n      0x01\n      add\n      0x00\n        /* \"TradeContract.sol\":1835:1873  orders[nextOrderId].seller= msg.sender */\n      0x0100\n      exp\n      dup2\n      sload\n      dup2\n      0xffffffffffffffffffffffffffffffffffffffff\n      mul\n      not\n      and\n      swap1\n      dup4\n      0xffffffffffffffffffffffffffffffffffffffff\n      and\n      mul\n      or\n      swap1\n      sstore\n      pop\n        /* \"TradeContract.sol\":1916:1928  _tokenAmount */\n      dup2\n        /* \"TradeContract.sol\":1883:1889  orders */\n      0x01\n        /* \"TradeContract.sol\":1883:1902  orders[nextOrderId] */\n      0x00\n        /* \"TradeContract.sol\":1890:1901  nextOrderId */\n      sload(0x02)\n        /* \"TradeContract.sol\":1883:1902  orders[nextOrderId] */\n      dup2\n      mstore\n      0x20\n      add\n      swap1\n      dup2\n      mstore\n      0x20\n      add\n      0x00\n      keccak256\n        /* \"TradeContract.sol\":1883:1914  orders[nextOrderId].tokenAmount */\n      0x02\n      add\n        /* \"TradeContract.sol\":1883:1928  orders[nextOrderId].tokenAmount= _tokenAmount */\n      dup2\n      swap1\n      sstore\n      pop\n        /* \"TradeContract.sol\":1973:1987  _tokenContract */\n      dup1\n        /* \"TradeContract.sol\":1938:1944  orders */\n      0x01\n        /* \"TradeContract.sol\":1938:1957  orders[nextOrderId] */\n      0x00\n        /* \"TradeContract.sol\":1945:1956  nextOrderId */\n      sload(0x02)\n        /* \"TradeContract.sol\":1938:1957  orders[nextOrderId] */\n      dup2\n      mstore\n      0x20\n      add\n      swap1\n      dup2\n      mstore\n      0x20\n      add\n      0x00\n      keccak256\n        /* \"TradeContract.sol\":1938:1971  orders[nextOrderId].tokenContract */\n      0x03\n      add\n      0x00\n        /* \"TradeContract.sol\":1938:1987  orders[nextOrderId].tokenContract= _tokenContract */\n      0x0100\n      exp\n      dup2\n      sload\n      dup2\n      0xffffffffffffffffffffffffffffffffffffffff\n      mul\n      not\n      and\n      swap1\n      dup4\n      0xffffffffffffffffffffffffffffffffffffffff\n      and\n      mul\n      or\n      swap1\n      sstore\n      pop\n        /* \"TradeContract.sol\":2024:2042  OrderState.CREATED */\n      0x00\n        /* \"TradeContract.sol\":1997:2003  orders */\n      0x01\n        /* \"TradeContract.sol\":1997:2016  orders[nextOrderId] */\n      0x00\n        /* \"TradeContract.sol\":2004:2015  nextOrderId */\n      sload(0x02)\n        /* \"TradeContract.sol\":1997:2016  orders[nextOrderId] */\n      dup2\n      mstore\n      0x20\n      add\n      swap1\n      dup2\n      mstore\n      0x20\n      add\n      0x00\n      keccak256\n        /* \"TradeContract.sol\":1997:2022  orders[nextOrderId].state */\n      0x03\n      add\n      0x14\n        /* \"TradeContract.sol\":1997:2042  orders[nextOrderId].state= OrderState.CREATED */\n      0x0100\n      exp\n      dup2\n      sload\n      dup2\n      0xff\n      mul\n      not\n      and\n      swap1\n      dup4\n      0x02\n      dup2\n      gt\n      iszero\n      tag_61\n      jumpi\n      tag_62\n      tag_63\n      jump\t// in\n    tag_62:\n    tag_61:\n      mul\n      or\n      swap1\n      sstore\n      pop\n        /* \"TradeContract.sol\":2058:2125  OrderCreated(nextOrderId, msg.sender, _tokenAmount, _tokenContract) */\n      0xbdff0cf754bd4e2ee390fda990f59e49114328e6b402c87ac12d06ed2bb7170f\n        /* \"TradeContract.sol\":2071:2082  nextOrderId */\n      sload(0x02)\n        /* \"TradeContract.sol\":2084:2094  msg.sender */\n      caller\n        /* \"TradeContract.sol\":2096:2108  _tokenAmount */\n      dup5\n        /* \"TradeContract.sol\":2110:2124  _tokenContract */\n      dup5\n        /* \"TradeContract.sol\":2058:2125  OrderCreated(nextOrderId, msg.sender, _tokenAmount, _tokenContract) */\n      mload(0x40)\n      tag_64\n      swap5\n      swap4\n      swap3\n      swap2\n      swap1\n      tag_65\n      jump\t// in\n    tag_64:\n      mload(0x40)\n      dup1\n      swap2\n      sub\n      swap1\n      log1\n        /* \"TradeContract.sol\":1511:2132  function createOrder(uint256 _tokenAmount, address _tokenContract) external {... */\n      pop\n      pop\n      jump\t// out\n        /* \"TradeContract.sol\":665:691  uint256 public nextOrderId */\n    tag_19:\n      sload(0x02)\n      dup2\n      jump\t// out\n        /* \"TradeContract.sol\":3579:3853  function cancelOrder(uint256 orderId) external onlyOwner orderExists(orderId) {... */\n    tag_25:\n        /* \"@openzeppelin/contracts/access/Ownable.sol\":1530:1543  _checkOwner() */\n      tag_67\n        /* \"@openzeppelin/contracts/access/Ownable.sol\":1530:1541  _checkOwner */\n      tag_68\n        /* \"@openzeppelin/contracts/access/Ownable.sol\":1530:1543  _checkOwner() */\n      jump\t// in\n    tag_67:\n        /* \"TradeContract.sol\":3648:3655  orderId */\n      dup1\n        /* \"TradeContract.sol\":1461:1462  0 */\n      0x00\n        /* \"TradeContract.sol\":1434:1440  orders */\n      0x01\n        /* \"TradeContract.sol\":1434:1449  orders[orderId] */\n      0x00\n        /* \"TradeContract.sol\":1441:1448  orderId */\n      dup4\n        /* \"TradeContract.sol\":1434:1449  orders[orderId] */\n      dup2\n      mstore\n      0x20\n      add\n      swap1\n      dup2\n      mstore\n      0x20\n      add\n      0x00\n      keccak256\n        /* \"TradeContract.sol\":1434:1457  orders[orderId].orderId */\n      0x00\n      add\n      sload\n        /* \"TradeContract.sol\":1434:1462  orders[orderId].orderId != 0 */\n      sub\n        /* \"TradeContract.sol\":1426:1487  require(orders[orderId].orderId != 0, \"Order does not exist\") */\n      tag_70\n      jumpi\n      mload(0x40)\n      0x08c379a000000000000000000000000000000000000000000000000000000000\n      dup2\n      mstore\n      0x04\n      add\n      tag_71\n      swap1\n      tag_72\n      jump\t// in\n    tag_71:\n      mload(0x40)\n      dup1\n      swap2\n      sub\n      swap1\n      revert\n    tag_70:\n        /* \"TradeContract.sol\":3700:3718  OrderState.CREATED */\n      0x00\n        /* \"TradeContract.sol\":3675:3718  orders[orderId].state == OrderState.CREATED */\n      0x02\n      dup2\n      gt\n      iszero\n      tag_74\n      jumpi\n      tag_75\n      tag_63\n      jump\t// in\n    tag_75:\n    tag_74:\n        /* \"TradeContract.sol\":3675:3681  orders */\n      0x01\n        /* \"TradeContract.sol\":3675:3690  orders[orderId] */\n      0x00\n        /* \"TradeContract.sol\":3682:3689  orderId */\n      dup5\n        /* \"TradeContract.sol\":3675:3690  orders[orderId] */\n      dup2\n      mstore\n      0x20\n      add\n      swap1\n      dup2\n      mstore\n      0x20\n      add\n      0x00\n      keccak256\n        /* \"TradeContract.sol\":3675:3696  orders[orderId].state */\n      0x03\n      add\n      0x14\n      swap1\n      sload\n      swap1\n      0x0100\n      exp\n      swap1\n      div\n      0xff\n      and\n        /* \"TradeContract.sol\":3675:3718  orders[orderId].state == OrderState.CREATED */\n      0x02\n      dup2\n      gt\n      iszero\n      tag_76\n      jumpi\n      tag_77\n      tag_63\n      jump\t// in\n    tag_77:\n    tag_76:\n      eq\n        /* \"TradeContract.sol\":3667:3752  require(orders[orderId].state == OrderState.CREATED, \"Order is not in CREATED state\") */\n      tag_78\n      jumpi\n      mload(0x40)\n      0x08c379a000000000000000000000000000000000000000000000000000000000\n      dup2\n      mstore\n      0x04\n      add\n      tag_79\n      swap1\n      tag_80\n      jump\t// in\n    tag_79:\n      mload(0x40)\n      dup1\n      swap2\n      sub\n      swap1\n      revert\n    tag_78:\n        /* \"TradeContract.sol\":3787:3807  OrderState.CANCELLED */\n      0x02\n        /* \"TradeContract.sol\":3763:3769  orders */\n      0x01\n        /* \"TradeContract.sol\":3763:3778  orders[orderId] */\n      0x00\n        /* \"TradeContract.sol\":3770:3777  orderId */\n      dup5\n        /* \"TradeContract.sol\":3763:3778  orders[orderId] */\n      dup2\n      mstore\n      0x20\n      add\n      swap1\n      dup2\n      mstore\n      0x20\n      add\n      0x00\n      keccak256\n        /* \"TradeContract.sol\":3763:3784  orders[orderId].state */\n      0x03\n      add\n      0x14\n        /* \"TradeContract.sol\":3763:3807  orders[orderId].state = OrderState.CANCELLED */\n      0x0100\n      exp\n      dup2\n      sload\n      dup2\n      0xff\n      mul\n      not\n      and\n      swap1\n      dup4\n      0x02\n      dup2\n      gt\n      iszero\n      tag_81\n      jumpi\n      tag_82\n      tag_63\n      jump\t// in\n    tag_82:\n    tag_81:\n      mul\n      or\n      swap1\n      sstore\n      pop\n        /* \"TradeContract.sol\":3823:3846  OrderCancelled(orderId) */\n      0x61b9399f2f0f32ca39ce8d7be32caed5ec22fe07a6daba3a467ed479ec606582\n        /* \"TradeContract.sol\":3838:3845  orderId */\n      dup3\n        /* \"TradeContract.sol\":3823:3846  OrderCancelled(orderId) */\n      mload(0x40)\n      tag_83\n      swap2\n      swap1\n      tag_21\n      jump\t// in\n    tag_83:\n      mload(0x40)\n      dup1\n      swap2\n      sub\n      swap1\n      log1\n        /* \"@openzeppelin/contracts/access/Ownable.sol\":1553:1554  _ */\n      pop\n        /* \"TradeContract.sol\":3579:3853  function cancelOrder(uint256 orderId) external onlyOwner orderExists(orderId) {... */\n      pop\n      jump\t// out\n        /* \"TradeContract.sol\":2139:2767  function registerBuyer(uint256 orderId, uint256 randomNumber) external {... */\n    tag_29:\n        /* \"TradeContract.sol\":2253:2271  OrderState.CREATED */\n      0x00\n        /* \"TradeContract.sol\":2228:2271  orders[orderId].state == OrderState.CREATED */\n      0x02\n      dup2\n      gt\n      iszero\n      tag_85\n      jumpi\n      tag_86\n      tag_63\n      jump\t// in\n    tag_86:\n    tag_85:\n        /* \"TradeContract.sol\":2228:2234  orders */\n      0x01\n        /* \"TradeContract.sol\":2228:2243  orders[orderId] */\n      0x00\n        /* \"TradeContract.sol\":2235:2242  orderId */\n      dup5\n        /* \"TradeContract.sol\":2228:2243  orders[orderId] */\n      dup2\n      mstore\n      0x20\n      add\n      swap1\n      dup2\n      mstore\n      0x20\n      add\n      0x00\n      keccak256\n        /* \"TradeContract.sol\":2228:2249  orders[orderId].state */\n      0x03\n      add\n      0x14\n      swap1\n      sload\n      swap1\n      0x0100\n      exp\n      swap1\n      div\n      0xff\n      and\n        /* \"TradeContract.sol\":2228:2271  orders[orderId].state == OrderState.CREATED */\n      0x02\n      dup2\n      gt\n      iszero\n      tag_87\n      jumpi\n      tag_88\n      tag_63\n      jump\t// in\n    tag_88:\n    tag_87:\n      eq\n        /* \"TradeContract.sol\":2220:2305  require(orders[orderId].state == OrderState.CREATED, \"Order is not in CREATED state\") */\n      tag_89\n      jumpi\n      mload(0x40)\n      0x08c379a000000000000000000000000000000000000000000000000000000000\n      dup2\n      mstore\n      0x04\n      add\n      tag_90\n      swap1\n      tag_80\n      jump\t// in\n    tag_90:\n      mload(0x40)\n      dup1\n      swap2\n      sub\n      swap1\n      revert\n    tag_89:\n        /* \"TradeContract.sol\":2324:2330  orders */\n      0x01\n        /* \"TradeContract.sol\":2324:2339  orders[orderId] */\n      0x00\n        /* \"TradeContract.sol\":2331:2338  orderId */\n      dup4\n        /* \"TradeContract.sol\":2324:2339  orders[orderId] */\n      dup2\n      mstore\n      0x20\n      add\n      swap1\n      dup2\n      mstore\n      0x20\n      add\n      0x00\n      keccak256\n        /* \"TradeContract.sol\":2324:2356  orders[orderId].registeredBuyers */\n      0x04\n      add\n        /* \"TradeContract.sol\":2324:2368  orders[orderId].registeredBuyers[msg.sender] */\n      0x00\n        /* \"TradeContract.sol\":2357:2367  msg.sender */\n      caller\n        /* \"TradeContract.sol\":2324:2368  orders[orderId].registeredBuyers[msg.sender] */\n      0xffffffffffffffffffffffffffffffffffffffff\n      and\n      0xffffffffffffffffffffffffffffffffffffffff\n      and\n      dup2\n      mstore\n      0x20\n      add\n      swap1\n      dup2\n      mstore\n      0x20\n      add\n      0x00\n      keccak256\n      0x00\n      swap1\n      sload\n      swap1\n      0x0100\n      exp\n      swap1\n      div\n      0xff\n      and\n        /* \"TradeContract.sol\":2323:2368  !orders[orderId].registeredBuyers[msg.sender] */\n      iszero\n        /* \"TradeContract.sol\":2315:2397  require(!orders[orderId].registeredBuyers[msg.sender], \"Buyer already registered\") */\n      tag_91\n      jumpi\n      mload(0x40)\n      0x08c379a000000000000000000000000000000000000000000000000000000000\n      dup2\n      mstore\n      0x04\n      add\n      tag_92\n      swap1\n      tag_93\n      jump\t// in\n    tag_92:\n      mload(0x40)\n      dup1\n      swap2\n      sub\n      swap1\n      revert\n    tag_91:\n        /* \"TradeContract.sol\":2431:2432  0 */\n      0x00\n        /* \"TradeContract.sol\":2415:2427  randomNumber */\n      dup2\n        /* \"TradeContract.sol\":2415:2432  randomNumber != 0 */\n      sub\n        /* \"TradeContract.sol\":2407:2465  require(randomNumber != 0, \"Random number cannot be zero\") */\n      tag_94\n      jumpi\n      mload(0x40)\n      0x08c379a000000000000000000000000000000000000000000000000000000000\n      dup2\n      mstore\n      0x04\n      add\n      tag_95\n      swap1\n      tag_96\n      jump\t// in\n    tag_95:\n      mload(0x40)\n      dup1\n      swap2\n      sub\n      swap1\n      revert\n    tag_94:\n        /* \"TradeContract.sol\":2476:2488  bytes32 hash */\n      0x00\n        /* \"TradeContract.sol\":2518:2525  orderId */\n      dup3\n        /* \"TradeContract.sol\":2527:2537  msg.sender */\n      caller\n        /* \"TradeContract.sol\":2539:2551  randomNumber */\n      dup4\n        /* \"TradeContract.sol\":2501:2552  abi.encodePacked(orderId, msg.sender, randomNumber) */\n      add(0x20, mload(0x40))\n      tag_97\n      swap4\n      swap3\n      swap2\n      swap1\n      tag_98\n      jump\t// in\n    tag_97:\n      mload(0x40)\n      0x20\n      dup2\n      dup4\n      sub\n      sub\n      dup2\n      mstore\n      swap1\n      0x40\n      mstore\n        /* \"TradeContract.sol\":2491:2553  keccak256(abi.encodePacked(orderId, msg.sender, randomNumber)) */\n      dup1\n      mload\n      swap1\n      0x20\n      add\n      keccak256\n        /* \"TradeContract.sol\":2476:2553  bytes32 hash = keccak256(abi.encodePacked(orderId, msg.sender, randomNumber)) */\n      swap1\n      pop\n        /* \"TradeContract.sol\":2572:2578  orders */\n      0x01\n        /* \"TradeContract.sol\":2572:2587  orders[orderId] */\n      0x00\n        /* \"TradeContract.sol\":2579:2586  orderId */\n      dup5\n        /* \"TradeContract.sol\":2572:2587  orders[orderId] */\n      dup2\n      mstore\n      0x20\n      add\n      swap1\n      dup2\n      mstore\n      0x20\n      add\n      0x00\n      keccak256\n        /* \"TradeContract.sol\":2572:2605  orders[orderId].usedRandomNumbers */\n      0x05\n      add\n        /* \"TradeContract.sol\":2572:2611  orders[orderId].usedRandomNumbers[hash] */\n      0x00\n        /* \"TradeContract.sol\":2606:2610  hash */\n      dup3\n        /* \"TradeContract.sol\":2572:2611  orders[orderId].usedRandomNumbers[hash] */\n      dup2\n      mstore\n      0x20\n      add\n      swap1\n      dup2\n      mstore\n      0x20\n      add\n      0x00\n      keccak256\n      0x00\n      swap1\n      sload\n      swap1\n      0x0100\n      exp\n      swap1\n      div\n      0xff\n      and\n        /* \"TradeContract.sol\":2571:2611  !orders[orderId].usedRandomNumbers[hash] */\n      iszero\n        /* \"TradeContract.sol\":2563:2642  require(!orders[orderId].usedRandomNumbers[hash], \"Random number already used\") */\n      tag_99\n      jumpi\n      mload(0x40)\n      0x08c379a000000000000000000000000000000000000000000000000000000000\n      dup2\n      mstore\n      0x04\n      add\n      tag_100\n      swap1\n      tag_101\n      jump\t// in\n    tag_100:\n      mload(0x40)\n      dup1\n      swap2\n      sub\n      swap1\n      revert\n    tag_99:\n        /* \"TradeContract.sol\":2700:2704  true */\n      0x01\n        /* \"TradeContract.sol\":2653:2659  orders */\n      dup1\n        /* \"TradeContract.sol\":2653:2668  orders[orderId] */\n      0x00\n        /* \"TradeContract.sol\":2660:2667  orderId */\n      dup6\n        /* \"TradeContract.sol\":2653:2668  orders[orderId] */\n      dup2\n      mstore\n      0x20\n      add\n      swap1\n      dup2\n      mstore\n      0x20\n      add\n      0x00\n      keccak256\n        /* \"TradeContract.sol\":2653:2685  orders[orderId].registeredBuyers */\n      0x04\n      add\n        /* \"TradeContract.sol\":2653:2697  orders[orderId].registeredBuyers[msg.sender] */\n      0x00\n        /* \"TradeContract.sol\":2686:2696  msg.sender */\n      caller\n        /* \"TradeContract.sol\":2653:2697  orders[orderId].registeredBuyers[msg.sender] */\n      0xffffffffffffffffffffffffffffffffffffffff\n      and\n      0xffffffffffffffffffffffffffffffffffffffff\n      and\n      dup2\n      mstore\n      0x20\n      add\n      swap1\n      dup2\n      mstore\n      0x20\n      add\n      0x00\n      keccak256\n      0x00\n        /* \"TradeContract.sol\":2653:2704  orders[orderId].registeredBuyers[msg.sender] = true */\n      0x0100\n      exp\n      dup2\n      sload\n      dup2\n      0xff\n      mul\n      not\n      and\n      swap1\n      dup4\n      iszero\n      iszero\n      mul\n      or\n      swap1\n      sstore\n      pop\n        /* \"TradeContract.sol\":2756:2760  true */\n      0x01\n        /* \"TradeContract.sol\":2714:2720  orders */\n      dup1\n        /* \"TradeContract.sol\":2714:2729  orders[orderId] */\n      0x00\n        /* \"TradeContract.sol\":2721:2728  orderId */\n      dup6\n        /* \"TradeContract.sol\":2714:2729  orders[orderId] */\n      dup2\n      mstore\n      0x20\n      add\n      swap1\n      dup2\n      mstore\n      0x20\n      add\n      0x00\n      keccak256\n        /* \"TradeContract.sol\":2714:2747  orders[orderId].usedRandomNumbers */\n      0x05\n      add\n        /* \"TradeContract.sol\":2714:2753  orders[orderId].usedRandomNumbers[hash] */\n      0x00\n        /* \"TradeContract.sol\":2748:2752  hash */\n      dup4\n        /* \"TradeContract.sol\":2714:2753  orders[orderId].usedRandomNumbers[hash] */\n      dup2\n      mstore\n      0x20\n      add\n      swap1\n      dup2\n      mstore\n      0x20\n      add\n      0x00\n      keccak256\n      0x00\n        /* \"TradeContract.sol\":2714:2760  orders[orderId].usedRandomNumbers[hash] = true */\n      0x0100\n      exp\n      dup2\n      sload\n      dup2\n      0xff\n      mul\n      not\n      and\n      swap1\n      dup4\n      iszero\n      iszero\n      mul\n      or\n      swap1\n      sstore\n      pop\n        /* \"TradeContract.sol\":2210:2767  {... */\n      pop\n        /* \"TradeContract.sol\":2139:2767  function registerBuyer(uint256 orderId, uint256 randomNumber) external {... */\n      pop\n      pop\n      jump\t// out\n        /* \"@openzeppelin/contracts/access/Ownable.sol\":2292:2393  function renounceOwnership() public virtual onlyOwner {... */\n    tag_31:\n        /* \"@openzeppelin/contracts/access/Ownable.sol\":1530:1543  _checkOwner() */\n      tag_103\n        /* \"@openzeppelin/contracts/access/Ownable.sol\":1530:1541  _checkOwner */\n      tag_68\n        /* \"@openzeppelin/contracts/access/Ownable.sol\":1530:1543  _checkOwner() */\n      jump\t// in\n    tag_103:\n        /* \"@openzeppelin/contracts/access/Ownable.sol\":2356:2386  _transferOwnership(address(0)) */\n      tag_105\n        /* \"@openzeppelin/contracts/access/Ownable.sol\":2383:2384  0 */\n      0x00\n        /* \"@openzeppelin/contracts/access/Ownable.sol\":2356:2374  _transferOwnership */\n      tag_106\n        /* \"@openzeppelin/contracts/access/Ownable.sol\":2356:2386  _transferOwnership(address(0)) */\n      jump\t// in\n    tag_105:\n        /* \"@openzeppelin/contracts/access/Ownable.sol\":2292:2393  function renounceOwnership() public virtual onlyOwner {... */\n      jump\t// out\n        /* \"@openzeppelin/contracts/access/Ownable.sol\":1637:1722  function owner() public view virtual returns (address) {... */\n    tag_33:\n        /* \"@openzeppelin/contracts/access/Ownable.sol\":1683:1690  address */\n      0x00\n        /* \"@openzeppelin/contracts/access/Ownable.sol\":1709:1715  _owner */\n      dup1\n      0x00\n      swap1\n      sload\n      swap1\n      0x0100\n      exp\n      swap1\n      div\n      0xffffffffffffffffffffffffffffffffffffffff\n      and\n        /* \"@openzeppelin/contracts/access/Ownable.sol\":1702:1715  return _owner */\n      swap1\n      pop\n        /* \"@openzeppelin/contracts/access/Ownable.sol\":1637:1722  function owner() public view virtual returns (address) {... */\n      swap1\n      jump\t// out\n        /* \"TradeContract.sol\":620:659  mapping(uint256 => Order) public orders */\n    tag_38:\n      mstore(0x20, 0x01)\n      dup1\n      0x00\n      mstore\n      keccak256(0x00, 0x40)\n      0x00\n      swap2\n      pop\n      swap1\n      pop\n      dup1\n      0x00\n      add\n      sload\n      swap1\n      dup1\n      0x01\n      add\n      0x00\n      swap1\n      sload\n      swap1\n      0x0100\n      exp\n      swap1\n      div\n      0xffffffffffffffffffffffffffffffffffffffff\n      and\n      swap1\n      dup1\n      0x02\n      add\n      sload\n      swap1\n      dup1\n      0x03\n      add\n      0x00\n      swap1\n      sload\n      swap1\n      0x0100\n      exp\n      swap1\n      div\n      0xffffffffffffffffffffffffffffffffffffffff\n      and\n      swap1\n      dup1\n      0x03\n      add\n      0x14\n      swap1\n      sload\n      swap1\n      0x0100\n      exp\n      swap1\n      div\n      0xff\n      and\n      swap1\n      pop\n      dup6\n      jump\t// out\n        /* \"TradeContract.sol\":2773:3573  function completeOrder(uint256 orderId, uint256 chosenRandomNumber,address buyer) external onlyBuyer(orderId) {... */\n    tag_44:\n        /* \"TradeContract.sol\":2874:2881  orderId */\n      dup3\n        /* \"TradeContract.sol\":1270:1276  orders */\n      0x01\n        /* \"TradeContract.sol\":1270:1285  orders[orderId] */\n      0x00\n        /* \"TradeContract.sol\":1277:1284  orderId */\n      dup3\n        /* \"TradeContract.sol\":1270:1285  orders[orderId] */\n      dup2\n      mstore\n      0x20\n      add\n      swap1\n      dup2\n      mstore\n      0x20\n      add\n      0x00\n      keccak256\n        /* \"TradeContract.sol\":1270:1302  orders[orderId].registeredBuyers */\n      0x04\n      add\n        /* \"TradeContract.sol\":1270:1314  orders[orderId].registeredBuyers[msg.sender] */\n      0x00\n        /* \"TradeContract.sol\":1303:1313  msg.sender */\n      caller\n        /* \"TradeContract.sol\":1270:1314  orders[orderId].registeredBuyers[msg.sender] */\n      0xffffffffffffffffffffffffffffffffffffffff\n      and\n      0xffffffffffffffffffffffffffffffffffffffff\n      and\n      dup2\n      mstore\n      0x20\n      add\n      swap1\n      dup2\n      mstore\n      0x20\n      add\n      0x00\n      keccak256\n      0x00\n      swap1\n      sload\n      swap1\n      0x0100\n      exp\n      swap1\n      div\n      0xff\n      and\n        /* \"TradeContract.sol\":1262:1354  require(orders[orderId].registeredBuyers[msg.sender], \"Only registered buyer can call this\") */\n      tag_109\n      jumpi\n      mload(0x40)\n      0x08c379a000000000000000000000000000000000000000000000000000000000\n      dup2\n      mstore\n      0x04\n      add\n      tag_110\n      swap1\n      tag_111\n      jump\t// in\n    tag_110:\n      mload(0x40)\n      dup1\n      swap2\n      sub\n      swap1\n      revert\n    tag_109:\n        /* \"TradeContract.sol\":2926:2944  OrderState.CREATED */\n      0x00\n        /* \"TradeContract.sol\":2901:2944  orders[orderId].state == OrderState.CREATED */\n      0x02\n      dup2\n      gt\n      iszero\n      tag_113\n      jumpi\n      tag_114\n      tag_63\n      jump\t// in\n    tag_114:\n    tag_113:\n        /* \"TradeContract.sol\":2901:2907  orders */\n      0x01\n        /* \"TradeContract.sol\":2901:2916  orders[orderId] */\n      0x00\n        /* \"TradeContract.sol\":2908:2915  orderId */\n      dup7\n        /* \"TradeContract.sol\":2901:2916  orders[orderId] */\n      dup2\n      mstore\n      0x20\n      add\n      swap1\n      dup2\n      mstore\n      0x20\n      add\n      0x00\n      keccak256\n        /* \"TradeContract.sol\":2901:2922  orders[orderId].state */\n      0x03\n      add\n      0x14\n      swap1\n      sload\n      swap1\n      0x0100\n      exp\n      swap1\n      div\n      0xff\n      and\n        /* \"TradeContract.sol\":2901:2944  orders[orderId].state == OrderState.CREATED */\n      0x02\n      dup2\n      gt\n      iszero\n      tag_115\n      jumpi\n      tag_116\n      tag_63\n      jump\t// in\n    tag_116:\n    tag_115:\n      eq\n        /* \"TradeContract.sol\":2893:2978  require(orders[orderId].state == OrderState.CREATED, \"Order is not in CREATED state\") */\n      tag_117\n      jumpi\n      mload(0x40)\n      0x08c379a000000000000000000000000000000000000000000000000000000000\n      dup2\n      mstore\n      0x04\n      add\n      tag_118\n      swap1\n      tag_80\n      jump\t// in\n    tag_118:\n      mload(0x40)\n      dup1\n      swap2\n      sub\n      swap1\n      revert\n    tag_117:\n        /* \"TradeContract.sol\":2989:3001  bytes32 hash */\n      0x00\n        /* \"TradeContract.sol\":3031:3038  orderId */\n      dup5\n        /* \"TradeContract.sol\":3040:3045  buyer */\n      dup4\n        /* \"TradeContract.sol\":3047:3065  chosenRandomNumber */\n      dup6\n        /* \"TradeContract.sol\":3014:3066  abi.encodePacked(orderId, buyer, chosenRandomNumber) */\n      add(0x20, mload(0x40))\n      tag_119\n      swap4\n      swap3\n      swap2\n      swap1\n      tag_98\n      jump\t// in\n    tag_119:\n      mload(0x40)\n      0x20\n      dup2\n      dup4\n      sub\n      sub\n      dup2\n      mstore\n      swap1\n      0x40\n      mstore\n        /* \"TradeContract.sol\":3004:3067  keccak256(abi.encodePacked(orderId, buyer, chosenRandomNumber)) */\n      dup1\n      mload\n      swap1\n      0x20\n      add\n      keccak256\n        /* \"TradeContract.sol\":2989:3067  bytes32 hash = keccak256(abi.encodePacked(orderId, buyer, chosenRandomNumber)) */\n      swap1\n      pop\n        /* \"TradeContract.sol\":3085:3091  orders */\n      0x01\n        /* \"TradeContract.sol\":3085:3100  orders[orderId] */\n      0x00\n        /* \"TradeContract.sol\":3092:3099  orderId */\n      dup7\n        /* \"TradeContract.sol\":3085:3100  orders[orderId] */\n      dup2\n      mstore\n      0x20\n      add\n      swap1\n      dup2\n      mstore\n      0x20\n      add\n      0x00\n      keccak256\n        /* \"TradeContract.sol\":3085:3118  orders[orderId].usedRandomNumbers */\n      0x05\n      add\n        /* \"TradeContract.sol\":3085:3124  orders[orderId].usedRandomNumbers[hash] */\n      0x00\n        /* \"TradeContract.sol\":3119:3123  hash */\n      dup3\n        /* \"TradeContract.sol\":3085:3124  orders[orderId].usedRandomNumbers[hash] */\n      dup2\n      mstore\n      0x20\n      add\n      swap1\n      dup2\n      mstore\n      0x20\n      add\n      0x00\n      keccak256\n      0x00\n      swap1\n      sload\n      swap1\n      0x0100\n      exp\n      swap1\n      div\n      0xff\n      and\n        /* \"TradeContract.sol\":3077:3150  require(orders[orderId].usedRandomNumbers[hash], \"Invalid random number\") */\n      tag_120\n      jumpi\n      mload(0x40)\n      0x08c379a000000000000000000000000000000000000000000000000000000000\n      dup2\n      mstore\n      0x04\n      add\n      tag_121\n      swap1\n      tag_122\n      jump\t// in\n    tag_121:\n      mload(0x40)\n      dup1\n      swap2\n      sub\n      swap1\n      revert\n    tag_120:\n        /* \"TradeContract.sol\":3185:3205  OrderState.COMPLETED */\n      0x01\n        /* \"TradeContract.sol\":3161:3167  orders */\n      dup1\n        /* \"TradeContract.sol\":3161:3176  orders[orderId] */\n      0x00\n        /* \"TradeContract.sol\":3168:3175  orderId */\n      dup8\n        /* \"TradeContract.sol\":3161:3176  orders[orderId] */\n      dup2\n      mstore\n      0x20\n      add\n      swap1\n      dup2\n      mstore\n      0x20\n      add\n      0x00\n      keccak256\n        /* \"TradeContract.sol\":3161:3182  orders[orderId].state */\n      0x03\n      add\n      0x14\n        /* \"TradeContract.sol\":3161:3205  orders[orderId].state = OrderState.COMPLETED */\n      0x0100\n      exp\n      dup2\n      sload\n      dup2\n      0xff\n      mul\n      not\n      and\n      swap1\n      dup4\n      0x02\n      dup2\n      gt\n      iszero\n      tag_123\n      jumpi\n      tag_124\n      tag_63\n      jump\t// in\n    tag_124:\n    tag_123:\n      mul\n      or\n      swap1\n      sstore\n      pop\n        /* \"TradeContract.sol\":3216:3229  IERC20 _token */\n      0x00\n        /* \"TradeContract.sol\":3239:3245  orders */\n      0x01\n        /* \"TradeContract.sol\":3239:3254  orders[orderId] */\n      0x00\n        /* \"TradeContract.sol\":3246:3253  orderId */\n      dup8\n        /* \"TradeContract.sol\":3239:3254  orders[orderId] */\n      dup2\n      mstore\n      0x20\n      add\n      swap1\n      dup2\n      mstore\n      0x20\n      add\n      0x00\n      keccak256\n        /* \"TradeContract.sol\":3239:3268  orders[orderId].tokenContract */\n      0x03\n      add\n      0x00\n      swap1\n      sload\n      swap1\n      0x0100\n      exp\n      swap1\n      div\n      0xffffffffffffffffffffffffffffffffffffffff\n      and\n        /* \"TradeContract.sol\":3216:3269  IERC20 _token = IERC20(orders[orderId].tokenContract) */\n      swap1\n      pop\n        /* \"TradeContract.sol\":3279:3285  _token */\n      dup1\n        /* \"TradeContract.sol\":3279:3294  _token.transfer */\n      0xffffffffffffffffffffffffffffffffffffffff\n      and\n      0xa9059cbb\n        /* \"TradeContract.sol\":3295:3300  buyer */\n      dup6\n        /* \"TradeContract.sol\":3302:3308  orders */\n      0x01\n        /* \"TradeContract.sol\":3302:3317  orders[orderId] */\n      0x00\n        /* \"TradeContract.sol\":3309:3316  orderId */\n      dup11\n        /* \"TradeContract.sol\":3302:3317  orders[orderId] */\n      dup2\n      mstore\n      0x20\n      add\n      swap1\n      dup2\n      mstore\n      0x20\n      add\n      0x00\n      keccak256\n        /* \"TradeContract.sol\":3302:3329  orders[orderId].tokenAmount */\n      0x02\n      add\n      sload\n        /* \"TradeContract.sol\":3279:3330  _token.transfer(buyer, orders[orderId].tokenAmount) */\n      mload(0x40)\n      dup4\n      0xffffffff\n      and\n      0xe0\n      shl\n      dup2\n      mstore\n      0x04\n      add\n      tag_125\n      swap3\n      swap2\n      swap1\n      tag_126\n      jump\t// in\n    tag_125:\n      0x20\n      mload(0x40)\n      dup1\n      dup4\n      sub\n      dup2\n      0x00\n      dup8\n      gas\n      call\n      iszero\n      dup1\n      iszero\n      tag_128\n      jumpi\n      returndatasize\n      0x00\n      dup1\n      returndatacopy\n      revert(0x00, returndatasize)\n    tag_128:\n      pop\n      pop\n      pop\n      pop\n      mload(0x40)\n      returndatasize\n      not(0x1f)\n      0x1f\n      dup3\n      add\n      and\n      dup3\n      add\n      dup1\n      0x40\n      mstore\n      pop\n      dup2\n      add\n      swap1\n      tag_129\n      swap2\n      swap1\n      tag_130\n      jump\t// in\n    tag_129:\n      pop\n        /* \"TradeContract.sol\":3480:3566  OrderCompleted(msg.sender, orders[orderId].tokenAmount, orders[orderId].tokenContract) */\n      0x74521722fc86dc8b2bda041d06bd7a9029ef72153c049c301a329c8ce6fbdeef\n        /* \"TradeContract.sol\":3495:3505  msg.sender */\n      caller\n        /* \"TradeContract.sol\":3507:3513  orders */\n      0x01\n        /* \"TradeContract.sol\":3507:3522  orders[orderId] */\n      0x00\n        /* \"TradeContract.sol\":3514:3521  orderId */\n      dup10\n        /* \"TradeContract.sol\":3507:3522  orders[orderId] */\n      dup2\n      mstore\n      0x20\n      add\n      swap1\n      dup2\n      mstore\n      0x20\n      add\n      0x00\n      keccak256\n        /* \"TradeContract.sol\":3507:3534  orders[orderId].tokenAmount */\n      0x02\n      add\n      sload\n        /* \"TradeContract.sol\":3536:3542  orders */\n      0x01\n        /* \"TradeContract.sol\":3536:3551  orders[orderId] */\n      0x00\n        /* \"TradeContract.sol\":3543:3550  orderId */\n      dup11\n        /* \"TradeContract.sol\":3536:3551  orders[orderId] */\n      dup2\n      mstore\n      0x20\n      add\n      swap1\n      dup2\n      mstore\n      0x20\n      add\n      0x00\n      keccak256\n        /* \"TradeContract.sol\":3536:3565  orders[orderId].tokenContract */\n      0x03\n      add\n      0x00\n      swap1\n      sload\n      swap1\n      0x0100\n      exp\n      swap1\n      div\n      0xffffffffffffffffffffffffffffffffffffffff\n      and\n        /* \"TradeContract.sol\":3480:3566  OrderCompleted(msg.sender, orders[orderId].tokenAmount, orders[orderId].tokenContract) */\n      mload(0x40)\n      tag_131\n      swap4\n      swap3\n      swap2\n      swap1\n      tag_132\n      jump\t// in\n    tag_131:\n      mload(0x40)\n      dup1\n      swap2\n      sub\n      swap1\n      log1\n        /* \"TradeContract.sol\":2883:3573  {... */\n      pop\n      pop\n        /* \"TradeContract.sol\":2773:3573  function completeOrder(uint256 orderId, uint256 chosenRandomNumber,address buyer) external onlyBuyer(orderId) {... */\n      pop\n      pop\n      pop\n      pop\n      jump\t// out\n        /* \"TradeContract.sol\":3859:4136  function getOrderDetails(uint256 orderId) external  {... */\n    tag_47:\n        /* \"TradeContract.sol\":3941:3952  nextOrderId */\n      sload(0x02)\n        /* \"TradeContract.sol\":3930:3937  orderId */\n      dup2\n        /* \"TradeContract.sol\":3930:3952  orderId <= nextOrderId */\n      gt\n      iszero\n        /* \"TradeContract.sol\":3922:3973  require(orderId <= nextOrderId, \"Invalid order ID\") */\n      tag_134\n      jumpi\n      mload(0x40)\n      0x08c379a000000000000000000000000000000000000000000000000000000000\n      dup2\n      mstore\n      0x04\n      add\n      tag_135\n      swap1\n      tag_136\n      jump\t// in\n    tag_135:\n      mload(0x40)\n      dup1\n      swap2\n      sub\n      swap1\n      revert\n    tag_134:\n        /* \"TradeContract.sol\":3989:4129  OrderDetails(orders[orderId].orderId,orders[orderId].seller,orders[orderId].tokenAmount,orders[orderId].tokenContract,orders[orderId].state) */\n      0x6a24c897920de7c05188751b6bf1cf4ecdd4c93ef71dfe6042d4446cf3ee9399\n        /* \"TradeContract.sol\":4002:4008  orders */\n      0x01\n        /* \"TradeContract.sol\":4002:4017  orders[orderId] */\n      0x00\n        /* \"TradeContract.sol\":4009:4016  orderId */\n      dup4\n        /* \"TradeContract.sol\":4002:4017  orders[orderId] */\n      dup2\n      mstore\n      0x20\n      add\n      swap1\n      dup2\n      mstore\n      0x20\n      add\n      0x00\n      keccak256\n        /* \"TradeContract.sol\":4002:4025  orders[orderId].orderId */\n      0x00\n      add\n      sload\n        /* \"TradeContract.sol\":4026:4032  orders */\n      0x01\n        /* \"TradeContract.sol\":4026:4041  orders[orderId] */\n      0x00\n        /* \"TradeContract.sol\":4033:4040  orderId */\n      dup5\n        /* \"TradeContract.sol\":4026:4041  orders[orderId] */\n      dup2\n      mstore\n      0x20\n      add\n      swap1\n      dup2\n      mstore\n      0x20\n      add\n      0x00\n      keccak256\n        /* \"TradeContract.sol\":4026:4048  orders[orderId].seller */\n      0x01\n      add\n      0x00\n      swap1\n      sload\n      swap1\n      0x0100\n      exp\n      swap1\n      div\n      0xffffffffffffffffffffffffffffffffffffffff\n      and\n        /* \"TradeContract.sol\":4049:4055  orders */\n      0x01\n        /* \"TradeContract.sol\":4049:4064  orders[orderId] */\n      0x00\n        /* \"TradeContract.sol\":4056:4063  orderId */\n      dup6\n        /* \"TradeContract.sol\":4049:4064  orders[orderId] */\n      dup2\n      mstore\n      0x20\n      add\n      swap1\n      dup2\n      mstore\n      0x20\n      add\n      0x00\n      keccak256\n        /* \"TradeContract.sol\":4049:4076  orders[orderId].tokenAmount */\n      0x02\n      add\n      sload\n        /* \"TradeContract.sol\":4077:4083  orders */\n      0x01\n        /* \"TradeContract.sol\":4077:4092  orders[orderId] */\n      0x00\n        /* \"TradeContract.sol\":4084:4091  orderId */\n      dup7\n        /* \"TradeContract.sol\":4077:4092  orders[orderId] */\n      dup2\n      mstore\n      0x20\n      add\n      swap1\n      dup2\n      mstore\n      0x20\n      add\n      0x00\n      keccak256\n        /* \"TradeContract.sol\":4077:4106  orders[orderId].tokenContract */\n      0x03\n      add\n      0x00\n      swap1\n      sload\n      swap1\n      0x0100\n      exp\n      swap1\n      div\n      0xffffffffffffffffffffffffffffffffffffffff\n      and\n        /* \"TradeContract.sol\":4107:4113  orders */\n      0x01\n        /* \"TradeContract.sol\":4107:4122  orders[orderId] */\n      0x00\n        /* \"TradeContract.sol\":4114:4121  orderId */\n      dup8\n        /* \"TradeContract.sol\":4107:4122  orders[orderId] */\n      dup2\n      mstore\n      0x20\n      add\n      swap1\n      dup2\n      mstore\n      0x20\n      add\n      0x00\n      keccak256\n        /* \"TradeContract.sol\":4107:4128  orders[orderId].state */\n      0x03\n      add\n      0x14\n      swap1\n      sload\n      swap1\n      0x0100\n      exp\n      swap1\n      div\n      0xff\n      and\n        /* \"TradeContract.sol\":3989:4129  OrderDetails(orders[orderId].orderId,orders[orderId].seller,orders[orderId].tokenAmount,orders[orderId].tokenContract,orders[orderId].state) */\n      mload(0x40)\n      tag_137\n      swap6\n      swap5\n      swap4\n      swap3\n      swap2\n      swap1\n      tag_40\n      jump\t// in\n    tag_137:\n      mload(0x40)\n      dup1\n      swap2\n      sub\n      swap1\n      log1\n        /* \"TradeContract.sol\":3859:4136  function getOrderDetails(uint256 orderId) external  {... */\n      pop\n      jump\t// out\n        /* \"@openzeppelin/contracts/access/Ownable.sol\":2542:2757  function transferOwnership(address newOwner) public virtual onlyOwner {... */\n    tag_51:\n        /* \"@openzeppelin/contracts/access/Ownable.sol\":1530:1543  _checkOwner() */\n      tag_139\n        /* \"@openzeppelin/contracts/access/Ownable.sol\":1530:1541  _checkOwner */\n      tag_68\n        /* \"@openzeppelin/contracts/access/Ownable.sol\":1530:1543  _checkOwner() */\n      jump\t// in\n    tag_139:\n        /* \"@openzeppelin/contracts/access/Ownable.sol\":2646:2647  0 */\n      0x00\n        /* \"@openzeppelin/contracts/access/Ownable.sol\":2626:2648  newOwner == address(0) */\n      0xffffffffffffffffffffffffffffffffffffffff\n      and\n        /* \"@openzeppelin/contracts/access/Ownable.sol\":2626:2634  newOwner */\n      dup2\n        /* \"@openzeppelin/contracts/access/Ownable.sol\":2626:2648  newOwner == address(0) */\n      0xffffffffffffffffffffffffffffffffffffffff\n      and\n      sub\n        /* \"@openzeppelin/contracts/access/Ownable.sol\":2622:2713  if (newOwner == address(0)) {... */\n      tag_141\n      jumpi\n        /* \"@openzeppelin/contracts/access/Ownable.sol\":2699:2700  0 */\n      0x00\n        /* \"@openzeppelin/contracts/access/Ownable.sol\":2671:2702  OwnableInvalidOwner(address(0)) */\n      mload(0x40)\n      0x1e4fbdf700000000000000000000000000000000000000000000000000000000\n      dup2\n      mstore\n      0x04\n      add\n      tag_142\n      swap2\n      swap1\n      tag_35\n      jump\t// in\n    tag_142:\n      mload(0x40)\n      dup1\n      swap2\n      sub\n      swap1\n      revert\n        /* \"@openzeppelin/contracts/access/Ownable.sol\":2622:2713  if (newOwner == address(0)) {... */\n    tag_141:\n        /* \"@openzeppelin/contracts/access/Ownable.sol\":2722:2750  _transferOwnership(newOwner) */\n      tag_143\n        /* \"@openzeppelin/contracts/access/Ownable.sol\":2741:2749  newOwner */\n      dup2\n        /* \"@openzeppelin/contracts/access/Ownable.sol\":2722:2740  _transferOwnership */\n      tag_106\n        /* \"@openzeppelin/contracts/access/Ownable.sol\":2722:2750  _transferOwnership(newOwner) */\n      jump\t// in\n    tag_143:\n        /* \"@openzeppelin/contracts/access/Ownable.sol\":2542:2757  function transferOwnership(address newOwner) public virtual onlyOwner {... */\n      pop\n      jump\t// out\n        /* \"@openzeppelin/contracts/access/Ownable.sol\":1795:1957  function _checkOwner() internal view virtual {... */\n    tag_68:\n        /* \"@openzeppelin/contracts/access/Ownable.sol\":1865:1877  _msgSender() */\n      tag_145\n        /* \"@openzeppelin/contracts/access/Ownable.sol\":1865:1875  _msgSender */\n      tag_146\n        /* \"@openzeppelin/contracts/access/Ownable.sol\":1865:1877  _msgSender() */\n      jump\t// in\n    tag_145:\n        /* \"@openzeppelin/contracts/access/Ownable.sol\":1854:1877  owner() != _msgSender() */\n      0xffffffffffffffffffffffffffffffffffffffff\n      and\n        /* \"@openzeppelin/contracts/access/Ownable.sol\":1854:1861  owner() */\n      tag_147\n        /* \"@openzeppelin/contracts/access/Ownable.sol\":1854:1859  owner */\n      tag_33\n        /* \"@openzeppelin/contracts/access/Ownable.sol\":1854:1861  owner() */\n      jump\t// in\n    tag_147:\n        /* \"@openzeppelin/contracts/access/Ownable.sol\":1854:1877  owner() != _msgSender() */\n      0xffffffffffffffffffffffffffffffffffffffff\n      and\n      eq\n        /* \"@openzeppelin/contracts/access/Ownable.sol\":1850:1951  if (owner() != _msgSender()) {... */\n      tag_148\n      jumpi\n        /* \"@openzeppelin/contracts/access/Ownable.sol\":1927:1939  _msgSender() */\n      tag_149\n        /* \"@openzeppelin/contracts/access/Ownable.sol\":1927:1937  _msgSender */\n      tag_146\n        /* \"@openzeppelin/contracts/access/Ownable.sol\":1927:1939  _msgSender() */\n      jump\t// in\n    tag_149:\n        /* \"@openzeppelin/contracts/access/Ownable.sol\":1900:1940  OwnableUnauthorizedAccount(_msgSender()) */\n      mload(0x40)\n      0x118cdaa700000000000000000000000000000000000000000000000000000000\n      dup2\n      mstore\n      0x04\n      add\n      tag_150\n      swap2\n      swap1\n      tag_35\n      jump\t// in\n    tag_150:\n      mload(0x40)\n      dup1\n      swap2\n      sub\n      swap1\n      revert\n        /* \"@openzeppelin/contracts/access/Ownable.sol\":1850:1951  if (owner() != _msgSender()) {... */\n    tag_148:\n        /* \"@openzeppelin/contracts/access/Ownable.sol\":1795:1957  function _checkOwner() internal view virtual {... */\n      jump\t// out\n        /* \"@openzeppelin/contracts/access/Ownable.sol\":2911:3098  function _transferOwnership(address newOwner) internal virtual {... */\n    tag_106:\n        /* \"@openzeppelin/contracts/access/Ownable.sol\":2984:3000  address oldOwner */\n      0x00\n        /* \"@openzeppelin/contracts/access/Ownable.sol\":3003:3009  _owner */\n      dup1\n      0x00\n      swap1\n      sload\n      swap1\n      0x0100\n      exp\n      swap1\n      div\n      0xffffffffffffffffffffffffffffffffffffffff\n      and\n        /* \"@openzeppelin/contracts/access/Ownable.sol\":2984:3009  address oldOwner = _owner */\n      swap1\n      pop\n        /* \"@openzeppelin/contracts/access/Ownable.sol\":3028:3036  newOwner */\n      dup2\n        /* \"@openzeppelin/contracts/access/Ownable.sol\":3019:3025  _owner */\n      0x00\n      dup1\n        /* \"@openzeppelin/contracts/access/Ownable.sol\":3019:3036  _owner = newOwner */\n      0x0100\n      exp\n      dup2\n      sload\n      dup2\n      0xffffffffffffffffffffffffffffffffffffffff\n      mul\n      not\n      and\n      swap1\n      dup4\n      0xffffffffffffffffffffffffffffffffffffffff\n      and\n      mul\n      or\n      swap1\n      sstore\n      pop\n        /* \"@openzeppelin/contracts/access/Ownable.sol\":3082:3090  newOwner */\n      dup2\n        /* \"@openzeppelin/contracts/access/Ownable.sol\":3051:3091  OwnershipTransferred(oldOwner, newOwner) */\n      0xffffffffffffffffffffffffffffffffffffffff\n      and\n        /* \"@openzeppelin/contracts/access/Ownable.sol\":3072:3080  oldOwner */\n      dup2\n        /* \"@openzeppelin/contracts/access/Ownable.sol\":3051:3091  OwnershipTransferred(oldOwner, newOwner) */\n      0xffffffffffffffffffffffffffffffffffffffff\n      and\n      0x8be0079c531659141344cd1fd0a4f28419497f9722a3daafe3b4186f6b6457e0\n      mload(0x40)\n      mload(0x40)\n      dup1\n      swap2\n      sub\n      swap1\n      log3\n        /* \"@openzeppelin/contracts/access/Ownable.sol\":2974:3098  {... */\n      pop\n        /* \"@openzeppelin/contracts/access/Ownable.sol\":2911:3098  function _transferOwnership(address newOwner) internal virtual {... */\n      pop\n      jump\t// out\n        /* \"@openzeppelin/contracts/utils/Context.sol\":655:751  function _msgSender() internal view virtual returns (address) {... */\n    tag_146:\n        /* \"@openzeppelin/contracts/utils/Context.sol\":708:715  address */\n      0x00\n        /* \"@openzeppelin/contracts/utils/Context.sol\":734:744  msg.sender */\n      caller\n        /* \"@openzeppelin/contracts/utils/Context.sol\":727:744  return msg.sender */\n      swap1\n      pop\n        /* \"@openzeppelin/contracts/utils/Context.sol\":655:751  function _msgSender() internal view virtual returns (address) {... */\n      swap1\n      jump\t// out\n        /* \"#utility.yul\":88:205   */\n    tag_154:\n        /* \"#utility.yul\":197:198   */\n      0x00\n        /* \"#utility.yul\":194:195   */\n      dup1\n        /* \"#utility.yul\":187:199   */\n      revert\n        /* \"#utility.yul\":334:411   */\n    tag_156:\n        /* \"#utility.yul\":371:378   */\n      0x00\n        /* \"#utility.yul\":400:405   */\n      dup2\n        /* \"#utility.yul\":389:405   */\n      swap1\n      pop\n        /* \"#utility.yul\":334:411   */\n      swap2\n      swap1\n      pop\n      jump\t// out\n        /* \"#utility.yul\":417:539   */\n    tag_157:\n        /* \"#utility.yul\":490:514   */\n      tag_206\n        /* \"#utility.yul\":508:513   */\n      dup2\n        /* \"#utility.yul\":490:514   */\n      tag_156\n      jump\t// in\n    tag_206:\n        /* \"#utility.yul\":483:488   */\n      dup2\n        /* \"#utility.yul\":480:515   */\n      eq\n        /* \"#utility.yul\":470:533   */\n      tag_207\n      jumpi\n        /* \"#utility.yul\":529:530   */\n      0x00\n        /* \"#utility.yul\":526:527   */\n      dup1\n        /* \"#utility.yul\":519:531   */\n      revert\n        /* \"#utility.yul\":470:533   */\n    tag_207:\n        /* \"#utility.yul\":417:539   */\n      pop\n      jump\t// out\n        /* \"#utility.yul\":545:684   */\n    tag_158:\n        /* \"#utility.yul\":591:596   */\n      0x00\n        /* \"#utility.yul\":629:635   */\n      dup2\n        /* \"#utility.yul\":616:636   */\n      calldataload\n        /* \"#utility.yul\":607:636   */\n      swap1\n      pop\n        /* \"#utility.yul\":645:678   */\n      tag_209\n        /* \"#utility.yul\":672:677   */\n      dup2\n        /* \"#utility.yul\":645:678   */\n      tag_157\n      jump\t// in\n    tag_209:\n        /* \"#utility.yul\":545:684   */\n      swap3\n      swap2\n      pop\n      pop\n      jump\t// out\n        /* \"#utility.yul\":690:816   */\n    tag_159:\n        /* \"#utility.yul\":727:734   */\n      0x00\n        /* \"#utility.yul\":767:809   */\n      0xffffffffffffffffffffffffffffffffffffffff\n        /* \"#utility.yul\":760:765   */\n      dup3\n        /* \"#utility.yul\":756:810   */\n      and\n        /* \"#utility.yul\":745:810   */\n      swap1\n      pop\n        /* \"#utility.yul\":690:816   */\n      swap2\n      swap1\n      pop\n      jump\t// out\n        /* \"#utility.yul\":822:918   */\n    tag_160:\n        /* \"#utility.yul\":859:866   */\n      0x00\n        /* \"#utility.yul\":888:912   */\n      tag_212\n        /* \"#utility.yul\":906:911   */\n      dup3\n        /* \"#utility.yul\":888:912   */\n      tag_159\n      jump\t// in\n    tag_212:\n        /* \"#utility.yul\":877:912   */\n      swap1\n      pop\n        /* \"#utility.yul\":822:918   */\n      swap2\n      swap1\n      pop\n      jump\t// out\n        /* \"#utility.yul\":924:1046   */\n    tag_161:\n        /* \"#utility.yul\":997:1021   */\n      tag_214\n        /* \"#utility.yul\":1015:1020   */\n      dup2\n        /* \"#utility.yul\":997:1021   */\n      tag_160\n      jump\t// in\n    tag_214:\n        /* \"#utility.yul\":990:995   */\n      dup2\n        /* \"#utility.yul\":987:1022   */\n      eq\n        /* \"#utility.yul\":977:1040   */\n      tag_215\n      jumpi\n        /* \"#utility.yul\":1036:1037   */\n      0x00\n        /* \"#utility.yul\":1033:1034   */\n      dup1\n        /* \"#utility.yul\":1026:1038   */\n      revert\n        /* \"#utility.yul\":977:1040   */\n    tag_215:\n        /* \"#utility.yul\":924:1046   */\n      pop\n      jump\t// out\n        /* \"#utility.yul\":1052:1191   */\n    tag_162:\n        /* \"#utility.yul\":1098:1103   */\n      0x00\n        /* \"#utility.yul\":1136:1142   */\n      dup2\n        /* \"#utility.yul\":1123:1143   */\n      calldataload\n        /* \"#utility.yul\":1114:1143   */\n      swap1\n      pop\n        /* \"#utility.yul\":1152:1185   */\n      tag_217\n        /* \"#utility.yul\":1179:1184   */\n      dup2\n        /* \"#utility.yul\":1152:1185   */\n      tag_161\n      jump\t// in\n    tag_217:\n        /* \"#utility.yul\":1052:1191   */\n      swap3\n      swap2\n      pop\n      pop\n      jump\t// out\n        /* \"#utility.yul\":1197:1671   */\n    tag_16:\n        /* \"#utility.yul\":1265:1271   */\n      0x00\n        /* \"#utility.yul\":1273:1279   */\n      dup1\n        /* \"#utility.yul\":1322:1324   */\n      0x40\n        /* \"#utility.yul\":1310:1319   */\n      dup4\n        /* \"#utility.yul\":1301:1308   */\n      dup6\n        /* \"#utility.yul\":1297:1320   */\n      sub\n        /* \"#utility.yul\":1293:1325   */\n      slt\n        /* \"#utility.yul\":1290:1409   */\n      iszero\n      tag_219\n      jumpi\n        /* \"#utility.yul\":1328:1407   */\n      tag_220\n      tag_154\n      jump\t// in\n    tag_220:\n        /* \"#utility.yul\":1290:1409   */\n    tag_219:\n        /* \"#utility.yul\":1448:1449   */\n      0x00\n        /* \"#utility.yul\":1473:1526   */\n      tag_221\n        /* \"#utility.yul\":1518:1525   */\n      dup6\n        /* \"#utility.yul\":1509:1515   */\n      dup3\n        /* \"#utility.yul\":1498:1507   */\n      dup7\n        /* \"#utility.yul\":1494:1516   */\n      add\n        /* \"#utility.yul\":1473:1526   */\n      tag_158\n      jump\t// in\n    tag_221:\n        /* \"#utility.yul\":1463:1526   */\n      swap3\n      pop\n        /* \"#utility.yul\":1419:1536   */\n      pop\n        /* \"#utility.yul\":1575:1577   */\n      0x20\n        /* \"#utility.yul\":1601:1654   */\n      tag_222\n        /* \"#utility.yul\":1646:1653   */\n      dup6\n        /* \"#utility.yul\":1637:1643   */\n      dup3\n        /* \"#utility.yul\":1626:1635   */\n      dup7\n        /* \"#utility.yul\":1622:1644   */\n      add\n        /* \"#utility.yul\":1601:1654   */\n      tag_162\n      jump\t// in\n    tag_222:\n        /* \"#utility.yul\":1591:1654   */\n      swap2\n      pop\n        /* \"#utility.yul\":1546:1664   */\n      pop\n        /* \"#utility.yul\":1197:1671   */\n      swap3\n      pop\n      swap3\n      swap1\n      pop\n      jump\t// out\n        /* \"#utility.yul\":1677:1795   */\n    tag_163:\n        /* \"#utility.yul\":1764:1788   */\n      tag_224\n        /* \"#utility.yul\":1782:1787   */\n      dup2\n        /* \"#utility.yul\":1764:1788   */\n      tag_156\n      jump\t// in\n    tag_224:\n        /* \"#utility.yul\":1759:1762   */\n      dup3\n        /* \"#utility.yul\":1752:1789   */\n      mstore\n        /* \"#utility.yul\":1677:1795   */\n      pop\n      pop\n      jump\t// out\n        /* \"#utility.yul\":1801:2023   */\n    tag_21:\n        /* \"#utility.yul\":1894:1898   */\n      0x00\n        /* \"#utility.yul\":1932:1934   */\n      0x20\n        /* \"#utility.yul\":1921:1930   */\n      dup3\n        /* \"#utility.yul\":1917:1935   */\n      add\n        /* \"#utility.yul\":1909:1935   */\n      swap1\n      pop\n        /* \"#utility.yul\":1945:2016   */\n      tag_226\n        /* \"#utility.yul\":2013:2014   */\n      0x00\n        /* \"#utility.yul\":2002:2011   */\n      dup4\n        /* \"#utility.yul\":1998:2015   */\n      add\n        /* \"#utility.yul\":1989:1995   */\n      dup5\n        /* \"#utility.yul\":1945:2016   */\n      tag_163\n      jump\t// in\n    tag_226:\n        /* \"#utility.yul\":1801:2023   */\n      swap3\n      swap2\n      pop\n      pop\n      jump\t// out\n        /* \"#utility.yul\":2029:2358   */\n    tag_24:\n        /* \"#utility.yul\":2088:2094   */\n      0x00\n        /* \"#utility.yul\":2137:2139   */\n      0x20\n        /* \"#utility.yul\":2125:2134   */\n      dup3\n        /* \"#utility.yul\":2116:2123   */\n      dup5\n        /* \"#utility.yul\":2112:2135   */\n      sub\n        /* \"#utility.yul\":2108:2140   */\n      slt\n        /* \"#utility.yul\":2105:2224   */\n      iszero\n      tag_228\n      jumpi\n        /* \"#utility.yul\":2143:2222   */\n      tag_229\n      tag_154\n      jump\t// in\n    tag_229:\n        /* \"#utility.yul\":2105:2224   */\n    tag_228:\n        /* \"#utility.yul\":2263:2264   */\n      0x00\n        /* \"#utility.yul\":2288:2341   */\n      tag_230\n        /* \"#utility.yul\":2333:2340   */\n      dup5\n        /* \"#utility.yul\":2324:2330   */\n      dup3\n        /* \"#utility.yul\":2313:2322   */\n      dup6\n        /* \"#utility.yul\":2309:2331   */\n      add\n        /* \"#utility.yul\":2288:2341   */\n      tag_158\n      jump\t// in\n    tag_230:\n        /* \"#utility.yul\":2278:2341   */\n      swap2\n      pop\n        /* \"#utility.yul\":2234:2351   */\n      pop\n        /* \"#utility.yul\":2029:2358   */\n      swap3\n      swap2\n      pop\n      pop\n      jump\t// out\n        /* \"#utility.yul\":2364:2838   */\n    tag_28:\n        /* \"#utility.yul\":2432:2438   */\n      0x00\n        /* \"#utility.yul\":2440:2446   */\n      dup1\n        /* \"#utility.yul\":2489:2491   */\n      0x40\n        /* \"#utility.yul\":2477:2486   */\n      dup4\n        /* \"#utility.yul\":2468:2475   */\n      dup6\n        /* \"#utility.yul\":2464:2487   */\n      sub\n        /* \"#utility.yul\":2460:2492   */\n      slt\n        /* \"#utility.yul\":2457:2576   */\n      iszero\n      tag_232\n      jumpi\n        /* \"#utility.yul\":2495:2574   */\n      tag_233\n      tag_154\n      jump\t// in\n    tag_233:\n        /* \"#utility.yul\":2457:2576   */\n    tag_232:\n        /* \"#utility.yul\":2615:2616   */\n      0x00\n        /* \"#utility.yul\":2640:2693   */\n      tag_234\n        /* \"#utility.yul\":2685:2692   */\n      dup6\n        /* \"#utility.yul\":2676:2682   */\n      dup3\n        /* \"#utility.yul\":2665:2674   */\n      dup7\n        /* \"#utility.yul\":2661:2683   */\n      add\n        /* \"#utility.yul\":2640:2693   */\n      tag_158\n      jump\t// in\n    tag_234:\n        /* \"#utility.yul\":2630:2693   */\n      swap3\n      pop\n        /* \"#utility.yul\":2586:2703   */\n      pop\n        /* \"#utility.yul\":2742:2744   */\n      0x20\n        /* \"#utility.yul\":2768:2821   */\n      tag_235\n        /* \"#utility.yul\":2813:2820   */\n      dup6\n        /* \"#utility.yul\":2804:2810   */\n      dup3\n        /* \"#utility.yul\":2793:2802   */\n      dup7\n        /* \"#utility.yul\":2789:2811   */\n      add\n        /* \"#utility.yul\":2768:2821   */\n      tag_158\n      jump\t// in\n    tag_235:\n        /* \"#utility.yul\":2758:2821   */\n      swap2\n      pop\n        /* \"#utility.yul\":2713:2831   */\n      pop\n        /* \"#utility.yul\":2364:2838   */\n      swap3\n      pop\n      swap3\n      swap1\n      pop\n      jump\t// out\n        /* \"#utility.yul\":2844:2962   */\n    tag_164:\n        /* \"#utility.yul\":2931:2955   */\n      tag_237\n        /* \"#utility.yul\":2949:2954   */\n      dup2\n        /* \"#utility.yul\":2931:2955   */\n      tag_160\n      jump\t// in\n    tag_237:\n        /* \"#utility.yul\":2926:2929   */\n      dup3\n        /* \"#utility.yul\":2919:2956   */\n      mstore\n        /* \"#utility.yul\":2844:2962   */\n      pop\n      pop\n      jump\t// out\n        /* \"#utility.yul\":2968:3190   */\n    tag_35:\n        /* \"#utility.yul\":3061:3065   */\n      0x00\n        /* \"#utility.yul\":3099:3101   */\n      0x20\n        /* \"#utility.yul\":3088:3097   */\n      dup3\n        /* \"#utility.yul\":3084:3102   */\n      add\n        /* \"#utility.yul\":3076:3102   */\n      swap1\n      pop\n        /* \"#utility.yul\":3112:3183   */\n      tag_239\n        /* \"#utility.yul\":3180:3181   */\n      0x00\n        /* \"#utility.yul\":3169:3178   */\n      dup4\n        /* \"#utility.yul\":3165:3182   */\n      add\n        /* \"#utility.yul\":3156:3162   */\n      dup5\n        /* \"#utility.yul\":3112:3183   */\n      tag_164\n      jump\t// in\n    tag_239:\n        /* \"#utility.yul\":2968:3190   */\n      swap3\n      swap2\n      pop\n      pop\n      jump\t// out\n        /* \"#utility.yul\":3196:3376   */\n    tag_63:\n        /* \"#utility.yul\":3244:3321   */\n      0x4e487b7100000000000000000000000000000000000000000000000000000000\n        /* \"#utility.yul\":3241:3242   */\n      0x00\n        /* \"#utility.yul\":3234:3322   */\n      mstore\n        /* \"#utility.yul\":3341:3345   */\n      0x21\n        /* \"#utility.yul\":3338:3339   */\n      0x04\n        /* \"#utility.yul\":3331:3346   */\n      mstore\n        /* \"#utility.yul\":3365:3369   */\n      0x24\n        /* \"#utility.yul\":3362:3363   */\n      0x00\n        /* \"#utility.yul\":3355:3370   */\n      revert\n        /* \"#utility.yul\":3382:3501   */\n    tag_165:\n        /* \"#utility.yul\":3469:3470   */\n      0x03\n        /* \"#utility.yul\":3462:3467   */\n      dup2\n        /* \"#utility.yul\":3459:3471   */\n      lt\n        /* \"#utility.yul\":3449:3495   */\n      tag_242\n      jumpi\n        /* \"#utility.yul\":3475:3493   */\n      tag_243\n      tag_63\n      jump\t// in\n    tag_243:\n        /* \"#utility.yul\":3449:3495   */\n    tag_242:\n        /* \"#utility.yul\":3382:3501   */\n      pop\n      jump\t// out\n        /* \"#utility.yul\":3507:3646   */\n    tag_166:\n        /* \"#utility.yul\":3558:3565   */\n      0x00\n        /* \"#utility.yul\":3587:3592   */\n      dup2\n        /* \"#utility.yul\":3576:3592   */\n      swap1\n      pop\n        /* \"#utility.yul\":3593:3640   */\n      tag_245\n        /* \"#utility.yul\":3634:3639   */\n      dup3\n        /* \"#utility.yul\":3593:3640   */\n      tag_165\n      jump\t// in\n    tag_245:\n        /* \"#utility.yul\":3507:3646   */\n      swap2\n      swap1\n      pop\n      jump\t// out\n        /* \"#utility.yul\":3652:3791   */\n    tag_167:\n        /* \"#utility.yul\":3714:3723   */\n      0x00\n        /* \"#utility.yul\":3747:3785   */\n      tag_247\n        /* \"#utility.yul\":3779:3784   */\n      dup3\n        /* \"#utility.yul\":3747:3785   */\n      tag_166\n      jump\t// in\n    tag_247:\n        /* \"#utility.yul\":3734:3785   */\n      swap1\n      pop\n        /* \"#utility.yul\":3652:3791   */\n      swap2\n      swap1\n      pop\n      jump\t// out\n        /* \"#utility.yul\":3797:3952   */\n    tag_168:\n        /* \"#utility.yul\":3896:3945   */\n      tag_249\n        /* \"#utility.yul\":3939:3944   */\n      dup2\n        /* \"#utility.yul\":3896:3945   */\n      tag_167\n      jump\t// in\n    tag_249:\n        /* \"#utility.yul\":3891:3894   */\n      dup3\n        /* \"#utility.yul\":3884:3946   */\n      mstore\n        /* \"#utility.yul\":3797:3952   */\n      pop\n      pop\n      jump\t// out\n        /* \"#utility.yul\":3958:4646   */\n    tag_40:\n        /* \"#utility.yul\":4175:4179   */\n      0x00\n        /* \"#utility.yul\":4213:4216   */\n      0xa0\n        /* \"#utility.yul\":4202:4211   */\n      dup3\n        /* \"#utility.yul\":4198:4217   */\n      add\n        /* \"#utility.yul\":4190:4217   */\n      swap1\n      pop\n        /* \"#utility.yul\":4227:4298   */\n      tag_251\n        /* \"#utility.yul\":4295:4296   */\n      0x00\n        /* \"#utility.yul\":4284:4293   */\n      dup4\n        /* \"#utility.yul\":4280:4297   */\n      add\n        /* \"#utility.yul\":4271:4277   */\n      dup9\n        /* \"#utility.yul\":4227:4298   */\n      tag_163\n      jump\t// in\n    tag_251:\n        /* \"#utility.yul\":4308:4380   */\n      tag_252\n        /* \"#utility.yul\":4376:4378   */\n      0x20\n        /* \"#utility.yul\":4365:4374   */\n      dup4\n        /* \"#utility.yul\":4361:4379   */\n      add\n        /* \"#utility.yul\":4352:4358   */\n      dup8\n        /* \"#utility.yul\":4308:4380   */\n      tag_164\n      jump\t// in\n    tag_252:\n        /* \"#utility.yul\":4390:4462   */\n      tag_253\n        /* \"#utility.yul\":4458:4460   */\n      0x40\n        /* \"#utility.yul\":4447:4456   */\n      dup4\n        /* \"#utility.yul\":4443:4461   */\n      add\n        /* \"#utility.yul\":4434:4440   */\n      dup7\n        /* \"#utility.yul\":4390:4462   */\n      tag_163\n      jump\t// in\n    tag_253:\n        /* \"#utility.yul\":4472:4544   */\n      tag_254\n        /* \"#utility.yul\":4540:4542   */\n      0x60\n        /* \"#utility.yul\":4529:4538   */\n      dup4\n        /* \"#utility.yul\":4525:4543   */\n      add\n        /* \"#utility.yul\":4516:4522   */\n      dup6\n        /* \"#utility.yul\":4472:4544   */\n      tag_164\n      jump\t// in\n    tag_254:\n        /* \"#utility.yul\":4554:4639   */\n      tag_255\n        /* \"#utility.yul\":4634:4637   */\n      0x80\n        /* \"#utility.yul\":4623:4632   */\n      dup4\n        /* \"#utility.yul\":4619:4638   */\n      add\n        /* \"#utility.yul\":4610:4616   */\n      dup5\n        /* \"#utility.yul\":4554:4639   */\n      tag_168\n      jump\t// in\n    tag_255:\n        /* \"#utility.yul\":3958:4646   */\n      swap7\n      swap6\n      pop\n      pop\n      pop\n      pop\n      pop\n      pop\n      jump\t// out\n        /* \"#utility.yul\":4652:5271   */\n    tag_43:\n        /* \"#utility.yul\":4729:4735   */\n      0x00\n        /* \"#utility.yul\":4737:4743   */\n      dup1\n        /* \"#utility.yul\":4745:4751   */\n      0x00\n        /* \"#utility.yul\":4794:4796   */\n      0x60\n        /* \"#utility.yul\":4782:4791   */\n      dup5\n        /* \"#utility.yul\":4773:4780   */\n      dup7\n        /* \"#utility.yul\":4769:4792   */\n      sub\n        /* \"#utility.yul\":4765:4797   */\n      slt\n        /* \"#utility.yul\":4762:4881   */\n      iszero\n      tag_257\n      jumpi\n        /* \"#utility.yul\":4800:4879   */\n      tag_258\n      tag_154\n      jump\t// in\n    tag_258:\n        /* \"#utility.yul\":4762:4881   */\n    tag_257:\n        /* \"#utility.yul\":4920:4921   */\n      0x00\n        /* \"#utility.yul\":4945:4998   */\n      tag_259\n        /* \"#utility.yul\":4990:4997   */\n      dup7\n        /* \"#utility.yul\":4981:4987   */\n      dup3\n        /* \"#utility.yul\":4970:4979   */\n      dup8\n        /* \"#utility.yul\":4966:4988   */\n      add\n        /* \"#utility.yul\":4945:4998   */\n      tag_158\n      jump\t// in\n    tag_259:\n        /* \"#utility.yul\":4935:4998   */\n      swap4\n      pop\n        /* \"#utility.yul\":4891:5008   */\n      pop\n        /* \"#utility.yul\":5047:5049   */\n      0x20\n        /* \"#utility.yul\":5073:5126   */\n      tag_260\n        /* \"#utility.yul\":5118:5125   */\n      dup7\n        /* \"#utility.yul\":5109:5115   */\n      dup3\n        /* \"#utility.yul\":5098:5107   */\n      dup8\n        /* \"#utility.yul\":5094:5116   */\n      add\n        /* \"#utility.yul\":5073:5126   */\n      tag_158\n      jump\t// in\n    tag_260:\n        /* \"#utility.yul\":5063:5126   */\n      swap3\n      pop\n        /* \"#utility.yul\":5018:5136   */\n      pop\n        /* \"#utility.yul\":5175:5177   */\n      0x40\n        /* \"#utility.yul\":5201:5254   */\n      tag_261\n        /* \"#utility.yul\":5246:5253   */\n      dup7\n        /* \"#utility.yul\":5237:5243   */\n      dup3\n        /* \"#utility.yul\":5226:5235   */\n      dup8\n        /* \"#utility.yul\":5222:5244   */\n      add\n        /* \"#utility.yul\":5201:5254   */\n      tag_162\n      jump\t// in\n    tag_261:\n        /* \"#utility.yul\":5191:5254   */\n      swap2\n      pop\n        /* \"#utility.yul\":5146:5264   */\n      pop\n        /* \"#utility.yul\":4652:5271   */\n      swap3\n      pop\n      swap3\n      pop\n      swap3\n      jump\t// out\n        /* \"#utility.yul\":5277:5606   */\n    tag_50:\n        /* \"#utility.yul\":5336:5342   */\n      0x00\n        /* \"#utility.yul\":5385:5387   */\n      0x20\n        /* \"#utility.yul\":5373:5382   */\n      dup3\n        /* \"#utility.yul\":5364:5371   */\n      dup5\n        /* \"#utility.yul\":5360:5383   */\n      sub\n        /* \"#utility.yul\":5356:5388   */\n      slt\n        /* \"#utility.yul\":5353:5472   */\n      iszero\n      tag_263\n      jumpi\n        /* \"#utility.yul\":5391:5470   */\n      tag_264\n      tag_154\n      jump\t// in\n    tag_264:\n        /* \"#utility.yul\":5353:5472   */\n    tag_263:\n        /* \"#utility.yul\":5511:5512   */\n      0x00\n        /* \"#utility.yul\":5536:5589   */\n      tag_265\n        /* \"#utility.yul\":5581:5588   */\n      dup5\n        /* \"#utility.yul\":5572:5578   */\n      dup3\n        /* \"#utility.yul\":5561:5570   */\n      dup6\n        /* \"#utility.yul\":5557:5579   */\n      add\n        /* \"#utility.yul\":5536:5589   */\n      tag_162\n      jump\t// in\n    tag_265:\n        /* \"#utility.yul\":5526:5589   */\n      swap2\n      pop\n        /* \"#utility.yul\":5482:5599   */\n      pop\n        /* \"#utility.yul\":5277:5606   */\n      swap3\n      swap2\n      pop\n      pop\n      jump\t// out\n        /* \"#utility.yul\":5612:5781   */\n    tag_169:\n        /* \"#utility.yul\":5696:5707   */\n      0x00\n        /* \"#utility.yul\":5730:5736   */\n      dup3\n        /* \"#utility.yul\":5725:5728   */\n      dup3\n        /* \"#utility.yul\":5718:5737   */\n      mstore\n        /* \"#utility.yul\":5770:5774   */\n      0x20\n        /* \"#utility.yul\":5765:5768   */\n      dup3\n        /* \"#utility.yul\":5761:5775   */\n      add\n        /* \"#utility.yul\":5746:5775   */\n      swap1\n      pop\n        /* \"#utility.yul\":5612:5781   */\n      swap3\n      swap2\n      pop\n      pop\n      jump\t// out\n        /* \"#utility.yul\":5787:6009   */\n    tag_170:\n        /* \"#utility.yul\":5927:5961   */\n      0x546f6b656e20616d6f756e74206d757374206265206772656174657220746861\n        /* \"#utility.yul\":5923:5924   */\n      0x00\n        /* \"#utility.yul\":5915:5921   */\n      dup3\n        /* \"#utility.yul\":5911:5925   */\n      add\n        /* \"#utility.yul\":5904:5962   */\n      mstore\n        /* \"#utility.yul\":5996:6001   */\n      0x6e20300000000000000000000000000000000000000000000000000000000000\n        /* \"#utility.yul\":5991:5993   */\n      0x20\n        /* \"#utility.yul\":5983:5989   */\n      dup3\n        /* \"#utility.yul\":5979:5994   */\n      add\n        /* \"#utility.yul\":5972:6002   */\n      mstore\n        /* \"#utility.yul\":5787:6009   */\n      pop\n      jump\t// out\n        /* \"#utility.yul\":6015:6381   */\n    tag_171:\n        /* \"#utility.yul\":6157:6160   */\n      0x00\n        /* \"#utility.yul\":6178:6245   */\n      tag_269\n        /* \"#utility.yul\":6242:6244   */\n      0x23\n        /* \"#utility.yul\":6237:6240   */\n      dup4\n        /* \"#utility.yul\":6178:6245   */\n      tag_169\n      jump\t// in\n    tag_269:\n        /* \"#utility.yul\":6171:6245   */\n      swap2\n      pop\n        /* \"#utility.yul\":6254:6347   */\n      tag_270\n        /* \"#utility.yul\":6343:6346   */\n      dup3\n        /* \"#utility.yul\":6254:6347   */\n      tag_170\n      jump\t// in\n    tag_270:\n        /* \"#utility.yul\":6372:6374   */\n      0x40\n        /* \"#utility.yul\":6367:6370   */\n      dup3\n        /* \"#utility.yul\":6363:6375   */\n      add\n        /* \"#utility.yul\":6356:6375   */\n      swap1\n      pop\n        /* \"#utility.yul\":6015:6381   */\n      swap2\n      swap1\n      pop\n      jump\t// out\n        /* \"#utility.yul\":6387:6806   */\n    tag_55:\n        /* \"#utility.yul\":6553:6557   */\n      0x00\n        /* \"#utility.yul\":6591:6593   */\n      0x20\n        /* \"#utility.yul\":6580:6589   */\n      dup3\n        /* \"#utility.yul\":6576:6594   */\n      add\n        /* \"#utility.yul\":6568:6594   */\n      swap1\n      pop\n        /* \"#utility.yul\":6640:6649   */\n      dup2\n        /* \"#utility.yul\":6634:6638   */\n      dup2\n        /* \"#utility.yul\":6630:6650   */\n      sub\n        /* \"#utility.yul\":6626:6627   */\n      0x00\n        /* \"#utility.yul\":6615:6624   */\n      dup4\n        /* \"#utility.yul\":6611:6628   */\n      add\n        /* \"#utility.yul\":6604:6651   */\n      mstore\n        /* \"#utility.yul\":6668:6799   */\n      tag_272\n        /* \"#utility.yul\":6794:6798   */\n      dup2\n        /* \"#utility.yul\":6668:6799   */\n      tag_171\n      jump\t// in\n    tag_272:\n        /* \"#utility.yul\":6660:6799   */\n      swap1\n      pop\n        /* \"#utility.yul\":6387:6806   */\n      swap2\n      swap1\n      pop\n      jump\t// out\n        /* \"#utility.yul\":6812:6992   */\n    tag_172:\n        /* \"#utility.yul\":6952:6984   */\n      0x496e76616c696420746f6b656e20636f6e747261637420616464726573730000\n        /* \"#utility.yul\":6948:6949   */\n      0x00\n        /* \"#utility.yul\":6940:6946   */\n      dup3\n        /* \"#utility.yul\":6936:6950   */\n      add\n        /* \"#utility.yul\":6929:6985   */\n      mstore\n        /* \"#utility.yul\":6812:6992   */\n      pop\n      jump\t// out\n        /* \"#utility.yul\":6998:7364   */\n    tag_173:\n        /* \"#utility.yul\":7140:7143   */\n      0x00\n        /* \"#utility.yul\":7161:7228   */\n      tag_275\n        /* \"#utility.yul\":7225:7227   */\n      0x1e\n        /* \"#utility.yul\":7220:7223   */\n      dup4\n        /* \"#utility.yul\":7161:7228   */\n      tag_169\n      jump\t// in\n    tag_275:\n        /* \"#utility.yul\":7154:7228   */\n      swap2\n      pop\n        /* \"#utility.yul\":7237:7330   */\n      tag_276\n        /* \"#utility.yul\":7326:7329   */\n      dup3\n        /* \"#utility.yul\":7237:7330   */\n      tag_172\n      jump\t// in\n    tag_276:\n        /* \"#utility.yul\":7355:7357   */\n      0x20\n        /* \"#utility.yul\":7350:7353   */\n      dup3\n        /* \"#utility.yul\":7346:7358   */\n      add\n        /* \"#utility.yul\":7339:7358   */\n      swap1\n      pop\n        /* \"#utility.yul\":6998:7364   */\n      swap2\n      swap1\n      pop\n      jump\t// out\n        /* \"#utility.yul\":7370:7789   */\n    tag_58:\n        /* \"#utility.yul\":7536:7540   */\n      0x00\n        /* \"#utility.yul\":7574:7576   */\n      0x20\n        /* \"#utility.yul\":7563:7572   */\n      dup3\n        /* \"#utility.yul\":7559:7577   */\n      add\n        /* \"#utility.yul\":7551:7577   */\n      swap1\n      pop\n        /* \"#utility.yul\":7623:7632   */\n      dup2\n        /* \"#utility.yul\":7617:7621   */\n      dup2\n        /* \"#utility.yul\":7613:7633   */\n      sub\n        /* \"#utility.yul\":7609:7610   */\n      0x00\n        /* \"#utility.yul\":7598:7607   */\n      dup4\n        /* \"#utility.yul\":7594:7611   */\n      add\n        /* \"#utility.yul\":7587:7634   */\n      mstore\n        /* \"#utility.yul\":7651:7782   */\n      tag_278\n        /* \"#utility.yul\":7777:7781   */\n      dup2\n        /* \"#utility.yul\":7651:7782   */\n      tag_173\n      jump\t// in\n    tag_278:\n        /* \"#utility.yul\":7643:7782   */\n      swap1\n      pop\n        /* \"#utility.yul\":7370:7789   */\n      swap2\n      swap1\n      pop\n      jump\t// out\n        /* \"#utility.yul\":7795:7975   */\n    tag_174:\n        /* \"#utility.yul\":7843:7920   */\n      0x4e487b7100000000000000000000000000000000000000000000000000000000\n        /* \"#utility.yul\":7840:7841   */\n      0x00\n        /* \"#utility.yul\":7833:7921   */\n      mstore\n        /* \"#utility.yul\":7940:7944   */\n      0x11\n        /* \"#utility.yul\":7937:7938   */\n      0x04\n        /* \"#utility.yul\":7930:7945   */\n      mstore\n        /* \"#utility.yul\":7964:7968   */\n      0x24\n        /* \"#utility.yul\":7961:7962   */\n      0x00\n        /* \"#utility.yul\":7954:7969   */\n      revert\n        /* \"#utility.yul\":7981:8214   */\n    tag_60:\n        /* \"#utility.yul\":8020:8023   */\n      0x00\n        /* \"#utility.yul\":8043:8067   */\n      tag_281\n        /* \"#utility.yul\":8061:8066   */\n      dup3\n        /* \"#utility.yul\":8043:8067   */\n      tag_156\n      jump\t// in\n    tag_281:\n        /* \"#utility.yul\":8034:8067   */\n      swap2\n      pop\n        /* \"#utility.yul\":8089:8155   */\n      0xffffffffffffffffffffffffffffffffffffffffffffffffffffffffffffffff\n        /* \"#utility.yul\":8082:8087   */\n      dup3\n        /* \"#utility.yul\":8079:8156   */\n      sub\n        /* \"#utility.yul\":8076:8179   */\n      tag_282\n      jumpi\n        /* \"#utility.yul\":8159:8177   */\n      tag_283\n      tag_174\n      jump\t// in\n    tag_283:\n        /* \"#utility.yul\":8076:8179   */\n    tag_282:\n        /* \"#utility.yul\":8206:8207   */\n      0x01\n        /* \"#utility.yul\":8199:8204   */\n      dup3\n        /* \"#utility.yul\":8195:8208   */\n      add\n        /* \"#utility.yul\":8188:8208   */\n      swap1\n      pop\n        /* \"#utility.yul\":7981:8214   */\n      swap2\n      swap1\n      pop\n      jump\t// out\n        /* \"#utility.yul\":8220:8773   */\n    tag_65:\n        /* \"#utility.yul\":8397:8401   */\n      0x00\n        /* \"#utility.yul\":8435:8438   */\n      0x80\n        /* \"#utility.yul\":8424:8433   */\n      dup3\n        /* \"#utility.yul\":8420:8439   */\n      add\n        /* \"#utility.yul\":8412:8439   */\n      swap1\n      pop\n        /* \"#utility.yul\":8449:8520   */\n      tag_285\n        /* \"#utility.yul\":8517:8518   */\n      0x00\n        /* \"#utility.yul\":8506:8515   */\n      dup4\n        /* \"#utility.yul\":8502:8519   */\n      add\n        /* \"#utility.yul\":8493:8499   */\n      dup8\n        /* \"#utility.yul\":8449:8520   */\n      tag_163\n      jump\t// in\n    tag_285:\n        /* \"#utility.yul\":8530:8602   */\n      tag_286\n        /* \"#utility.yul\":8598:8600   */\n      0x20\n        /* \"#utility.yul\":8587:8596   */\n      dup4\n        /* \"#utility.yul\":8583:8601   */\n      add\n        /* \"#utility.yul\":8574:8580   */\n      dup7\n        /* \"#utility.yul\":8530:8602   */\n      tag_164\n      jump\t// in\n    tag_286:\n        /* \"#utility.yul\":8612:8684   */\n      tag_287\n        /* \"#utility.yul\":8680:8682   */\n      0x40\n        /* \"#utility.yul\":8669:8678   */\n      dup4\n        /* \"#utility.yul\":8665:8683   */\n      add\n        /* \"#utility.yul\":8656:8662   */\n      dup6\n        /* \"#utility.yul\":8612:8684   */\n      tag_163\n      jump\t// in\n    tag_287:\n        /* \"#utility.yul\":8694:8766   */\n      tag_288\n        /* \"#utility.yul\":8762:8764   */\n      0x60\n        /* \"#utility.yul\":8751:8760   */\n      dup4\n        /* \"#utility.yul\":8747:8765   */\n      add\n        /* \"#utility.yul\":8738:8744   */\n      dup5\n        /* \"#utility.yul\":8694:8766   */\n      tag_164\n      jump\t// in\n    tag_288:\n        /* \"#utility.yul\":8220:8773   */\n      swap6\n      swap5\n      pop\n      pop\n      pop\n      pop\n      pop\n      jump\t// out\n        /* \"#utility.yul\":8779:8949   */\n    tag_175:\n        /* \"#utility.yul\":8919:8941   */\n      0x4f7264657220646f6573206e6f74206578697374000000000000000000000000\n        /* \"#utility.yul\":8915:8916   */\n      0x00\n        /* \"#utility.yul\":8907:8913   */\n      dup3\n        /* \"#utility.yul\":8903:8917   */\n      add\n        /* \"#utility.yul\":8896:8942   */\n      mstore\n        /* \"#utility.yul\":8779:8949   */\n      pop\n      jump\t// out\n        /* \"#utility.yul\":8955:9321   */\n    tag_176:\n        /* \"#utility.yul\":9097:9100   */\n      0x00\n        /* \"#utility.yul\":9118:9185   */\n      tag_291\n        /* \"#utility.yul\":9182:9184   */\n      0x14\n        /* \"#utility.yul\":9177:9180   */\n      dup4\n        /* \"#utility.yul\":9118:9185   */\n      tag_169\n      jump\t// in\n    tag_291:\n        /* \"#utility.yul\":9111:9185   */\n      swap2\n      pop\n        /* \"#utility.yul\":9194:9287   */\n      tag_292\n        /* \"#utility.yul\":9283:9286   */\n      dup3\n        /* \"#utility.yul\":9194:9287   */\n      tag_175\n      jump\t// in\n    tag_292:\n        /* \"#utility.yul\":9312:9314   */\n      0x20\n        /* \"#utility.yul\":9307:9310   */\n      dup3\n        /* \"#utility.yul\":9303:9315   */\n      add\n        /* \"#utility.yul\":9296:9315   */\n      swap1\n      pop\n        /* \"#utility.yul\":8955:9321   */\n      swap2\n      swap1\n      pop\n      jump\t// out\n        /* \"#utility.yul\":9327:9746   */\n    tag_72:\n        /* \"#utility.yul\":9493:9497   */\n      0x00\n        /* \"#utility.yul\":9531:9533   */\n      0x20\n        /* \"#utility.yul\":9520:9529   */\n      dup3\n        /* \"#utility.yul\":9516:9534   */\n      add\n        /* \"#utility.yul\":9508:9534   */\n      swap1\n      pop\n        /* \"#utility.yul\":9580:9589   */\n      dup2\n        /* \"#utility.yul\":9574:9578   */\n      dup2\n        /* \"#utility.yul\":9570:9590   */\n      sub\n        /* \"#utility.yul\":9566:9567   */\n      0x00\n        /* \"#utility.yul\":9555:9564   */\n      dup4\n        /* \"#utility.yul\":9551:9568   */\n      add\n        /* \"#utility.yul\":9544:9591   */\n      mstore\n        /* \"#utility.yul\":9608:9739   */\n      tag_294\n        /* \"#utility.yul\":9734:9738   */\n      dup2\n        /* \"#utility.yul\":9608:9739   */\n      tag_176\n      jump\t// in\n    tag_294:\n        /* \"#utility.yul\":9600:9739   */\n      swap1\n      pop\n        /* \"#utility.yul\":9327:9746   */\n      swap2\n      swap1\n      pop\n      jump\t// out\n        /* \"#utility.yul\":9752:9931   */\n    tag_177:\n        /* \"#utility.yul\":9892:9923   */\n      0x4f72646572206973206e6f7420696e2043524541544544207374617465000000\n        /* \"#utility.yul\":9888:9889   */\n      0x00\n        /* \"#utility.yul\":9880:9886   */\n      dup3\n        /* \"#utility.yul\":9876:9890   */\n      add\n        /* \"#utility.yul\":9869:9924   */\n      mstore\n        /* \"#utility.yul\":9752:9931   */\n      pop\n      jump\t// out\n        /* \"#utility.yul\":9937:10303   */\n    tag_178:\n        /* \"#utility.yul\":10079:10082   */\n      0x00\n        /* \"#utility.yul\":10100:10167   */\n      tag_297\n        /* \"#utility.yul\":10164:10166   */\n      0x1d\n        /* \"#utility.yul\":10159:10162   */\n      dup4\n        /* \"#utility.yul\":10100:10167   */\n      tag_169\n      jump\t// in\n    tag_297:\n        /* \"#utility.yul\":10093:10167   */\n      swap2\n      pop\n        /* \"#utility.yul\":10176:10269   */\n      tag_298\n        /* \"#utility.yul\":10265:10268   */\n      dup3\n        /* \"#utility.yul\":10176:10269   */\n      tag_177\n      jump\t// in\n    tag_298:\n        /* \"#utility.yul\":10294:10296   */\n      0x20\n        /* \"#utility.yul\":10289:10292   */\n      dup3\n        /* \"#utility.yul\":10285:10297   */\n      add\n        /* \"#utility.yul\":10278:10297   */\n      swap1\n      pop\n        /* \"#utility.yul\":9937:10303   */\n      swap2\n      swap1\n      pop\n      jump\t// out\n        /* \"#utility.yul\":10309:10728   */\n    tag_80:\n        /* \"#utility.yul\":10475:10479   */\n      0x00\n        /* \"#utility.yul\":10513:10515   */\n      0x20\n        /* \"#utility.yul\":10502:10511   */\n      dup3\n        /* \"#utility.yul\":10498:10516   */\n      add\n        /* \"#utility.yul\":10490:10516   */\n      swap1\n      pop\n        /* \"#utility.yul\":10562:10571   */\n      dup2\n        /* \"#utility.yul\":10556:10560   */\n      dup2\n        /* \"#utility.yul\":10552:10572   */\n      sub\n        /* \"#utility.yul\":10548:10549   */\n      0x00\n        /* \"#utility.yul\":10537:10546   */\n      dup4\n        /* \"#utility.yul\":10533:10550   */\n      add\n        /* \"#utility.yul\":10526:10573   */\n      mstore\n        /* \"#utility.yul\":10590:10721   */\n      tag_300\n        /* \"#utility.yul\":10716:10720   */\n      dup2\n        /* \"#utility.yul\":10590:10721   */\n      tag_178\n      jump\t// in\n    tag_300:\n        /* \"#utility.yul\":10582:10721   */\n      swap1\n      pop\n        /* \"#utility.yul\":10309:10728   */\n      swap2\n      swap1\n      pop\n      jump\t// out\n        /* \"#utility.yul\":10734:10908   */\n    tag_179:\n        /* \"#utility.yul\":10874:10900   */\n      0x427579657220616c726561647920726567697374657265640000000000000000\n        /* \"#utility.yul\":10870:10871   */\n      0x00\n        /* \"#utility.yul\":10862:10868   */\n      dup3\n        /* \"#utility.yul\":10858:10872   */\n      add\n        /* \"#utility.yul\":10851:10901   */\n      mstore\n        /* \"#utility.yul\":10734:10908   */\n      pop\n      jump\t// out\n        /* \"#utility.yul\":10914:11280   */\n    tag_180:\n        /* \"#utility.yul\":11056:11059   */\n      0x00\n        /* \"#utility.yul\":11077:11144   */\n      tag_303\n        /* \"#utility.yul\":11141:11143   */\n      0x18\n        /* \"#utility.yul\":11136:11139   */\n      dup4\n        /* \"#utility.yul\":11077:11144   */\n      tag_169\n      jump\t// in\n    tag_303:\n        /* \"#utility.yul\":11070:11144   */\n      swap2\n      pop\n        /* \"#utility.yul\":11153:11246   */\n      tag_304\n        /* \"#utility.yul\":11242:11245   */\n      dup3\n        /* \"#utility.yul\":11153:11246   */\n      tag_179\n      jump\t// in\n    tag_304:\n        /* \"#utility.yul\":11271:11273   */\n      0x20\n        /* \"#utility.yul\":11266:11269   */\n      dup3\n        /* \"#utility.yul\":11262:11274   */\n      add\n        /* \"#utility.yul\":11255:11274   */\n      swap1\n      pop\n        /* \"#utility.yul\":10914:11280   */\n      swap2\n      swap1\n      pop\n      jump\t// out\n        /* \"#utility.yul\":11286:11705   */\n    tag_93:\n        /* \"#utility.yul\":11452:11456   */\n      0x00\n        /* \"#utility.yul\":11490:11492   */\n      0x20\n        /* \"#utility.yul\":11479:11488   */\n      dup3\n        /* \"#utility.yul\":11475:11493   */\n      add\n        /* \"#utility.yul\":11467:11493   */\n      swap1\n      pop\n        /* \"#utility.yul\":11539:11548   */\n      dup2\n        /* \"#utility.yul\":11533:11537   */\n      dup2\n        /* \"#utility.yul\":11529:11549   */\n      sub\n        /* \"#utility.yul\":11525:11526   */\n      0x00\n        /* \"#utility.yul\":11514:11523   */\n      dup4\n        /* \"#utility.yul\":11510:11527   */\n      add\n        /* \"#utility.yul\":11503:11550   */\n      mstore\n        /* \"#utility.yul\":11567:11698   */\n      tag_306\n        /* \"#utility.yul\":11693:11697   */\n      dup2\n        /* \"#utility.yul\":11567:11698   */\n      tag_180\n      jump\t// in\n    tag_306:\n        /* \"#utility.yul\":11559:11698   */\n      swap1\n      pop\n        /* \"#utility.yul\":11286:11705   */\n      swap2\n      swap1\n      pop\n      jump\t// out\n        /* \"#utility.yul\":11711:11889   */\n    tag_181:\n        /* \"#utility.yul\":11851:11881   */\n      0x52616e646f6d206e756d6265722063616e6e6f74206265207a65726f00000000\n        /* \"#utility.yul\":11847:11848   */\n      0x00\n        /* \"#utility.yul\":11839:11845   */\n      dup3\n        /* \"#utility.yul\":11835:11849   */\n      add\n        /* \"#utility.yul\":11828:11882   */\n      mstore\n        /* \"#utility.yul\":11711:11889   */\n      pop\n      jump\t// out\n        /* \"#utility.yul\":11895:12261   */\n    tag_182:\n        /* \"#utility.yul\":12037:12040   */\n      0x00\n        /* \"#utility.yul\":12058:12125   */\n      tag_309\n        /* \"#utility.yul\":12122:12124   */\n      0x1c\n        /* \"#utility.yul\":12117:12120   */\n      dup4\n        /* \"#utility.yul\":12058:12125   */\n      tag_169\n      jump\t// in\n    tag_309:\n        /* \"#utility.yul\":12051:12125   */\n      swap2\n      pop\n        /* \"#utility.yul\":12134:12227   */\n      tag_310\n        /* \"#utility.yul\":12223:12226   */\n      dup3\n        /* \"#utility.yul\":12134:12227   */\n      tag_181\n      jump\t// in\n    tag_310:\n        /* \"#utility.yul\":12252:12254   */\n      0x20\n        /* \"#utility.yul\":12247:12250   */\n      dup3\n        /* \"#utility.yul\":12243:12255   */\n      add\n        /* \"#utility.yul\":12236:12255   */\n      swap1\n      pop\n        /* \"#utility.yul\":11895:12261   */\n      swap2\n      swap1\n      pop\n      jump\t// out\n        /* \"#utility.yul\":12267:12686   */\n    tag_96:\n        /* \"#utility.yul\":12433:12437   */\n      0x00\n        /* \"#utility.yul\":12471:12473   */\n      0x20\n        /* \"#utility.yul\":12460:12469   */\n      dup3\n        /* \"#utility.yul\":12456:12474   */\n      add\n        /* \"#utility.yul\":12448:12474   */\n      swap1\n      pop\n        /* \"#utility.yul\":12520:12529   */\n      dup2\n        /* \"#utility.yul\":12514:12518   */\n      dup2\n        /* \"#utility.yul\":12510:12530   */\n      sub\n        /* \"#utility.yul\":12506:12507   */\n      0x00\n        /* \"#utility.yul\":12495:12504   */\n      dup4\n        /* \"#utility.yul\":12491:12508   */\n      add\n        /* \"#utility.yul\":12484:12531   */\n      mstore\n        /* \"#utility.yul\":12548:12679   */\n      tag_312\n        /* \"#utility.yul\":12674:12678   */\n      dup2\n        /* \"#utility.yul\":12548:12679   */\n      tag_182\n      jump\t// in\n    tag_312:\n        /* \"#utility.yul\":12540:12679   */\n      swap1\n      pop\n        /* \"#utility.yul\":12267:12686   */\n      swap2\n      swap1\n      pop\n      jump\t// out\n        /* \"#utility.yul\":12692:12771   */\n    tag_183:\n        /* \"#utility.yul\":12731:12738   */\n      0x00\n        /* \"#utility.yul\":12760:12765   */\n      dup2\n        /* \"#utility.yul\":12749:12765   */\n      swap1\n      pop\n        /* \"#utility.yul\":12692:12771   */\n      swap2\n      swap1\n      pop\n      jump\t// out\n        /* \"#utility.yul\":12777:12934   */\n    tag_184:\n        /* \"#utility.yul\":12882:12927   */\n      tag_315\n        /* \"#utility.yul\":12902:12926   */\n      tag_316\n        /* \"#utility.yul\":12920:12925   */\n      dup3\n        /* \"#utility.yul\":12902:12926   */\n      tag_156\n      jump\t// in\n    tag_316:\n        /* \"#utility.yul\":12882:12927   */\n      tag_183\n      jump\t// in\n    tag_315:\n        /* \"#utility.yul\":12877:12880   */\n      dup3\n        /* \"#utility.yul\":12870:12928   */\n      mstore\n        /* \"#utility.yul\":12777:12934   */\n      pop\n      pop\n      jump\t// out\n        /* \"#utility.yul\":12940:13034   */\n    tag_185:\n        /* \"#utility.yul\":12973:12981   */\n      0x00\n        /* \"#utility.yul\":13021:13026   */\n      dup2\n        /* \"#utility.yul\":13017:13019   */\n      0x60\n        /* \"#utility.yul\":13013:13027   */\n      shl\n        /* \"#utility.yul\":12992:13027   */\n      swap1\n      pop\n        /* \"#utility.yul\":12940:13034   */\n      swap2\n      swap1\n      pop\n      jump\t// out\n        /* \"#utility.yul\":13040:13134   */\n    tag_186:\n        /* \"#utility.yul\":13079:13086   */\n      0x00\n        /* \"#utility.yul\":13108:13128   */\n      tag_319\n        /* \"#utility.yul\":13122:13127   */\n      dup3\n        /* \"#utility.yul\":13108:13128   */\n      tag_185\n      jump\t// in\n    tag_319:\n        /* \"#utility.yul\":13097:13128   */\n      swap1\n      pop\n        /* \"#utility.yul\":13040:13134   */\n      swap2\n      swap1\n      pop\n      jump\t// out\n        /* \"#utility.yul\":13140:13240   */\n    tag_187:\n        /* \"#utility.yul\":13179:13186   */\n      0x00\n        /* \"#utility.yul\":13208:13234   */\n      tag_321\n        /* \"#utility.yul\":13228:13233   */\n      dup3\n        /* \"#utility.yul\":13208:13234   */\n      tag_186\n      jump\t// in\n    tag_321:\n        /* \"#utility.yul\":13197:13234   */\n      swap1\n      pop\n        /* \"#utility.yul\":13140:13240   */\n      swap2\n      swap1\n      pop\n      jump\t// out\n        /* \"#utility.yul\":13246:13403   */\n    tag_188:\n        /* \"#utility.yul\":13351:13396   */\n      tag_323\n        /* \"#utility.yul\":13371:13395   */\n      tag_324\n        /* \"#utility.yul\":13389:13394   */\n      dup3\n        /* \"#utility.yul\":13371:13395   */\n      tag_160\n      jump\t// in\n    tag_324:\n        /* \"#utility.yul\":13351:13396   */\n      tag_187\n      jump\t// in\n    tag_323:\n        /* \"#utility.yul\":13346:13349   */\n      dup3\n        /* \"#utility.yul\":13339:13397   */\n      mstore\n        /* \"#utility.yul\":13246:13403   */\n      pop\n      pop\n      jump\t// out\n        /* \"#utility.yul\":13409:13947   */\n    tag_98:\n        /* \"#utility.yul\":13577:13580   */\n      0x00\n        /* \"#utility.yul\":13592:13667   */\n      tag_326\n        /* \"#utility.yul\":13663:13666   */\n      dup3\n        /* \"#utility.yul\":13654:13660   */\n      dup7\n        /* \"#utility.yul\":13592:13667   */\n      tag_184\n      jump\t// in\n    tag_326:\n        /* \"#utility.yul\":13692:13694   */\n      0x20\n        /* \"#utility.yul\":13687:13690   */\n      dup3\n        /* \"#utility.yul\":13683:13695   */\n      add\n        /* \"#utility.yul\":13676:13695   */\n      swap2\n      pop\n        /* \"#utility.yul\":13705:13780   */\n      tag_327\n        /* \"#utility.yul\":13776:13779   */\n      dup3\n        /* \"#utility.yul\":13767:13773   */\n      dup6\n        /* \"#utility.yul\":13705:13780   */\n      tag_188\n      jump\t// in\n    tag_327:\n        /* \"#utility.yul\":13805:13807   */\n      0x14\n        /* \"#utility.yul\":13800:13803   */\n      dup3\n        /* \"#utility.yul\":13796:13808   */\n      add\n        /* \"#utility.yul\":13789:13808   */\n      swap2\n      pop\n        /* \"#utility.yul\":13818:13893   */\n      tag_328\n        /* \"#utility.yul\":13889:13892   */\n      dup3\n        /* \"#utility.yul\":13880:13886   */\n      dup5\n        /* \"#utility.yul\":13818:13893   */\n      tag_184\n      jump\t// in\n    tag_328:\n        /* \"#utility.yul\":13918:13920   */\n      0x20\n        /* \"#utility.yul\":13913:13916   */\n      dup3\n        /* \"#utility.yul\":13909:13921   */\n      add\n        /* \"#utility.yul\":13902:13921   */\n      swap2\n      pop\n        /* \"#utility.yul\":13938:13941   */\n      dup2\n        /* \"#utility.yul\":13931:13941   */\n      swap1\n      pop\n        /* \"#utility.yul\":13409:13947   */\n      swap5\n      swap4\n      pop\n      pop\n      pop\n      pop\n      jump\t// out\n        /* \"#utility.yul\":13953:14129   */\n    tag_189:\n        /* \"#utility.yul\":14093:14121   */\n      0x52616e646f6d206e756d62657220616c72656164792075736564000000000000\n        /* \"#utility.yul\":14089:14090   */\n      0x00\n        /* \"#utility.yul\":14081:14087   */\n      dup3\n        /* \"#utility.yul\":14077:14091   */\n      add\n        /* \"#utility.yul\":14070:14122   */\n      mstore\n        /* \"#utility.yul\":13953:14129   */\n      pop\n      jump\t// out\n        /* \"#utility.yul\":14135:14501   */\n    tag_190:\n        /* \"#utility.yul\":14277:14280   */\n      0x00\n        /* \"#utility.yul\":14298:14365   */\n      tag_331\n        /* \"#utility.yul\":14362:14364   */\n      0x1a\n        /* \"#utility.yul\":14357:14360   */\n      dup4\n        /* \"#utility.yul\":14298:14365   */\n      tag_169\n      jump\t// in\n    tag_331:\n        /* \"#utility.yul\":14291:14365   */\n      swap2\n      pop\n        /* \"#utility.yul\":14374:14467   */\n      tag_332\n        /* \"#utility.yul\":14463:14466   */\n      dup3\n        /* \"#utility.yul\":14374:14467   */\n      tag_189\n      jump\t// in\n    tag_332:\n        /* \"#utility.yul\":14492:14494   */\n      0x20\n        /* \"#utility.yul\":14487:14490   */\n      dup3\n        /* \"#utility.yul\":14483:14495   */\n      add\n        /* \"#utility.yul\":14476:14495   */\n      swap1\n      pop\n        /* \"#utility.yul\":14135:14501   */\n      swap2\n      swap1\n      pop\n      jump\t// out\n        /* \"#utility.yul\":14507:14926   */\n    tag_101:\n        /* \"#utility.yul\":14673:14677   */\n      0x00\n        /* \"#utility.yul\":14711:14713   */\n      0x20\n        /* \"#utility.yul\":14700:14709   */\n      dup3\n        /* \"#utility.yul\":14696:14714   */\n      add\n        /* \"#utility.yul\":14688:14714   */\n      swap1\n      pop\n        /* \"#utility.yul\":14760:14769   */\n      dup2\n        /* \"#utility.yul\":14754:14758   */\n      dup2\n        /* \"#utility.yul\":14750:14770   */\n      sub\n        /* \"#utility.yul\":14746:14747   */\n      0x00\n        /* \"#utility.yul\":14735:14744   */\n      dup4\n        /* \"#utility.yul\":14731:14748   */\n      add\n        /* \"#utility.yul\":14724:14771   */\n      mstore\n        /* \"#utility.yul\":14788:14919   */\n      tag_334\n        /* \"#utility.yul\":14914:14918   */\n      dup2\n        /* \"#utility.yul\":14788:14919   */\n      tag_190\n      jump\t// in\n    tag_334:\n        /* \"#utility.yul\":14780:14919   */\n      swap1\n      pop\n        /* \"#utility.yul\":14507:14926   */\n      swap2\n      swap1\n      pop\n      jump\t// out\n        /* \"#utility.yul\":14932:15154   */\n    tag_191:\n        /* \"#utility.yul\":15072:15106   */\n      0x4f6e6c7920726567697374657265642062757965722063616e2063616c6c2074\n        /* \"#utility.yul\":15068:15069   */\n      0x00\n        /* \"#utility.yul\":15060:15066   */\n      dup3\n        /* \"#utility.yul\":15056:15070   */\n      add\n        /* \"#utility.yul\":15049:15107   */\n      mstore\n        /* \"#utility.yul\":15141:15146   */\n      0x6869730000000000000000000000000000000000000000000000000000000000\n        /* \"#utility.yul\":15136:15138   */\n      0x20\n        /* \"#utility.yul\":15128:15134   */\n      dup3\n        /* \"#utility.yul\":15124:15139   */\n      add\n        /* \"#utility.yul\":15117:15147   */\n      mstore\n        /* \"#utility.yul\":14932:15154   */\n      pop\n      jump\t// out\n        /* \"#utility.yul\":15160:15526   */\n    tag_192:\n        /* \"#utility.yul\":15302:15305   */\n      0x00\n        /* \"#utility.yul\":15323:15390   */\n      tag_337\n        /* \"#utility.yul\":15387:15389   */\n      0x23\n        /* \"#utility.yul\":15382:15385   */\n      dup4\n        /* \"#utility.yul\":15323:15390   */\n      tag_169\n      jump\t// in\n    tag_337:\n        /* \"#utility.yul\":15316:15390   */\n      swap2\n      pop\n        /* \"#utility.yul\":15399:15492   */\n      tag_338\n        /* \"#utility.yul\":15488:15491   */\n      dup3\n        /* \"#utility.yul\":15399:15492   */\n      tag_191\n      jump\t// in\n    tag_338:\n        /* \"#utility.yul\":15517:15519   */\n      0x40\n        /* \"#utility.yul\":15512:15515   */\n      dup3\n        /* \"#utility.yul\":15508:15520   */\n      add\n        /* \"#utility.yul\":15501:15520   */\n      swap1\n      pop\n        /* \"#utility.yul\":15160:15526   */\n      swap2\n      swap1\n      pop\n      jump\t// out\n        /* \"#utility.yul\":15532:15951   */\n    tag_111:\n        /* \"#utility.yul\":15698:15702   */\n      0x00\n        /* \"#utility.yul\":15736:15738   */\n      0x20\n        /* \"#utility.yul\":15725:15734   */\n      dup3\n        /* \"#utility.yul\":15721:15739   */\n      add\n        /* \"#utility.yul\":15713:15739   */\n      swap1\n      pop\n        /* \"#utility.yul\":15785:15794   */\n      dup2\n        /* \"#utility.yul\":15779:15783   */\n      dup2\n        /* \"#utility.yul\":15775:15795   */\n      sub\n        /* \"#utility.yul\":15771:15772   */\n      0x00\n        /* \"#utility.yul\":15760:15769   */\n      dup4\n        /* \"#utility.yul\":15756:15773   */\n      add\n        /* \"#utility.yul\":15749:15796   */\n      mstore\n        /* \"#utility.yul\":15813:15944   */\n      tag_340\n        /* \"#utility.yul\":15939:15943   */\n      dup2\n        /* \"#utility.yul\":15813:15944   */\n      tag_192\n      jump\t// in\n    tag_340:\n        /* \"#utility.yul\":15805:15944   */\n      swap1\n      pop\n        /* \"#utility.yul\":15532:15951   */\n      swap2\n      swap1\n      pop\n      jump\t// out\n        /* \"#utility.yul\":15957:16128   */\n    tag_193:\n        /* \"#utility.yul\":16097:16120   */\n      0x496e76616c69642072616e646f6d206e756d6265720000000000000000000000\n        /* \"#utility.yul\":16093:16094   */\n      0x00\n        /* \"#utility.yul\":16085:16091   */\n      dup3\n        /* \"#utility.yul\":16081:16095   */\n      add\n        /* \"#utility.yul\":16074:16121   */\n      mstore\n        /* \"#utility.yul\":15957:16128   */\n      pop\n      jump\t// out\n        /* \"#utility.yul\":16134:16500   */\n    tag_194:\n        /* \"#utility.yul\":16276:16279   */\n      0x00\n        /* \"#utility.yul\":16297:16364   */\n      tag_343\n        /* \"#utility.yul\":16361:16363   */\n      0x15\n        /* \"#utility.yul\":16356:16359   */\n      dup4\n        /* \"#utility.yul\":16297:16364   */\n      tag_169\n      jump\t// in\n    tag_343:\n        /* \"#utility.yul\":16290:16364   */\n      swap2\n      pop\n        /* \"#utility.yul\":16373:16466   */\n      tag_344\n        /* \"#utility.yul\":16462:16465   */\n      dup3\n        /* \"#utility.yul\":16373:16466   */\n      tag_193\n      jump\t// in\n    tag_344:\n        /* \"#utility.yul\":16491:16493   */\n      0x20\n        /* \"#utility.yul\":16486:16489   */\n      dup3\n        /* \"#utility.yul\":16482:16494   */\n      add\n        /* \"#utility.yul\":16475:16494   */\n      swap1\n      pop\n        /* \"#utility.yul\":16134:16500   */\n      swap2\n      swap1\n      pop\n      jump\t// out\n        /* \"#utility.yul\":16506:16925   */\n    tag_122:\n        /* \"#utility.yul\":16672:16676   */\n      0x00\n        /* \"#utility.yul\":16710:16712   */\n      0x20\n        /* \"#utility.yul\":16699:16708   */\n      dup3\n        /* \"#utility.yul\":16695:16713   */\n      add\n        /* \"#utility.yul\":16687:16713   */\n      swap1\n      pop\n        /* \"#utility.yul\":16759:16768   */\n      dup2\n        /* \"#utility.yul\":16753:16757   */\n      dup2\n        /* \"#utility.yul\":16749:16769   */\n      sub\n        /* \"#utility.yul\":16745:16746   */\n      0x00\n        /* \"#utility.yul\":16734:16743   */\n      dup4\n        /* \"#utility.yul\":16730:16747   */\n      add\n        /* \"#utility.yul\":16723:16770   */\n      mstore\n        /* \"#utility.yul\":16787:16918   */\n      tag_346\n        /* \"#utility.yul\":16913:16917   */\n      dup2\n        /* \"#utility.yul\":16787:16918   */\n      tag_194\n      jump\t// in\n    tag_346:\n        /* \"#utility.yul\":16779:16918   */\n      swap1\n      pop\n        /* \"#utility.yul\":16506:16925   */\n      swap2\n      swap1\n      pop\n      jump\t// out\n        /* \"#utility.yul\":16931:17263   */\n    tag_126:\n        /* \"#utility.yul\":17052:17056   */\n      0x00\n        /* \"#utility.yul\":17090:17092   */\n      0x40\n        /* \"#utility.yul\":17079:17088   */\n      dup3\n        /* \"#utility.yul\":17075:17093   */\n      add\n        /* \"#utility.yul\":17067:17093   */\n      swap1\n      pop\n        /* \"#utility.yul\":17103:17174   */\n      tag_348\n        /* \"#utility.yul\":17171:17172   */\n      0x00\n        /* \"#utility.yul\":17160:17169   */\n      dup4\n        /* \"#utility.yul\":17156:17173   */\n      add\n        /* \"#utility.yul\":17147:17153   */\n      dup6\n        /* \"#utility.yul\":17103:17174   */\n      tag_164\n      jump\t// in\n    tag_348:\n        /* \"#utility.yul\":17184:17256   */\n      tag_349\n        /* \"#utility.yul\":17252:17254   */\n      0x20\n        /* \"#utility.yul\":17241:17250   */\n      dup4\n        /* \"#utility.yul\":17237:17255   */\n      add\n        /* \"#utility.yul\":17228:17234   */\n      dup5\n        /* \"#utility.yul\":17184:17256   */\n      tag_163\n      jump\t// in\n    tag_349:\n        /* \"#utility.yul\":16931:17263   */\n      swap4\n      swap3\n      pop\n      pop\n      pop\n      jump\t// out\n        /* \"#utility.yul\":17269:17359   */\n    tag_195:\n        /* \"#utility.yul\":17303:17310   */\n      0x00\n        /* \"#utility.yul\":17346:17351   */\n      dup2\n        /* \"#utility.yul\":17339:17352   */\n      iszero\n        /* \"#utility.yul\":17332:17353   */\n      iszero\n        /* \"#utility.yul\":17321:17353   */\n      swap1\n      pop\n        /* \"#utility.yul\":17269:17359   */\n      swap2\n      swap1\n      pop\n      jump\t// out\n        /* \"#utility.yul\":17365:17481   */\n    tag_196:\n        /* \"#utility.yul\":17435:17456   */\n      tag_352\n        /* \"#utility.yul\":17450:17455   */\n      dup2\n        /* \"#utility.yul\":17435:17456   */\n      tag_195\n      jump\t// in\n    tag_352:\n        /* \"#utility.yul\":17428:17433   */\n      dup2\n        /* \"#utility.yul\":17425:17457   */\n      eq\n        /* \"#utility.yul\":17415:17475   */\n      tag_353\n      jumpi\n        /* \"#utility.yul\":17471:17472   */\n      0x00\n        /* \"#utility.yul\":17468:17469   */\n      dup1\n        /* \"#utility.yul\":17461:17473   */\n      revert\n        /* \"#utility.yul\":17415:17475   */\n    tag_353:\n        /* \"#utility.yul\":17365:17481   */\n      pop\n      jump\t// out\n        /* \"#utility.yul\":17487:17624   */\n    tag_197:\n        /* \"#utility.yul\":17541:17546   */\n      0x00\n        /* \"#utility.yul\":17572:17578   */\n      dup2\n        /* \"#utility.yul\":17566:17579   */\n      mload\n        /* \"#utility.yul\":17557:17579   */\n      swap1\n      pop\n        /* \"#utility.yul\":17588:17618   */\n      tag_355\n        /* \"#utility.yul\":17612:17617   */\n      dup2\n        /* \"#utility.yul\":17588:17618   */\n      tag_196\n      jump\t// in\n    tag_355:\n        /* \"#utility.yul\":17487:17624   */\n      swap3\n      swap2\n      pop\n      pop\n      jump\t// out\n        /* \"#utility.yul\":17630:17975   */\n    tag_130:\n        /* \"#utility.yul\":17697:17703   */\n      0x00\n        /* \"#utility.yul\":17746:17748   */\n      0x20\n        /* \"#utility.yul\":17734:17743   */\n      dup3\n        /* \"#utility.yul\":17725:17732   */\n      dup5\n        /* \"#utility.yul\":17721:17744   */\n      sub\n        /* \"#utility.yul\":17717:17749   */\n      slt\n        /* \"#utility.yul\":17714:17833   */\n      iszero\n      tag_357\n      jumpi\n        /* \"#utility.yul\":17752:17831   */\n      tag_358\n      tag_154\n      jump\t// in\n    tag_358:\n        /* \"#utility.yul\":17714:17833   */\n    tag_357:\n        /* \"#utility.yul\":17872:17873   */\n      0x00\n        /* \"#utility.yul\":17897:17958   */\n      tag_359\n        /* \"#utility.yul\":17950:17957   */\n      dup5\n        /* \"#utility.yul\":17941:17947   */\n      dup3\n        /* \"#utility.yul\":17930:17939   */\n      dup6\n        /* \"#utility.yul\":17926:17948   */\n      add\n        /* \"#utility.yul\":17897:17958   */\n      tag_197\n      jump\t// in\n    tag_359:\n        /* \"#utility.yul\":17887:17958   */\n      swap2\n      pop\n        /* \"#utility.yul\":17843:17968   */\n      pop\n        /* \"#utility.yul\":17630:17975   */\n      swap3\n      swap2\n      pop\n      pop\n      jump\t// out\n        /* \"#utility.yul\":17981:18423   */\n    tag_132:\n        /* \"#utility.yul\":18130:18134   */\n      0x00\n        /* \"#utility.yul\":18168:18170   */\n      0x60\n        /* \"#utility.yul\":18157:18166   */\n      dup3\n        /* \"#utility.yul\":18153:18171   */\n      add\n        /* \"#utility.yul\":18145:18171   */\n      swap1\n      pop\n        /* \"#utility.yul\":18181:18252   */\n      tag_361\n        /* \"#utility.yul\":18249:18250   */\n      0x00\n        /* \"#utility.yul\":18238:18247   */\n      dup4\n        /* \"#utility.yul\":18234:18251   */\n      add\n        /* \"#utility.yul\":18225:18231   */\n      dup7\n        /* \"#utility.yul\":18181:18252   */\n      tag_164\n      jump\t// in\n    tag_361:\n        /* \"#utility.yul\":18262:18334   */\n      tag_362\n        /* \"#utility.yul\":18330:18332   */\n      0x20\n        /* \"#utility.yul\":18319:18328   */\n      dup4\n        /* \"#utility.yul\":18315:18333   */\n      add\n        /* \"#utility.yul\":18306:18312   */\n      dup6\n        /* \"#utility.yul\":18262:18334   */\n      tag_163\n      jump\t// in\n    tag_362:\n        /* \"#utility.yul\":18344:18416   */\n      tag_363\n        /* \"#utility.yul\":18412:18414   */\n      0x40\n        /* \"#utility.yul\":18401:18410   */\n      dup4\n        /* \"#utility.yul\":18397:18415   */\n      add\n        /* \"#utility.yul\":18388:18394   */\n      dup5\n        /* \"#utility.yul\":18344:18416   */\n      tag_164\n      jump\t// in\n    tag_363:\n        /* \"#utility.yul\":17981:18423   */\n      swap5\n      swap4\n      pop\n      pop\n      pop\n      pop\n      jump\t// out\n        /* \"#utility.yul\":18429:18595   */\n    tag_198:\n        /* \"#utility.yul\":18569:18587   */\n      0x496e76616c6964206f7264657220494400000000000000000000000000000000\n        /* \"#utility.yul\":18565:18566   */\n      0x00\n        /* \"#utility.yul\":18557:18563   */\n      dup3\n        /* \"#utility.yul\":18553:18567   */\n      add\n        /* \"#utility.yul\":18546:18588   */\n      mstore\n        /* \"#utility.yul\":18429:18595   */\n      pop\n      jump\t// out\n        /* \"#utility.yul\":18601:18967   */\n    tag_199:\n        /* \"#utility.yul\":18743:18746   */\n      0x00\n        /* \"#utility.yul\":18764:18831   */\n      tag_366\n        /* \"#utility.yul\":18828:18830   */\n      0x10\n        /* \"#utility.yul\":18823:18826   */\n      dup4\n        /* \"#utility.yul\":18764:18831   */\n      tag_169\n      jump\t// in\n    tag_366:\n        /* \"#utility.yul\":18757:18831   */\n      swap2\n      pop\n        /* \"#utility.yul\":18840:18933   */\n      tag_367\n        /* \"#utility.yul\":18929:18932   */\n      dup3\n        /* \"#utility.yul\":18840:18933   */\n      tag_198\n      jump\t// in\n    tag_367:\n        /* \"#utility.yul\":18958:18960   */\n      0x20\n        /* \"#utility.yul\":18953:18956   */\n      dup3\n        /* \"#utility.yul\":18949:18961   */\n      add\n        /* \"#utility.yul\":18942:18961   */\n      swap1\n      pop\n        /* \"#utility.yul\":18601:18967   */\n      swap2\n      swap1\n      pop\n      jump\t// out\n        /* \"#utility.yul\":18973:19392   */\n    tag_136:\n        /* \"#utility.yul\":19139:19143   */\n      0x00\n        /* \"#utility.yul\":19177:19179   */\n      0x20\n        /* \"#utility.yul\":19166:19175   */\n      dup3\n        /* \"#utility.yul\":19162:19180   */\n      add\n        /* \"#utility.yul\":19154:19180   */\n      swap1\n      pop\n        /* \"#utility.yul\":19226:19235   */\n      dup2\n        /* \"#utility.yul\":19220:19224   */\n      dup2\n        /* \"#utility.yul\":19216:19236   */\n      sub\n        /* \"#utility.yul\":19212:19213   */\n      0x00\n        /* \"#utility.yul\":19201:19210   */\n      dup4\n        /* \"#utility.yul\":19197:19214   */\n      add\n        /* \"#utility.yul\":19190:19237   */\n      mstore\n        /* \"#utility.yul\":19254:19385   */\n      tag_369\n        /* \"#utility.yul\":19380:19384   */\n      dup2\n        /* \"#utility.yul\":19254:19385   */\n      tag_199\n      jump\t// in\n    tag_369:\n        /* \"#utility.yul\":19246:19385   */\n      swap1\n      pop\n        /* \"#utility.yul\":18973:19392   */\n      swap2\n      swap1\n      pop\n      jump\t// out\n\n    auxdata: 0xa26469706673582212202c06eec4265a0130eb686c867c4ca0c8f31bdf7d7c4b9718d64d1baa1009c7c564736f6c63430008120033\n}\n",
				"bytecode": {
					"linkReferences": {},
					"object": "60806040523480156200001157600080fd5b5033600073ffffffffffffffffffffffffffffffffffffffff168173ffffffffffffffffffffffffffffffffffffffff1603620000885760006040517f1e4fbdf70000000000000000000000000000000000000000000000000000000081526004016200007f9190620001a9565b60405180910390fd5b6200009981620000a060201b60201c565b50620001c6565b60008060009054906101000a900473ffffffffffffffffffffffffffffffffffffffff169050816000806101000a81548173ffffffffffffffffffffffffffffffffffffffff021916908373ffffffffffffffffffffffffffffffffffffffff1602179055508173ffffffffffffffffffffffffffffffffffffffff168173ffffffffffffffffffffffffffffffffffffffff167f8be0079c531659141344cd1fd0a4f28419497f9722a3daafe3b4186f6b6457e060405160405180910390a35050565b600073ffffffffffffffffffffffffffffffffffffffff82169050919050565b6000620001918262000164565b9050919050565b620001a38162000184565b82525050565b6000602082019050620001c0600083018462000198565b92915050565b61194680620001d66000396000f3fe608060405234801561001057600080fd5b506004361061009e5760003560e01c80638da5cb5b116100665780638da5cb5b1461011f578063a85c38ef1461013d578063cfbd978f14610171578063ec7dd7bb1461018d578063f2fde38b146101a95761009e565b806307540ca6146100a35780632a58b330146100bf578063514fcac7146100dd578063687b1df8146100f9578063715018a614610115575b600080fd5b6100bd60048036038101906100b89190611009565b6101c5565b005b6100c76103fd565b6040516100d49190611058565b60405180910390f35b6100f760048036038101906100f29190611073565b610403565b005b610113600480360381019061010e91906110a0565b610569565b005b61011d61082a565b005b61012761083e565b60405161013491906110ef565b60405180910390f35b61015760048036038101906101529190611073565b610867565b604051610168959493929190611181565b60405180910390f35b61018b600480360381019061018691906111d4565b6108ea565b005b6101a760048036038101906101a29190611073565b610c55565b005b6101c360048036038101906101be9190611227565b610d97565b005b60008211610208576040517f08c379a00000000000000000000000000000000000000000000000000000000081526004016101ff906112d7565b60405180910390fd5b600073ffffffffffffffffffffffffffffffffffffffff168173ffffffffffffffffffffffffffffffffffffffff1603610277576040517f08c379a000000000000000000000000000000000000000000000000000000000815260040161026e90611343565b60405180910390fd5b6002600081548092919061028a90611392565b9190505550600254600160006002548152602001908152602001600020600001819055503360016000600254815260200190815260200160002060010160006101000a81548173ffffffffffffffffffffffffffffffffffffffff021916908373ffffffffffffffffffffffffffffffffffffffff16021790555081600160006002548152602001908152602001600020600201819055508060016000600254815260200190815260200160002060030160006101000a81548173ffffffffffffffffffffffffffffffffffffffff021916908373ffffffffffffffffffffffffffffffffffffffff160217905550600060016000600254815260200190815260200160002060030160146101000a81548160ff021916908360028111156103b5576103b461110a565b5b02179055507fbdff0cf754bd4e2ee390fda990f59e49114328e6b402c87ac12d06ed2bb7170f6002543384846040516103f194939291906113da565b60405180910390a15050565b60025481565b61040b610e1d565b806000600160008381526020019081526020016000206000015403610465576040517f08c379a000000000000000000000000000000000000000000000000000000000815260040161045c9061146b565b60405180910390fd5b600060028111156104795761047861110a565b5b6001600084815260200190815260200160002060030160149054906101000a900460ff1660028111156104af576104ae61110a565b5b146104ef576040517f08c379a00000000000000000000000000000000000000000000000000000000081526004016104e6906114d7565b60405180910390fd5b60026001600084815260200190815260200160002060030160146101000a81548160ff021916908360028111156105295761052861110a565b5b02179055507f61b9399f2f0f32ca39ce8d7be32caed5ec22fe07a6daba3a467ed479ec6065828260405161055d9190611058565b60405180910390a15050565b6000600281111561057d5761057c61110a565b5b6001600084815260200190815260200160002060030160149054906101000a900460ff1660028111156105b3576105b261110a565b5b146105f3576040517f08c379a00000000000000000000000000000000000000000000000000000000081526004016105ea906114d7565b60405180910390fd5b6001600083815260200190815260200160002060040160003373ffffffffffffffffffffffffffffffffffffffff1673ffffffffffffffffffffffffffffffffffffffff16815260200190815260200160002060009054906101000a900460ff1615610694576040517f08c379a000000000000000000000000000000000000000000000000000000000815260040161068b90611543565b60405180910390fd5b600081036106d7576040517f08c379a00000000000000000000000000000000000000000000000000000000081526004016106ce906115af565b60405180910390fd5b60008233836040516020016106ee93929190611638565b60405160208183030381529060405280519060200120905060016000848152602001908152602001600020600501600082815260200190815260200160002060009054906101000a900460ff161561077b576040517f08c379a0000000000000000000000000000000000000000000000000000000008152600401610772906116c1565b60405180910390fd5b600180600085815260200190815260200160002060040160003373ffffffffffffffffffffffffffffffffffffffff1673ffffffffffffffffffffffffffffffffffffffff16815260200190815260200160002060006101000a81548160ff0219169083151502179055506001806000858152602001908152602001600020600501600083815260200190815260200160002060006101000a81548160ff021916908315150217905550505050565b610832610e1d565b61083c6000610ea4565b565b60008060009054906101000a900473ffffffffffffffffffffffffffffffffffffffff16905090565b60016020528060005260406000206000915090508060000154908060010160009054906101000a900473ffffffffffffffffffffffffffffffffffffffff16908060020154908060030160009054906101000a900473ffffffffffffffffffffffffffffffffffffffff16908060030160149054906101000a900460ff16905085565b826001600082815260200190815260200160002060040160003373ffffffffffffffffffffffffffffffffffffffff1673ffffffffffffffffffffffffffffffffffffffff16815260200190815260200160002060009054906101000a900460ff1661098b576040517f08c379a000000000000000000000000000000000000000000000000000000000815260040161098290611753565b60405180910390fd5b6000600281111561099f5761099e61110a565b5b6001600086815260200190815260200160002060030160149054906101000a900460ff1660028111156109d5576109d461110a565b5b14610a15576040517f08c379a0000000000000000000000000000000000000000000000000000000008152600401610a0c906114d7565b60405180910390fd5b6000848385604051602001610a2c93929190611638565b60405160208183030381529060405280519060200120905060016000868152602001908152602001600020600501600082815260200190815260200160002060009054906101000a900460ff16610ab8576040517f08c379a0000000000000000000000000000000000000000000000000000000008152600401610aaf906117bf565b60405180910390fd5b600180600087815260200190815260200160002060030160146101000a81548160ff02191690836002811115610af157610af061110a565b5b021790555060006001600087815260200190815260200160002060030160009054906101000a900473ffffffffffffffffffffffffffffffffffffffff1690508073ffffffffffffffffffffffffffffffffffffffff1663a9059cbb85600160008a8152602001908152602001600020600201546040518363ffffffff1660e01b8152600401610b829291906117df565b6020604051808303816000875af1158015610ba1573d6000803e3d6000fd5b505050506040513d601f19601f82011682018060405250810190610bc59190611840565b507f74521722fc86dc8b2bda041d06bd7a9029ef72153c049c301a329c8ce6fbdeef336001600089815260200190815260200160002060020154600160008a815260200190815260200160002060030160009054906101000a900473ffffffffffffffffffffffffffffffffffffffff16604051610c459392919061186d565b60405180910390a1505050505050565b600254811115610c9a576040517f08c379a0000000000000000000000000000000000000000000000000000000008152600401610c91906118f0565b60405180910390fd5b7f6a24c897920de7c05188751b6bf1cf4ecdd4c93ef71dfe6042d4446cf3ee939960016000838152602001908152602001600020600001546001600084815260200190815260200160002060010160009054906101000a900473ffffffffffffffffffffffffffffffffffffffff1660016000858152602001908152602001600020600201546001600086815260200190815260200160002060030160009054906101000a900473ffffffffffffffffffffffffffffffffffffffff166001600087815260200190815260200160002060030160149054906101000a900460ff16604051610d8c959493929190611181565b60405180910390a150565b610d9f610e1d565b600073ffffffffffffffffffffffffffffffffffffffff168173ffffffffffffffffffffffffffffffffffffffff1603610e115760006040517f1e4fbdf7000000000000000000000000000000000000000000000000000000008152600401610e0891906110ef565b60405180910390fd5b610e1a81610ea4565b50565b610e25610f68565b73ffffffffffffffffffffffffffffffffffffffff16610e4361083e565b73ffffffffffffffffffffffffffffffffffffffff1614610ea257610e66610f68565b6040517f118cdaa7000000000000000000000000000000000000000000000000000000008152600401610e9991906110ef565b60405180910390fd5b565b60008060009054906101000a900473ffffffffffffffffffffffffffffffffffffffff169050816000806101000a81548173ffffffffffffffffffffffffffffffffffffffff021916908373ffffffffffffffffffffffffffffffffffffffff1602179055508173ffffffffffffffffffffffffffffffffffffffff168173ffffffffffffffffffffffffffffffffffffffff167f8be0079c531659141344cd1fd0a4f28419497f9722a3daafe3b4186f6b6457e060405160405180910390a35050565b600033905090565b600080fd5b6000819050919050565b610f8881610f75565b8114610f9357600080fd5b50565b600081359050610fa581610f7f565b92915050565b600073ffffffffffffffffffffffffffffffffffffffff82169050919050565b6000610fd682610fab565b9050919050565b610fe681610fcb565b8114610ff157600080fd5b50565b60008135905061100381610fdd565b92915050565b600080604083850312156110205761101f610f70565b5b600061102e85828601610f96565b925050602061103f85828601610ff4565b9150509250929050565b61105281610f75565b82525050565b600060208201905061106d6000830184611049565b92915050565b60006020828403121561108957611088610f70565b5b600061109784828501610f96565b91505092915050565b600080604083850312156110b7576110b6610f70565b5b60006110c585828601610f96565b92505060206110d685828601610f96565b9150509250929050565b6110e981610fcb565b82525050565b600060208201905061110460008301846110e0565b92915050565b7f4e487b7100000000000000000000000000000000000000000000000000000000600052602160045260246000fd5b6003811061114a5761114961110a565b5b50565b600081905061115b82611139565b919050565b600061116b8261114d565b9050919050565b61117b81611160565b82525050565b600060a0820190506111966000830188611049565b6111a360208301876110e0565b6111b06040830186611049565b6111bd60608301856110e0565b6111ca6080830184611172565b9695505050505050565b6000806000606084860312156111ed576111ec610f70565b5b60006111fb86828701610f96565b935050602061120c86828701610f96565b925050604061121d86828701610ff4565b9150509250925092565b60006020828403121561123d5761123c610f70565b5b600061124b84828501610ff4565b91505092915050565b600082825260208201905092915050565b7f546f6b656e20616d6f756e74206d75737420626520677265617465722074686160008201527f6e20300000000000000000000000000000000000000000000000000000000000602082015250565b60006112c1602383611254565b91506112cc82611265565b604082019050919050565b600060208201905081810360008301526112f0816112b4565b9050919050565b7f496e76616c696420746f6b656e20636f6e747261637420616464726573730000600082015250565b600061132d601e83611254565b9150611338826112f7565b602082019050919050565b6000602082019050818103600083015261135c81611320565b9050919050565b7f4e487b7100000000000000000000000000000000000000000000000000000000600052601160045260246000fd5b600061139d82610f75565b91507fffffffffffffffffffffffffffffffffffffffffffffffffffffffffffffffff82036113cf576113ce611363565b5b600182019050919050565b60006080820190506113ef6000830187611049565b6113fc60208301866110e0565b6114096040830185611049565b61141660608301846110e0565b95945050505050565b7f4f7264657220646f6573206e6f74206578697374000000000000000000000000600082015250565b6000611455601483611254565b91506114608261141f565b602082019050919050565b6000602082019050818103600083015261148481611448565b9050919050565b7f4f72646572206973206e6f7420696e2043524541544544207374617465000000600082015250565b60006114c1601d83611254565b91506114cc8261148b565b602082019050919050565b600060208201905081810360008301526114f0816114b4565b9050919050565b7f427579657220616c726561647920726567697374657265640000000000000000600082015250565b600061152d601883611254565b9150611538826114f7565b602082019050919050565b6000602082019050818103600083015261155c81611520565b9050919050565b7f52616e646f6d206e756d6265722063616e6e6f74206265207a65726f00000000600082015250565b6000611599601c83611254565b91506115a482611563565b602082019050919050565b600060208201905081810360008301526115c88161158c565b9050919050565b6000819050919050565b6115ea6115e582610f75565b6115cf565b82525050565b60008160601b9050919050565b6000611608826115f0565b9050919050565b600061161a826115fd565b9050919050565b61163261162d82610fcb565b61160f565b82525050565b600061164482866115d9565b6020820191506116548285611621565b60148201915061166482846115d9565b602082019150819050949350505050565b7f52616e646f6d206e756d62657220616c72656164792075736564000000000000600082015250565b60006116ab601a83611254565b91506116b682611675565b602082019050919050565b600060208201905081810360008301526116da8161169e565b9050919050565b7f4f6e6c7920726567697374657265642062757965722063616e2063616c6c207460008201527f6869730000000000000000000000000000000000000000000000000000000000602082015250565b600061173d602383611254565b9150611748826116e1565b604082019050919050565b6000602082019050818103600083015261176c81611730565b9050919050565b7f496e76616c69642072616e646f6d206e756d6265720000000000000000000000600082015250565b60006117a9601583611254565b91506117b482611773565b602082019050919050565b600060208201905081810360008301526117d88161179c565b9050919050565b60006040820190506117f460008301856110e0565b6118016020830184611049565b9392505050565b60008115159050919050565b61181d81611808565b811461182857600080fd5b50565b60008151905061183a81611814565b92915050565b60006020828403121561185657611855610f70565b5b60006118648482850161182b565b91505092915050565b600060608201905061188260008301866110e0565b61188f6020830185611049565b61189c60408301846110e0565b949350505050565b7f496e76616c6964206f7264657220494400000000000000000000000000000000600082015250565b60006118da601083611254565b91506118e5826118a4565b602082019050919050565b60006020820190508181036000830152611909816118cd565b905091905056fea26469706673582212202c06eec4265a0130eb686c867c4ca0c8f31bdf7d7c4b9718d64d1baa1009c7c564736f6c63430008120033",
					"opcodes": "PUSH1 0x80 PUSH1 0x40 MSTORE CALLVALUE DUP1 ISZERO PUSH3 0x11 JUMPI PUSH1 0x0 DUP1 REVERT JUMPDEST POP CALLER PUSH1 0x0 PUSH20 0xFFFFFFFFFFFFFFFFFFFFFFFFFFFFFFFFFFFFFFFF AND DUP2 PUSH20 0xFFFFFFFFFFFFFFFFFFFFFFFFFFFFFFFFFFFFFFFF AND SUB PUSH3 0x88 JUMPI PUSH1 0x0 PUSH1 0x40 MLOAD PUSH32 0x1E4FBDF700000000000000000000000000000000000000000000000000000000 DUP2 MSTORE PUSH1 0x4 ADD PUSH3 0x7F SWAP2 SWAP1 PUSH3 0x1A9 JUMP JUMPDEST PUSH1 0x40 MLOAD DUP1 SWAP2 SUB SWAP1 REVERT JUMPDEST PUSH3 0x99 DUP2 PUSH3 0xA0 PUSH1 0x20 SHL PUSH1 0x20 SHR JUMP JUMPDEST POP PUSH3 0x1C6 JUMP JUMPDEST PUSH1 0x0 DUP1 PUSH1 0x0 SWAP1 SLOAD SWAP1 PUSH2 0x100 EXP SWAP1 DIV PUSH20 0xFFFFFFFFFFFFFFFFFFFFFFFFFFFFFFFFFFFFFFFF AND SWAP1 POP DUP2 PUSH1 0x0 DUP1 PUSH2 0x100 EXP DUP2 SLOAD DUP2 PUSH20 0xFFFFFFFFFFFFFFFFFFFFFFFFFFFFFFFFFFFFFFFF MUL NOT AND SWAP1 DUP4 PUSH20 0xFFFFFFFFFFFFFFFFFFFFFFFFFFFFFFFFFFFFFFFF AND MUL OR SWAP1 SSTORE POP DUP2 PUSH20 0xFFFFFFFFFFFFFFFFFFFFFFFFFFFFFFFFFFFFFFFF AND DUP2 PUSH20 0xFFFFFFFFFFFFFFFFFFFFFFFFFFFFFFFFFFFFFFFF AND PUSH32 0x8BE0079C531659141344CD1FD0A4F28419497F9722A3DAAFE3B4186F6B6457E0 PUSH1 0x40 MLOAD PUSH1 0x40 MLOAD DUP1 SWAP2 SUB SWAP1 LOG3 POP POP JUMP JUMPDEST PUSH1 0x0 PUSH20 0xFFFFFFFFFFFFFFFFFFFFFFFFFFFFFFFFFFFFFFFF DUP3 AND SWAP1 POP SWAP2 SWAP1 POP JUMP JUMPDEST PUSH1 0x0 PUSH3 0x191 DUP3 PUSH3 0x164 JUMP JUMPDEST SWAP1 POP SWAP2 SWAP1 POP JUMP JUMPDEST PUSH3 0x1A3 DUP2 PUSH3 0x184 JUMP JUMPDEST DUP3 MSTORE POP POP JUMP JUMPDEST PUSH1 0x0 PUSH1 0x20 DUP3 ADD SWAP1 POP PUSH3 0x1C0 PUSH1 0x0 DUP4 ADD DUP5 PUSH3 0x198 JUMP JUMPDEST SWAP3 SWAP2 POP POP JUMP JUMPDEST PUSH2 0x1946 DUP1 PUSH3 0x1D6 PUSH1 0x0 CODECOPY PUSH1 0x0 RETURN INVALID PUSH1 0x80 PUSH1 0x40 MSTORE CALLVALUE DUP1 ISZERO PUSH2 0x10 JUMPI PUSH1 0x0 DUP1 REVERT JUMPDEST POP PUSH1 0x4 CALLDATASIZE LT PUSH2 0x9E JUMPI PUSH1 0x0 CALLDATALOAD PUSH1 0xE0 SHR DUP1 PUSH4 0x8DA5CB5B GT PUSH2 0x66 JUMPI DUP1 PUSH4 0x8DA5CB5B EQ PUSH2 0x11F JUMPI DUP1 PUSH4 0xA85C38EF EQ PUSH2 0x13D JUMPI DUP1 PUSH4 0xCFBD978F EQ PUSH2 0x171 JUMPI DUP1 PUSH4 0xEC7DD7BB EQ PUSH2 0x18D JUMPI DUP1 PUSH4 0xF2FDE38B EQ PUSH2 0x1A9 JUMPI PUSH2 0x9E JUMP JUMPDEST DUP1 PUSH4 0x7540CA6 EQ PUSH2 0xA3 JUMPI DUP1 PUSH4 0x2A58B330 EQ PUSH2 0xBF JUMPI DUP1 PUSH4 0x514FCAC7 EQ PUSH2 0xDD JUMPI DUP1 PUSH4 0x687B1DF8 EQ PUSH2 0xF9 JUMPI DUP1 PUSH4 0x715018A6 EQ PUSH2 0x115 JUMPI JUMPDEST PUSH1 0x0 DUP1 REVERT JUMPDEST PUSH2 0xBD PUSH1 0x4 DUP1 CALLDATASIZE SUB DUP2 ADD SWAP1 PUSH2 0xB8 SWAP2 SWAP1 PUSH2 0x1009 JUMP JUMPDEST PUSH2 0x1C5 JUMP JUMPDEST STOP JUMPDEST PUSH2 0xC7 PUSH2 0x3FD JUMP JUMPDEST PUSH1 0x40 MLOAD PUSH2 0xD4 SWAP2 SWAP1 PUSH2 0x1058 JUMP JUMPDEST PUSH1 0x40 MLOAD DUP1 SWAP2 SUB SWAP1 RETURN JUMPDEST PUSH2 0xF7 PUSH1 0x4 DUP1 CALLDATASIZE SUB DUP2 ADD SWAP1 PUSH2 0xF2 SWAP2 SWAP1 PUSH2 0x1073 JUMP JUMPDEST PUSH2 0x403 JUMP JUMPDEST STOP JUMPDEST PUSH2 0x113 PUSH1 0x4 DUP1 CALLDATASIZE SUB DUP2 ADD SWAP1 PUSH2 0x10E SWAP2 SWAP1 PUSH2 0x10A0 JUMP JUMPDEST PUSH2 0x569 JUMP JUMPDEST STOP JUMPDEST PUSH2 0x11D PUSH2 0x82A JUMP JUMPDEST STOP JUMPDEST PUSH2 0x127 PUSH2 0x83E JUMP JUMPDEST PUSH1 0x40 MLOAD PUSH2 0x134 SWAP2 SWAP1 PUSH2 0x10EF JUMP JUMPDEST PUSH1 0x40 MLOAD DUP1 SWAP2 SUB SWAP1 RETURN JUMPDEST PUSH2 0x157 PUSH1 0x4 DUP1 CALLDATASIZE SUB DUP2 ADD SWAP1 PUSH2 0x152 SWAP2 SWAP1 PUSH2 0x1073 JUMP JUMPDEST PUSH2 0x867 JUMP JUMPDEST PUSH1 0x40 MLOAD PUSH2 0x168 SWAP6 SWAP5 SWAP4 SWAP3 SWAP2 SWAP1 PUSH2 0x1181 JUMP JUMPDEST PUSH1 0x40 MLOAD DUP1 SWAP2 SUB SWAP1 RETURN JUMPDEST PUSH2 0x18B PUSH1 0x4 DUP1 CALLDATASIZE SUB DUP2 ADD SWAP1 PUSH2 0x186 SWAP2 SWAP1 PUSH2 0x11D4 JUMP JUMPDEST PUSH2 0x8EA JUMP JUMPDEST STOP JUMPDEST PUSH2 0x1A7 PUSH1 0x4 DUP1 CALLDATASIZE SUB DUP2 ADD SWAP1 PUSH2 0x1A2 SWAP2 SWAP1 PUSH2 0x1073 JUMP JUMPDEST PUSH2 0xC55 JUMP JUMPDEST STOP JUMPDEST PUSH2 0x1C3 PUSH1 0x4 DUP1 CALLDATASIZE SUB DUP2 ADD SWAP1 PUSH2 0x1BE SWAP2 SWAP1 PUSH2 0x1227 JUMP JUMPDEST PUSH2 0xD97 JUMP JUMPDEST STOP JUMPDEST PUSH1 0x0 DUP3 GT PUSH2 0x208 JUMPI PUSH1 0x40 MLOAD PUSH32 0x8C379A000000000000000000000000000000000000000000000000000000000 DUP2 MSTORE PUSH1 0x4 ADD PUSH2 0x1FF SWAP1 PUSH2 0x12D7 JUMP JUMPDEST PUSH1 0x40 MLOAD DUP1 SWAP2 SUB SWAP1 REVERT JUMPDEST PUSH1 0x0 PUSH20 0xFFFFFFFFFFFFFFFFFFFFFFFFFFFFFFFFFFFFFFFF AND DUP2 PUSH20 0xFFFFFFFFFFFFFFFFFFFFFFFFFFFFFFFFFFFFFFFF AND SUB PUSH2 0x277 JUMPI PUSH1 0x40 MLOAD PUSH32 0x8C379A000000000000000000000000000000000000000000000000000000000 DUP2 MSTORE PUSH1 0x4 ADD PUSH2 0x26E SWAP1 PUSH2 0x1343 JUMP JUMPDEST PUSH1 0x40 MLOAD DUP1 SWAP2 SUB SWAP1 REVERT JUMPDEST PUSH1 0x2 PUSH1 0x0 DUP2 SLOAD DUP1 SWAP3 SWAP2 SWAP1 PUSH2 0x28A SWAP1 PUSH2 0x1392 JUMP JUMPDEST SWAP2 SWAP1 POP SSTORE POP PUSH1 0x2 SLOAD PUSH1 0x1 PUSH1 0x0 PUSH1 0x2 SLOAD DUP2 MSTORE PUSH1 0x20 ADD SWAP1 DUP2 MSTORE PUSH1 0x20 ADD PUSH1 0x0 KECCAK256 PUSH1 0x0 ADD DUP2 SWAP1 SSTORE POP CALLER PUSH1 0x1 PUSH1 0x0 PUSH1 0x2 SLOAD DUP2 MSTORE PUSH1 0x20 ADD SWAP1 DUP2 MSTORE PUSH1 0x20 ADD PUSH1 0x0 KECCAK256 PUSH1 0x1 ADD PUSH1 0x0 PUSH2 0x100 EXP DUP2 SLOAD DUP2 PUSH20 0xFFFFFFFFFFFFFFFFFFFFFFFFFFFFFFFFFFFFFFFF MUL NOT AND SWAP1 DUP4 PUSH20 0xFFFFFFFFFFFFFFFFFFFFFFFFFFFFFFFFFFFFFFFF AND MUL OR SWAP1 SSTORE POP DUP2 PUSH1 0x1 PUSH1 0x0 PUSH1 0x2 SLOAD DUP2 MSTORE PUSH1 0x20 ADD SWAP1 DUP2 MSTORE PUSH1 0x20 ADD PUSH1 0x0 KECCAK256 PUSH1 0x2 ADD DUP2 SWAP1 SSTORE POP DUP1 PUSH1 0x1 PUSH1 0x0 PUSH1 0x2 SLOAD DUP2 MSTORE PUSH1 0x20 ADD SWAP1 DUP2 MSTORE PUSH1 0x20 ADD PUSH1 0x0 KECCAK256 PUSH1 0x3 ADD PUSH1 0x0 PUSH2 0x100 EXP DUP2 SLOAD DUP2 PUSH20 0xFFFFFFFFFFFFFFFFFFFFFFFFFFFFFFFFFFFFFFFF MUL NOT AND SWAP1 DUP4 PUSH20 0xFFFFFFFFFFFFFFFFFFFFFFFFFFFFFFFFFFFFFFFF AND MUL OR SWAP1 SSTORE POP PUSH1 0x0 PUSH1 0x1 PUSH1 0x0 PUSH1 0x2 SLOAD DUP2 MSTORE PUSH1 0x20 ADD SWAP1 DUP2 MSTORE PUSH1 0x20 ADD PUSH1 0x0 KECCAK256 PUSH1 0x3 ADD PUSH1 0x14 PUSH2 0x100 EXP DUP2 SLOAD DUP2 PUSH1 0xFF MUL NOT AND SWAP1 DUP4 PUSH1 0x2 DUP2 GT ISZERO PUSH2 0x3B5 JUMPI PUSH2 0x3B4 PUSH2 0x110A JUMP JUMPDEST JUMPDEST MUL OR SWAP1 SSTORE POP PUSH32 0xBDFF0CF754BD4E2EE390FDA990F59E49114328E6B402C87AC12D06ED2BB7170F PUSH1 0x2 SLOAD CALLER DUP5 DUP5 PUSH1 0x40 MLOAD PUSH2 0x3F1 SWAP5 SWAP4 SWAP3 SWAP2 SWAP1 PUSH2 0x13DA JUMP JUMPDEST PUSH1 0x40 MLOAD DUP1 SWAP2 SUB SWAP1 LOG1 POP POP JUMP JUMPDEST PUSH1 0x2 SLOAD DUP2 JUMP JUMPDEST PUSH2 0x40B PUSH2 0xE1D JUMP JUMPDEST DUP1 PUSH1 0x0 PUSH1 0x1 PUSH1 0x0 DUP4 DUP2 MSTORE PUSH1 0x20 ADD SWAP1 DUP2 MSTORE PUSH1 0x20 ADD PUSH1 0x0 KECCAK256 PUSH1 0x0 ADD SLOAD SUB PUSH2 0x465 JUMPI PUSH1 0x40 MLOAD PUSH32 0x8C379A000000000000000000000000000000000000000000000000000000000 DUP2 MSTORE PUSH1 0x4 ADD PUSH2 0x45C SWAP1 PUSH2 0x146B JUMP JUMPDEST PUSH1 0x40 MLOAD DUP1 SWAP2 SUB SWAP1 REVERT JUMPDEST PUSH1 0x0 PUSH1 0x2 DUP2 GT ISZERO PUSH2 0x479 JUMPI PUSH2 0x478 PUSH2 0x110A JUMP JUMPDEST JUMPDEST PUSH1 0x1 PUSH1 0x0 DUP5 DUP2 MSTORE PUSH1 0x20 ADD SWAP1 DUP2 MSTORE PUSH1 0x20 ADD PUSH1 0x0 KECCAK256 PUSH1 0x3 ADD PUSH1 0x14 SWAP1 SLOAD SWAP1 PUSH2 0x100 EXP SWAP1 DIV PUSH1 0xFF AND PUSH1 0x2 DUP2 GT ISZERO PUSH2 0x4AF JUMPI PUSH2 0x4AE PUSH2 0x110A JUMP JUMPDEST JUMPDEST EQ PUSH2 0x4EF JUMPI PUSH1 0x40 MLOAD PUSH32 0x8C379A000000000000000000000000000000000000000000000000000000000 DUP2 MSTORE PUSH1 0x4 ADD PUSH2 0x4E6 SWAP1 PUSH2 0x14D7 JUMP JUMPDEST PUSH1 0x40 MLOAD DUP1 SWAP2 SUB SWAP1 REVERT JUMPDEST PUSH1 0x2 PUSH1 0x1 PUSH1 0x0 DUP5 DUP2 MSTORE PUSH1 0x20 ADD SWAP1 DUP2 MSTORE PUSH1 0x20 ADD PUSH1 0x0 KECCAK256 PUSH1 0x3 ADD PUSH1 0x14 PUSH2 0x100 EXP DUP2 SLOAD DUP2 PUSH1 0xFF MUL NOT AND SWAP1 DUP4 PUSH1 0x2 DUP2 GT ISZERO PUSH2 0x529 JUMPI PUSH2 0x528 PUSH2 0x110A JUMP JUMPDEST JUMPDEST MUL OR SWAP1 SSTORE POP PUSH32 0x61B9399F2F0F32CA39CE8D7BE32CAED5EC22FE07A6DABA3A467ED479EC606582 DUP3 PUSH1 0x40 MLOAD PUSH2 0x55D SWAP2 SWAP1 PUSH2 0x1058 JUMP JUMPDEST PUSH1 0x40 MLOAD DUP1 SWAP2 SUB SWAP1 LOG1 POP POP JUMP JUMPDEST PUSH1 0x0 PUSH1 0x2 DUP2 GT ISZERO PUSH2 0x57D JUMPI PUSH2 0x57C PUSH2 0x110A JUMP JUMPDEST JUMPDEST PUSH1 0x1 PUSH1 0x0 DUP5 DUP2 MSTORE PUSH1 0x20 ADD SWAP1 DUP2 MSTORE PUSH1 0x20 ADD PUSH1 0x0 KECCAK256 PUSH1 0x3 ADD PUSH1 0x14 SWAP1 SLOAD SWAP1 PUSH2 0x100 EXP SWAP1 DIV PUSH1 0xFF AND PUSH1 0x2 DUP2 GT ISZERO PUSH2 0x5B3 JUMPI PUSH2 0x5B2 PUSH2 0x110A JUMP JUMPDEST JUMPDEST EQ PUSH2 0x5F3 JUMPI PUSH1 0x40 MLOAD PUSH32 0x8C379A000000000000000000000000000000000000000000000000000000000 DUP2 MSTORE PUSH1 0x4 ADD PUSH2 0x5EA SWAP1 PUSH2 0x14D7 JUMP JUMPDEST PUSH1 0x40 MLOAD DUP1 SWAP2 SUB SWAP1 REVERT JUMPDEST PUSH1 0x1 PUSH1 0x0 DUP4 DUP2 MSTORE PUSH1 0x20 ADD SWAP1 DUP2 MSTORE PUSH1 0x20 ADD PUSH1 0x0 KECCAK256 PUSH1 0x4 ADD PUSH1 0x0 CALLER PUSH20 0xFFFFFFFFFFFFFFFFFFFFFFFFFFFFFFFFFFFFFFFF AND PUSH20 0xFFFFFFFFFFFFFFFFFFFFFFFFFFFFFFFFFFFFFFFF AND DUP2 MSTORE PUSH1 0x20 ADD SWAP1 DUP2 MSTORE PUSH1 0x20 ADD PUSH1 0x0 KECCAK256 PUSH1 0x0 SWAP1 SLOAD SWAP1 PUSH2 0x100 EXP SWAP1 DIV PUSH1 0xFF AND ISZERO PUSH2 0x694 JUMPI PUSH1 0x40 MLOAD PUSH32 0x8C379A000000000000000000000000000000000000000000000000000000000 DUP2 MSTORE PUSH1 0x4 ADD PUSH2 0x68B SWAP1 PUSH2 0x1543 JUMP JUMPDEST PUSH1 0x40 MLOAD DUP1 SWAP2 SUB SWAP1 REVERT JUMPDEST PUSH1 0x0 DUP2 SUB PUSH2 0x6D7 JUMPI PUSH1 0x40 MLOAD PUSH32 0x8C379A000000000000000000000000000000000000000000000000000000000 DUP2 MSTORE PUSH1 0x4 ADD PUSH2 0x6CE SWAP1 PUSH2 0x15AF JUMP JUMPDEST PUSH1 0x40 MLOAD DUP1 SWAP2 SUB SWAP1 REVERT JUMPDEST PUSH1 0x0 DUP3 CALLER DUP4 PUSH1 0x40 MLOAD PUSH1 0x20 ADD PUSH2 0x6EE SWAP4 SWAP3 SWAP2 SWAP1 PUSH2 0x1638 JUMP JUMPDEST PUSH1 0x40 MLOAD PUSH1 0x20 DUP2 DUP4 SUB SUB DUP2 MSTORE SWAP1 PUSH1 0x40 MSTORE DUP1 MLOAD SWAP1 PUSH1 0x20 ADD KECCAK256 SWAP1 POP PUSH1 0x1 PUSH1 0x0 DUP5 DUP2 MSTORE PUSH1 0x20 ADD SWAP1 DUP2 MSTORE PUSH1 0x20 ADD PUSH1 0x0 KECCAK256 PUSH1 0x5 ADD PUSH1 0x0 DUP3 DUP2 MSTORE PUSH1 0x20 ADD SWAP1 DUP2 MSTORE PUSH1 0x20 ADD PUSH1 0x0 KECCAK256 PUSH1 0x0 SWAP1 SLOAD SWAP1 PUSH2 0x100 EXP SWAP1 DIV PUSH1 0xFF AND ISZERO PUSH2 0x77B JUMPI PUSH1 0x40 MLOAD PUSH32 0x8C379A000000000000000000000000000000000000000000000000000000000 DUP2 MSTORE PUSH1 0x4 ADD PUSH2 0x772 SWAP1 PUSH2 0x16C1 JUMP JUMPDEST PUSH1 0x40 MLOAD DUP1 SWAP2 SUB SWAP1 REVERT JUMPDEST PUSH1 0x1 DUP1 PUSH1 0x0 DUP6 DUP2 MSTORE PUSH1 0x20 ADD SWAP1 DUP2 MSTORE PUSH1 0x20 ADD PUSH1 0x0 KECCAK256 PUSH1 0x4 ADD PUSH1 0x0 CALLER PUSH20 0xFFFFFFFFFFFFFFFFFFFFFFFFFFFFFFFFFFFFFFFF AND PUSH20 0xFFFFFFFFFFFFFFFFFFFFFFFFFFFFFFFFFFFFFFFF AND DUP2 MSTORE PUSH1 0x20 ADD SWAP1 DUP2 MSTORE PUSH1 0x20 ADD PUSH1 0x0 KECCAK256 PUSH1 0x0 PUSH2 0x100 EXP DUP2 SLOAD DUP2 PUSH1 0xFF MUL NOT AND SWAP1 DUP4 ISZERO ISZERO MUL OR SWAP1 SSTORE POP PUSH1 0x1 DUP1 PUSH1 0x0 DUP6 DUP2 MSTORE PUSH1 0x20 ADD SWAP1 DUP2 MSTORE PUSH1 0x20 ADD PUSH1 0x0 KECCAK256 PUSH1 0x5 ADD PUSH1 0x0 DUP4 DUP2 MSTORE PUSH1 0x20 ADD SWAP1 DUP2 MSTORE PUSH1 0x20 ADD PUSH1 0x0 KECCAK256 PUSH1 0x0 PUSH2 0x100 EXP DUP2 SLOAD DUP2 PUSH1 0xFF MUL NOT AND SWAP1 DUP4 ISZERO ISZERO MUL OR SWAP1 SSTORE POP POP POP POP JUMP JUMPDEST PUSH2 0x832 PUSH2 0xE1D JUMP JUMPDEST PUSH2 0x83C PUSH1 0x0 PUSH2 0xEA4 JUMP JUMPDEST JUMP JUMPDEST PUSH1 0x0 DUP1 PUSH1 0x0 SWAP1 SLOAD SWAP1 PUSH2 0x100 EXP SWAP1 DIV PUSH20 0xFFFFFFFFFFFFFFFFFFFFFFFFFFFFFFFFFFFFFFFF AND SWAP1 POP SWAP1 JUMP JUMPDEST PUSH1 0x1 PUSH1 0x20 MSTORE DUP1 PUSH1 0x0 MSTORE PUSH1 0x40 PUSH1 0x0 KECCAK256 PUSH1 0x0 SWAP2 POP SWAP1 POP DUP1 PUSH1 0x0 ADD SLOAD SWAP1 DUP1 PUSH1 0x1 ADD PUSH1 0x0 SWAP1 SLOAD SWAP1 PUSH2 0x100 EXP SWAP1 DIV PUSH20 0xFFFFFFFFFFFFFFFFFFFFFFFFFFFFFFFFFFFFFFFF AND SWAP1 DUP1 PUSH1 0x2 ADD SLOAD SWAP1 DUP1 PUSH1 0x3 ADD PUSH1 0x0 SWAP1 SLOAD SWAP1 PUSH2 0x100 EXP SWAP1 DIV PUSH20 0xFFFFFFFFFFFFFFFFFFFFFFFFFFFFFFFFFFFFFFFF AND SWAP1 DUP1 PUSH1 0x3 ADD PUSH1 0x14 SWAP1 SLOAD SWAP1 PUSH2 0x100 EXP SWAP1 DIV PUSH1 0xFF AND SWAP1 POP DUP6 JUMP JUMPDEST DUP3 PUSH1 0x1 PUSH1 0x0 DUP3 DUP2 MSTORE PUSH1 0x20 ADD SWAP1 DUP2 MSTORE PUSH1 0x20 ADD PUSH1 0x0 KECCAK256 PUSH1 0x4 ADD PUSH1 0x0 CALLER PUSH20 0xFFFFFFFFFFFFFFFFFFFFFFFFFFFFFFFFFFFFFFFF AND PUSH20 0xFFFFFFFFFFFFFFFFFFFFFFFFFFFFFFFFFFFFFFFF AND DUP2 MSTORE PUSH1 0x20 ADD SWAP1 DUP2 MSTORE PUSH1 0x20 ADD PUSH1 0x0 KECCAK256 PUSH1 0x0 SWAP1 SLOAD SWAP1 PUSH2 0x100 EXP SWAP1 DIV PUSH1 0xFF AND PUSH2 0x98B JUMPI PUSH1 0x40 MLOAD PUSH32 0x8C379A000000000000000000000000000000000000000000000000000000000 DUP2 MSTORE PUSH1 0x4 ADD PUSH2 0x982 SWAP1 PUSH2 0x1753 JUMP JUMPDEST PUSH1 0x40 MLOAD DUP1 SWAP2 SUB SWAP1 REVERT JUMPDEST PUSH1 0x0 PUSH1 0x2 DUP2 GT ISZERO PUSH2 0x99F JUMPI PUSH2 0x99E PUSH2 0x110A JUMP JUMPDEST JUMPDEST PUSH1 0x1 PUSH1 0x0 DUP7 DUP2 MSTORE PUSH1 0x20 ADD SWAP1 DUP2 MSTORE PUSH1 0x20 ADD PUSH1 0x0 KECCAK256 PUSH1 0x3 ADD PUSH1 0x14 SWAP1 SLOAD SWAP1 PUSH2 0x100 EXP SWAP1 DIV PUSH1 0xFF AND PUSH1 0x2 DUP2 GT ISZERO PUSH2 0x9D5 JUMPI PUSH2 0x9D4 PUSH2 0x110A JUMP JUMPDEST JUMPDEST EQ PUSH2 0xA15 JUMPI PUSH1 0x40 MLOAD PUSH32 0x8C379A000000000000000000000000000000000000000000000000000000000 DUP2 MSTORE PUSH1 0x4 ADD PUSH2 0xA0C SWAP1 PUSH2 0x14D7 JUMP JUMPDEST PUSH1 0x40 MLOAD DUP1 SWAP2 SUB SWAP1 REVERT JUMPDEST PUSH1 0x0 DUP5 DUP4 DUP6 PUSH1 0x40 MLOAD PUSH1 0x20 ADD PUSH2 0xA2C SWAP4 SWAP3 SWAP2 SWAP1 PUSH2 0x1638 JUMP JUMPDEST PUSH1 0x40 MLOAD PUSH1 0x20 DUP2 DUP4 SUB SUB DUP2 MSTORE SWAP1 PUSH1 0x40 MSTORE DUP1 MLOAD SWAP1 PUSH1 0x20 ADD KECCAK256 SWAP1 POP PUSH1 0x1 PUSH1 0x0 DUP7 DUP2 MSTORE PUSH1 0x20 ADD SWAP1 DUP2 MSTORE PUSH1 0x20 ADD PUSH1 0x0 KECCAK256 PUSH1 0x5 ADD PUSH1 0x0 DUP3 DUP2 MSTORE PUSH1 0x20 ADD SWAP1 DUP2 MSTORE PUSH1 0x20 ADD PUSH1 0x0 KECCAK256 PUSH1 0x0 SWAP1 SLOAD SWAP1 PUSH2 0x100 EXP SWAP1 DIV PUSH1 0xFF AND PUSH2 0xAB8 JUMPI PUSH1 0x40 MLOAD PUSH32 0x8C379A000000000000000000000000000000000000000000000000000000000 DUP2 MSTORE PUSH1 0x4 ADD PUSH2 0xAAF SWAP1 PUSH2 0x17BF JUMP JUMPDEST PUSH1 0x40 MLOAD DUP1 SWAP2 SUB SWAP1 REVERT JUMPDEST PUSH1 0x1 DUP1 PUSH1 0x0 DUP8 DUP2 MSTORE PUSH1 0x20 ADD SWAP1 DUP2 MSTORE PUSH1 0x20 ADD PUSH1 0x0 KECCAK256 PUSH1 0x3 ADD PUSH1 0x14 PUSH2 0x100 EXP DUP2 SLOAD DUP2 PUSH1 0xFF MUL NOT AND SWAP1 DUP4 PUSH1 0x2 DUP2 GT ISZERO PUSH2 0xAF1 JUMPI PUSH2 0xAF0 PUSH2 0x110A JUMP JUMPDEST JUMPDEST MUL OR SWAP1 SSTORE POP PUSH1 0x0 PUSH1 0x1 PUSH1 0x0 DUP8 DUP2 MSTORE PUSH1 0x20 ADD SWAP1 DUP2 MSTORE PUSH1 0x20 ADD PUSH1 0x0 KECCAK256 PUSH1 0x3 ADD PUSH1 0x0 SWAP1 SLOAD SWAP1 PUSH2 0x100 EXP SWAP1 DIV PUSH20 0xFFFFFFFFFFFFFFFFFFFFFFFFFFFFFFFFFFFFFFFF AND SWAP1 POP DUP1 PUSH20 0xFFFFFFFFFFFFFFFFFFFFFFFFFFFFFFFFFFFFFFFF AND PUSH4 0xA9059CBB DUP6 PUSH1 0x1 PUSH1 0x0 DUP11 DUP2 MSTORE PUSH1 0x20 ADD SWAP1 DUP2 MSTORE PUSH1 0x20 ADD PUSH1 0x0 KECCAK256 PUSH1 0x2 ADD SLOAD PUSH1 0x40 MLOAD DUP4 PUSH4 0xFFFFFFFF AND PUSH1 0xE0 SHL DUP2 MSTORE PUSH1 0x4 ADD PUSH2 0xB82 SWAP3 SWAP2 SWAP1 PUSH2 0x17DF JUMP JUMPDEST PUSH1 0x20 PUSH1 0x40 MLOAD DUP1 DUP4 SUB DUP2 PUSH1 0x0 DUP8 GAS CALL ISZERO DUP1 ISZERO PUSH2 0xBA1 JUMPI RETURNDATASIZE PUSH1 0x0 DUP1 RETURNDATACOPY RETURNDATASIZE PUSH1 0x0 REVERT JUMPDEST POP POP POP POP PUSH1 0x40 MLOAD RETURNDATASIZE PUSH1 0x1F NOT PUSH1 0x1F DUP3 ADD AND DUP3 ADD DUP1 PUSH1 0x40 MSTORE POP DUP2 ADD SWAP1 PUSH2 0xBC5 SWAP2 SWAP1 PUSH2 0x1840 JUMP JUMPDEST POP PUSH32 0x74521722FC86DC8B2BDA041D06BD7A9029EF72153C049C301A329C8CE6FBDEEF CALLER PUSH1 0x1 PUSH1 0x0 DUP10 DUP2 MSTORE PUSH1 0x20 ADD SWAP1 DUP2 MSTORE PUSH1 0x20 ADD PUSH1 0x0 KECCAK256 PUSH1 0x2 ADD SLOAD PUSH1 0x1 PUSH1 0x0 DUP11 DUP2 MSTORE PUSH1 0x20 ADD SWAP1 DUP2 MSTORE PUSH1 0x20 ADD PUSH1 0x0 KECCAK256 PUSH1 0x3 ADD PUSH1 0x0 SWAP1 SLOAD SWAP1 PUSH2 0x100 EXP SWAP1 DIV PUSH20 0xFFFFFFFFFFFFFFFFFFFFFFFFFFFFFFFFFFFFFFFF AND PUSH1 0x40 MLOAD PUSH2 0xC45 SWAP4 SWAP3 SWAP2 SWAP1 PUSH2 0x186D JUMP JUMPDEST PUSH1 0x40 MLOAD DUP1 SWAP2 SUB SWAP1 LOG1 POP POP POP POP POP POP JUMP JUMPDEST PUSH1 0x2 SLOAD DUP2 GT ISZERO PUSH2 0xC9A JUMPI PUSH1 0x40 MLOAD PUSH32 0x8C379A000000000000000000000000000000000000000000000000000000000 DUP2 MSTORE PUSH1 0x4 ADD PUSH2 0xC91 SWAP1 PUSH2 0x18F0 JUMP JUMPDEST PUSH1 0x40 MLOAD DUP1 SWAP2 SUB SWAP1 REVERT JUMPDEST PUSH32 0x6A24C897920DE7C05188751B6BF1CF4ECDD4C93EF71DFE6042D4446CF3EE9399 PUSH1 0x1 PUSH1 0x0 DUP4 DUP2 MSTORE PUSH1 0x20 ADD SWAP1 DUP2 MSTORE PUSH1 0x20 ADD PUSH1 0x0 KECCAK256 PUSH1 0x0 ADD SLOAD PUSH1 0x1 PUSH1 0x0 DUP5 DUP2 MSTORE PUSH1 0x20 ADD SWAP1 DUP2 MSTORE PUSH1 0x20 ADD PUSH1 0x0 KECCAK256 PUSH1 0x1 ADD PUSH1 0x0 SWAP1 SLOAD SWAP1 PUSH2 0x100 EXP SWAP1 DIV PUSH20 0xFFFFFFFFFFFFFFFFFFFFFFFFFFFFFFFFFFFFFFFF AND PUSH1 0x1 PUSH1 0x0 DUP6 DUP2 MSTORE PUSH1 0x20 ADD SWAP1 DUP2 MSTORE PUSH1 0x20 ADD PUSH1 0x0 KECCAK256 PUSH1 0x2 ADD SLOAD PUSH1 0x1 PUSH1 0x0 DUP7 DUP2 MSTORE PUSH1 0x20 ADD SWAP1 DUP2 MSTORE PUSH1 0x20 ADD PUSH1 0x0 KECCAK256 PUSH1 0x3 ADD PUSH1 0x0 SWAP1 SLOAD SWAP1 PUSH2 0x100 EXP SWAP1 DIV PUSH20 0xFFFFFFFFFFFFFFFFFFFFFFFFFFFFFFFFFFFFFFFF AND PUSH1 0x1 PUSH1 0x0 DUP8 DUP2 MSTORE PUSH1 0x20 ADD SWAP1 DUP2 MSTORE PUSH1 0x20 ADD PUSH1 0x0 KECCAK256 PUSH1 0x3 ADD PUSH1 0x14 SWAP1 SLOAD SWAP1 PUSH2 0x100 EXP SWAP1 DIV PUSH1 0xFF AND PUSH1 0x40 MLOAD PUSH2 0xD8C SWAP6 SWAP5 SWAP4 SWAP3 SWAP2 SWAP1 PUSH2 0x1181 JUMP JUMPDEST PUSH1 0x40 MLOAD DUP1 SWAP2 SUB SWAP1 LOG1 POP JUMP JUMPDEST PUSH2 0xD9F PUSH2 0xE1D JUMP JUMPDEST PUSH1 0x0 PUSH20 0xFFFFFFFFFFFFFFFFFFFFFFFFFFFFFFFFFFFFFFFF AND DUP2 PUSH20 0xFFFFFFFFFFFFFFFFFFFFFFFFFFFFFFFFFFFFFFFF AND SUB PUSH2 0xE11 JUMPI PUSH1 0x0 PUSH1 0x40 MLOAD PUSH32 0x1E4FBDF700000000000000000000000000000000000000000000000000000000 DUP2 MSTORE PUSH1 0x4 ADD PUSH2 0xE08 SWAP2 SWAP1 PUSH2 0x10EF JUMP JUMPDEST PUSH1 0x40 MLOAD DUP1 SWAP2 SUB SWAP1 REVERT JUMPDEST PUSH2 0xE1A DUP2 PUSH2 0xEA4 JUMP JUMPDEST POP JUMP JUMPDEST PUSH2 0xE25 PUSH2 0xF68 JUMP JUMPDEST PUSH20 0xFFFFFFFFFFFFFFFFFFFFFFFFFFFFFFFFFFFFFFFF AND PUSH2 0xE43 PUSH2 0x83E JUMP JUMPDEST PUSH20 0xFFFFFFFFFFFFFFFFFFFFFFFFFFFFFFFFFFFFFFFF AND EQ PUSH2 0xEA2 JUMPI PUSH2 0xE66 PUSH2 0xF68 JUMP JUMPDEST PUSH1 0x40 MLOAD PUSH32 0x118CDAA700000000000000000000000000000000000000000000000000000000 DUP2 MSTORE PUSH1 0x4 ADD PUSH2 0xE99 SWAP2 SWAP1 PUSH2 0x10EF JUMP JUMPDEST PUSH1 0x40 MLOAD DUP1 SWAP2 SUB SWAP1 REVERT JUMPDEST JUMP JUMPDEST PUSH1 0x0 DUP1 PUSH1 0x0 SWAP1 SLOAD SWAP1 PUSH2 0x100 EXP SWAP1 DIV PUSH20 0xFFFFFFFFFFFFFFFFFFFFFFFFFFFFFFFFFFFFFFFF AND SWAP1 POP DUP2 PUSH1 0x0 DUP1 PUSH2 0x100 EXP DUP2 SLOAD DUP2 PUSH20 0xFFFFFFFFFFFFFFFFFFFFFFFFFFFFFFFFFFFFFFFF MUL NOT AND SWAP1 DUP4 PUSH20 0xFFFFFFFFFFFFFFFFFFFFFFFFFFFFFFFFFFFFFFFF AND MUL OR SWAP1 SSTORE POP DUP2 PUSH20 0xFFFFFFFFFFFFFFFFFFFFFFFFFFFFFFFFFFFFFFFF AND DUP2 PUSH20 0xFFFFFFFFFFFFFFFFFFFFFFFFFFFFFFFFFFFFFFFF AND PUSH32 0x8BE0079C531659141344CD1FD0A4F28419497F9722A3DAAFE3B4186F6B6457E0 PUSH1 0x40 MLOAD PUSH1 0x40 MLOAD DUP1 SWAP2 SUB SWAP1 LOG3 POP POP JUMP JUMPDEST PUSH1 0x0 CALLER SWAP1 POP SWAP1 JUMP JUMPDEST PUSH1 0x0 DUP1 REVERT JUMPDEST PUSH1 0x0 DUP2 SWAP1 POP SWAP2 SWAP1 POP JUMP JUMPDEST PUSH2 0xF88 DUP2 PUSH2 0xF75 JUMP JUMPDEST DUP2 EQ PUSH2 0xF93 JUMPI PUSH1 0x0 DUP1 REVERT JUMPDEST POP JUMP JUMPDEST PUSH1 0x0 DUP2 CALLDATALOAD SWAP1 POP PUSH2 0xFA5 DUP2 PUSH2 0xF7F JUMP JUMPDEST SWAP3 SWAP2 POP POP JUMP JUMPDEST PUSH1 0x0 PUSH20 0xFFFFFFFFFFFFFFFFFFFFFFFFFFFFFFFFFFFFFFFF DUP3 AND SWAP1 POP SWAP2 SWAP1 POP JUMP JUMPDEST PUSH1 0x0 PUSH2 0xFD6 DUP3 PUSH2 0xFAB JUMP JUMPDEST SWAP1 POP SWAP2 SWAP1 POP JUMP JUMPDEST PUSH2 0xFE6 DUP2 PUSH2 0xFCB JUMP JUMPDEST DUP2 EQ PUSH2 0xFF1 JUMPI PUSH1 0x0 DUP1 REVERT JUMPDEST POP JUMP JUMPDEST PUSH1 0x0 DUP2 CALLDATALOAD SWAP1 POP PUSH2 0x1003 DUP2 PUSH2 0xFDD JUMP JUMPDEST SWAP3 SWAP2 POP POP JUMP JUMPDEST PUSH1 0x0 DUP1 PUSH1 0x40 DUP4 DUP6 SUB SLT ISZERO PUSH2 0x1020 JUMPI PUSH2 0x101F PUSH2 0xF70 JUMP JUMPDEST JUMPDEST PUSH1 0x0 PUSH2 0x102E DUP6 DUP3 DUP7 ADD PUSH2 0xF96 JUMP JUMPDEST SWAP3 POP POP PUSH1 0x20 PUSH2 0x103F DUP6 DUP3 DUP7 ADD PUSH2 0xFF4 JUMP JUMPDEST SWAP2 POP POP SWAP3 POP SWAP3 SWAP1 POP JUMP JUMPDEST PUSH2 0x1052 DUP2 PUSH2 0xF75 JUMP JUMPDEST DUP3 MSTORE POP POP JUMP JUMPDEST PUSH1 0x0 PUSH1 0x20 DUP3 ADD SWAP1 POP PUSH2 0x106D PUSH1 0x0 DUP4 ADD DUP5 PUSH2 0x1049 JUMP JUMPDEST SWAP3 SWAP2 POP POP JUMP JUMPDEST PUSH1 0x0 PUSH1 0x20 DUP3 DUP5 SUB SLT ISZERO PUSH2 0x1089 JUMPI PUSH2 0x1088 PUSH2 0xF70 JUMP JUMPDEST JUMPDEST PUSH1 0x0 PUSH2 0x1097 DUP5 DUP3 DUP6 ADD PUSH2 0xF96 JUMP JUMPDEST SWAP2 POP POP SWAP3 SWAP2 POP POP JUMP JUMPDEST PUSH1 0x0 DUP1 PUSH1 0x40 DUP4 DUP6 SUB SLT ISZERO PUSH2 0x10B7 JUMPI PUSH2 0x10B6 PUSH2 0xF70 JUMP JUMPDEST JUMPDEST PUSH1 0x0 PUSH2 0x10C5 DUP6 DUP3 DUP7 ADD PUSH2 0xF96 JUMP JUMPDEST SWAP3 POP POP PUSH1 0x20 PUSH2 0x10D6 DUP6 DUP3 DUP7 ADD PUSH2 0xF96 JUMP JUMPDEST SWAP2 POP POP SWAP3 POP SWAP3 SWAP1 POP JUMP JUMPDEST PUSH2 0x10E9 DUP2 PUSH2 0xFCB JUMP JUMPDEST DUP3 MSTORE POP POP JUMP JUMPDEST PUSH1 0x0 PUSH1 0x20 DUP3 ADD SWAP1 POP PUSH2 0x1104 PUSH1 0x0 DUP4 ADD DUP5 PUSH2 0x10E0 JUMP JUMPDEST SWAP3 SWAP2 POP POP JUMP JUMPDEST PUSH32 0x4E487B7100000000000000000000000000000000000000000000000000000000 PUSH1 0x0 MSTORE PUSH1 0x21 PUSH1 0x4 MSTORE PUSH1 0x24 PUSH1 0x0 REVERT JUMPDEST PUSH1 0x3 DUP2 LT PUSH2 0x114A JUMPI PUSH2 0x1149 PUSH2 0x110A JUMP JUMPDEST JUMPDEST POP JUMP JUMPDEST PUSH1 0x0 DUP2 SWAP1 POP PUSH2 0x115B DUP3 PUSH2 0x1139 JUMP JUMPDEST SWAP2 SWAP1 POP JUMP JUMPDEST PUSH1 0x0 PUSH2 0x116B DUP3 PUSH2 0x114D JUMP JUMPDEST SWAP1 POP SWAP2 SWAP1 POP JUMP JUMPDEST PUSH2 0x117B DUP2 PUSH2 0x1160 JUMP JUMPDEST DUP3 MSTORE POP POP JUMP JUMPDEST PUSH1 0x0 PUSH1 0xA0 DUP3 ADD SWAP1 POP PUSH2 0x1196 PUSH1 0x0 DUP4 ADD DUP9 PUSH2 0x1049 JUMP JUMPDEST PUSH2 0x11A3 PUSH1 0x20 DUP4 ADD DUP8 PUSH2 0x10E0 JUMP JUMPDEST PUSH2 0x11B0 PUSH1 0x40 DUP4 ADD DUP7 PUSH2 0x1049 JUMP JUMPDEST PUSH2 0x11BD PUSH1 0x60 DUP4 ADD DUP6 PUSH2 0x10E0 JUMP JUMPDEST PUSH2 0x11CA PUSH1 0x80 DUP4 ADD DUP5 PUSH2 0x1172 JUMP JUMPDEST SWAP7 SWAP6 POP POP POP POP POP POP JUMP JUMPDEST PUSH1 0x0 DUP1 PUSH1 0x0 PUSH1 0x60 DUP5 DUP7 SUB SLT ISZERO PUSH2 0x11ED JUMPI PUSH2 0x11EC PUSH2 0xF70 JUMP JUMPDEST JUMPDEST PUSH1 0x0 PUSH2 0x11FB DUP7 DUP3 DUP8 ADD PUSH2 0xF96 JUMP JUMPDEST SWAP4 POP POP PUSH1 0x20 PUSH2 0x120C DUP7 DUP3 DUP8 ADD PUSH2 0xF96 JUMP JUMPDEST SWAP3 POP POP PUSH1 0x40 PUSH2 0x121D DUP7 DUP3 DUP8 ADD PUSH2 0xFF4 JUMP JUMPDEST SWAP2 POP POP SWAP3 POP SWAP3 POP SWAP3 JUMP JUMPDEST PUSH1 0x0 PUSH1 0x20 DUP3 DUP5 SUB SLT ISZERO PUSH2 0x123D JUMPI PUSH2 0x123C PUSH2 0xF70 JUMP JUMPDEST JUMPDEST PUSH1 0x0 PUSH2 0x124B DUP5 DUP3 DUP6 ADD PUSH2 0xFF4 JUMP JUMPDEST SWAP2 POP POP SWAP3 SWAP2 POP POP JUMP JUMPDEST PUSH1 0x0 DUP3 DUP3 MSTORE PUSH1 0x20 DUP3 ADD SWAP1 POP SWAP3 SWAP2 POP POP JUMP JUMPDEST PUSH32 0x546F6B656E20616D6F756E74206D757374206265206772656174657220746861 PUSH1 0x0 DUP3 ADD MSTORE PUSH32 0x6E20300000000000000000000000000000000000000000000000000000000000 PUSH1 0x20 DUP3 ADD MSTORE POP JUMP JUMPDEST PUSH1 0x0 PUSH2 0x12C1 PUSH1 0x23 DUP4 PUSH2 0x1254 JUMP JUMPDEST SWAP2 POP PUSH2 0x12CC DUP3 PUSH2 0x1265 JUMP JUMPDEST PUSH1 0x40 DUP3 ADD SWAP1 POP SWAP2 SWAP1 POP JUMP JUMPDEST PUSH1 0x0 PUSH1 0x20 DUP3 ADD SWAP1 POP DUP2 DUP2 SUB PUSH1 0x0 DUP4 ADD MSTORE PUSH2 0x12F0 DUP2 PUSH2 0x12B4 JUMP JUMPDEST SWAP1 POP SWAP2 SWAP1 POP JUMP JUMPDEST PUSH32 0x496E76616C696420746F6B656E20636F6E747261637420616464726573730000 PUSH1 0x0 DUP3 ADD MSTORE POP JUMP JUMPDEST PUSH1 0x0 PUSH2 0x132D PUSH1 0x1E DUP4 PUSH2 0x1254 JUMP JUMPDEST SWAP2 POP PUSH2 0x1338 DUP3 PUSH2 0x12F7 JUMP JUMPDEST PUSH1 0x20 DUP3 ADD SWAP1 POP SWAP2 SWAP1 POP JUMP JUMPDEST PUSH1 0x0 PUSH1 0x20 DUP3 ADD SWAP1 POP DUP2 DUP2 SUB PUSH1 0x0 DUP4 ADD MSTORE PUSH2 0x135C DUP2 PUSH2 0x1320 JUMP JUMPDEST SWAP1 POP SWAP2 SWAP1 POP JUMP JUMPDEST PUSH32 0x4E487B7100000000000000000000000000000000000000000000000000000000 PUSH1 0x0 MSTORE PUSH1 0x11 PUSH1 0x4 MSTORE PUSH1 0x24 PUSH1 0x0 REVERT JUMPDEST PUSH1 0x0 PUSH2 0x139D DUP3 PUSH2 0xF75 JUMP JUMPDEST SWAP2 POP PUSH32 0xFFFFFFFFFFFFFFFFFFFFFFFFFFFFFFFFFFFFFFFFFFFFFFFFFFFFFFFFFFFFFFFF DUP3 SUB PUSH2 0x13CF JUMPI PUSH2 0x13CE PUSH2 0x1363 JUMP JUMPDEST JUMPDEST PUSH1 0x1 DUP3 ADD SWAP1 POP SWAP2 SWAP1 POP JUMP JUMPDEST PUSH1 0x0 PUSH1 0x80 DUP3 ADD SWAP1 POP PUSH2 0x13EF PUSH1 0x0 DUP4 ADD DUP8 PUSH2 0x1049 JUMP JUMPDEST PUSH2 0x13FC PUSH1 0x20 DUP4 ADD DUP7 PUSH2 0x10E0 JUMP JUMPDEST PUSH2 0x1409 PUSH1 0x40 DUP4 ADD DUP6 PUSH2 0x1049 JUMP JUMPDEST PUSH2 0x1416 PUSH1 0x60 DUP4 ADD DUP5 PUSH2 0x10E0 JUMP JUMPDEST SWAP6 SWAP5 POP POP POP POP POP JUMP JUMPDEST PUSH32 0x4F7264657220646F6573206E6F74206578697374000000000000000000000000 PUSH1 0x0 DUP3 ADD MSTORE POP JUMP JUMPDEST PUSH1 0x0 PUSH2 0x1455 PUSH1 0x14 DUP4 PUSH2 0x1254 JUMP JUMPDEST SWAP2 POP PUSH2 0x1460 DUP3 PUSH2 0x141F JUMP JUMPDEST PUSH1 0x20 DUP3 ADD SWAP1 POP SWAP2 SWAP1 POP JUMP JUMPDEST PUSH1 0x0 PUSH1 0x20 DUP3 ADD SWAP1 POP DUP2 DUP2 SUB PUSH1 0x0 DUP4 ADD MSTORE PUSH2 0x1484 DUP2 PUSH2 0x1448 JUMP JUMPDEST SWAP1 POP SWAP2 SWAP1 POP JUMP JUMPDEST PUSH32 0x4F72646572206973206E6F7420696E2043524541544544207374617465000000 PUSH1 0x0 DUP3 ADD MSTORE POP JUMP JUMPDEST PUSH1 0x0 PUSH2 0x14C1 PUSH1 0x1D DUP4 PUSH2 0x1254 JUMP JUMPDEST SWAP2 POP PUSH2 0x14CC DUP3 PUSH2 0x148B JUMP JUMPDEST PUSH1 0x20 DUP3 ADD SWAP1 POP SWAP2 SWAP1 POP JUMP JUMPDEST PUSH1 0x0 PUSH1 0x20 DUP3 ADD SWAP1 POP DUP2 DUP2 SUB PUSH1 0x0 DUP4 ADD MSTORE PUSH2 0x14F0 DUP2 PUSH2 0x14B4 JUMP JUMPDEST SWAP1 POP SWAP2 SWAP1 POP JUMP JUMPDEST PUSH32 0x427579657220616C726561647920726567697374657265640000000000000000 PUSH1 0x0 DUP3 ADD MSTORE POP JUMP JUMPDEST PUSH1 0x0 PUSH2 0x152D PUSH1 0x18 DUP4 PUSH2 0x1254 JUMP JUMPDEST SWAP2 POP PUSH2 0x1538 DUP3 PUSH2 0x14F7 JUMP JUMPDEST PUSH1 0x20 DUP3 ADD SWAP1 POP SWAP2 SWAP1 POP JUMP JUMPDEST PUSH1 0x0 PUSH1 0x20 DUP3 ADD SWAP1 POP DUP2 DUP2 SUB PUSH1 0x0 DUP4 ADD MSTORE PUSH2 0x155C DUP2 PUSH2 0x1520 JUMP JUMPDEST SWAP1 POP SWAP2 SWAP1 POP JUMP JUMPDEST PUSH32 0x52616E646F6D206E756D6265722063616E6E6F74206265207A65726F00000000 PUSH1 0x0 DUP3 ADD MSTORE POP JUMP JUMPDEST PUSH1 0x0 PUSH2 0x1599 PUSH1 0x1C DUP4 PUSH2 0x1254 JUMP JUMPDEST SWAP2 POP PUSH2 0x15A4 DUP3 PUSH2 0x1563 JUMP JUMPDEST PUSH1 0x20 DUP3 ADD SWAP1 POP SWAP2 SWAP1 POP JUMP JUMPDEST PUSH1 0x0 PUSH1 0x20 DUP3 ADD SWAP1 POP DUP2 DUP2 SUB PUSH1 0x0 DUP4 ADD MSTORE PUSH2 0x15C8 DUP2 PUSH2 0x158C JUMP JUMPDEST SWAP1 POP SWAP2 SWAP1 POP JUMP JUMPDEST PUSH1 0x0 DUP2 SWAP1 POP SWAP2 SWAP1 POP JUMP JUMPDEST PUSH2 0x15EA PUSH2 0x15E5 DUP3 PUSH2 0xF75 JUMP JUMPDEST PUSH2 0x15CF JUMP JUMPDEST DUP3 MSTORE POP POP JUMP JUMPDEST PUSH1 0x0 DUP2 PUSH1 0x60 SHL SWAP1 POP SWAP2 SWAP1 POP JUMP JUMPDEST PUSH1 0x0 PUSH2 0x1608 DUP3 PUSH2 0x15F0 JUMP JUMPDEST SWAP1 POP SWAP2 SWAP1 POP JUMP JUMPDEST PUSH1 0x0 PUSH2 0x161A DUP3 PUSH2 0x15FD JUMP JUMPDEST SWAP1 POP SWAP2 SWAP1 POP JUMP JUMPDEST PUSH2 0x1632 PUSH2 0x162D DUP3 PUSH2 0xFCB JUMP JUMPDEST PUSH2 0x160F JUMP JUMPDEST DUP3 MSTORE POP POP JUMP JUMPDEST PUSH1 0x0 PUSH2 0x1644 DUP3 DUP7 PUSH2 0x15D9 JUMP JUMPDEST PUSH1 0x20 DUP3 ADD SWAP2 POP PUSH2 0x1654 DUP3 DUP6 PUSH2 0x1621 JUMP JUMPDEST PUSH1 0x14 DUP3 ADD SWAP2 POP PUSH2 0x1664 DUP3 DUP5 PUSH2 0x15D9 JUMP JUMPDEST PUSH1 0x20 DUP3 ADD SWAP2 POP DUP2 SWAP1 POP SWAP5 SWAP4 POP POP POP POP JUMP JUMPDEST PUSH32 0x52616E646F6D206E756D62657220616C72656164792075736564000000000000 PUSH1 0x0 DUP3 ADD MSTORE POP JUMP JUMPDEST PUSH1 0x0 PUSH2 0x16AB PUSH1 0x1A DUP4 PUSH2 0x1254 JUMP JUMPDEST SWAP2 POP PUSH2 0x16B6 DUP3 PUSH2 0x1675 JUMP JUMPDEST PUSH1 0x20 DUP3 ADD SWAP1 POP SWAP2 SWAP1 POP JUMP JUMPDEST PUSH1 0x0 PUSH1 0x20 DUP3 ADD SWAP1 POP DUP2 DUP2 SUB PUSH1 0x0 DUP4 ADD MSTORE PUSH2 0x16DA DUP2 PUSH2 0x169E JUMP JUMPDEST SWAP1 POP SWAP2 SWAP1 POP JUMP JUMPDEST PUSH32 0x4F6E6C7920726567697374657265642062757965722063616E2063616C6C2074 PUSH1 0x0 DUP3 ADD MSTORE PUSH32 0x6869730000000000000000000000000000000000000000000000000000000000 PUSH1 0x20 DUP3 ADD MSTORE POP JUMP JUMPDEST PUSH1 0x0 PUSH2 0x173D PUSH1 0x23 DUP4 PUSH2 0x1254 JUMP JUMPDEST SWAP2 POP PUSH2 0x1748 DUP3 PUSH2 0x16E1 JUMP JUMPDEST PUSH1 0x40 DUP3 ADD SWAP1 POP SWAP2 SWAP1 POP JUMP JUMPDEST PUSH1 0x0 PUSH1 0x20 DUP3 ADD SWAP1 POP DUP2 DUP2 SUB PUSH1 0x0 DUP4 ADD MSTORE PUSH2 0x176C DUP2 PUSH2 0x1730 JUMP JUMPDEST SWAP1 POP SWAP2 SWAP1 POP JUMP JUMPDEST PUSH32 0x496E76616C69642072616E646F6D206E756D6265720000000000000000000000 PUSH1 0x0 DUP3 ADD MSTORE POP JUMP JUMPDEST PUSH1 0x0 PUSH2 0x17A9 PUSH1 0x15 DUP4 PUSH2 0x1254 JUMP JUMPDEST SWAP2 POP PUSH2 0x17B4 DUP3 PUSH2 0x1773 JUMP JUMPDEST PUSH1 0x20 DUP3 ADD SWAP1 POP SWAP2 SWAP1 POP JUMP JUMPDEST PUSH1 0x0 PUSH1 0x20 DUP3 ADD SWAP1 POP DUP2 DUP2 SUB PUSH1 0x0 DUP4 ADD MSTORE PUSH2 0x17D8 DUP2 PUSH2 0x179C JUMP JUMPDEST SWAP1 POP SWAP2 SWAP1 POP JUMP JUMPDEST PUSH1 0x0 PUSH1 0x40 DUP3 ADD SWAP1 POP PUSH2 0x17F4 PUSH1 0x0 DUP4 ADD DUP6 PUSH2 0x10E0 JUMP JUMPDEST PUSH2 0x1801 PUSH1 0x20 DUP4 ADD DUP5 PUSH2 0x1049 JUMP JUMPDEST SWAP4 SWAP3 POP POP POP JUMP JUMPDEST PUSH1 0x0 DUP2 ISZERO ISZERO SWAP1 POP SWAP2 SWAP1 POP JUMP JUMPDEST PUSH2 0x181D DUP2 PUSH2 0x1808 JUMP JUMPDEST DUP2 EQ PUSH2 0x1828 JUMPI PUSH1 0x0 DUP1 REVERT JUMPDEST POP JUMP JUMPDEST PUSH1 0x0 DUP2 MLOAD SWAP1 POP PUSH2 0x183A DUP2 PUSH2 0x1814 JUMP JUMPDEST SWAP3 SWAP2 POP POP JUMP JUMPDEST PUSH1 0x0 PUSH1 0x20 DUP3 DUP5 SUB SLT ISZERO PUSH2 0x1856 JUMPI PUSH2 0x1855 PUSH2 0xF70 JUMP JUMPDEST JUMPDEST PUSH1 0x0 PUSH2 0x1864 DUP5 DUP3 DUP6 ADD PUSH2 0x182B JUMP JUMPDEST SWAP2 POP POP SWAP3 SWAP2 POP POP JUMP JUMPDEST PUSH1 0x0 PUSH1 0x60 DUP3 ADD SWAP1 POP PUSH2 0x1882 PUSH1 0x0 DUP4 ADD DUP7 PUSH2 0x10E0 JUMP JUMPDEST PUSH2 0x188F PUSH1 0x20 DUP4 ADD DUP6 PUSH2 0x1049 JUMP JUMPDEST PUSH2 0x189C PUSH1 0x40 DUP4 ADD DUP5 PUSH2 0x10E0 JUMP JUMPDEST SWAP5 SWAP4 POP POP POP POP JUMP JUMPDEST PUSH32 0x496E76616C6964206F7264657220494400000000000000000000000000000000 PUSH1 0x0 DUP3 ADD MSTORE POP JUMP JUMPDEST PUSH1 0x0 PUSH2 0x18DA PUSH1 0x10 DUP4 PUSH2 0x1254 JUMP JUMPDEST SWAP2 POP PUSH2 0x18E5 DUP3 PUSH2 0x18A4 JUMP JUMPDEST PUSH1 0x20 DUP3 ADD SWAP1 POP SWAP2 SWAP1 POP JUMP JUMPDEST PUSH1 0x0 PUSH1 0x20 DUP3 ADD SWAP1 POP DUP2 DUP2 SUB PUSH1 0x0 DUP4 ADD MSTORE PUSH2 0x1909 DUP2 PUSH2 0x18CD JUMP JUMPDEST SWAP1 POP SWAP2 SWAP1 POP JUMP INVALID LOG2 PUSH5 0x6970667358 0x22 SLT KECCAK256 0x2C MOD 0xEE 0xC4 0x26 GAS ADD ADDRESS 0xEB PUSH9 0x6C867C4CA0C8F31BDF PUSH30 0x7C4B9718D64D1BAA1009C7C564736F6C6343000812003300000000000000 "
				},
				"gasEstimates": {
					"creation": {
						"codeDepositCost": "1294000",
						"executionCost": "infinite",
						"totalCost": "infinite"
					},
					"external": {
						"cancelOrder(uint256)": "infinite",
						"completeOrder(uint256,uint256,address)": "infinite",
						"createOrder(uint256,address)": "infinite",
						"getOrderDetails(uint256)": "infinite",
						"nextOrderId()": "2452",
						"orders(uint256)": "infinite",
						"owner()": "2522",
						"registerBuyer(uint256,uint256)": "infinite",
						"renounceOwnership()": "infinite",
						"transferOwnership(address)": "infinite"
					}
				},
				"methodIdentifiers": {
					"cancelOrder(uint256)": "514fcac7",
					"completeOrder(uint256,uint256,address)": "cfbd978f",
					"createOrder(uint256,address)": "07540ca6",
					"getOrderDetails(uint256)": "ec7dd7bb",
					"nextOrderId()": "2a58b330",
					"orders(uint256)": "a85c38ef",
					"owner()": "8da5cb5b",
					"registerBuyer(uint256,uint256)": "687b1df8",
					"renounceOwnership()": "715018a6",
					"transferOwnership(address)": "f2fde38b"
				}
			},
			"storageLayout": {
				"storage": [
					{
						"astId": 8,
						"contract": "TradeContract.sol:TradeContract",
						"label": "_owner",
						"offset": 0,
						"slot": "0",
						"type": "t_address"
					},
					{
						"astId": 642,
						"contract": "TradeContract.sol:TradeContract",
						"label": "orders",
						"offset": 0,
						"slot": "1",
						"type": "t_mapping(t_uint256,t_struct(Order)637_storage)"
					},
					{
						"astId": 644,
						"contract": "TradeContract.sol:TradeContract",
						"label": "nextOrderId",
						"offset": 0,
						"slot": "2",
						"type": "t_uint256"
					}
				],
				"types": {
					"t_address": {
						"encoding": "inplace",
						"label": "address",
						"numberOfBytes": "20"
					},
					"t_bool": {
						"encoding": "inplace",
						"label": "bool",
						"numberOfBytes": "1"
					},
					"t_bytes32": {
						"encoding": "inplace",
						"label": "bytes32",
						"numberOfBytes": "32"
					},
					"t_enum(OrderState)617": {
						"encoding": "inplace",
						"label": "enum TradeContract.OrderState",
						"numberOfBytes": "1"
					},
					"t_mapping(t_address,t_bool)": {
						"encoding": "mapping",
						"key": "t_address",
						"label": "mapping(address => bool)",
						"numberOfBytes": "32",
						"value": "t_bool"
					},
					"t_mapping(t_bytes32,t_bool)": {
						"encoding": "mapping",
						"key": "t_bytes32",
						"label": "mapping(bytes32 => bool)",
						"numberOfBytes": "32",
						"value": "t_bool"
					},
					"t_mapping(t_uint256,t_struct(Order)637_storage)": {
						"encoding": "mapping",
						"key": "t_uint256",
						"label": "mapping(uint256 => struct TradeContract.Order)",
						"numberOfBytes": "32",
						"value": "t_struct(Order)637_storage"
					},
					"t_struct(Order)637_storage": {
						"encoding": "inplace",
						"label": "struct TradeContract.Order",
						"members": [
							{
								"astId": 619,
								"contract": "TradeContract.sol:TradeContract",
								"label": "orderId",
								"offset": 0,
								"slot": "0",
								"type": "t_uint256"
							},
							{
								"astId": 621,
								"contract": "TradeContract.sol:TradeContract",
								"label": "seller",
								"offset": 0,
								"slot": "1",
								"type": "t_address"
							},
							{
								"astId": 623,
								"contract": "TradeContract.sol:TradeContract",
								"label": "tokenAmount",
								"offset": 0,
								"slot": "2",
								"type": "t_uint256"
							},
							{
								"astId": 625,
								"contract": "TradeContract.sol:TradeContract",
								"label": "tokenContract",
								"offset": 0,
								"slot": "3",
								"type": "t_address"
							},
							{
								"astId": 628,
								"contract": "TradeContract.sol:TradeContract",
								"label": "state",
								"offset": 20,
								"slot": "3",
								"type": "t_enum(OrderState)617"
							},
							{
								"astId": 632,
								"contract": "TradeContract.sol:TradeContract",
								"label": "registeredBuyers",
								"offset": 0,
								"slot": "4",
								"type": "t_mapping(t_address,t_bool)"
							},
							{
								"astId": 636,
								"contract": "TradeContract.sol:TradeContract",
								"label": "usedRandomNumbers",
								"offset": 0,
								"slot": "5",
								"type": "t_mapping(t_bytes32,t_bool)"
							}
						],
						"numberOfBytes": "192"
					},
					"t_uint256": {
						"encoding": "inplace",
						"label": "uint256",
						"numberOfBytes": "32"
					}
				}
			},
			"userdoc": {
				"kind": "user",
				"methods": {},
				"version": 1
			}
		}
	}
}