{
	"TradeContract.sol": {
		"TradeContract": {
			"abi": [
				{
					"inputs": [],
					"stateMutability": "nonpayable",
					"type": "constructor"
				},
				{
					"inputs": [
						{
							"internalType": "address",
							"name": "owner",
							"type": "address"
						}
					],
					"name": "OwnableInvalidOwner",
					"type": "error"
				},
				{
					"inputs": [
						{
							"internalType": "address",
							"name": "account",
							"type": "address"
						}
					],
					"name": "OwnableUnauthorizedAccount",
					"type": "error"
				},
				{
					"anonymous": false,
					"inputs": [
						{
							"indexed": false,
							"internalType": "uint256",
							"name": "orderId",
							"type": "uint256"
						},
						{
							"indexed": false,
							"internalType": "address",
							"name": "buyer",
							"type": "address"
						},
						{
							"indexed": false,
							"internalType": "bool",
							"name": "isRegistered",
							"type": "bool"
						},
						{
							"indexed": false,
							"internalType": "bool",
							"name": "isClaimed",
							"type": "bool"
						}
					],
					"name": "BuyerDetails",
					"type": "event"
				},
				{
					"anonymous": false,
					"inputs": [
						{
							"indexed": false,
							"internalType": "uint256",
							"name": "orderId",
							"type": "uint256"
						}
					],
					"name": "OrderCancelled",
					"type": "event"
				},
				{
					"anonymous": false,
					"inputs": [
						{
							"indexed": false,
							"internalType": "address",
							"name": "buyer",
							"type": "address"
						},
						{
							"indexed": false,
							"internalType": "uint256",
							"name": "tokenAmount",
							"type": "uint256"
						},
						{
							"indexed": false,
							"internalType": "address",
							"name": "tokenContract",
							"type": "address"
						}
					],
					"name": "OrderCompleted",
					"type": "event"
				},
				{
					"anonymous": false,
					"inputs": [
						{
							"indexed": false,
							"internalType": "uint256",
							"name": "orderId",
							"type": "uint256"
						},
						{
							"indexed": false,
							"internalType": "address",
							"name": "seller",
							"type": "address"
						},
						{
							"indexed": false,
							"internalType": "uint256",
							"name": "tokenAmount",
							"type": "uint256"
						},
						{
							"indexed": false,
							"internalType": "address",
							"name": "tokenContract",
							"type": "address"
						}
					],
					"name": "OrderCreated",
					"type": "event"
				},
				{
					"anonymous": false,
					"inputs": [
						{
							"indexed": false,
							"internalType": "uint256",
							"name": "orderId",
							"type": "uint256"
						},
						{
							"indexed": false,
							"internalType": "address",
							"name": "seller",
							"type": "address"
						},
						{
							"indexed": false,
							"internalType": "uint256",
							"name": "tokenAmount",
							"type": "uint256"
						},
						{
							"indexed": false,
							"internalType": "address",
							"name": "tokenContract",
							"type": "address"
						},
						{
							"indexed": false,
							"internalType": "enum TradeContract.OrderState",
							"name": "state",
							"type": "uint8"
						}
					],
					"name": "OrderDetails",
					"type": "event"
				},
				{
					"anonymous": false,
					"inputs": [
						{
							"indexed": true,
							"internalType": "address",
							"name": "previousOwner",
							"type": "address"
						},
						{
							"indexed": true,
							"internalType": "address",
							"name": "newOwner",
							"type": "address"
						}
					],
					"name": "OwnershipTransferred",
					"type": "event"
				},
				{
					"inputs": [
						{
							"internalType": "uint256",
							"name": "orderId",
							"type": "uint256"
						}
					],
					"name": "cancelOrder",
					"outputs": [],
					"stateMutability": "nonpayable",
					"type": "function"
				},
				{
					"inputs": [
						{
							"internalType": "uint256",
							"name": "orderId",
							"type": "uint256"
						},
						{
							"internalType": "uint256",
							"name": "chosenRandomNumber",
							"type": "uint256"
						}
					],
					"name": "completeOrder",
					"outputs": [],
					"stateMutability": "nonpayable",
					"type": "function"
				},
				{
					"inputs": [
						{
							"internalType": "uint256",
							"name": "_tokenAmount",
							"type": "uint256"
						},
						{
							"internalType": "address",
							"name": "_tokenContract",
							"type": "address"
						}
					],
					"name": "createOrder",
					"outputs": [],
					"stateMutability": "nonpayable",
					"type": "function"
				},
				{
					"inputs": [
						{
							"internalType": "uint256",
							"name": "orderId",
							"type": "uint256"
						}
					],
					"name": "getOrderDetails",
					"outputs": [
						{
							"internalType": "uint256",
							"name": "orderid",
							"type": "uint256"
						},
						{
							"internalType": "address",
							"name": "seller",
							"type": "address"
						},
						{
							"internalType": "uint256",
							"name": "tokenAmount",
							"type": "uint256"
						},
						{
							"internalType": "address",
							"name": "tokenContract",
							"type": "address"
						},
						{
							"internalType": "enum TradeContract.OrderState",
							"name": "state",
							"type": "uint8"
						}
					],
					"stateMutability": "view",
					"type": "function"
				},
				{
					"inputs": [],
					"name": "nextOrderId",
					"outputs": [
						{
							"internalType": "uint256",
							"name": "",
							"type": "uint256"
						}
					],
					"stateMutability": "view",
					"type": "function"
				},
				{
					"inputs": [
						{
							"internalType": "uint256",
							"name": "",
							"type": "uint256"
						}
					],
					"name": "orders",
					"outputs": [
						{
							"internalType": "uint256",
							"name": "orderId",
							"type": "uint256"
						},
						{
							"internalType": "address",
							"name": "seller",
							"type": "address"
						},
						{
							"internalType": "uint256",
							"name": "tokenAmount",
							"type": "uint256"
						},
						{
							"internalType": "address",
							"name": "tokenContract",
							"type": "address"
						},
						{
							"internalType": "enum TradeContract.OrderState",
							"name": "state",
							"type": "uint8"
						}
					],
					"stateMutability": "view",
					"type": "function"
				},
				{
					"inputs": [],
					"name": "owner",
					"outputs": [
						{
							"internalType": "address",
							"name": "",
							"type": "address"
						}
					],
					"stateMutability": "view",
					"type": "function"
				},
				{
					"inputs": [
						{
							"internalType": "uint256",
							"name": "orderId",
							"type": "uint256"
						},
						{
							"internalType": "uint256",
							"name": "randomNumber",
							"type": "uint256"
						}
					],
					"name": "registerBuyer",
					"outputs": [],
					"stateMutability": "nonpayable",
					"type": "function"
				},
				{
					"inputs": [],
					"name": "renounceOwnership",
					"outputs": [],
					"stateMutability": "nonpayable",
					"type": "function"
				},
				{
					"inputs": [
						{
							"internalType": "address",
							"name": "newOwner",
							"type": "address"
						}
					],
					"name": "transferOwnership",
					"outputs": [],
					"stateMutability": "nonpayable",
					"type": "function"
				}
			],
			"devdoc": {
				"errors": {
					"OwnableInvalidOwner(address)": [
						{
							"details": "The owner is not a valid owner account. (eg. `address(0)`)"
						}
					],
					"OwnableUnauthorizedAccount(address)": [
						{
							"details": "The caller account is not authorized to perform an operation."
						}
					]
				},
				"kind": "dev",
				"methods": {
					"owner()": {
						"details": "Returns the address of the current owner."
					},
					"renounceOwnership()": {
						"details": "Leaves the contract without owner. It will not be possible to call `onlyOwner` functions. Can only be called by the current owner. NOTE: Renouncing ownership will leave the contract without an owner, thereby disabling any functionality that is only available to the owner."
					},
					"transferOwnership(address)": {
						"details": "Transfers ownership of the contract to a new account (`newOwner`). Can only be called by the current owner."
					}
				},
				"version": 1
			},
			"evm": {
				"assembly": "    /* \"TradeContract.sol\":231:4597  contract TradeContract is Ownable {... */\n  mstore(0x40, 0x80)\n    /* \"TradeContract.sol\":1174:1210  constructor() Ownable(msg.sender) {} */\n  callvalue\n  dup1\n  iszero\n  tag_1\n  jumpi\n  0x00\n  dup1\n  revert\ntag_1:\n  pop\n    /* \"TradeContract.sol\":1196:1206  msg.sender */\n  caller\n    /* \"@openzeppelin/contracts/access/Ownable.sol\":1296:1297  0 */\n  0x00\n    /* \"@openzeppelin/contracts/access/Ownable.sol\":1272:1298  initialOwner == address(0) */\n  0xffffffffffffffffffffffffffffffffffffffff\n  and\n    /* \"@openzeppelin/contracts/access/Ownable.sol\":1272:1284  initialOwner */\n  dup2\n    /* \"@openzeppelin/contracts/access/Ownable.sol\":1272:1298  initialOwner == address(0) */\n  0xffffffffffffffffffffffffffffffffffffffff\n  and\n  sub\n    /* \"@openzeppelin/contracts/access/Ownable.sol\":1268:1363  if (initialOwner == address(0)) {... */\n  tag_5\n  jumpi\n    /* \"@openzeppelin/contracts/access/Ownable.sol\":1349:1350  0 */\n  0x00\n    /* \"@openzeppelin/contracts/access/Ownable.sol\":1321:1352  OwnableInvalidOwner(address(0)) */\n  mload(0x40)\n  0x1e4fbdf700000000000000000000000000000000000000000000000000000000\n  dup2\n  mstore\n  0x04\n  add\n  tag_6\n  swap2\n  swap1\n  tag_7\n  jump\t// in\ntag_6:\n  mload(0x40)\n  dup1\n  swap2\n  sub\n  swap1\n  revert\n    /* \"@openzeppelin/contracts/access/Ownable.sol\":1268:1363  if (initialOwner == address(0)) {... */\ntag_5:\n    /* \"@openzeppelin/contracts/access/Ownable.sol\":1372:1404  _transferOwnership(initialOwner) */\n  tag_8\n    /* \"@openzeppelin/contracts/access/Ownable.sol\":1391:1403  initialOwner */\n  dup2\n    /* \"@openzeppelin/contracts/access/Ownable.sol\":1372:1390  _transferOwnership */\n  shl(0x20, tag_9)\n    /* \"@openzeppelin/contracts/access/Ownable.sol\":1372:1404  _transferOwnership(initialOwner) */\n  0x20\n  shr\n  jump\t// in\ntag_8:\n    /* \"@openzeppelin/contracts/access/Ownable.sol\":1224:1411  constructor(address initialOwner) {... */\n  pop\n    /* \"TradeContract.sol\":231:4597  contract TradeContract is Ownable {... */\n  jump(tag_11)\n    /* \"@openzeppelin/contracts/access/Ownable.sol\":2911:3098  function _transferOwnership(address newOwner) internal virtual {... */\ntag_9:\n    /* \"@openzeppelin/contracts/access/Ownable.sol\":2984:3000  address oldOwner */\n  0x00\n    /* \"@openzeppelin/contracts/access/Ownable.sol\":3003:3009  _owner */\n  dup1\n  0x00\n  swap1\n  sload\n  swap1\n  0x0100\n  exp\n  swap1\n  div\n  0xffffffffffffffffffffffffffffffffffffffff\n  and\n    /* \"@openzeppelin/contracts/access/Ownable.sol\":2984:3009  address oldOwner = _owner */\n  swap1\n  pop\n    /* \"@openzeppelin/contracts/access/Ownable.sol\":3028:3036  newOwner */\n  dup2\n    /* \"@openzeppelin/contracts/access/Ownable.sol\":3019:3025  _owner */\n  0x00\n  dup1\n    /* \"@openzeppelin/contracts/access/Ownable.sol\":3019:3036  _owner = newOwner */\n  0x0100\n  exp\n  dup2\n  sload\n  dup2\n  0xffffffffffffffffffffffffffffffffffffffff\n  mul\n  not\n  and\n  swap1\n  dup4\n  0xffffffffffffffffffffffffffffffffffffffff\n  and\n  mul\n  or\n  swap1\n  sstore\n  pop\n    /* \"@openzeppelin/contracts/access/Ownable.sol\":3082:3090  newOwner */\n  dup2\n    /* \"@openzeppelin/contracts/access/Ownable.sol\":3051:3091  OwnershipTransferred(oldOwner, newOwner) */\n  0xffffffffffffffffffffffffffffffffffffffff\n  and\n    /* \"@openzeppelin/contracts/access/Ownable.sol\":3072:3080  oldOwner */\n  dup2\n    /* \"@openzeppelin/contracts/access/Ownable.sol\":3051:3091  OwnershipTransferred(oldOwner, newOwner) */\n  0xffffffffffffffffffffffffffffffffffffffff\n  and\n  0x8be0079c531659141344cd1fd0a4f28419497f9722a3daafe3b4186f6b6457e0\n  mload(0x40)\n  mload(0x40)\n  dup1\n  swap2\n  sub\n  swap1\n  log3\n    /* \"@openzeppelin/contracts/access/Ownable.sol\":2974:3098  {... */\n  pop\n    /* \"@openzeppelin/contracts/access/Ownable.sol\":2911:3098  function _transferOwnership(address newOwner) internal virtual {... */\n  pop\n  jump\t// out\n    /* \"#utility.yul\":7:133   */\ntag_13:\n    /* \"#utility.yul\":44:51   */\n  0x00\n    /* \"#utility.yul\":84:126   */\n  0xffffffffffffffffffffffffffffffffffffffff\n    /* \"#utility.yul\":77:82   */\n  dup3\n    /* \"#utility.yul\":73:127   */\n  and\n    /* \"#utility.yul\":62:127   */\n  swap1\n  pop\n    /* \"#utility.yul\":7:133   */\n  swap2\n  swap1\n  pop\n  jump\t// out\n    /* \"#utility.yul\":139:235   */\ntag_14:\n    /* \"#utility.yul\":176:183   */\n  0x00\n    /* \"#utility.yul\":205:229   */\n  tag_19\n    /* \"#utility.yul\":223:228   */\n  dup3\n    /* \"#utility.yul\":205:229   */\n  tag_13\n  jump\t// in\ntag_19:\n    /* \"#utility.yul\":194:229   */\n  swap1\n  pop\n    /* \"#utility.yul\":139:235   */\n  swap2\n  swap1\n  pop\n  jump\t// out\n    /* \"#utility.yul\":241:359   */\ntag_15:\n    /* \"#utility.yul\":328:352   */\n  tag_21\n    /* \"#utility.yul\":346:351   */\n  dup2\n    /* \"#utility.yul\":328:352   */\n  tag_14\n  jump\t// in\ntag_21:\n    /* \"#utility.yul\":323:326   */\n  dup3\n    /* \"#utility.yul\":316:353   */\n  mstore\n    /* \"#utility.yul\":241:359   */\n  pop\n  pop\n  jump\t// out\n    /* \"#utility.yul\":365:587   */\ntag_7:\n    /* \"#utility.yul\":458:462   */\n  0x00\n    /* \"#utility.yul\":496:498   */\n  0x20\n    /* \"#utility.yul\":485:494   */\n  dup3\n    /* \"#utility.yul\":481:499   */\n  add\n    /* \"#utility.yul\":473:499   */\n  swap1\n  pop\n    /* \"#utility.yul\":509:580   */\n  tag_23\n    /* \"#utility.yul\":577:578   */\n  0x00\n    /* \"#utility.yul\":566:575   */\n  dup4\n    /* \"#utility.yul\":562:579   */\n  add\n    /* \"#utility.yul\":553:559   */\n  dup5\n    /* \"#utility.yul\":509:580   */\n  tag_15\n  jump\t// in\ntag_23:\n    /* \"#utility.yul\":365:587   */\n  swap3\n  swap2\n  pop\n  pop\n  jump\t// out\n    /* \"TradeContract.sol\":231:4597  contract TradeContract is Ownable {... */\ntag_11:\n  dataSize(sub_0)\n  dup1\n  dataOffset(sub_0)\n  0x00\n  codecopy\n  0x00\n  return\nstop\n\nsub_0: assembly {\n        /* \"TradeContract.sol\":231:4597  contract TradeContract is Ownable {... */\n      mstore(0x40, 0x80)\n      callvalue\n      dup1\n      iszero\n      tag_1\n      jumpi\n      0x00\n      dup1\n      revert\n    tag_1:\n      pop\n      jumpi(tag_2, lt(calldatasize, 0x04))\n      shr(0xe0, calldataload(0x00))\n      dup1\n      0x8da5cb5b\n      gt\n      tag_13\n      jumpi\n      dup1\n      0x8da5cb5b\n      eq\n      tag_8\n      jumpi\n      dup1\n      0xa85c38ef\n      eq\n      tag_9\n      jumpi\n      dup1\n      0xc0d5d96f\n      eq\n      tag_10\n      jumpi\n      dup1\n      0xec7dd7bb\n      eq\n      tag_11\n      jumpi\n      dup1\n      0xf2fde38b\n      eq\n      tag_12\n      jumpi\n      jump(tag_2)\n    tag_13:\n      dup1\n      0x07540ca6\n      eq\n      tag_3\n      jumpi\n      dup1\n      0x2a58b330\n      eq\n      tag_4\n      jumpi\n      dup1\n      0x514fcac7\n      eq\n      tag_5\n      jumpi\n      dup1\n      0x687b1df8\n      eq\n      tag_6\n      jumpi\n      dup1\n      0x715018a6\n      eq\n      tag_7\n      jumpi\n    tag_2:\n      0x00\n      dup1\n      revert\n        /* \"TradeContract.sol\":1511:2132  function createOrder(uint256 _tokenAmount, address _tokenContract) external {... */\n    tag_3:\n      tag_14\n      0x04\n      dup1\n      calldatasize\n      sub\n      dup2\n      add\n      swap1\n      tag_15\n      swap2\n      swap1\n      tag_16\n      jump\t// in\n    tag_15:\n      tag_17\n      jump\t// in\n    tag_14:\n      stop\n        /* \"TradeContract.sol\":665:691  uint256 public nextOrderId */\n    tag_4:\n      tag_18\n      tag_19\n      jump\t// in\n    tag_18:\n      mload(0x40)\n      tag_20\n      swap2\n      swap1\n      tag_21\n      jump\t// in\n    tag_20:\n      mload(0x40)\n      dup1\n      swap2\n      sub\n      swap1\n      return\n        /* \"TradeContract.sol\":3783:4057  function cancelOrder(uint256 orderId) external onlyOwner orderExists(orderId) {... */\n    tag_5:\n      tag_22\n      0x04\n      dup1\n      calldatasize\n      sub\n      dup2\n      add\n      swap1\n      tag_23\n      swap2\n      swap1\n      tag_24\n      jump\t// in\n    tag_23:\n      tag_25\n      jump\t// in\n    tag_22:\n      stop\n        /* \"TradeContract.sol\":2139:2767  function registerBuyer(uint256 orderId, uint256 randomNumber) external {... */\n    tag_6:\n      tag_26\n      0x04\n      dup1\n      calldatasize\n      sub\n      dup2\n      add\n      swap1\n      tag_27\n      swap2\n      swap1\n      tag_28\n      jump\t// in\n    tag_27:\n      tag_29\n      jump\t// in\n    tag_26:\n      stop\n        /* \"@openzeppelin/contracts/access/Ownable.sol\":2292:2393  function renounceOwnership() public virtual onlyOwner {... */\n    tag_7:\n      tag_30\n      tag_31\n      jump\t// in\n    tag_30:\n      stop\n        /* \"@openzeppelin/contracts/access/Ownable.sol\":1637:1722  function owner() public view virtual returns (address) {... */\n    tag_8:\n      tag_32\n      tag_33\n      jump\t// in\n    tag_32:\n      mload(0x40)\n      tag_34\n      swap2\n      swap1\n      tag_35\n      jump\t// in\n    tag_34:\n      mload(0x40)\n      dup1\n      swap2\n      sub\n      swap1\n      return\n        /* \"TradeContract.sol\":620:659  mapping(uint256 => Order) public orders */\n    tag_9:\n      tag_36\n      0x04\n      dup1\n      calldatasize\n      sub\n      dup2\n      add\n      swap1\n      tag_37\n      swap2\n      swap1\n      tag_24\n      jump\t// in\n    tag_37:\n      tag_38\n      jump\t// in\n    tag_36:\n      mload(0x40)\n      tag_39\n      swap6\n      swap5\n      swap4\n      swap3\n      swap2\n      swap1\n      tag_40\n      jump\t// in\n    tag_39:\n      mload(0x40)\n      dup1\n      swap2\n      sub\n      swap1\n      return\n        /* \"TradeContract.sol\":2773:3777  function completeOrder(uint256 orderId, uint256 chosenRandomNumber) external onlyBuyer(orderId) {... */\n    tag_10:\n      tag_41\n      0x04\n      dup1\n      calldatasize\n      sub\n      dup2\n      add\n      swap1\n      tag_42\n      swap2\n      swap1\n      tag_28\n      jump\t// in\n    tag_42:\n      tag_43\n      jump\t// in\n    tag_41:\n      stop\n        /* \"TradeContract.sol\":4063:4595  function getOrderDetails(uint256 orderId) external view returns(uint256 orderid, address seller, uint256 tokenAmount, address tokenContract,OrderState state) {... */\n    tag_11:\n      tag_44\n      0x04\n      dup1\n      calldatasize\n      sub\n      dup2\n      add\n      swap1\n      tag_45\n      swap2\n      swap1\n      tag_24\n      jump\t// in\n    tag_45:\n      tag_46\n      jump\t// in\n    tag_44:\n      mload(0x40)\n      tag_47\n      swap6\n      swap5\n      swap4\n      swap3\n      swap2\n      swap1\n      tag_40\n      jump\t// in\n    tag_47:\n      mload(0x40)\n      dup1\n      swap2\n      sub\n      swap1\n      return\n        /* \"@openzeppelin/contracts/access/Ownable.sol\":2542:2757  function transferOwnership(address newOwner) public virtual onlyOwner {... */\n    tag_12:\n      tag_48\n      0x04\n      dup1\n      calldatasize\n      sub\n      dup2\n      add\n      swap1\n      tag_49\n      swap2\n      swap1\n      tag_50\n      jump\t// in\n    tag_49:\n      tag_51\n      jump\t// in\n    tag_48:\n      stop\n        /* \"TradeContract.sol\":1511:2132  function createOrder(uint256 _tokenAmount, address _tokenContract) external {... */\n    tag_17:\n        /* \"TradeContract.sol\":1620:1621  0 */\n      0x00\n        /* \"TradeContract.sol\":1605:1617  _tokenAmount */\n      dup3\n        /* \"TradeContract.sol\":1605:1621  _tokenAmount > 0 */\n      gt\n        /* \"TradeContract.sol\":1597:1661  require(_tokenAmount > 0, \"Token amount must be greater than 0\") */\n      tag_53\n      jumpi\n      mload(0x40)\n      0x08c379a000000000000000000000000000000000000000000000000000000000\n      dup2\n      mstore\n      0x04\n      add\n      tag_54\n      swap1\n      tag_55\n      jump\t// in\n    tag_54:\n      mload(0x40)\n      dup1\n      swap2\n      sub\n      swap1\n      revert\n    tag_53:\n        /* \"TradeContract.sol\":1705:1706  0 */\n      0x00\n        /* \"TradeContract.sol\":1679:1707  _tokenContract != address(0) */\n      0xffffffffffffffffffffffffffffffffffffffff\n      and\n        /* \"TradeContract.sol\":1679:1693  _tokenContract */\n      dup2\n        /* \"TradeContract.sol\":1679:1707  _tokenContract != address(0) */\n      0xffffffffffffffffffffffffffffffffffffffff\n      and\n      sub\n        /* \"TradeContract.sol\":1671:1742  require(_tokenContract != address(0), \"Invalid token contract address\") */\n      tag_56\n      jumpi\n      mload(0x40)\n      0x08c379a000000000000000000000000000000000000000000000000000000000\n      dup2\n      mstore\n      0x04\n      add\n      tag_57\n      swap1\n      tag_58\n      jump\t// in\n    tag_57:\n      mload(0x40)\n      dup1\n      swap2\n      sub\n      swap1\n      revert\n    tag_56:\n        /* \"TradeContract.sol\":1753:1764  nextOrderId */\n      0x02\n      0x00\n        /* \"TradeContract.sol\":1753:1766  nextOrderId++ */\n      dup2\n      sload\n      dup1\n      swap3\n      swap2\n      swap1\n      tag_59\n      swap1\n      tag_60\n      jump\t// in\n    tag_59:\n      swap2\n      swap1\n      pop\n      sstore\n      pop\n        /* \"TradeContract.sol\":1814:1825  nextOrderId */\n      sload(0x02)\n        /* \"TradeContract.sol\":1785:1791  orders */\n      0x01\n        /* \"TradeContract.sol\":1785:1804  orders[nextOrderId] */\n      0x00\n        /* \"TradeContract.sol\":1792:1803  nextOrderId */\n      sload(0x02)\n        /* \"TradeContract.sol\":1785:1804  orders[nextOrderId] */\n      dup2\n      mstore\n      0x20\n      add\n      swap1\n      dup2\n      mstore\n      0x20\n      add\n      0x00\n      keccak256\n        /* \"TradeContract.sol\":1785:1812  orders[nextOrderId].orderId */\n      0x00\n      add\n        /* \"TradeContract.sol\":1785:1825  orders[nextOrderId].orderId= nextOrderId */\n      dup2\n      swap1\n      sstore\n      pop\n        /* \"TradeContract.sol\":1863:1873  msg.sender */\n      caller\n        /* \"TradeContract.sol\":1835:1841  orders */\n      0x01\n        /* \"TradeContract.sol\":1835:1854  orders[nextOrderId] */\n      0x00\n        /* \"TradeContract.sol\":1842:1853  nextOrderId */\n      sload(0x02)\n        /* \"TradeContract.sol\":1835:1854  orders[nextOrderId] */\n      dup2\n      mstore\n      0x20\n      add\n      swap1\n      dup2\n      mstore\n      0x20\n      add\n      0x00\n      keccak256\n        /* \"TradeContract.sol\":1835:1861  orders[nextOrderId].seller */\n      0x01\n      add\n      0x00\n        /* \"TradeContract.sol\":1835:1873  orders[nextOrderId].seller= msg.sender */\n      0x0100\n      exp\n      dup2\n      sload\n      dup2\n      0xffffffffffffffffffffffffffffffffffffffff\n      mul\n      not\n      and\n      swap1\n      dup4\n      0xffffffffffffffffffffffffffffffffffffffff\n      and\n      mul\n      or\n      swap1\n      sstore\n      pop\n        /* \"TradeContract.sol\":1916:1928  _tokenAmount */\n      dup2\n        /* \"TradeContract.sol\":1883:1889  orders */\n      0x01\n        /* \"TradeContract.sol\":1883:1902  orders[nextOrderId] */\n      0x00\n        /* \"TradeContract.sol\":1890:1901  nextOrderId */\n      sload(0x02)\n        /* \"TradeContract.sol\":1883:1902  orders[nextOrderId] */\n      dup2\n      mstore\n      0x20\n      add\n      swap1\n      dup2\n      mstore\n      0x20\n      add\n      0x00\n      keccak256\n        /* \"TradeContract.sol\":1883:1914  orders[nextOrderId].tokenAmount */\n      0x02\n      add\n        /* \"TradeContract.sol\":1883:1928  orders[nextOrderId].tokenAmount= _tokenAmount */\n      dup2\n      swap1\n      sstore\n      pop\n        /* \"TradeContract.sol\":1973:1987  _tokenContract */\n      dup1\n        /* \"TradeContract.sol\":1938:1944  orders */\n      0x01\n        /* \"TradeContract.sol\":1938:1957  orders[nextOrderId] */\n      0x00\n        /* \"TradeContract.sol\":1945:1956  nextOrderId */\n      sload(0x02)\n        /* \"TradeContract.sol\":1938:1957  orders[nextOrderId] */\n      dup2\n      mstore\n      0x20\n      add\n      swap1\n      dup2\n      mstore\n      0x20\n      add\n      0x00\n      keccak256\n        /* \"TradeContract.sol\":1938:1971  orders[nextOrderId].tokenContract */\n      0x03\n      add\n      0x00\n        /* \"TradeContract.sol\":1938:1987  orders[nextOrderId].tokenContract= _tokenContract */\n      0x0100\n      exp\n      dup2\n      sload\n      dup2\n      0xffffffffffffffffffffffffffffffffffffffff\n      mul\n      not\n      and\n      swap1\n      dup4\n      0xffffffffffffffffffffffffffffffffffffffff\n      and\n      mul\n      or\n      swap1\n      sstore\n      pop\n        /* \"TradeContract.sol\":2024:2042  OrderState.CREATED */\n      0x00\n        /* \"TradeContract.sol\":1997:2003  orders */\n      0x01\n        /* \"TradeContract.sol\":1997:2016  orders[nextOrderId] */\n      0x00\n        /* \"TradeContract.sol\":2004:2015  nextOrderId */\n      sload(0x02)\n        /* \"TradeContract.sol\":1997:2016  orders[nextOrderId] */\n      dup2\n      mstore\n      0x20\n      add\n      swap1\n      dup2\n      mstore\n      0x20\n      add\n      0x00\n      keccak256\n        /* \"TradeContract.sol\":1997:2022  orders[nextOrderId].state */\n      0x03\n      add\n      0x14\n        /* \"TradeContract.sol\":1997:2042  orders[nextOrderId].state= OrderState.CREATED */\n      0x0100\n      exp\n      dup2\n      sload\n      dup2\n      0xff\n      mul\n      not\n      and\n      swap1\n      dup4\n      0x02\n      dup2\n      gt\n      iszero\n      tag_61\n      jumpi\n      tag_62\n      tag_63\n      jump\t// in\n    tag_62:\n    tag_61:\n      mul\n      or\n      swap1\n      sstore\n      pop\n        /* \"TradeContract.sol\":2058:2125  OrderCreated(nextOrderId, msg.sender, _tokenAmount, _tokenContract) */\n      0xbdff0cf754bd4e2ee390fda990f59e49114328e6b402c87ac12d06ed2bb7170f\n        /* \"TradeContract.sol\":2071:2082  nextOrderId */\n      sload(0x02)\n        /* \"TradeContract.sol\":2084:2094  msg.sender */\n      caller\n        /* \"TradeContract.sol\":2096:2108  _tokenAmount */\n      dup5\n        /* \"TradeContract.sol\":2110:2124  _tokenContract */\n      dup5\n        /* \"TradeContract.sol\":2058:2125  OrderCreated(nextOrderId, msg.sender, _tokenAmount, _tokenContract) */\n      mload(0x40)\n      tag_64\n      swap5\n      swap4\n      swap3\n      swap2\n      swap1\n      tag_65\n      jump\t// in\n    tag_64:\n      mload(0x40)\n      dup1\n      swap2\n      sub\n      swap1\n      log1\n        /* \"TradeContract.sol\":1511:2132  function createOrder(uint256 _tokenAmount, address _tokenContract) external {... */\n      pop\n      pop\n      jump\t// out\n        /* \"TradeContract.sol\":665:691  uint256 public nextOrderId */\n    tag_19:\n      sload(0x02)\n      dup2\n      jump\t// out\n        /* \"TradeContract.sol\":3783:4057  function cancelOrder(uint256 orderId) external onlyOwner orderExists(orderId) {... */\n    tag_25:\n        /* \"@openzeppelin/contracts/access/Ownable.sol\":1530:1543  _checkOwner() */\n      tag_67\n        /* \"@openzeppelin/contracts/access/Ownable.sol\":1530:1541  _checkOwner */\n      tag_68\n        /* \"@openzeppelin/contracts/access/Ownable.sol\":1530:1543  _checkOwner() */\n      jump\t// in\n    tag_67:\n        /* \"TradeContract.sol\":3852:3859  orderId */\n      dup1\n        /* \"TradeContract.sol\":1461:1462  0 */\n      0x00\n        /* \"TradeContract.sol\":1434:1440  orders */\n      0x01\n        /* \"TradeContract.sol\":1434:1449  orders[orderId] */\n      0x00\n        /* \"TradeContract.sol\":1441:1448  orderId */\n      dup4\n        /* \"TradeContract.sol\":1434:1449  orders[orderId] */\n      dup2\n      mstore\n      0x20\n      add\n      swap1\n      dup2\n      mstore\n      0x20\n      add\n      0x00\n      keccak256\n        /* \"TradeContract.sol\":1434:1457  orders[orderId].orderId */\n      0x00\n      add\n      sload\n        /* \"TradeContract.sol\":1434:1462  orders[orderId].orderId != 0 */\n      sub\n        /* \"TradeContract.sol\":1426:1487  require(orders[orderId].orderId != 0, \"Order does not exist\") */\n      tag_70\n      jumpi\n      mload(0x40)\n      0x08c379a000000000000000000000000000000000000000000000000000000000\n      dup2\n      mstore\n      0x04\n      add\n      tag_71\n      swap1\n      tag_72\n      jump\t// in\n    tag_71:\n      mload(0x40)\n      dup1\n      swap2\n      sub\n      swap1\n      revert\n    tag_70:\n        /* \"TradeContract.sol\":3904:3922  OrderState.CREATED */\n      0x00\n        /* \"TradeContract.sol\":3879:3922  orders[orderId].state == OrderState.CREATED */\n      0x02\n      dup2\n      gt\n      iszero\n      tag_74\n      jumpi\n      tag_75\n      tag_63\n      jump\t// in\n    tag_75:\n    tag_74:\n        /* \"TradeContract.sol\":3879:3885  orders */\n      0x01\n        /* \"TradeContract.sol\":3879:3894  orders[orderId] */\n      0x00\n        /* \"TradeContract.sol\":3886:3893  orderId */\n      dup5\n        /* \"TradeContract.sol\":3879:3894  orders[orderId] */\n      dup2\n      mstore\n      0x20\n      add\n      swap1\n      dup2\n      mstore\n      0x20\n      add\n      0x00\n      keccak256\n        /* \"TradeContract.sol\":3879:3900  orders[orderId].state */\n      0x03\n      add\n      0x14\n      swap1\n      sload\n      swap1\n      0x0100\n      exp\n      swap1\n      div\n      0xff\n      and\n        /* \"TradeContract.sol\":3879:3922  orders[orderId].state == OrderState.CREATED */\n      0x02\n      dup2\n      gt\n      iszero\n      tag_76\n      jumpi\n      tag_77\n      tag_63\n      jump\t// in\n    tag_77:\n    tag_76:\n      eq\n        /* \"TradeContract.sol\":3871:3956  require(orders[orderId].state == OrderState.CREATED, \"Order is not in CREATED state\") */\n      tag_78\n      jumpi\n      mload(0x40)\n      0x08c379a000000000000000000000000000000000000000000000000000000000\n      dup2\n      mstore\n      0x04\n      add\n      tag_79\n      swap1\n      tag_80\n      jump\t// in\n    tag_79:\n      mload(0x40)\n      dup1\n      swap2\n      sub\n      swap1\n      revert\n    tag_78:\n        /* \"TradeContract.sol\":3991:4011  OrderState.CANCELLED */\n      0x02\n        /* \"TradeContract.sol\":3967:3973  orders */\n      0x01\n        /* \"TradeContract.sol\":3967:3982  orders[orderId] */\n      0x00\n        /* \"TradeContract.sol\":3974:3981  orderId */\n      dup5\n        /* \"TradeContract.sol\":3967:3982  orders[orderId] */\n      dup2\n      mstore\n      0x20\n      add\n      swap1\n      dup2\n      mstore\n      0x20\n      add\n      0x00\n      keccak256\n        /* \"TradeContract.sol\":3967:3988  orders[orderId].state */\n      0x03\n      add\n      0x14\n        /* \"TradeContract.sol\":3967:4011  orders[orderId].state = OrderState.CANCELLED */\n      0x0100\n      exp\n      dup2\n      sload\n      dup2\n      0xff\n      mul\n      not\n      and\n      swap1\n      dup4\n      0x02\n      dup2\n      gt\n      iszero\n      tag_81\n      jumpi\n      tag_82\n      tag_63\n      jump\t// in\n    tag_82:\n    tag_81:\n      mul\n      or\n      swap1\n      sstore\n      pop\n        /* \"TradeContract.sol\":4027:4050  OrderCancelled(orderId) */\n      0x61b9399f2f0f32ca39ce8d7be32caed5ec22fe07a6daba3a467ed479ec606582\n        /* \"TradeContract.sol\":4042:4049  orderId */\n      dup3\n        /* \"TradeContract.sol\":4027:4050  OrderCancelled(orderId) */\n      mload(0x40)\n      tag_83\n      swap2\n      swap1\n      tag_21\n      jump\t// in\n    tag_83:\n      mload(0x40)\n      dup1\n      swap2\n      sub\n      swap1\n      log1\n        /* \"@openzeppelin/contracts/access/Ownable.sol\":1553:1554  _ */\n      pop\n        /* \"TradeContract.sol\":3783:4057  function cancelOrder(uint256 orderId) external onlyOwner orderExists(orderId) {... */\n      pop\n      jump\t// out\n        /* \"TradeContract.sol\":2139:2767  function registerBuyer(uint256 orderId, uint256 randomNumber) external {... */\n    tag_29:\n        /* \"TradeContract.sol\":2253:2271  OrderState.CREATED */\n      0x00\n        /* \"TradeContract.sol\":2228:2271  orders[orderId].state == OrderState.CREATED */\n      0x02\n      dup2\n      gt\n      iszero\n      tag_85\n      jumpi\n      tag_86\n      tag_63\n      jump\t// in\n    tag_86:\n    tag_85:\n        /* \"TradeContract.sol\":2228:2234  orders */\n      0x01\n        /* \"TradeContract.sol\":2228:2243  orders[orderId] */\n      0x00\n        /* \"TradeContract.sol\":2235:2242  orderId */\n      dup5\n        /* \"TradeContract.sol\":2228:2243  orders[orderId] */\n      dup2\n      mstore\n      0x20\n      add\n      swap1\n      dup2\n      mstore\n      0x20\n      add\n      0x00\n      keccak256\n        /* \"TradeContract.sol\":2228:2249  orders[orderId].state */\n      0x03\n      add\n      0x14\n      swap1\n      sload\n      swap1\n      0x0100\n      exp\n      swap1\n      div\n      0xff\n      and\n        /* \"TradeContract.sol\":2228:2271  orders[orderId].state == OrderState.CREATED */\n      0x02\n      dup2\n      gt\n      iszero\n      tag_87\n      jumpi\n      tag_88\n      tag_63\n      jump\t// in\n    tag_88:\n    tag_87:\n      eq\n        /* \"TradeContract.sol\":2220:2305  require(orders[orderId].state == OrderState.CREATED, \"Order is not in CREATED state\") */\n      tag_89\n      jumpi\n      mload(0x40)\n      0x08c379a000000000000000000000000000000000000000000000000000000000\n      dup2\n      mstore\n      0x04\n      add\n      tag_90\n      swap1\n      tag_80\n      jump\t// in\n    tag_90:\n      mload(0x40)\n      dup1\n      swap2\n      sub\n      swap1\n      revert\n    tag_89:\n        /* \"TradeContract.sol\":2324:2330  orders */\n      0x01\n        /* \"TradeContract.sol\":2324:2339  orders[orderId] */\n      0x00\n        /* \"TradeContract.sol\":2331:2338  orderId */\n      dup4\n        /* \"TradeContract.sol\":2324:2339  orders[orderId] */\n      dup2\n      mstore\n      0x20\n      add\n      swap1\n      dup2\n      mstore\n      0x20\n      add\n      0x00\n      keccak256\n        /* \"TradeContract.sol\":2324:2356  orders[orderId].registeredBuyers */\n      0x04\n      add\n        /* \"TradeContract.sol\":2324:2368  orders[orderId].registeredBuyers[msg.sender] */\n      0x00\n        /* \"TradeContract.sol\":2357:2367  msg.sender */\n      caller\n        /* \"TradeContract.sol\":2324:2368  orders[orderId].registeredBuyers[msg.sender] */\n      0xffffffffffffffffffffffffffffffffffffffff\n      and\n      0xffffffffffffffffffffffffffffffffffffffff\n      and\n      dup2\n      mstore\n      0x20\n      add\n      swap1\n      dup2\n      mstore\n      0x20\n      add\n      0x00\n      keccak256\n      0x00\n      swap1\n      sload\n      swap1\n      0x0100\n      exp\n      swap1\n      div\n      0xff\n      and\n        /* \"TradeContract.sol\":2323:2368  !orders[orderId].registeredBuyers[msg.sender] */\n      iszero\n        /* \"TradeContract.sol\":2315:2397  require(!orders[orderId].registeredBuyers[msg.sender], \"Buyer already registered\") */\n      tag_91\n      jumpi\n      mload(0x40)\n      0x08c379a000000000000000000000000000000000000000000000000000000000\n      dup2\n      mstore\n      0x04\n      add\n      tag_92\n      swap1\n      tag_93\n      jump\t// in\n    tag_92:\n      mload(0x40)\n      dup1\n      swap2\n      sub\n      swap1\n      revert\n    tag_91:\n        /* \"TradeContract.sol\":2431:2432  0 */\n      0x00\n        /* \"TradeContract.sol\":2415:2427  randomNumber */\n      dup2\n        /* \"TradeContract.sol\":2415:2432  randomNumber != 0 */\n      sub\n        /* \"TradeContract.sol\":2407:2465  require(randomNumber != 0, \"Random number cannot be zero\") */\n      tag_94\n      jumpi\n      mload(0x40)\n      0x08c379a000000000000000000000000000000000000000000000000000000000\n      dup2\n      mstore\n      0x04\n      add\n      tag_95\n      swap1\n      tag_96\n      jump\t// in\n    tag_95:\n      mload(0x40)\n      dup1\n      swap2\n      sub\n      swap1\n      revert\n    tag_94:\n        /* \"TradeContract.sol\":2476:2488  bytes32 hash */\n      0x00\n        /* \"TradeContract.sol\":2518:2525  orderId */\n      dup3\n        /* \"TradeContract.sol\":2527:2537  msg.sender */\n      caller\n        /* \"TradeContract.sol\":2539:2551  randomNumber */\n      dup4\n        /* \"TradeContract.sol\":2501:2552  abi.encodePacked(orderId, msg.sender, randomNumber) */\n      add(0x20, mload(0x40))\n      tag_97\n      swap4\n      swap3\n      swap2\n      swap1\n      tag_98\n      jump\t// in\n    tag_97:\n      mload(0x40)\n      0x20\n      dup2\n      dup4\n      sub\n      sub\n      dup2\n      mstore\n      swap1\n      0x40\n      mstore\n        /* \"TradeContract.sol\":2491:2553  keccak256(abi.encodePacked(orderId, msg.sender, randomNumber)) */\n      dup1\n      mload\n      swap1\n      0x20\n      add\n      keccak256\n        /* \"TradeContract.sol\":2476:2553  bytes32 hash = keccak256(abi.encodePacked(orderId, msg.sender, randomNumber)) */\n      swap1\n      pop\n        /* \"TradeContract.sol\":2572:2578  orders */\n      0x01\n        /* \"TradeContract.sol\":2572:2587  orders[orderId] */\n      0x00\n        /* \"TradeContract.sol\":2579:2586  orderId */\n      dup5\n        /* \"TradeContract.sol\":2572:2587  orders[orderId] */\n      dup2\n      mstore\n      0x20\n      add\n      swap1\n      dup2\n      mstore\n      0x20\n      add\n      0x00\n      keccak256\n        /* \"TradeContract.sol\":2572:2605  orders[orderId].usedRandomNumbers */\n      0x05\n      add\n        /* \"TradeContract.sol\":2572:2611  orders[orderId].usedRandomNumbers[hash] */\n      0x00\n        /* \"TradeContract.sol\":2606:2610  hash */\n      dup3\n        /* \"TradeContract.sol\":2572:2611  orders[orderId].usedRandomNumbers[hash] */\n      dup2\n      mstore\n      0x20\n      add\n      swap1\n      dup2\n      mstore\n      0x20\n      add\n      0x00\n      keccak256\n      0x00\n      swap1\n      sload\n      swap1\n      0x0100\n      exp\n      swap1\n      div\n      0xff\n      and\n        /* \"TradeContract.sol\":2571:2611  !orders[orderId].usedRandomNumbers[hash] */\n      iszero\n        /* \"TradeContract.sol\":2563:2642  require(!orders[orderId].usedRandomNumbers[hash], \"Random number already used\") */\n      tag_99\n      jumpi\n      mload(0x40)\n      0x08c379a000000000000000000000000000000000000000000000000000000000\n      dup2\n      mstore\n      0x04\n      add\n      tag_100\n      swap1\n      tag_101\n      jump\t// in\n    tag_100:\n      mload(0x40)\n      dup1\n      swap2\n      sub\n      swap1\n      revert\n    tag_99:\n        /* \"TradeContract.sol\":2700:2704  true */\n      0x01\n        /* \"TradeContract.sol\":2653:2659  orders */\n      dup1\n        /* \"TradeContract.sol\":2653:2668  orders[orderId] */\n      0x00\n        /* \"TradeContract.sol\":2660:2667  orderId */\n      dup6\n        /* \"TradeContract.sol\":2653:2668  orders[orderId] */\n      dup2\n      mstore\n      0x20\n      add\n      swap1\n      dup2\n      mstore\n      0x20\n      add\n      0x00\n      keccak256\n        /* \"TradeContract.sol\":2653:2685  orders[orderId].registeredBuyers */\n      0x04\n      add\n        /* \"TradeContract.sol\":2653:2697  orders[orderId].registeredBuyers[msg.sender] */\n      0x00\n        /* \"TradeContract.sol\":2686:2696  msg.sender */\n      caller\n        /* \"TradeContract.sol\":2653:2697  orders[orderId].registeredBuyers[msg.sender] */\n      0xffffffffffffffffffffffffffffffffffffffff\n      and\n      0xffffffffffffffffffffffffffffffffffffffff\n      and\n      dup2\n      mstore\n      0x20\n      add\n      swap1\n      dup2\n      mstore\n      0x20\n      add\n      0x00\n      keccak256\n      0x00\n        /* \"TradeContract.sol\":2653:2704  orders[orderId].registeredBuyers[msg.sender] = true */\n      0x0100\n      exp\n      dup2\n      sload\n      dup2\n      0xff\n      mul\n      not\n      and\n      swap1\n      dup4\n      iszero\n      iszero\n      mul\n      or\n      swap1\n      sstore\n      pop\n        /* \"TradeContract.sol\":2756:2760  true */\n      0x01\n        /* \"TradeContract.sol\":2714:2720  orders */\n      dup1\n        /* \"TradeContract.sol\":2714:2729  orders[orderId] */\n      0x00\n        /* \"TradeContract.sol\":2721:2728  orderId */\n      dup6\n        /* \"TradeContract.sol\":2714:2729  orders[orderId] */\n      dup2\n      mstore\n      0x20\n      add\n      swap1\n      dup2\n      mstore\n      0x20\n      add\n      0x00\n      keccak256\n        /* \"TradeContract.sol\":2714:2747  orders[orderId].usedRandomNumbers */\n      0x05\n      add\n        /* \"TradeContract.sol\":2714:2753  orders[orderId].usedRandomNumbers[hash] */\n      0x00\n        /* \"TradeContract.sol\":2748:2752  hash */\n      dup4\n        /* \"TradeContract.sol\":2714:2753  orders[orderId].usedRandomNumbers[hash] */\n      dup2\n      mstore\n      0x20\n      add\n      swap1\n      dup2\n      mstore\n      0x20\n      add\n      0x00\n      keccak256\n      0x00\n        /* \"TradeContract.sol\":2714:2760  orders[orderId].usedRandomNumbers[hash] = true */\n      0x0100\n      exp\n      dup2\n      sload\n      dup2\n      0xff\n      mul\n      not\n      and\n      swap1\n      dup4\n      iszero\n      iszero\n      mul\n      or\n      swap1\n      sstore\n      pop\n        /* \"TradeContract.sol\":2210:2767  {... */\n      pop\n        /* \"TradeContract.sol\":2139:2767  function registerBuyer(uint256 orderId, uint256 randomNumber) external {... */\n      pop\n      pop\n      jump\t// out\n        /* \"@openzeppelin/contracts/access/Ownable.sol\":2292:2393  function renounceOwnership() public virtual onlyOwner {... */\n    tag_31:\n        /* \"@openzeppelin/contracts/access/Ownable.sol\":1530:1543  _checkOwner() */\n      tag_103\n        /* \"@openzeppelin/contracts/access/Ownable.sol\":1530:1541  _checkOwner */\n      tag_68\n        /* \"@openzeppelin/contracts/access/Ownable.sol\":1530:1543  _checkOwner() */\n      jump\t// in\n    tag_103:\n        /* \"@openzeppelin/contracts/access/Ownable.sol\":2356:2386  _transferOwnership(address(0)) */\n      tag_105\n        /* \"@openzeppelin/contracts/access/Ownable.sol\":2383:2384  0 */\n      0x00\n        /* \"@openzeppelin/contracts/access/Ownable.sol\":2356:2374  _transferOwnership */\n      tag_106\n        /* \"@openzeppelin/contracts/access/Ownable.sol\":2356:2386  _transferOwnership(address(0)) */\n      jump\t// in\n    tag_105:\n        /* \"@openzeppelin/contracts/access/Ownable.sol\":2292:2393  function renounceOwnership() public virtual onlyOwner {... */\n      jump\t// out\n        /* \"@openzeppelin/contracts/access/Ownable.sol\":1637:1722  function owner() public view virtual returns (address) {... */\n    tag_33:\n        /* \"@openzeppelin/contracts/access/Ownable.sol\":1683:1690  address */\n      0x00\n        /* \"@openzeppelin/contracts/access/Ownable.sol\":1709:1715  _owner */\n      dup1\n      0x00\n      swap1\n      sload\n      swap1\n      0x0100\n      exp\n      swap1\n      div\n      0xffffffffffffffffffffffffffffffffffffffff\n      and\n        /* \"@openzeppelin/contracts/access/Ownable.sol\":1702:1715  return _owner */\n      swap1\n      pop\n        /* \"@openzeppelin/contracts/access/Ownable.sol\":1637:1722  function owner() public view virtual returns (address) {... */\n      swap1\n      jump\t// out\n        /* \"TradeContract.sol\":620:659  mapping(uint256 => Order) public orders */\n    tag_38:\n      mstore(0x20, 0x01)\n      dup1\n      0x00\n      mstore\n      keccak256(0x00, 0x40)\n      0x00\n      swap2\n      pop\n      swap1\n      pop\n      dup1\n      0x00\n      add\n      sload\n      swap1\n      dup1\n      0x01\n      add\n      0x00\n      swap1\n      sload\n      swap1\n      0x0100\n      exp\n      swap1\n      div\n      0xffffffffffffffffffffffffffffffffffffffff\n      and\n      swap1\n      dup1\n      0x02\n      add\n      sload\n      swap1\n      dup1\n      0x03\n      add\n      0x00\n      swap1\n      sload\n      swap1\n      0x0100\n      exp\n      swap1\n      div\n      0xffffffffffffffffffffffffffffffffffffffff\n      and\n      swap1\n      dup1\n      0x03\n      add\n      0x14\n      swap1\n      sload\n      swap1\n      0x0100\n      exp\n      swap1\n      div\n      0xff\n      and\n      swap1\n      pop\n      dup6\n      jump\t// out\n        /* \"TradeContract.sol\":2773:3777  function completeOrder(uint256 orderId, uint256 chosenRandomNumber) external onlyBuyer(orderId) {... */\n    tag_43:\n        /* \"TradeContract.sol\":2860:2867  orderId */\n      dup2\n        /* \"TradeContract.sol\":1270:1276  orders */\n      0x01\n        /* \"TradeContract.sol\":1270:1285  orders[orderId] */\n      0x00\n        /* \"TradeContract.sol\":1277:1284  orderId */\n      dup3\n        /* \"TradeContract.sol\":1270:1285  orders[orderId] */\n      dup2\n      mstore\n      0x20\n      add\n      swap1\n      dup2\n      mstore\n      0x20\n      add\n      0x00\n      keccak256\n        /* \"TradeContract.sol\":1270:1302  orders[orderId].registeredBuyers */\n      0x04\n      add\n        /* \"TradeContract.sol\":1270:1314  orders[orderId].registeredBuyers[msg.sender] */\n      0x00\n        /* \"TradeContract.sol\":1303:1313  msg.sender */\n      caller\n        /* \"TradeContract.sol\":1270:1314  orders[orderId].registeredBuyers[msg.sender] */\n      0xffffffffffffffffffffffffffffffffffffffff\n      and\n      0xffffffffffffffffffffffffffffffffffffffff\n      and\n      dup2\n      mstore\n      0x20\n      add\n      swap1\n      dup2\n      mstore\n      0x20\n      add\n      0x00\n      keccak256\n      0x00\n      swap1\n      sload\n      swap1\n      0x0100\n      exp\n      swap1\n      div\n      0xff\n      and\n        /* \"TradeContract.sol\":1262:1354  require(orders[orderId].registeredBuyers[msg.sender], \"Only registered buyer can call this\") */\n      tag_109\n      jumpi\n      mload(0x40)\n      0x08c379a000000000000000000000000000000000000000000000000000000000\n      dup2\n      mstore\n      0x04\n      add\n      tag_110\n      swap1\n      tag_111\n      jump\t// in\n    tag_110:\n      mload(0x40)\n      dup1\n      swap2\n      sub\n      swap1\n      revert\n    tag_109:\n        /* \"TradeContract.sol\":2912:2930  OrderState.CREATED */\n      0x00\n        /* \"TradeContract.sol\":2887:2930  orders[orderId].state == OrderState.CREATED */\n      0x02\n      dup2\n      gt\n      iszero\n      tag_113\n      jumpi\n      tag_114\n      tag_63\n      jump\t// in\n    tag_114:\n    tag_113:\n        /* \"TradeContract.sol\":2887:2893  orders */\n      0x01\n        /* \"TradeContract.sol\":2887:2902  orders[orderId] */\n      0x00\n        /* \"TradeContract.sol\":2894:2901  orderId */\n      dup6\n        /* \"TradeContract.sol\":2887:2902  orders[orderId] */\n      dup2\n      mstore\n      0x20\n      add\n      swap1\n      dup2\n      mstore\n      0x20\n      add\n      0x00\n      keccak256\n        /* \"TradeContract.sol\":2887:2908  orders[orderId].state */\n      0x03\n      add\n      0x14\n      swap1\n      sload\n      swap1\n      0x0100\n      exp\n      swap1\n      div\n      0xff\n      and\n        /* \"TradeContract.sol\":2887:2930  orders[orderId].state == OrderState.CREATED */\n      0x02\n      dup2\n      gt\n      iszero\n      tag_115\n      jumpi\n      tag_116\n      tag_63\n      jump\t// in\n    tag_116:\n    tag_115:\n      eq\n        /* \"TradeContract.sol\":2879:2964  require(orders[orderId].state == OrderState.CREATED, \"Order is not in CREATED state\") */\n      tag_117\n      jumpi\n      mload(0x40)\n      0x08c379a000000000000000000000000000000000000000000000000000000000\n      dup2\n      mstore\n      0x04\n      add\n      tag_118\n      swap1\n      tag_80\n      jump\t// in\n    tag_118:\n      mload(0x40)\n      dup1\n      swap2\n      sub\n      swap1\n      revert\n    tag_117:\n        /* \"TradeContract.sol\":2975:2987  bytes32 hash */\n      0x00\n        /* \"TradeContract.sol\":3017:3024  orderId */\n      dup4\n        /* \"TradeContract.sol\":3026:3036  msg.sender */\n      caller\n        /* \"TradeContract.sol\":3038:3056  chosenRandomNumber */\n      dup5\n        /* \"TradeContract.sol\":3000:3057  abi.encodePacked(orderId, msg.sender, chosenRandomNumber) */\n      add(0x20, mload(0x40))\n      tag_119\n      swap4\n      swap3\n      swap2\n      swap1\n      tag_98\n      jump\t// in\n    tag_119:\n      mload(0x40)\n      0x20\n      dup2\n      dup4\n      sub\n      sub\n      dup2\n      mstore\n      swap1\n      0x40\n      mstore\n        /* \"TradeContract.sol\":2990:3058  keccak256(abi.encodePacked(orderId, msg.sender, chosenRandomNumber)) */\n      dup1\n      mload\n      swap1\n      0x20\n      add\n      keccak256\n        /* \"TradeContract.sol\":2975:3058  bytes32 hash = keccak256(abi.encodePacked(orderId, msg.sender, chosenRandomNumber)) */\n      swap1\n      pop\n        /* \"TradeContract.sol\":3076:3082  orders */\n      0x01\n        /* \"TradeContract.sol\":3076:3091  orders[orderId] */\n      0x00\n        /* \"TradeContract.sol\":3083:3090  orderId */\n      dup6\n        /* \"TradeContract.sol\":3076:3091  orders[orderId] */\n      dup2\n      mstore\n      0x20\n      add\n      swap1\n      dup2\n      mstore\n      0x20\n      add\n      0x00\n      keccak256\n        /* \"TradeContract.sol\":3076:3109  orders[orderId].usedRandomNumbers */\n      0x05\n      add\n        /* \"TradeContract.sol\":3076:3115  orders[orderId].usedRandomNumbers[hash] */\n      0x00\n        /* \"TradeContract.sol\":3110:3114  hash */\n      dup3\n        /* \"TradeContract.sol\":3076:3115  orders[orderId].usedRandomNumbers[hash] */\n      dup2\n      mstore\n      0x20\n      add\n      swap1\n      dup2\n      mstore\n      0x20\n      add\n      0x00\n      keccak256\n      0x00\n      swap1\n      sload\n      swap1\n      0x0100\n      exp\n      swap1\n      div\n      0xff\n      and\n        /* \"TradeContract.sol\":3068:3141  require(orders[orderId].usedRandomNumbers[hash], \"Invalid random number\") */\n      tag_120\n      jumpi\n      mload(0x40)\n      0x08c379a000000000000000000000000000000000000000000000000000000000\n      dup2\n      mstore\n      0x04\n      add\n      tag_121\n      swap1\n      tag_122\n      jump\t// in\n    tag_121:\n      mload(0x40)\n      dup1\n      swap2\n      sub\n      swap1\n      revert\n    tag_120:\n        /* \"TradeContract.sol\":3152:3165  IERC20 _token */\n      0x00\n        /* \"TradeContract.sol\":3175:3181  orders */\n      0x01\n        /* \"TradeContract.sol\":3175:3190  orders[orderId] */\n      0x00\n        /* \"TradeContract.sol\":3182:3189  orderId */\n      dup7\n        /* \"TradeContract.sol\":3175:3190  orders[orderId] */\n      dup2\n      mstore\n      0x20\n      add\n      swap1\n      dup2\n      mstore\n      0x20\n      add\n      0x00\n      keccak256\n        /* \"TradeContract.sol\":3175:3204  orders[orderId].tokenContract */\n      0x03\n      add\n      0x00\n      swap1\n      sload\n      swap1\n      0x0100\n      exp\n      swap1\n      div\n      0xffffffffffffffffffffffffffffffffffffffff\n      and\n        /* \"TradeContract.sol\":3152:3205  IERC20 _token = IERC20(orders[orderId].tokenContract) */\n      swap1\n      pop\n        /* \"TradeContract.sol\":3258:3264  orders */\n      0x01\n        /* \"TradeContract.sol\":3258:3273  orders[orderId] */\n      0x00\n        /* \"TradeContract.sol\":3265:3272  orderId */\n      dup7\n        /* \"TradeContract.sol\":3258:3273  orders[orderId] */\n      dup2\n      mstore\n      0x20\n      add\n      swap1\n      dup2\n      mstore\n      0x20\n      add\n      0x00\n      keccak256\n        /* \"TradeContract.sol\":3258:3285  orders[orderId].tokenAmount */\n      0x02\n      add\n      sload\n        /* \"TradeContract.sol\":3223:3229  _token */\n      dup2\n        /* \"TradeContract.sol\":3223:3239  _token.balanceOf */\n      0xffffffffffffffffffffffffffffffffffffffff\n      and\n      0x70a08231\n        /* \"TradeContract.sol\":3248:3252  this */\n      address\n        /* \"TradeContract.sol\":3223:3254  _token.balanceOf(address(this)) */\n      mload(0x40)\n      dup3\n      0xffffffff\n      and\n      0xe0\n      shl\n      dup2\n      mstore\n      0x04\n      add\n      tag_123\n      swap2\n      swap1\n      tag_35\n      jump\t// in\n    tag_123:\n      0x20\n      mload(0x40)\n      dup1\n      dup4\n      sub\n      dup2\n      dup7\n      gas\n      staticcall\n      iszero\n      dup1\n      iszero\n      tag_125\n      jumpi\n      returndatasize\n      0x00\n      dup1\n      returndatacopy\n      revert(0x00, returndatasize)\n    tag_125:\n      pop\n      pop\n      pop\n      pop\n      mload(0x40)\n      returndatasize\n      not(0x1f)\n      0x1f\n      dup3\n      add\n      and\n      dup3\n      add\n      dup1\n      0x40\n      mstore\n      pop\n      dup2\n      add\n      swap1\n      tag_126\n      swap2\n      swap1\n      tag_127\n      jump\t// in\n    tag_126:\n        /* \"TradeContract.sol\":3223:3285  _token.balanceOf(address(this)) >= orders[orderId].tokenAmount */\n      lt\n      iszero\n        /* \"TradeContract.sol\":3215:3350  require(_token.balanceOf(address(this)) >= orders[orderId].tokenAmount, \"Token doesn't exist in the system Please contact the seller \") */\n      tag_128\n      jumpi\n      mload(0x40)\n      0x08c379a000000000000000000000000000000000000000000000000000000000\n      dup2\n      mstore\n      0x04\n      add\n      tag_129\n      swap1\n      tag_130\n      jump\t// in\n    tag_129:\n      mload(0x40)\n      dup1\n      swap2\n      sub\n      swap1\n      revert\n    tag_128:\n        /* \"TradeContract.sol\":3360:3366  _token */\n      dup1\n        /* \"TradeContract.sol\":3360:3375  _token.transfer */\n      0xffffffffffffffffffffffffffffffffffffffff\n      and\n      0xa9059cbb\n        /* \"TradeContract.sol\":3376:3386  msg.sender */\n      caller\n        /* \"TradeContract.sol\":3387:3393  orders */\n      0x01\n        /* \"TradeContract.sol\":3387:3402  orders[orderId] */\n      0x00\n        /* \"TradeContract.sol\":3394:3401  orderId */\n      dup10\n        /* \"TradeContract.sol\":3387:3402  orders[orderId] */\n      dup2\n      mstore\n      0x20\n      add\n      swap1\n      dup2\n      mstore\n      0x20\n      add\n      0x00\n      keccak256\n        /* \"TradeContract.sol\":3387:3414  orders[orderId].tokenAmount */\n      0x02\n      add\n      sload\n        /* \"TradeContract.sol\":3360:3415  _token.transfer(msg.sender,orders[orderId].tokenAmount) */\n      mload(0x40)\n      dup4\n      0xffffffff\n      and\n      0xe0\n      shl\n      dup2\n      mstore\n      0x04\n      add\n      tag_131\n      swap3\n      swap2\n      swap1\n      tag_132\n      jump\t// in\n    tag_131:\n      0x20\n      mload(0x40)\n      dup1\n      dup4\n      sub\n      dup2\n      0x00\n      dup8\n      gas\n      call\n      iszero\n      dup1\n      iszero\n      tag_134\n      jumpi\n      returndatasize\n      0x00\n      dup1\n      returndatacopy\n      revert(0x00, returndatasize)\n    tag_134:\n      pop\n      pop\n      pop\n      pop\n      mload(0x40)\n      returndatasize\n      not(0x1f)\n      0x1f\n      dup3\n      add\n      and\n      dup3\n      add\n      dup1\n      0x40\n      mstore\n      pop\n      dup2\n      add\n      swap1\n      tag_135\n      swap2\n      swap1\n      tag_136\n      jump\t// in\n    tag_135:\n      pop\n        /* \"TradeContract.sol\":3450:3470  OrderState.COMPLETED */\n      0x01\n        /* \"TradeContract.sol\":3426:3432  orders */\n      dup1\n        /* \"TradeContract.sol\":3426:3441  orders[orderId] */\n      0x00\n        /* \"TradeContract.sol\":3433:3440  orderId */\n      dup8\n        /* \"TradeContract.sol\":3426:3441  orders[orderId] */\n      dup2\n      mstore\n      0x20\n      add\n      swap1\n      dup2\n      mstore\n      0x20\n      add\n      0x00\n      keccak256\n        /* \"TradeContract.sol\":3426:3447  orders[orderId].state */\n      0x03\n      add\n      0x14\n        /* \"TradeContract.sol\":3426:3470  orders[orderId].state = OrderState.COMPLETED */\n      0x0100\n      exp\n      dup2\n      sload\n      dup2\n      0xff\n      mul\n      not\n      and\n      swap1\n      dup4\n      0x02\n      dup2\n      gt\n      iszero\n      tag_137\n      jumpi\n      tag_138\n      tag_63\n      jump\t// in\n    tag_138:\n    tag_137:\n      mul\n      or\n      swap1\n      sstore\n      pop\n        /* \"TradeContract.sol\":3684:3770  OrderCompleted(msg.sender, orders[orderId].tokenAmount, orders[orderId].tokenContract) */\n      0x74521722fc86dc8b2bda041d06bd7a9029ef72153c049c301a329c8ce6fbdeef\n        /* \"TradeContract.sol\":3699:3709  msg.sender */\n      caller\n        /* \"TradeContract.sol\":3711:3717  orders */\n      0x01\n        /* \"TradeContract.sol\":3711:3726  orders[orderId] */\n      0x00\n        /* \"TradeContract.sol\":3718:3725  orderId */\n      dup9\n        /* \"TradeContract.sol\":3711:3726  orders[orderId] */\n      dup2\n      mstore\n      0x20\n      add\n      swap1\n      dup2\n      mstore\n      0x20\n      add\n      0x00\n      keccak256\n        /* \"TradeContract.sol\":3711:3738  orders[orderId].tokenAmount */\n      0x02\n      add\n      sload\n        /* \"TradeContract.sol\":3740:3746  orders */\n      0x01\n        /* \"TradeContract.sol\":3740:3755  orders[orderId] */\n      0x00\n        /* \"TradeContract.sol\":3747:3754  orderId */\n      dup10\n        /* \"TradeContract.sol\":3740:3755  orders[orderId] */\n      dup2\n      mstore\n      0x20\n      add\n      swap1\n      dup2\n      mstore\n      0x20\n      add\n      0x00\n      keccak256\n        /* \"TradeContract.sol\":3740:3769  orders[orderId].tokenContract */\n      0x03\n      add\n      0x00\n      swap1\n      sload\n      swap1\n      0x0100\n      exp\n      swap1\n      div\n      0xffffffffffffffffffffffffffffffffffffffff\n      and\n        /* \"TradeContract.sol\":3684:3770  OrderCompleted(msg.sender, orders[orderId].tokenAmount, orders[orderId].tokenContract) */\n      mload(0x40)\n      tag_139\n      swap4\n      swap3\n      swap2\n      swap1\n      tag_140\n      jump\t// in\n    tag_139:\n      mload(0x40)\n      dup1\n      swap2\n      sub\n      swap1\n      log1\n        /* \"TradeContract.sol\":2869:3777  {... */\n      pop\n      pop\n        /* \"TradeContract.sol\":2773:3777  function completeOrder(uint256 orderId, uint256 chosenRandomNumber) external onlyBuyer(orderId) {... */\n      pop\n      pop\n      pop\n      jump\t// out\n        /* \"TradeContract.sol\":4063:4595  function getOrderDetails(uint256 orderId) external view returns(uint256 orderid, address seller, uint256 tokenAmount, address tokenContract,OrderState state) {... */\n    tag_46:\n        /* \"TradeContract.sol\":4127:4142  uint256 orderid */\n      0x00\n        /* \"TradeContract.sol\":4144:4158  address seller */\n      dup1\n        /* \"TradeContract.sol\":4160:4179  uint256 tokenAmount */\n      0x00\n        /* \"TradeContract.sol\":4181:4202  address tokenContract */\n      dup1\n        /* \"TradeContract.sol\":4203:4219  OrderState state */\n      0x00\n        /* \"TradeContract.sol\":4251:4262  nextOrderId */\n      sload(0x02)\n        /* \"TradeContract.sol\":4240:4247  orderId */\n      dup7\n        /* \"TradeContract.sol\":4240:4262  orderId <= nextOrderId */\n      gt\n      iszero\n        /* \"TradeContract.sol\":4232:4283  require(orderId <= nextOrderId, \"Invalid order ID\") */\n      tag_142\n      jumpi\n      mload(0x40)\n      0x08c379a000000000000000000000000000000000000000000000000000000000\n      dup2\n      mstore\n      0x04\n      add\n      tag_143\n      swap1\n      tag_144\n      jump\t// in\n    tag_143:\n      mload(0x40)\n      dup1\n      swap2\n      sub\n      swap1\n      revert\n    tag_142:\n        /* \"TradeContract.sol\":4461:4467  orders */\n      0x01\n        /* \"TradeContract.sol\":4461:4476  orders[orderId] */\n      0x00\n        /* \"TradeContract.sol\":4468:4475  orderId */\n      dup8\n        /* \"TradeContract.sol\":4461:4476  orders[orderId] */\n      dup2\n      mstore\n      0x20\n      add\n      swap1\n      dup2\n      mstore\n      0x20\n      add\n      0x00\n      keccak256\n        /* \"TradeContract.sol\":4461:4484  orders[orderId].orderId */\n      0x00\n      add\n      sload\n        /* \"TradeContract.sol\":4485:4491  orders */\n      0x01\n        /* \"TradeContract.sol\":4485:4500  orders[orderId] */\n      0x00\n        /* \"TradeContract.sol\":4492:4499  orderId */\n      dup9\n        /* \"TradeContract.sol\":4485:4500  orders[orderId] */\n      dup2\n      mstore\n      0x20\n      add\n      swap1\n      dup2\n      mstore\n      0x20\n      add\n      0x00\n      keccak256\n        /* \"TradeContract.sol\":4485:4507  orders[orderId].seller */\n      0x01\n      add\n      0x00\n      swap1\n      sload\n      swap1\n      0x0100\n      exp\n      swap1\n      div\n      0xffffffffffffffffffffffffffffffffffffffff\n      and\n        /* \"TradeContract.sol\":4508:4514  orders */\n      0x01\n        /* \"TradeContract.sol\":4508:4523  orders[orderId] */\n      0x00\n        /* \"TradeContract.sol\":4515:4522  orderId */\n      dup10\n        /* \"TradeContract.sol\":4508:4523  orders[orderId] */\n      dup2\n      mstore\n      0x20\n      add\n      swap1\n      dup2\n      mstore\n      0x20\n      add\n      0x00\n      keccak256\n        /* \"TradeContract.sol\":4508:4535  orders[orderId].tokenAmount */\n      0x02\n      add\n      sload\n        /* \"TradeContract.sol\":4536:4542  orders */\n      0x01\n        /* \"TradeContract.sol\":4536:4551  orders[orderId] */\n      0x00\n        /* \"TradeContract.sol\":4543:4550  orderId */\n      dup11\n        /* \"TradeContract.sol\":4536:4551  orders[orderId] */\n      dup2\n      mstore\n      0x20\n      add\n      swap1\n      dup2\n      mstore\n      0x20\n      add\n      0x00\n      keccak256\n        /* \"TradeContract.sol\":4536:4565  orders[orderId].tokenContract */\n      0x03\n      add\n      0x00\n      swap1\n      sload\n      swap1\n      0x0100\n      exp\n      swap1\n      div\n      0xffffffffffffffffffffffffffffffffffffffff\n      and\n        /* \"TradeContract.sol\":4566:4572  orders */\n      0x01\n        /* \"TradeContract.sol\":4566:4581  orders[orderId] */\n      0x00\n        /* \"TradeContract.sol\":4573:4580  orderId */\n      dup12\n        /* \"TradeContract.sol\":4566:4581  orders[orderId] */\n      dup2\n      mstore\n      0x20\n      add\n      swap1\n      dup2\n      mstore\n      0x20\n      add\n      0x00\n      keccak256\n        /* \"TradeContract.sol\":4566:4587  orders[orderId].state */\n      0x03\n      add\n      0x14\n      swap1\n      sload\n      swap1\n      0x0100\n      exp\n      swap1\n      div\n      0xff\n      and\n        /* \"TradeContract.sol\":4453:4588  return (orders[orderId].orderId,orders[orderId].seller,orders[orderId].tokenAmount,orders[orderId].tokenContract,orders[orderId].state) */\n      swap5\n      pop\n      swap5\n      pop\n      swap5\n      pop\n      swap5\n      pop\n      swap5\n      pop\n        /* \"TradeContract.sol\":4063:4595  function getOrderDetails(uint256 orderId) external view returns(uint256 orderid, address seller, uint256 tokenAmount, address tokenContract,OrderState state) {... */\n      swap2\n      swap4\n      swap6\n      swap1\n      swap3\n      swap5\n      pop\n      jump\t// out\n        /* \"@openzeppelin/contracts/access/Ownable.sol\":2542:2757  function transferOwnership(address newOwner) public virtual onlyOwner {... */\n    tag_51:\n        /* \"@openzeppelin/contracts/access/Ownable.sol\":1530:1543  _checkOwner() */\n      tag_146\n        /* \"@openzeppelin/contracts/access/Ownable.sol\":1530:1541  _checkOwner */\n      tag_68\n        /* \"@openzeppelin/contracts/access/Ownable.sol\":1530:1543  _checkOwner() */\n      jump\t// in\n    tag_146:\n        /* \"@openzeppelin/contracts/access/Ownable.sol\":2646:2647  0 */\n      0x00\n        /* \"@openzeppelin/contracts/access/Ownable.sol\":2626:2648  newOwner == address(0) */\n      0xffffffffffffffffffffffffffffffffffffffff\n      and\n        /* \"@openzeppelin/contracts/access/Ownable.sol\":2626:2634  newOwner */\n      dup2\n        /* \"@openzeppelin/contracts/access/Ownable.sol\":2626:2648  newOwner == address(0) */\n      0xffffffffffffffffffffffffffffffffffffffff\n      and\n      sub\n        /* \"@openzeppelin/contracts/access/Ownable.sol\":2622:2713  if (newOwner == address(0)) {... */\n      tag_148\n      jumpi\n        /* \"@openzeppelin/contracts/access/Ownable.sol\":2699:2700  0 */\n      0x00\n        /* \"@openzeppelin/contracts/access/Ownable.sol\":2671:2702  OwnableInvalidOwner(address(0)) */\n      mload(0x40)\n      0x1e4fbdf700000000000000000000000000000000000000000000000000000000\n      dup2\n      mstore\n      0x04\n      add\n      tag_149\n      swap2\n      swap1\n      tag_35\n      jump\t// in\n    tag_149:\n      mload(0x40)\n      dup1\n      swap2\n      sub\n      swap1\n      revert\n        /* \"@openzeppelin/contracts/access/Ownable.sol\":2622:2713  if (newOwner == address(0)) {... */\n    tag_148:\n        /* \"@openzeppelin/contracts/access/Ownable.sol\":2722:2750  _transferOwnership(newOwner) */\n      tag_150\n        /* \"@openzeppelin/contracts/access/Ownable.sol\":2741:2749  newOwner */\n      dup2\n        /* \"@openzeppelin/contracts/access/Ownable.sol\":2722:2740  _transferOwnership */\n      tag_106\n        /* \"@openzeppelin/contracts/access/Ownable.sol\":2722:2750  _transferOwnership(newOwner) */\n      jump\t// in\n    tag_150:\n        /* \"@openzeppelin/contracts/access/Ownable.sol\":2542:2757  function transferOwnership(address newOwner) public virtual onlyOwner {... */\n      pop\n      jump\t// out\n        /* \"@openzeppelin/contracts/access/Ownable.sol\":1795:1957  function _checkOwner() internal view virtual {... */\n    tag_68:\n        /* \"@openzeppelin/contracts/access/Ownable.sol\":1865:1877  _msgSender() */\n      tag_152\n        /* \"@openzeppelin/contracts/access/Ownable.sol\":1865:1875  _msgSender */\n      tag_153\n        /* \"@openzeppelin/contracts/access/Ownable.sol\":1865:1877  _msgSender() */\n      jump\t// in\n    tag_152:\n        /* \"@openzeppelin/contracts/access/Ownable.sol\":1854:1877  owner() != _msgSender() */\n      0xffffffffffffffffffffffffffffffffffffffff\n      and\n        /* \"@openzeppelin/contracts/access/Ownable.sol\":1854:1861  owner() */\n      tag_154\n        /* \"@openzeppelin/contracts/access/Ownable.sol\":1854:1859  owner */\n      tag_33\n        /* \"@openzeppelin/contracts/access/Ownable.sol\":1854:1861  owner() */\n      jump\t// in\n    tag_154:\n        /* \"@openzeppelin/contracts/access/Ownable.sol\":1854:1877  owner() != _msgSender() */\n      0xffffffffffffffffffffffffffffffffffffffff\n      and\n      eq\n        /* \"@openzeppelin/contracts/access/Ownable.sol\":1850:1951  if (owner() != _msgSender()) {... */\n      tag_155\n      jumpi\n        /* \"@openzeppelin/contracts/access/Ownable.sol\":1927:1939  _msgSender() */\n      tag_156\n        /* \"@openzeppelin/contracts/access/Ownable.sol\":1927:1937  _msgSender */\n      tag_153\n        /* \"@openzeppelin/contracts/access/Ownable.sol\":1927:1939  _msgSender() */\n      jump\t// in\n    tag_156:\n        /* \"@openzeppelin/contracts/access/Ownable.sol\":1900:1940  OwnableUnauthorizedAccount(_msgSender()) */\n      mload(0x40)\n      0x118cdaa700000000000000000000000000000000000000000000000000000000\n      dup2\n      mstore\n      0x04\n      add\n      tag_157\n      swap2\n      swap1\n      tag_35\n      jump\t// in\n    tag_157:\n      mload(0x40)\n      dup1\n      swap2\n      sub\n      swap1\n      revert\n        /* \"@openzeppelin/contracts/access/Ownable.sol\":1850:1951  if (owner() != _msgSender()) {... */\n    tag_155:\n        /* \"@openzeppelin/contracts/access/Ownable.sol\":1795:1957  function _checkOwner() internal view virtual {... */\n      jump\t// out\n        /* \"@openzeppelin/contracts/access/Ownable.sol\":2911:3098  function _transferOwnership(address newOwner) internal virtual {... */\n    tag_106:\n        /* \"@openzeppelin/contracts/access/Ownable.sol\":2984:3000  address oldOwner */\n      0x00\n        /* \"@openzeppelin/contracts/access/Ownable.sol\":3003:3009  _owner */\n      dup1\n      0x00\n      swap1\n      sload\n      swap1\n      0x0100\n      exp\n      swap1\n      div\n      0xffffffffffffffffffffffffffffffffffffffff\n      and\n        /* \"@openzeppelin/contracts/access/Ownable.sol\":2984:3009  address oldOwner = _owner */\n      swap1\n      pop\n        /* \"@openzeppelin/contracts/access/Ownable.sol\":3028:3036  newOwner */\n      dup2\n        /* \"@openzeppelin/contracts/access/Ownable.sol\":3019:3025  _owner */\n      0x00\n      dup1\n        /* \"@openzeppelin/contracts/access/Ownable.sol\":3019:3036  _owner = newOwner */\n      0x0100\n      exp\n      dup2\n      sload\n      dup2\n      0xffffffffffffffffffffffffffffffffffffffff\n      mul\n      not\n      and\n      swap1\n      dup4\n      0xffffffffffffffffffffffffffffffffffffffff\n      and\n      mul\n      or\n      swap1\n      sstore\n      pop\n        /* \"@openzeppelin/contracts/access/Ownable.sol\":3082:3090  newOwner */\n      dup2\n        /* \"@openzeppelin/contracts/access/Ownable.sol\":3051:3091  OwnershipTransferred(oldOwner, newOwner) */\n      0xffffffffffffffffffffffffffffffffffffffff\n      and\n        /* \"@openzeppelin/contracts/access/Ownable.sol\":3072:3080  oldOwner */\n      dup2\n        /* \"@openzeppelin/contracts/access/Ownable.sol\":3051:3091  OwnershipTransferred(oldOwner, newOwner) */\n      0xffffffffffffffffffffffffffffffffffffffff\n      and\n      0x8be0079c531659141344cd1fd0a4f28419497f9722a3daafe3b4186f6b6457e0\n      mload(0x40)\n      mload(0x40)\n      dup1\n      swap2\n      sub\n      swap1\n      log3\n        /* \"@openzeppelin/contracts/access/Ownable.sol\":2974:3098  {... */\n      pop\n        /* \"@openzeppelin/contracts/access/Ownable.sol\":2911:3098  function _transferOwnership(address newOwner) internal virtual {... */\n      pop\n      jump\t// out\n        /* \"@openzeppelin/contracts/utils/Context.sol\":655:751  function _msgSender() internal view virtual returns (address) {... */\n    tag_153:\n        /* \"@openzeppelin/contracts/utils/Context.sol\":708:715  address */\n      0x00\n        /* \"@openzeppelin/contracts/utils/Context.sol\":734:744  msg.sender */\n      caller\n        /* \"@openzeppelin/contracts/utils/Context.sol\":727:744  return msg.sender */\n      swap1\n      pop\n        /* \"@openzeppelin/contracts/utils/Context.sol\":655:751  function _msgSender() internal view virtual returns (address) {... */\n      swap1\n      jump\t// out\n        /* \"#utility.yul\":88:205   */\n    tag_161:\n        /* \"#utility.yul\":197:198   */\n      0x00\n        /* \"#utility.yul\":194:195   */\n      dup1\n        /* \"#utility.yul\":187:199   */\n      revert\n        /* \"#utility.yul\":334:411   */\n    tag_163:\n        /* \"#utility.yul\":371:378   */\n      0x00\n        /* \"#utility.yul\":400:405   */\n      dup2\n        /* \"#utility.yul\":389:405   */\n      swap1\n      pop\n        /* \"#utility.yul\":334:411   */\n      swap2\n      swap1\n      pop\n      jump\t// out\n        /* \"#utility.yul\":417:539   */\n    tag_164:\n        /* \"#utility.yul\":490:514   */\n      tag_216\n        /* \"#utility.yul\":508:513   */\n      dup2\n        /* \"#utility.yul\":490:514   */\n      tag_163\n      jump\t// in\n    tag_216:\n        /* \"#utility.yul\":483:488   */\n      dup2\n        /* \"#utility.yul\":480:515   */\n      eq\n        /* \"#utility.yul\":470:533   */\n      tag_217\n      jumpi\n        /* \"#utility.yul\":529:530   */\n      0x00\n        /* \"#utility.yul\":526:527   */\n      dup1\n        /* \"#utility.yul\":519:531   */\n      revert\n        /* \"#utility.yul\":470:533   */\n    tag_217:\n        /* \"#utility.yul\":417:539   */\n      pop\n      jump\t// out\n        /* \"#utility.yul\":545:684   */\n    tag_165:\n        /* \"#utility.yul\":591:596   */\n      0x00\n        /* \"#utility.yul\":629:635   */\n      dup2\n        /* \"#utility.yul\":616:636   */\n      calldataload\n        /* \"#utility.yul\":607:636   */\n      swap1\n      pop\n        /* \"#utility.yul\":645:678   */\n      tag_219\n        /* \"#utility.yul\":672:677   */\n      dup2\n        /* \"#utility.yul\":645:678   */\n      tag_164\n      jump\t// in\n    tag_219:\n        /* \"#utility.yul\":545:684   */\n      swap3\n      swap2\n      pop\n      pop\n      jump\t// out\n        /* \"#utility.yul\":690:816   */\n    tag_166:\n        /* \"#utility.yul\":727:734   */\n      0x00\n        /* \"#utility.yul\":767:809   */\n      0xffffffffffffffffffffffffffffffffffffffff\n        /* \"#utility.yul\":760:765   */\n      dup3\n        /* \"#utility.yul\":756:810   */\n      and\n        /* \"#utility.yul\":745:810   */\n      swap1\n      pop\n        /* \"#utility.yul\":690:816   */\n      swap2\n      swap1\n      pop\n      jump\t// out\n        /* \"#utility.yul\":822:918   */\n    tag_167:\n        /* \"#utility.yul\":859:866   */\n      0x00\n        /* \"#utility.yul\":888:912   */\n      tag_222\n        /* \"#utility.yul\":906:911   */\n      dup3\n        /* \"#utility.yul\":888:912   */\n      tag_166\n      jump\t// in\n    tag_222:\n        /* \"#utility.yul\":877:912   */\n      swap1\n      pop\n        /* \"#utility.yul\":822:918   */\n      swap2\n      swap1\n      pop\n      jump\t// out\n        /* \"#utility.yul\":924:1046   */\n    tag_168:\n        /* \"#utility.yul\":997:1021   */\n      tag_224\n        /* \"#utility.yul\":1015:1020   */\n      dup2\n        /* \"#utility.yul\":997:1021   */\n      tag_167\n      jump\t// in\n    tag_224:\n        /* \"#utility.yul\":990:995   */\n      dup2\n        /* \"#utility.yul\":987:1022   */\n      eq\n        /* \"#utility.yul\":977:1040   */\n      tag_225\n      jumpi\n        /* \"#utility.yul\":1036:1037   */\n      0x00\n        /* \"#utility.yul\":1033:1034   */\n      dup1\n        /* \"#utility.yul\":1026:1038   */\n      revert\n        /* \"#utility.yul\":977:1040   */\n    tag_225:\n        /* \"#utility.yul\":924:1046   */\n      pop\n      jump\t// out\n        /* \"#utility.yul\":1052:1191   */\n    tag_169:\n        /* \"#utility.yul\":1098:1103   */\n      0x00\n        /* \"#utility.yul\":1136:1142   */\n      dup2\n        /* \"#utility.yul\":1123:1143   */\n      calldataload\n        /* \"#utility.yul\":1114:1143   */\n      swap1\n      pop\n        /* \"#utility.yul\":1152:1185   */\n      tag_227\n        /* \"#utility.yul\":1179:1184   */\n      dup2\n        /* \"#utility.yul\":1152:1185   */\n      tag_168\n      jump\t// in\n    tag_227:\n        /* \"#utility.yul\":1052:1191   */\n      swap3\n      swap2\n      pop\n      pop\n      jump\t// out\n        /* \"#utility.yul\":1197:1671   */\n    tag_16:\n        /* \"#utility.yul\":1265:1271   */\n      0x00\n        /* \"#utility.yul\":1273:1279   */\n      dup1\n        /* \"#utility.yul\":1322:1324   */\n      0x40\n        /* \"#utility.yul\":1310:1319   */\n      dup4\n        /* \"#utility.yul\":1301:1308   */\n      dup6\n        /* \"#utility.yul\":1297:1320   */\n      sub\n        /* \"#utility.yul\":1293:1325   */\n      slt\n        /* \"#utility.yul\":1290:1409   */\n      iszero\n      tag_229\n      jumpi\n        /* \"#utility.yul\":1328:1407   */\n      tag_230\n      tag_161\n      jump\t// in\n    tag_230:\n        /* \"#utility.yul\":1290:1409   */\n    tag_229:\n        /* \"#utility.yul\":1448:1449   */\n      0x00\n        /* \"#utility.yul\":1473:1526   */\n      tag_231\n        /* \"#utility.yul\":1518:1525   */\n      dup6\n        /* \"#utility.yul\":1509:1515   */\n      dup3\n        /* \"#utility.yul\":1498:1507   */\n      dup7\n        /* \"#utility.yul\":1494:1516   */\n      add\n        /* \"#utility.yul\":1473:1526   */\n      tag_165\n      jump\t// in\n    tag_231:\n        /* \"#utility.yul\":1463:1526   */\n      swap3\n      pop\n        /* \"#utility.yul\":1419:1536   */\n      pop\n        /* \"#utility.yul\":1575:1577   */\n      0x20\n        /* \"#utility.yul\":1601:1654   */\n      tag_232\n        /* \"#utility.yul\":1646:1653   */\n      dup6\n        /* \"#utility.yul\":1637:1643   */\n      dup3\n        /* \"#utility.yul\":1626:1635   */\n      dup7\n        /* \"#utility.yul\":1622:1644   */\n      add\n        /* \"#utility.yul\":1601:1654   */\n      tag_169\n      jump\t// in\n    tag_232:\n        /* \"#utility.yul\":1591:1654   */\n      swap2\n      pop\n        /* \"#utility.yul\":1546:1664   */\n      pop\n        /* \"#utility.yul\":1197:1671   */\n      swap3\n      pop\n      swap3\n      swap1\n      pop\n      jump\t// out\n        /* \"#utility.yul\":1677:1795   */\n    tag_170:\n        /* \"#utility.yul\":1764:1788   */\n      tag_234\n        /* \"#utility.yul\":1782:1787   */\n      dup2\n        /* \"#utility.yul\":1764:1788   */\n      tag_163\n      jump\t// in\n    tag_234:\n        /* \"#utility.yul\":1759:1762   */\n      dup3\n        /* \"#utility.yul\":1752:1789   */\n      mstore\n        /* \"#utility.yul\":1677:1795   */\n      pop\n      pop\n      jump\t// out\n        /* \"#utility.yul\":1801:2023   */\n    tag_21:\n        /* \"#utility.yul\":1894:1898   */\n      0x00\n        /* \"#utility.yul\":1932:1934   */\n      0x20\n        /* \"#utility.yul\":1921:1930   */\n      dup3\n        /* \"#utility.yul\":1917:1935   */\n      add\n        /* \"#utility.yul\":1909:1935   */\n      swap1\n      pop\n        /* \"#utility.yul\":1945:2016   */\n      tag_236\n        /* \"#utility.yul\":2013:2014   */\n      0x00\n        /* \"#utility.yul\":2002:2011   */\n      dup4\n        /* \"#utility.yul\":1998:2015   */\n      add\n        /* \"#utility.yul\":1989:1995   */\n      dup5\n        /* \"#utility.yul\":1945:2016   */\n      tag_170\n      jump\t// in\n    tag_236:\n        /* \"#utility.yul\":1801:2023   */\n      swap3\n      swap2\n      pop\n      pop\n      jump\t// out\n        /* \"#utility.yul\":2029:2358   */\n    tag_24:\n        /* \"#utility.yul\":2088:2094   */\n      0x00\n        /* \"#utility.yul\":2137:2139   */\n      0x20\n        /* \"#utility.yul\":2125:2134   */\n      dup3\n        /* \"#utility.yul\":2116:2123   */\n      dup5\n        /* \"#utility.yul\":2112:2135   */\n      sub\n        /* \"#utility.yul\":2108:2140   */\n      slt\n        /* \"#utility.yul\":2105:2224   */\n      iszero\n      tag_238\n      jumpi\n        /* \"#utility.yul\":2143:2222   */\n      tag_239\n      tag_161\n      jump\t// in\n    tag_239:\n        /* \"#utility.yul\":2105:2224   */\n    tag_238:\n        /* \"#utility.yul\":2263:2264   */\n      0x00\n        /* \"#utility.yul\":2288:2341   */\n      tag_240\n        /* \"#utility.yul\":2333:2340   */\n      dup5\n        /* \"#utility.yul\":2324:2330   */\n      dup3\n        /* \"#utility.yul\":2313:2322   */\n      dup6\n        /* \"#utility.yul\":2309:2331   */\n      add\n        /* \"#utility.yul\":2288:2341   */\n      tag_165\n      jump\t// in\n    tag_240:\n        /* \"#utility.yul\":2278:2341   */\n      swap2\n      pop\n        /* \"#utility.yul\":2234:2351   */\n      pop\n        /* \"#utility.yul\":2029:2358   */\n      swap3\n      swap2\n      pop\n      pop\n      jump\t// out\n        /* \"#utility.yul\":2364:2838   */\n    tag_28:\n        /* \"#utility.yul\":2432:2438   */\n      0x00\n        /* \"#utility.yul\":2440:2446   */\n      dup1\n        /* \"#utility.yul\":2489:2491   */\n      0x40\n        /* \"#utility.yul\":2477:2486   */\n      dup4\n        /* \"#utility.yul\":2468:2475   */\n      dup6\n        /* \"#utility.yul\":2464:2487   */\n      sub\n        /* \"#utility.yul\":2460:2492   */\n      slt\n        /* \"#utility.yul\":2457:2576   */\n      iszero\n      tag_242\n      jumpi\n        /* \"#utility.yul\":2495:2574   */\n      tag_243\n      tag_161\n      jump\t// in\n    tag_243:\n        /* \"#utility.yul\":2457:2576   */\n    tag_242:\n        /* \"#utility.yul\":2615:2616   */\n      0x00\n        /* \"#utility.yul\":2640:2693   */\n      tag_244\n        /* \"#utility.yul\":2685:2692   */\n      dup6\n        /* \"#utility.yul\":2676:2682   */\n      dup3\n        /* \"#utility.yul\":2665:2674   */\n      dup7\n        /* \"#utility.yul\":2661:2683   */\n      add\n        /* \"#utility.yul\":2640:2693   */\n      tag_165\n      jump\t// in\n    tag_244:\n        /* \"#utility.yul\":2630:2693   */\n      swap3\n      pop\n        /* \"#utility.yul\":2586:2703   */\n      pop\n        /* \"#utility.yul\":2742:2744   */\n      0x20\n        /* \"#utility.yul\":2768:2821   */\n      tag_245\n        /* \"#utility.yul\":2813:2820   */\n      dup6\n        /* \"#utility.yul\":2804:2810   */\n      dup3\n        /* \"#utility.yul\":2793:2802   */\n      dup7\n        /* \"#utility.yul\":2789:2811   */\n      add\n        /* \"#utility.yul\":2768:2821   */\n      tag_165\n      jump\t// in\n    tag_245:\n        /* \"#utility.yul\":2758:2821   */\n      swap2\n      pop\n        /* \"#utility.yul\":2713:2831   */\n      pop\n        /* \"#utility.yul\":2364:2838   */\n      swap3\n      pop\n      swap3\n      swap1\n      pop\n      jump\t// out\n        /* \"#utility.yul\":2844:2962   */\n    tag_171:\n        /* \"#utility.yul\":2931:2955   */\n      tag_247\n        /* \"#utility.yul\":2949:2954   */\n      dup2\n        /* \"#utility.yul\":2931:2955   */\n      tag_167\n      jump\t// in\n    tag_247:\n        /* \"#utility.yul\":2926:2929   */\n      dup3\n        /* \"#utility.yul\":2919:2956   */\n      mstore\n        /* \"#utility.yul\":2844:2962   */\n      pop\n      pop\n      jump\t// out\n        /* \"#utility.yul\":2968:3190   */\n    tag_35:\n        /* \"#utility.yul\":3061:3065   */\n      0x00\n        /* \"#utility.yul\":3099:3101   */\n      0x20\n        /* \"#utility.yul\":3088:3097   */\n      dup3\n        /* \"#utility.yul\":3084:3102   */\n      add\n        /* \"#utility.yul\":3076:3102   */\n      swap1\n      pop\n        /* \"#utility.yul\":3112:3183   */\n      tag_249\n        /* \"#utility.yul\":3180:3181   */\n      0x00\n        /* \"#utility.yul\":3169:3178   */\n      dup4\n        /* \"#utility.yul\":3165:3182   */\n      add\n        /* \"#utility.yul\":3156:3162   */\n      dup5\n        /* \"#utility.yul\":3112:3183   */\n      tag_171\n      jump\t// in\n    tag_249:\n        /* \"#utility.yul\":2968:3190   */\n      swap3\n      swap2\n      pop\n      pop\n      jump\t// out\n        /* \"#utility.yul\":3196:3376   */\n    tag_63:\n        /* \"#utility.yul\":3244:3321   */\n      0x4e487b7100000000000000000000000000000000000000000000000000000000\n        /* \"#utility.yul\":3241:3242   */\n      0x00\n        /* \"#utility.yul\":3234:3322   */\n      mstore\n        /* \"#utility.yul\":3341:3345   */\n      0x21\n        /* \"#utility.yul\":3338:3339   */\n      0x04\n        /* \"#utility.yul\":3331:3346   */\n      mstore\n        /* \"#utility.yul\":3365:3369   */\n      0x24\n        /* \"#utility.yul\":3362:3363   */\n      0x00\n        /* \"#utility.yul\":3355:3370   */\n      revert\n        /* \"#utility.yul\":3382:3501   */\n    tag_172:\n        /* \"#utility.yul\":3469:3470   */\n      0x03\n        /* \"#utility.yul\":3462:3467   */\n      dup2\n        /* \"#utility.yul\":3459:3471   */\n      lt\n        /* \"#utility.yul\":3449:3495   */\n      tag_252\n      jumpi\n        /* \"#utility.yul\":3475:3493   */\n      tag_253\n      tag_63\n      jump\t// in\n    tag_253:\n        /* \"#utility.yul\":3449:3495   */\n    tag_252:\n        /* \"#utility.yul\":3382:3501   */\n      pop\n      jump\t// out\n        /* \"#utility.yul\":3507:3646   */\n    tag_173:\n        /* \"#utility.yul\":3558:3565   */\n      0x00\n        /* \"#utility.yul\":3587:3592   */\n      dup2\n        /* \"#utility.yul\":3576:3592   */\n      swap1\n      pop\n        /* \"#utility.yul\":3593:3640   */\n      tag_255\n        /* \"#utility.yul\":3634:3639   */\n      dup3\n        /* \"#utility.yul\":3593:3640   */\n      tag_172\n      jump\t// in\n    tag_255:\n        /* \"#utility.yul\":3507:3646   */\n      swap2\n      swap1\n      pop\n      jump\t// out\n        /* \"#utility.yul\":3652:3791   */\n    tag_174:\n        /* \"#utility.yul\":3714:3723   */\n      0x00\n        /* \"#utility.yul\":3747:3785   */\n      tag_257\n        /* \"#utility.yul\":3779:3784   */\n      dup3\n        /* \"#utility.yul\":3747:3785   */\n      tag_173\n      jump\t// in\n    tag_257:\n        /* \"#utility.yul\":3734:3785   */\n      swap1\n      pop\n        /* \"#utility.yul\":3652:3791   */\n      swap2\n      swap1\n      pop\n      jump\t// out\n        /* \"#utility.yul\":3797:3952   */\n    tag_175:\n        /* \"#utility.yul\":3896:3945   */\n      tag_259\n        /* \"#utility.yul\":3939:3944   */\n      dup2\n        /* \"#utility.yul\":3896:3945   */\n      tag_174\n      jump\t// in\n    tag_259:\n        /* \"#utility.yul\":3891:3894   */\n      dup3\n        /* \"#utility.yul\":3884:3946   */\n      mstore\n        /* \"#utility.yul\":3797:3952   */\n      pop\n      pop\n      jump\t// out\n        /* \"#utility.yul\":3958:4646   */\n    tag_40:\n        /* \"#utility.yul\":4175:4179   */\n      0x00\n        /* \"#utility.yul\":4213:4216   */\n      0xa0\n        /* \"#utility.yul\":4202:4211   */\n      dup3\n        /* \"#utility.yul\":4198:4217   */\n      add\n        /* \"#utility.yul\":4190:4217   */\n      swap1\n      pop\n        /* \"#utility.yul\":4227:4298   */\n      tag_261\n        /* \"#utility.yul\":4295:4296   */\n      0x00\n        /* \"#utility.yul\":4284:4293   */\n      dup4\n        /* \"#utility.yul\":4280:4297   */\n      add\n        /* \"#utility.yul\":4271:4277   */\n      dup9\n        /* \"#utility.yul\":4227:4298   */\n      tag_170\n      jump\t// in\n    tag_261:\n        /* \"#utility.yul\":4308:4380   */\n      tag_262\n        /* \"#utility.yul\":4376:4378   */\n      0x20\n        /* \"#utility.yul\":4365:4374   */\n      dup4\n        /* \"#utility.yul\":4361:4379   */\n      add\n        /* \"#utility.yul\":4352:4358   */\n      dup8\n        /* \"#utility.yul\":4308:4380   */\n      tag_171\n      jump\t// in\n    tag_262:\n        /* \"#utility.yul\":4390:4462   */\n      tag_263\n        /* \"#utility.yul\":4458:4460   */\n      0x40\n        /* \"#utility.yul\":4447:4456   */\n      dup4\n        /* \"#utility.yul\":4443:4461   */\n      add\n        /* \"#utility.yul\":4434:4440   */\n      dup7\n        /* \"#utility.yul\":4390:4462   */\n      tag_170\n      jump\t// in\n    tag_263:\n        /* \"#utility.yul\":4472:4544   */\n      tag_264\n        /* \"#utility.yul\":4540:4542   */\n      0x60\n        /* \"#utility.yul\":4529:4538   */\n      dup4\n        /* \"#utility.yul\":4525:4543   */\n      add\n        /* \"#utility.yul\":4516:4522   */\n      dup6\n        /* \"#utility.yul\":4472:4544   */\n      tag_171\n      jump\t// in\n    tag_264:\n        /* \"#utility.yul\":4554:4639   */\n      tag_265\n        /* \"#utility.yul\":4634:4637   */\n      0x80\n        /* \"#utility.yul\":4623:4632   */\n      dup4\n        /* \"#utility.yul\":4619:4638   */\n      add\n        /* \"#utility.yul\":4610:4616   */\n      dup5\n        /* \"#utility.yul\":4554:4639   */\n      tag_175\n      jump\t// in\n    tag_265:\n        /* \"#utility.yul\":3958:4646   */\n      swap7\n      swap6\n      pop\n      pop\n      pop\n      pop\n      pop\n      pop\n      jump\t// out\n        /* \"#utility.yul\":4652:4981   */\n    tag_50:\n        /* \"#utility.yul\":4711:4717   */\n      0x00\n        /* \"#utility.yul\":4760:4762   */\n      0x20\n        /* \"#utility.yul\":4748:4757   */\n      dup3\n        /* \"#utility.yul\":4739:4746   */\n      dup5\n        /* \"#utility.yul\":4735:4758   */\n      sub\n        /* \"#utility.yul\":4731:4763   */\n      slt\n        /* \"#utility.yul\":4728:4847   */\n      iszero\n      tag_267\n      jumpi\n        /* \"#utility.yul\":4766:4845   */\n      tag_268\n      tag_161\n      jump\t// in\n    tag_268:\n        /* \"#utility.yul\":4728:4847   */\n    tag_267:\n        /* \"#utility.yul\":4886:4887   */\n      0x00\n        /* \"#utility.yul\":4911:4964   */\n      tag_269\n        /* \"#utility.yul\":4956:4963   */\n      dup5\n        /* \"#utility.yul\":4947:4953   */\n      dup3\n        /* \"#utility.yul\":4936:4945   */\n      dup6\n        /* \"#utility.yul\":4932:4954   */\n      add\n        /* \"#utility.yul\":4911:4964   */\n      tag_169\n      jump\t// in\n    tag_269:\n        /* \"#utility.yul\":4901:4964   */\n      swap2\n      pop\n        /* \"#utility.yul\":4857:4974   */\n      pop\n        /* \"#utility.yul\":4652:4981   */\n      swap3\n      swap2\n      pop\n      pop\n      jump\t// out\n        /* \"#utility.yul\":4987:5156   */\n    tag_176:\n        /* \"#utility.yul\":5071:5082   */\n      0x00\n        /* \"#utility.yul\":5105:5111   */\n      dup3\n        /* \"#utility.yul\":5100:5103   */\n      dup3\n        /* \"#utility.yul\":5093:5112   */\n      mstore\n        /* \"#utility.yul\":5145:5149   */\n      0x20\n        /* \"#utility.yul\":5140:5143   */\n      dup3\n        /* \"#utility.yul\":5136:5150   */\n      add\n        /* \"#utility.yul\":5121:5150   */\n      swap1\n      pop\n        /* \"#utility.yul\":4987:5156   */\n      swap3\n      swap2\n      pop\n      pop\n      jump\t// out\n        /* \"#utility.yul\":5162:5384   */\n    tag_177:\n        /* \"#utility.yul\":5302:5336   */\n      0x546f6b656e20616d6f756e74206d757374206265206772656174657220746861\n        /* \"#utility.yul\":5298:5299   */\n      0x00\n        /* \"#utility.yul\":5290:5296   */\n      dup3\n        /* \"#utility.yul\":5286:5300   */\n      add\n        /* \"#utility.yul\":5279:5337   */\n      mstore\n        /* \"#utility.yul\":5371:5376   */\n      0x6e20300000000000000000000000000000000000000000000000000000000000\n        /* \"#utility.yul\":5366:5368   */\n      0x20\n        /* \"#utility.yul\":5358:5364   */\n      dup3\n        /* \"#utility.yul\":5354:5369   */\n      add\n        /* \"#utility.yul\":5347:5377   */\n      mstore\n        /* \"#utility.yul\":5162:5384   */\n      pop\n      jump\t// out\n        /* \"#utility.yul\":5390:5756   */\n    tag_178:\n        /* \"#utility.yul\":5532:5535   */\n      0x00\n        /* \"#utility.yul\":5553:5620   */\n      tag_273\n        /* \"#utility.yul\":5617:5619   */\n      0x23\n        /* \"#utility.yul\":5612:5615   */\n      dup4\n        /* \"#utility.yul\":5553:5620   */\n      tag_176\n      jump\t// in\n    tag_273:\n        /* \"#utility.yul\":5546:5620   */\n      swap2\n      pop\n        /* \"#utility.yul\":5629:5722   */\n      tag_274\n        /* \"#utility.yul\":5718:5721   */\n      dup3\n        /* \"#utility.yul\":5629:5722   */\n      tag_177\n      jump\t// in\n    tag_274:\n        /* \"#utility.yul\":5747:5749   */\n      0x40\n        /* \"#utility.yul\":5742:5745   */\n      dup3\n        /* \"#utility.yul\":5738:5750   */\n      add\n        /* \"#utility.yul\":5731:5750   */\n      swap1\n      pop\n        /* \"#utility.yul\":5390:5756   */\n      swap2\n      swap1\n      pop\n      jump\t// out\n        /* \"#utility.yul\":5762:6181   */\n    tag_55:\n        /* \"#utility.yul\":5928:5932   */\n      0x00\n        /* \"#utility.yul\":5966:5968   */\n      0x20\n        /* \"#utility.yul\":5955:5964   */\n      dup3\n        /* \"#utility.yul\":5951:5969   */\n      add\n        /* \"#utility.yul\":5943:5969   */\n      swap1\n      pop\n        /* \"#utility.yul\":6015:6024   */\n      dup2\n        /* \"#utility.yul\":6009:6013   */\n      dup2\n        /* \"#utility.yul\":6005:6025   */\n      sub\n        /* \"#utility.yul\":6001:6002   */\n      0x00\n        /* \"#utility.yul\":5990:5999   */\n      dup4\n        /* \"#utility.yul\":5986:6003   */\n      add\n        /* \"#utility.yul\":5979:6026   */\n      mstore\n        /* \"#utility.yul\":6043:6174   */\n      tag_276\n        /* \"#utility.yul\":6169:6173   */\n      dup2\n        /* \"#utility.yul\":6043:6174   */\n      tag_178\n      jump\t// in\n    tag_276:\n        /* \"#utility.yul\":6035:6174   */\n      swap1\n      pop\n        /* \"#utility.yul\":5762:6181   */\n      swap2\n      swap1\n      pop\n      jump\t// out\n        /* \"#utility.yul\":6187:6367   */\n    tag_179:\n        /* \"#utility.yul\":6327:6359   */\n      0x496e76616c696420746f6b656e20636f6e747261637420616464726573730000\n        /* \"#utility.yul\":6323:6324   */\n      0x00\n        /* \"#utility.yul\":6315:6321   */\n      dup3\n        /* \"#utility.yul\":6311:6325   */\n      add\n        /* \"#utility.yul\":6304:6360   */\n      mstore\n        /* \"#utility.yul\":6187:6367   */\n      pop\n      jump\t// out\n        /* \"#utility.yul\":6373:6739   */\n    tag_180:\n        /* \"#utility.yul\":6515:6518   */\n      0x00\n        /* \"#utility.yul\":6536:6603   */\n      tag_279\n        /* \"#utility.yul\":6600:6602   */\n      0x1e\n        /* \"#utility.yul\":6595:6598   */\n      dup4\n        /* \"#utility.yul\":6536:6603   */\n      tag_176\n      jump\t// in\n    tag_279:\n        /* \"#utility.yul\":6529:6603   */\n      swap2\n      pop\n        /* \"#utility.yul\":6612:6705   */\n      tag_280\n        /* \"#utility.yul\":6701:6704   */\n      dup3\n        /* \"#utility.yul\":6612:6705   */\n      tag_179\n      jump\t// in\n    tag_280:\n        /* \"#utility.yul\":6730:6732   */\n      0x20\n        /* \"#utility.yul\":6725:6728   */\n      dup3\n        /* \"#utility.yul\":6721:6733   */\n      add\n        /* \"#utility.yul\":6714:6733   */\n      swap1\n      pop\n        /* \"#utility.yul\":6373:6739   */\n      swap2\n      swap1\n      pop\n      jump\t// out\n        /* \"#utility.yul\":6745:7164   */\n    tag_58:\n        /* \"#utility.yul\":6911:6915   */\n      0x00\n        /* \"#utility.yul\":6949:6951   */\n      0x20\n        /* \"#utility.yul\":6938:6947   */\n      dup3\n        /* \"#utility.yul\":6934:6952   */\n      add\n        /* \"#utility.yul\":6926:6952   */\n      swap1\n      pop\n        /* \"#utility.yul\":6998:7007   */\n      dup2\n        /* \"#utility.yul\":6992:6996   */\n      dup2\n        /* \"#utility.yul\":6988:7008   */\n      sub\n        /* \"#utility.yul\":6984:6985   */\n      0x00\n        /* \"#utility.yul\":6973:6982   */\n      dup4\n        /* \"#utility.yul\":6969:6986   */\n      add\n        /* \"#utility.yul\":6962:7009   */\n      mstore\n        /* \"#utility.yul\":7026:7157   */\n      tag_282\n        /* \"#utility.yul\":7152:7156   */\n      dup2\n        /* \"#utility.yul\":7026:7157   */\n      tag_180\n      jump\t// in\n    tag_282:\n        /* \"#utility.yul\":7018:7157   */\n      swap1\n      pop\n        /* \"#utility.yul\":6745:7164   */\n      swap2\n      swap1\n      pop\n      jump\t// out\n        /* \"#utility.yul\":7170:7350   */\n    tag_181:\n        /* \"#utility.yul\":7218:7295   */\n      0x4e487b7100000000000000000000000000000000000000000000000000000000\n        /* \"#utility.yul\":7215:7216   */\n      0x00\n        /* \"#utility.yul\":7208:7296   */\n      mstore\n        /* \"#utility.yul\":7315:7319   */\n      0x11\n        /* \"#utility.yul\":7312:7313   */\n      0x04\n        /* \"#utility.yul\":7305:7320   */\n      mstore\n        /* \"#utility.yul\":7339:7343   */\n      0x24\n        /* \"#utility.yul\":7336:7337   */\n      0x00\n        /* \"#utility.yul\":7329:7344   */\n      revert\n        /* \"#utility.yul\":7356:7589   */\n    tag_60:\n        /* \"#utility.yul\":7395:7398   */\n      0x00\n        /* \"#utility.yul\":7418:7442   */\n      tag_285\n        /* \"#utility.yul\":7436:7441   */\n      dup3\n        /* \"#utility.yul\":7418:7442   */\n      tag_163\n      jump\t// in\n    tag_285:\n        /* \"#utility.yul\":7409:7442   */\n      swap2\n      pop\n        /* \"#utility.yul\":7464:7530   */\n      0xffffffffffffffffffffffffffffffffffffffffffffffffffffffffffffffff\n        /* \"#utility.yul\":7457:7462   */\n      dup3\n        /* \"#utility.yul\":7454:7531   */\n      sub\n        /* \"#utility.yul\":7451:7554   */\n      tag_286\n      jumpi\n        /* \"#utility.yul\":7534:7552   */\n      tag_287\n      tag_181\n      jump\t// in\n    tag_287:\n        /* \"#utility.yul\":7451:7554   */\n    tag_286:\n        /* \"#utility.yul\":7581:7582   */\n      0x01\n        /* \"#utility.yul\":7574:7579   */\n      dup3\n        /* \"#utility.yul\":7570:7583   */\n      add\n        /* \"#utility.yul\":7563:7583   */\n      swap1\n      pop\n        /* \"#utility.yul\":7356:7589   */\n      swap2\n      swap1\n      pop\n      jump\t// out\n        /* \"#utility.yul\":7595:8148   */\n    tag_65:\n        /* \"#utility.yul\":7772:7776   */\n      0x00\n        /* \"#utility.yul\":7810:7813   */\n      0x80\n        /* \"#utility.yul\":7799:7808   */\n      dup3\n        /* \"#utility.yul\":7795:7814   */\n      add\n        /* \"#utility.yul\":7787:7814   */\n      swap1\n      pop\n        /* \"#utility.yul\":7824:7895   */\n      tag_289\n        /* \"#utility.yul\":7892:7893   */\n      0x00\n        /* \"#utility.yul\":7881:7890   */\n      dup4\n        /* \"#utility.yul\":7877:7894   */\n      add\n        /* \"#utility.yul\":7868:7874   */\n      dup8\n        /* \"#utility.yul\":7824:7895   */\n      tag_170\n      jump\t// in\n    tag_289:\n        /* \"#utility.yul\":7905:7977   */\n      tag_290\n        /* \"#utility.yul\":7973:7975   */\n      0x20\n        /* \"#utility.yul\":7962:7971   */\n      dup4\n        /* \"#utility.yul\":7958:7976   */\n      add\n        /* \"#utility.yul\":7949:7955   */\n      dup7\n        /* \"#utility.yul\":7905:7977   */\n      tag_171\n      jump\t// in\n    tag_290:\n        /* \"#utility.yul\":7987:8059   */\n      tag_291\n        /* \"#utility.yul\":8055:8057   */\n      0x40\n        /* \"#utility.yul\":8044:8053   */\n      dup4\n        /* \"#utility.yul\":8040:8058   */\n      add\n        /* \"#utility.yul\":8031:8037   */\n      dup6\n        /* \"#utility.yul\":7987:8059   */\n      tag_170\n      jump\t// in\n    tag_291:\n        /* \"#utility.yul\":8069:8141   */\n      tag_292\n        /* \"#utility.yul\":8137:8139   */\n      0x60\n        /* \"#utility.yul\":8126:8135   */\n      dup4\n        /* \"#utility.yul\":8122:8140   */\n      add\n        /* \"#utility.yul\":8113:8119   */\n      dup5\n        /* \"#utility.yul\":8069:8141   */\n      tag_171\n      jump\t// in\n    tag_292:\n        /* \"#utility.yul\":7595:8148   */\n      swap6\n      swap5\n      pop\n      pop\n      pop\n      pop\n      pop\n      jump\t// out\n        /* \"#utility.yul\":8154:8324   */\n    tag_182:\n        /* \"#utility.yul\":8294:8316   */\n      0x4f7264657220646f6573206e6f74206578697374000000000000000000000000\n        /* \"#utility.yul\":8290:8291   */\n      0x00\n        /* \"#utility.yul\":8282:8288   */\n      dup3\n        /* \"#utility.yul\":8278:8292   */\n      add\n        /* \"#utility.yul\":8271:8317   */\n      mstore\n        /* \"#utility.yul\":8154:8324   */\n      pop\n      jump\t// out\n        /* \"#utility.yul\":8330:8696   */\n    tag_183:\n        /* \"#utility.yul\":8472:8475   */\n      0x00\n        /* \"#utility.yul\":8493:8560   */\n      tag_295\n        /* \"#utility.yul\":8557:8559   */\n      0x14\n        /* \"#utility.yul\":8552:8555   */\n      dup4\n        /* \"#utility.yul\":8493:8560   */\n      tag_176\n      jump\t// in\n    tag_295:\n        /* \"#utility.yul\":8486:8560   */\n      swap2\n      pop\n        /* \"#utility.yul\":8569:8662   */\n      tag_296\n        /* \"#utility.yul\":8658:8661   */\n      dup3\n        /* \"#utility.yul\":8569:8662   */\n      tag_182\n      jump\t// in\n    tag_296:\n        /* \"#utility.yul\":8687:8689   */\n      0x20\n        /* \"#utility.yul\":8682:8685   */\n      dup3\n        /* \"#utility.yul\":8678:8690   */\n      add\n        /* \"#utility.yul\":8671:8690   */\n      swap1\n      pop\n        /* \"#utility.yul\":8330:8696   */\n      swap2\n      swap1\n      pop\n      jump\t// out\n        /* \"#utility.yul\":8702:9121   */\n    tag_72:\n        /* \"#utility.yul\":8868:8872   */\n      0x00\n        /* \"#utility.yul\":8906:8908   */\n      0x20\n        /* \"#utility.yul\":8895:8904   */\n      dup3\n        /* \"#utility.yul\":8891:8909   */\n      add\n        /* \"#utility.yul\":8883:8909   */\n      swap1\n      pop\n        /* \"#utility.yul\":8955:8964   */\n      dup2\n        /* \"#utility.yul\":8949:8953   */\n      dup2\n        /* \"#utility.yul\":8945:8965   */\n      sub\n        /* \"#utility.yul\":8941:8942   */\n      0x00\n        /* \"#utility.yul\":8930:8939   */\n      dup4\n        /* \"#utility.yul\":8926:8943   */\n      add\n        /* \"#utility.yul\":8919:8966   */\n      mstore\n        /* \"#utility.yul\":8983:9114   */\n      tag_298\n        /* \"#utility.yul\":9109:9113   */\n      dup2\n        /* \"#utility.yul\":8983:9114   */\n      tag_183\n      jump\t// in\n    tag_298:\n        /* \"#utility.yul\":8975:9114   */\n      swap1\n      pop\n        /* \"#utility.yul\":8702:9121   */\n      swap2\n      swap1\n      pop\n      jump\t// out\n        /* \"#utility.yul\":9127:9306   */\n    tag_184:\n        /* \"#utility.yul\":9267:9298   */\n      0x4f72646572206973206e6f7420696e2043524541544544207374617465000000\n        /* \"#utility.yul\":9263:9264   */\n      0x00\n        /* \"#utility.yul\":9255:9261   */\n      dup3\n        /* \"#utility.yul\":9251:9265   */\n      add\n        /* \"#utility.yul\":9244:9299   */\n      mstore\n        /* \"#utility.yul\":9127:9306   */\n      pop\n      jump\t// out\n        /* \"#utility.yul\":9312:9678   */\n    tag_185:\n        /* \"#utility.yul\":9454:9457   */\n      0x00\n        /* \"#utility.yul\":9475:9542   */\n      tag_301\n        /* \"#utility.yul\":9539:9541   */\n      0x1d\n        /* \"#utility.yul\":9534:9537   */\n      dup4\n        /* \"#utility.yul\":9475:9542   */\n      tag_176\n      jump\t// in\n    tag_301:\n        /* \"#utility.yul\":9468:9542   */\n      swap2\n      pop\n        /* \"#utility.yul\":9551:9644   */\n      tag_302\n        /* \"#utility.yul\":9640:9643   */\n      dup3\n        /* \"#utility.yul\":9551:9644   */\n      tag_184\n      jump\t// in\n    tag_302:\n        /* \"#utility.yul\":9669:9671   */\n      0x20\n        /* \"#utility.yul\":9664:9667   */\n      dup3\n        /* \"#utility.yul\":9660:9672   */\n      add\n        /* \"#utility.yul\":9653:9672   */\n      swap1\n      pop\n        /* \"#utility.yul\":9312:9678   */\n      swap2\n      swap1\n      pop\n      jump\t// out\n        /* \"#utility.yul\":9684:10103   */\n    tag_80:\n        /* \"#utility.yul\":9850:9854   */\n      0x00\n        /* \"#utility.yul\":9888:9890   */\n      0x20\n        /* \"#utility.yul\":9877:9886   */\n      dup3\n        /* \"#utility.yul\":9873:9891   */\n      add\n        /* \"#utility.yul\":9865:9891   */\n      swap1\n      pop\n        /* \"#utility.yul\":9937:9946   */\n      dup2\n        /* \"#utility.yul\":9931:9935   */\n      dup2\n        /* \"#utility.yul\":9927:9947   */\n      sub\n        /* \"#utility.yul\":9923:9924   */\n      0x00\n        /* \"#utility.yul\":9912:9921   */\n      dup4\n        /* \"#utility.yul\":9908:9925   */\n      add\n        /* \"#utility.yul\":9901:9948   */\n      mstore\n        /* \"#utility.yul\":9965:10096   */\n      tag_304\n        /* \"#utility.yul\":10091:10095   */\n      dup2\n        /* \"#utility.yul\":9965:10096   */\n      tag_185\n      jump\t// in\n    tag_304:\n        /* \"#utility.yul\":9957:10096   */\n      swap1\n      pop\n        /* \"#utility.yul\":9684:10103   */\n      swap2\n      swap1\n      pop\n      jump\t// out\n        /* \"#utility.yul\":10109:10283   */\n    tag_186:\n        /* \"#utility.yul\":10249:10275   */\n      0x427579657220616c726561647920726567697374657265640000000000000000\n        /* \"#utility.yul\":10245:10246   */\n      0x00\n        /* \"#utility.yul\":10237:10243   */\n      dup3\n        /* \"#utility.yul\":10233:10247   */\n      add\n        /* \"#utility.yul\":10226:10276   */\n      mstore\n        /* \"#utility.yul\":10109:10283   */\n      pop\n      jump\t// out\n        /* \"#utility.yul\":10289:10655   */\n    tag_187:\n        /* \"#utility.yul\":10431:10434   */\n      0x00\n        /* \"#utility.yul\":10452:10519   */\n      tag_307\n        /* \"#utility.yul\":10516:10518   */\n      0x18\n        /* \"#utility.yul\":10511:10514   */\n      dup4\n        /* \"#utility.yul\":10452:10519   */\n      tag_176\n      jump\t// in\n    tag_307:\n        /* \"#utility.yul\":10445:10519   */\n      swap2\n      pop\n        /* \"#utility.yul\":10528:10621   */\n      tag_308\n        /* \"#utility.yul\":10617:10620   */\n      dup3\n        /* \"#utility.yul\":10528:10621   */\n      tag_186\n      jump\t// in\n    tag_308:\n        /* \"#utility.yul\":10646:10648   */\n      0x20\n        /* \"#utility.yul\":10641:10644   */\n      dup3\n        /* \"#utility.yul\":10637:10649   */\n      add\n        /* \"#utility.yul\":10630:10649   */\n      swap1\n      pop\n        /* \"#utility.yul\":10289:10655   */\n      swap2\n      swap1\n      pop\n      jump\t// out\n        /* \"#utility.yul\":10661:11080   */\n    tag_93:\n        /* \"#utility.yul\":10827:10831   */\n      0x00\n        /* \"#utility.yul\":10865:10867   */\n      0x20\n        /* \"#utility.yul\":10854:10863   */\n      dup3\n        /* \"#utility.yul\":10850:10868   */\n      add\n        /* \"#utility.yul\":10842:10868   */\n      swap1\n      pop\n        /* \"#utility.yul\":10914:10923   */\n      dup2\n        /* \"#utility.yul\":10908:10912   */\n      dup2\n        /* \"#utility.yul\":10904:10924   */\n      sub\n        /* \"#utility.yul\":10900:10901   */\n      0x00\n        /* \"#utility.yul\":10889:10898   */\n      dup4\n        /* \"#utility.yul\":10885:10902   */\n      add\n        /* \"#utility.yul\":10878:10925   */\n      mstore\n        /* \"#utility.yul\":10942:11073   */\n      tag_310\n        /* \"#utility.yul\":11068:11072   */\n      dup2\n        /* \"#utility.yul\":10942:11073   */\n      tag_187\n      jump\t// in\n    tag_310:\n        /* \"#utility.yul\":10934:11073   */\n      swap1\n      pop\n        /* \"#utility.yul\":10661:11080   */\n      swap2\n      swap1\n      pop\n      jump\t// out\n        /* \"#utility.yul\":11086:11264   */\n    tag_188:\n        /* \"#utility.yul\":11226:11256   */\n      0x52616e646f6d206e756d6265722063616e6e6f74206265207a65726f00000000\n        /* \"#utility.yul\":11222:11223   */\n      0x00\n        /* \"#utility.yul\":11214:11220   */\n      dup3\n        /* \"#utility.yul\":11210:11224   */\n      add\n        /* \"#utility.yul\":11203:11257   */\n      mstore\n        /* \"#utility.yul\":11086:11264   */\n      pop\n      jump\t// out\n        /* \"#utility.yul\":11270:11636   */\n    tag_189:\n        /* \"#utility.yul\":11412:11415   */\n      0x00\n        /* \"#utility.yul\":11433:11500   */\n      tag_313\n        /* \"#utility.yul\":11497:11499   */\n      0x1c\n        /* \"#utility.yul\":11492:11495   */\n      dup4\n        /* \"#utility.yul\":11433:11500   */\n      tag_176\n      jump\t// in\n    tag_313:\n        /* \"#utility.yul\":11426:11500   */\n      swap2\n      pop\n        /* \"#utility.yul\":11509:11602   */\n      tag_314\n        /* \"#utility.yul\":11598:11601   */\n      dup3\n        /* \"#utility.yul\":11509:11602   */\n      tag_188\n      jump\t// in\n    tag_314:\n        /* \"#utility.yul\":11627:11629   */\n      0x20\n        /* \"#utility.yul\":11622:11625   */\n      dup3\n        /* \"#utility.yul\":11618:11630   */\n      add\n        /* \"#utility.yul\":11611:11630   */\n      swap1\n      pop\n        /* \"#utility.yul\":11270:11636   */\n      swap2\n      swap1\n      pop\n      jump\t// out\n        /* \"#utility.yul\":11642:12061   */\n    tag_96:\n        /* \"#utility.yul\":11808:11812   */\n      0x00\n        /* \"#utility.yul\":11846:11848   */\n      0x20\n        /* \"#utility.yul\":11835:11844   */\n      dup3\n        /* \"#utility.yul\":11831:11849   */\n      add\n        /* \"#utility.yul\":11823:11849   */\n      swap1\n      pop\n        /* \"#utility.yul\":11895:11904   */\n      dup2\n        /* \"#utility.yul\":11889:11893   */\n      dup2\n        /* \"#utility.yul\":11885:11905   */\n      sub\n        /* \"#utility.yul\":11881:11882   */\n      0x00\n        /* \"#utility.yul\":11870:11879   */\n      dup4\n        /* \"#utility.yul\":11866:11883   */\n      add\n        /* \"#utility.yul\":11859:11906   */\n      mstore\n        /* \"#utility.yul\":11923:12054   */\n      tag_316\n        /* \"#utility.yul\":12049:12053   */\n      dup2\n        /* \"#utility.yul\":11923:12054   */\n      tag_189\n      jump\t// in\n    tag_316:\n        /* \"#utility.yul\":11915:12054   */\n      swap1\n      pop\n        /* \"#utility.yul\":11642:12061   */\n      swap2\n      swap1\n      pop\n      jump\t// out\n        /* \"#utility.yul\":12067:12146   */\n    tag_190:\n        /* \"#utility.yul\":12106:12113   */\n      0x00\n        /* \"#utility.yul\":12135:12140   */\n      dup2\n        /* \"#utility.yul\":12124:12140   */\n      swap1\n      pop\n        /* \"#utility.yul\":12067:12146   */\n      swap2\n      swap1\n      pop\n      jump\t// out\n        /* \"#utility.yul\":12152:12309   */\n    tag_191:\n        /* \"#utility.yul\":12257:12302   */\n      tag_319\n        /* \"#utility.yul\":12277:12301   */\n      tag_320\n        /* \"#utility.yul\":12295:12300   */\n      dup3\n        /* \"#utility.yul\":12277:12301   */\n      tag_163\n      jump\t// in\n    tag_320:\n        /* \"#utility.yul\":12257:12302   */\n      tag_190\n      jump\t// in\n    tag_319:\n        /* \"#utility.yul\":12252:12255   */\n      dup3\n        /* \"#utility.yul\":12245:12303   */\n      mstore\n        /* \"#utility.yul\":12152:12309   */\n      pop\n      pop\n      jump\t// out\n        /* \"#utility.yul\":12315:12409   */\n    tag_192:\n        /* \"#utility.yul\":12348:12356   */\n      0x00\n        /* \"#utility.yul\":12396:12401   */\n      dup2\n        /* \"#utility.yul\":12392:12394   */\n      0x60\n        /* \"#utility.yul\":12388:12402   */\n      shl\n        /* \"#utility.yul\":12367:12402   */\n      swap1\n      pop\n        /* \"#utility.yul\":12315:12409   */\n      swap2\n      swap1\n      pop\n      jump\t// out\n        /* \"#utility.yul\":12415:12509   */\n    tag_193:\n        /* \"#utility.yul\":12454:12461   */\n      0x00\n        /* \"#utility.yul\":12483:12503   */\n      tag_323\n        /* \"#utility.yul\":12497:12502   */\n      dup3\n        /* \"#utility.yul\":12483:12503   */\n      tag_192\n      jump\t// in\n    tag_323:\n        /* \"#utility.yul\":12472:12503   */\n      swap1\n      pop\n        /* \"#utility.yul\":12415:12509   */\n      swap2\n      swap1\n      pop\n      jump\t// out\n        /* \"#utility.yul\":12515:12615   */\n    tag_194:\n        /* \"#utility.yul\":12554:12561   */\n      0x00\n        /* \"#utility.yul\":12583:12609   */\n      tag_325\n        /* \"#utility.yul\":12603:12608   */\n      dup3\n        /* \"#utility.yul\":12583:12609   */\n      tag_193\n      jump\t// in\n    tag_325:\n        /* \"#utility.yul\":12572:12609   */\n      swap1\n      pop\n        /* \"#utility.yul\":12515:12615   */\n      swap2\n      swap1\n      pop\n      jump\t// out\n        /* \"#utility.yul\":12621:12778   */\n    tag_195:\n        /* \"#utility.yul\":12726:12771   */\n      tag_327\n        /* \"#utility.yul\":12746:12770   */\n      tag_328\n        /* \"#utility.yul\":12764:12769   */\n      dup3\n        /* \"#utility.yul\":12746:12770   */\n      tag_167\n      jump\t// in\n    tag_328:\n        /* \"#utility.yul\":12726:12771   */\n      tag_194\n      jump\t// in\n    tag_327:\n        /* \"#utility.yul\":12721:12724   */\n      dup3\n        /* \"#utility.yul\":12714:12772   */\n      mstore\n        /* \"#utility.yul\":12621:12778   */\n      pop\n      pop\n      jump\t// out\n        /* \"#utility.yul\":12784:13322   */\n    tag_98:\n        /* \"#utility.yul\":12952:12955   */\n      0x00\n        /* \"#utility.yul\":12967:13042   */\n      tag_330\n        /* \"#utility.yul\":13038:13041   */\n      dup3\n        /* \"#utility.yul\":13029:13035   */\n      dup7\n        /* \"#utility.yul\":12967:13042   */\n      tag_191\n      jump\t// in\n    tag_330:\n        /* \"#utility.yul\":13067:13069   */\n      0x20\n        /* \"#utility.yul\":13062:13065   */\n      dup3\n        /* \"#utility.yul\":13058:13070   */\n      add\n        /* \"#utility.yul\":13051:13070   */\n      swap2\n      pop\n        /* \"#utility.yul\":13080:13155   */\n      tag_331\n        /* \"#utility.yul\":13151:13154   */\n      dup3\n        /* \"#utility.yul\":13142:13148   */\n      dup6\n        /* \"#utility.yul\":13080:13155   */\n      tag_195\n      jump\t// in\n    tag_331:\n        /* \"#utility.yul\":13180:13182   */\n      0x14\n        /* \"#utility.yul\":13175:13178   */\n      dup3\n        /* \"#utility.yul\":13171:13183   */\n      add\n        /* \"#utility.yul\":13164:13183   */\n      swap2\n      pop\n        /* \"#utility.yul\":13193:13268   */\n      tag_332\n        /* \"#utility.yul\":13264:13267   */\n      dup3\n        /* \"#utility.yul\":13255:13261   */\n      dup5\n        /* \"#utility.yul\":13193:13268   */\n      tag_191\n      jump\t// in\n    tag_332:\n        /* \"#utility.yul\":13293:13295   */\n      0x20\n        /* \"#utility.yul\":13288:13291   */\n      dup3\n        /* \"#utility.yul\":13284:13296   */\n      add\n        /* \"#utility.yul\":13277:13296   */\n      swap2\n      pop\n        /* \"#utility.yul\":13313:13316   */\n      dup2\n        /* \"#utility.yul\":13306:13316   */\n      swap1\n      pop\n        /* \"#utility.yul\":12784:13322   */\n      swap5\n      swap4\n      pop\n      pop\n      pop\n      pop\n      jump\t// out\n        /* \"#utility.yul\":13328:13504   */\n    tag_196:\n        /* \"#utility.yul\":13468:13496   */\n      0x52616e646f6d206e756d62657220616c72656164792075736564000000000000\n        /* \"#utility.yul\":13464:13465   */\n      0x00\n        /* \"#utility.yul\":13456:13462   */\n      dup3\n        /* \"#utility.yul\":13452:13466   */\n      add\n        /* \"#utility.yul\":13445:13497   */\n      mstore\n        /* \"#utility.yul\":13328:13504   */\n      pop\n      jump\t// out\n        /* \"#utility.yul\":13510:13876   */\n    tag_197:\n        /* \"#utility.yul\":13652:13655   */\n      0x00\n        /* \"#utility.yul\":13673:13740   */\n      tag_335\n        /* \"#utility.yul\":13737:13739   */\n      0x1a\n        /* \"#utility.yul\":13732:13735   */\n      dup4\n        /* \"#utility.yul\":13673:13740   */\n      tag_176\n      jump\t// in\n    tag_335:\n        /* \"#utility.yul\":13666:13740   */\n      swap2\n      pop\n        /* \"#utility.yul\":13749:13842   */\n      tag_336\n        /* \"#utility.yul\":13838:13841   */\n      dup3\n        /* \"#utility.yul\":13749:13842   */\n      tag_196\n      jump\t// in\n    tag_336:\n        /* \"#utility.yul\":13867:13869   */\n      0x20\n        /* \"#utility.yul\":13862:13865   */\n      dup3\n        /* \"#utility.yul\":13858:13870   */\n      add\n        /* \"#utility.yul\":13851:13870   */\n      swap1\n      pop\n        /* \"#utility.yul\":13510:13876   */\n      swap2\n      swap1\n      pop\n      jump\t// out\n        /* \"#utility.yul\":13882:14301   */\n    tag_101:\n        /* \"#utility.yul\":14048:14052   */\n      0x00\n        /* \"#utility.yul\":14086:14088   */\n      0x20\n        /* \"#utility.yul\":14075:14084   */\n      dup3\n        /* \"#utility.yul\":14071:14089   */\n      add\n        /* \"#utility.yul\":14063:14089   */\n      swap1\n      pop\n        /* \"#utility.yul\":14135:14144   */\n      dup2\n        /* \"#utility.yul\":14129:14133   */\n      dup2\n        /* \"#utility.yul\":14125:14145   */\n      sub\n        /* \"#utility.yul\":14121:14122   */\n      0x00\n        /* \"#utility.yul\":14110:14119   */\n      dup4\n        /* \"#utility.yul\":14106:14123   */\n      add\n        /* \"#utility.yul\":14099:14146   */\n      mstore\n        /* \"#utility.yul\":14163:14294   */\n      tag_338\n        /* \"#utility.yul\":14289:14293   */\n      dup2\n        /* \"#utility.yul\":14163:14294   */\n      tag_197\n      jump\t// in\n    tag_338:\n        /* \"#utility.yul\":14155:14294   */\n      swap1\n      pop\n        /* \"#utility.yul\":13882:14301   */\n      swap2\n      swap1\n      pop\n      jump\t// out\n        /* \"#utility.yul\":14307:14529   */\n    tag_198:\n        /* \"#utility.yul\":14447:14481   */\n      0x4f6e6c7920726567697374657265642062757965722063616e2063616c6c2074\n        /* \"#utility.yul\":14443:14444   */\n      0x00\n        /* \"#utility.yul\":14435:14441   */\n      dup3\n        /* \"#utility.yul\":14431:14445   */\n      add\n        /* \"#utility.yul\":14424:14482   */\n      mstore\n        /* \"#utility.yul\":14516:14521   */\n      0x6869730000000000000000000000000000000000000000000000000000000000\n        /* \"#utility.yul\":14511:14513   */\n      0x20\n        /* \"#utility.yul\":14503:14509   */\n      dup3\n        /* \"#utility.yul\":14499:14514   */\n      add\n        /* \"#utility.yul\":14492:14522   */\n      mstore\n        /* \"#utility.yul\":14307:14529   */\n      pop\n      jump\t// out\n        /* \"#utility.yul\":14535:14901   */\n    tag_199:\n        /* \"#utility.yul\":14677:14680   */\n      0x00\n        /* \"#utility.yul\":14698:14765   */\n      tag_341\n        /* \"#utility.yul\":14762:14764   */\n      0x23\n        /* \"#utility.yul\":14757:14760   */\n      dup4\n        /* \"#utility.yul\":14698:14765   */\n      tag_176\n      jump\t// in\n    tag_341:\n        /* \"#utility.yul\":14691:14765   */\n      swap2\n      pop\n        /* \"#utility.yul\":14774:14867   */\n      tag_342\n        /* \"#utility.yul\":14863:14866   */\n      dup3\n        /* \"#utility.yul\":14774:14867   */\n      tag_198\n      jump\t// in\n    tag_342:\n        /* \"#utility.yul\":14892:14894   */\n      0x40\n        /* \"#utility.yul\":14887:14890   */\n      dup3\n        /* \"#utility.yul\":14883:14895   */\n      add\n        /* \"#utility.yul\":14876:14895   */\n      swap1\n      pop\n        /* \"#utility.yul\":14535:14901   */\n      swap2\n      swap1\n      pop\n      jump\t// out\n        /* \"#utility.yul\":14907:15326   */\n    tag_111:\n        /* \"#utility.yul\":15073:15077   */\n      0x00\n        /* \"#utility.yul\":15111:15113   */\n      0x20\n        /* \"#utility.yul\":15100:15109   */\n      dup3\n        /* \"#utility.yul\":15096:15114   */\n      add\n        /* \"#utility.yul\":15088:15114   */\n      swap1\n      pop\n        /* \"#utility.yul\":15160:15169   */\n      dup2\n        /* \"#utility.yul\":15154:15158   */\n      dup2\n        /* \"#utility.yul\":15150:15170   */\n      sub\n        /* \"#utility.yul\":15146:15147   */\n      0x00\n        /* \"#utility.yul\":15135:15144   */\n      dup4\n        /* \"#utility.yul\":15131:15148   */\n      add\n        /* \"#utility.yul\":15124:15171   */\n      mstore\n        /* \"#utility.yul\":15188:15319   */\n      tag_344\n        /* \"#utility.yul\":15314:15318   */\n      dup2\n        /* \"#utility.yul\":15188:15319   */\n      tag_199\n      jump\t// in\n    tag_344:\n        /* \"#utility.yul\":15180:15319   */\n      swap1\n      pop\n        /* \"#utility.yul\":14907:15326   */\n      swap2\n      swap1\n      pop\n      jump\t// out\n        /* \"#utility.yul\":15332:15503   */\n    tag_200:\n        /* \"#utility.yul\":15472:15495   */\n      0x496e76616c69642072616e646f6d206e756d6265720000000000000000000000\n        /* \"#utility.yul\":15468:15469   */\n      0x00\n        /* \"#utility.yul\":15460:15466   */\n      dup3\n        /* \"#utility.yul\":15456:15470   */\n      add\n        /* \"#utility.yul\":15449:15496   */\n      mstore\n        /* \"#utility.yul\":15332:15503   */\n      pop\n      jump\t// out\n        /* \"#utility.yul\":15509:15875   */\n    tag_201:\n        /* \"#utility.yul\":15651:15654   */\n      0x00\n        /* \"#utility.yul\":15672:15739   */\n      tag_347\n        /* \"#utility.yul\":15736:15738   */\n      0x15\n        /* \"#utility.yul\":15731:15734   */\n      dup4\n        /* \"#utility.yul\":15672:15739   */\n      tag_176\n      jump\t// in\n    tag_347:\n        /* \"#utility.yul\":15665:15739   */\n      swap2\n      pop\n        /* \"#utility.yul\":15748:15841   */\n      tag_348\n        /* \"#utility.yul\":15837:15840   */\n      dup3\n        /* \"#utility.yul\":15748:15841   */\n      tag_200\n      jump\t// in\n    tag_348:\n        /* \"#utility.yul\":15866:15868   */\n      0x20\n        /* \"#utility.yul\":15861:15864   */\n      dup3\n        /* \"#utility.yul\":15857:15869   */\n      add\n        /* \"#utility.yul\":15850:15869   */\n      swap1\n      pop\n        /* \"#utility.yul\":15509:15875   */\n      swap2\n      swap1\n      pop\n      jump\t// out\n        /* \"#utility.yul\":15881:16300   */\n    tag_122:\n        /* \"#utility.yul\":16047:16051   */\n      0x00\n        /* \"#utility.yul\":16085:16087   */\n      0x20\n        /* \"#utility.yul\":16074:16083   */\n      dup3\n        /* \"#utility.yul\":16070:16088   */\n      add\n        /* \"#utility.yul\":16062:16088   */\n      swap1\n      pop\n        /* \"#utility.yul\":16134:16143   */\n      dup2\n        /* \"#utility.yul\":16128:16132   */\n      dup2\n        /* \"#utility.yul\":16124:16144   */\n      sub\n        /* \"#utility.yul\":16120:16121   */\n      0x00\n        /* \"#utility.yul\":16109:16118   */\n      dup4\n        /* \"#utility.yul\":16105:16122   */\n      add\n        /* \"#utility.yul\":16098:16145   */\n      mstore\n        /* \"#utility.yul\":16162:16293   */\n      tag_350\n        /* \"#utility.yul\":16288:16292   */\n      dup2\n        /* \"#utility.yul\":16162:16293   */\n      tag_201\n      jump\t// in\n    tag_350:\n        /* \"#utility.yul\":16154:16293   */\n      swap1\n      pop\n        /* \"#utility.yul\":15881:16300   */\n      swap2\n      swap1\n      pop\n      jump\t// out\n        /* \"#utility.yul\":16306:16449   */\n    tag_202:\n        /* \"#utility.yul\":16363:16368   */\n      0x00\n        /* \"#utility.yul\":16394:16400   */\n      dup2\n        /* \"#utility.yul\":16388:16401   */\n      mload\n        /* \"#utility.yul\":16379:16401   */\n      swap1\n      pop\n        /* \"#utility.yul\":16410:16443   */\n      tag_352\n        /* \"#utility.yul\":16437:16442   */\n      dup2\n        /* \"#utility.yul\":16410:16443   */\n      tag_164\n      jump\t// in\n    tag_352:\n        /* \"#utility.yul\":16306:16449   */\n      swap3\n      swap2\n      pop\n      pop\n      jump\t// out\n        /* \"#utility.yul\":16455:16806   */\n    tag_127:\n        /* \"#utility.yul\":16525:16531   */\n      0x00\n        /* \"#utility.yul\":16574:16576   */\n      0x20\n        /* \"#utility.yul\":16562:16571   */\n      dup3\n        /* \"#utility.yul\":16553:16560   */\n      dup5\n        /* \"#utility.yul\":16549:16572   */\n      sub\n        /* \"#utility.yul\":16545:16577   */\n      slt\n        /* \"#utility.yul\":16542:16661   */\n      iszero\n      tag_354\n      jumpi\n        /* \"#utility.yul\":16580:16659   */\n      tag_355\n      tag_161\n      jump\t// in\n    tag_355:\n        /* \"#utility.yul\":16542:16661   */\n    tag_354:\n        /* \"#utility.yul\":16700:16701   */\n      0x00\n        /* \"#utility.yul\":16725:16789   */\n      tag_356\n        /* \"#utility.yul\":16781:16788   */\n      dup5\n        /* \"#utility.yul\":16772:16778   */\n      dup3\n        /* \"#utility.yul\":16761:16770   */\n      dup6\n        /* \"#utility.yul\":16757:16779   */\n      add\n        /* \"#utility.yul\":16725:16789   */\n      tag_202\n      jump\t// in\n    tag_356:\n        /* \"#utility.yul\":16715:16789   */\n      swap2\n      pop\n        /* \"#utility.yul\":16671:16799   */\n      pop\n        /* \"#utility.yul\":16455:16806   */\n      swap3\n      swap2\n      pop\n      pop\n      jump\t// out\n        /* \"#utility.yul\":16812:17059   */\n    tag_203:\n        /* \"#utility.yul\":16952:16986   */\n      0x546f6b656e20646f65736e277420657869737420696e20746865207379737465\n        /* \"#utility.yul\":16948:16949   */\n      0x00\n        /* \"#utility.yul\":16940:16946   */\n      dup3\n        /* \"#utility.yul\":16936:16950   */\n      add\n        /* \"#utility.yul\":16929:16987   */\n      mstore\n        /* \"#utility.yul\":17021:17051   */\n      0x6d20506c6561736520636f6e74616374207468652073656c6c65722000000000\n        /* \"#utility.yul\":17016:17018   */\n      0x20\n        /* \"#utility.yul\":17008:17014   */\n      dup3\n        /* \"#utility.yul\":17004:17019   */\n      add\n        /* \"#utility.yul\":16997:17052   */\n      mstore\n        /* \"#utility.yul\":16812:17059   */\n      pop\n      jump\t// out\n        /* \"#utility.yul\":17065:17431   */\n    tag_204:\n        /* \"#utility.yul\":17207:17210   */\n      0x00\n        /* \"#utility.yul\":17228:17295   */\n      tag_359\n        /* \"#utility.yul\":17292:17294   */\n      0x3c\n        /* \"#utility.yul\":17287:17290   */\n      dup4\n        /* \"#utility.yul\":17228:17295   */\n      tag_176\n      jump\t// in\n    tag_359:\n        /* \"#utility.yul\":17221:17295   */\n      swap2\n      pop\n        /* \"#utility.yul\":17304:17397   */\n      tag_360\n        /* \"#utility.yul\":17393:17396   */\n      dup3\n        /* \"#utility.yul\":17304:17397   */\n      tag_203\n      jump\t// in\n    tag_360:\n        /* \"#utility.yul\":17422:17424   */\n      0x40\n        /* \"#utility.yul\":17417:17420   */\n      dup3\n        /* \"#utility.yul\":17413:17425   */\n      add\n        /* \"#utility.yul\":17406:17425   */\n      swap1\n      pop\n        /* \"#utility.yul\":17065:17431   */\n      swap2\n      swap1\n      pop\n      jump\t// out\n        /* \"#utility.yul\":17437:17856   */\n    tag_130:\n        /* \"#utility.yul\":17603:17607   */\n      0x00\n        /* \"#utility.yul\":17641:17643   */\n      0x20\n        /* \"#utility.yul\":17630:17639   */\n      dup3\n        /* \"#utility.yul\":17626:17644   */\n      add\n        /* \"#utility.yul\":17618:17644   */\n      swap1\n      pop\n        /* \"#utility.yul\":17690:17699   */\n      dup2\n        /* \"#utility.yul\":17684:17688   */\n      dup2\n        /* \"#utility.yul\":17680:17700   */\n      sub\n        /* \"#utility.yul\":17676:17677   */\n      0x00\n        /* \"#utility.yul\":17665:17674   */\n      dup4\n        /* \"#utility.yul\":17661:17678   */\n      add\n        /* \"#utility.yul\":17654:17701   */\n      mstore\n        /* \"#utility.yul\":17718:17849   */\n      tag_362\n        /* \"#utility.yul\":17844:17848   */\n      dup2\n        /* \"#utility.yul\":17718:17849   */\n      tag_204\n      jump\t// in\n    tag_362:\n        /* \"#utility.yul\":17710:17849   */\n      swap1\n      pop\n        /* \"#utility.yul\":17437:17856   */\n      swap2\n      swap1\n      pop\n      jump\t// out\n        /* \"#utility.yul\":17862:18194   */\n    tag_132:\n        /* \"#utility.yul\":17983:17987   */\n      0x00\n        /* \"#utility.yul\":18021:18023   */\n      0x40\n        /* \"#utility.yul\":18010:18019   */\n      dup3\n        /* \"#utility.yul\":18006:18024   */\n      add\n        /* \"#utility.yul\":17998:18024   */\n      swap1\n      pop\n        /* \"#utility.yul\":18034:18105   */\n      tag_364\n        /* \"#utility.yul\":18102:18103   */\n      0x00\n        /* \"#utility.yul\":18091:18100   */\n      dup4\n        /* \"#utility.yul\":18087:18104   */\n      add\n        /* \"#utility.yul\":18078:18084   */\n      dup6\n        /* \"#utility.yul\":18034:18105   */\n      tag_171\n      jump\t// in\n    tag_364:\n        /* \"#utility.yul\":18115:18187   */\n      tag_365\n        /* \"#utility.yul\":18183:18185   */\n      0x20\n        /* \"#utility.yul\":18172:18181   */\n      dup4\n        /* \"#utility.yul\":18168:18186   */\n      add\n        /* \"#utility.yul\":18159:18165   */\n      dup5\n        /* \"#utility.yul\":18115:18187   */\n      tag_170\n      jump\t// in\n    tag_365:\n        /* \"#utility.yul\":17862:18194   */\n      swap4\n      swap3\n      pop\n      pop\n      pop\n      jump\t// out\n        /* \"#utility.yul\":18200:18290   */\n    tag_205:\n        /* \"#utility.yul\":18234:18241   */\n      0x00\n        /* \"#utility.yul\":18277:18282   */\n      dup2\n        /* \"#utility.yul\":18270:18283   */\n      iszero\n        /* \"#utility.yul\":18263:18284   */\n      iszero\n        /* \"#utility.yul\":18252:18284   */\n      swap1\n      pop\n        /* \"#utility.yul\":18200:18290   */\n      swap2\n      swap1\n      pop\n      jump\t// out\n        /* \"#utility.yul\":18296:18412   */\n    tag_206:\n        /* \"#utility.yul\":18366:18387   */\n      tag_368\n        /* \"#utility.yul\":18381:18386   */\n      dup2\n        /* \"#utility.yul\":18366:18387   */\n      tag_205\n      jump\t// in\n    tag_368:\n        /* \"#utility.yul\":18359:18364   */\n      dup2\n        /* \"#utility.yul\":18356:18388   */\n      eq\n        /* \"#utility.yul\":18346:18406   */\n      tag_369\n      jumpi\n        /* \"#utility.yul\":18402:18403   */\n      0x00\n        /* \"#utility.yul\":18399:18400   */\n      dup1\n        /* \"#utility.yul\":18392:18404   */\n      revert\n        /* \"#utility.yul\":18346:18406   */\n    tag_369:\n        /* \"#utility.yul\":18296:18412   */\n      pop\n      jump\t// out\n        /* \"#utility.yul\":18418:18555   */\n    tag_207:\n        /* \"#utility.yul\":18472:18477   */\n      0x00\n        /* \"#utility.yul\":18503:18509   */\n      dup2\n        /* \"#utility.yul\":18497:18510   */\n      mload\n        /* \"#utility.yul\":18488:18510   */\n      swap1\n      pop\n        /* \"#utility.yul\":18519:18549   */\n      tag_371\n        /* \"#utility.yul\":18543:18548   */\n      dup2\n        /* \"#utility.yul\":18519:18549   */\n      tag_206\n      jump\t// in\n    tag_371:\n        /* \"#utility.yul\":18418:18555   */\n      swap3\n      swap2\n      pop\n      pop\n      jump\t// out\n        /* \"#utility.yul\":18561:18906   */\n    tag_136:\n        /* \"#utility.yul\":18628:18634   */\n      0x00\n        /* \"#utility.yul\":18677:18679   */\n      0x20\n        /* \"#utility.yul\":18665:18674   */\n      dup3\n        /* \"#utility.yul\":18656:18663   */\n      dup5\n        /* \"#utility.yul\":18652:18675   */\n      sub\n        /* \"#utility.yul\":18648:18680   */\n      slt\n        /* \"#utility.yul\":18645:18764   */\n      iszero\n      tag_373\n      jumpi\n        /* \"#utility.yul\":18683:18762   */\n      tag_374\n      tag_161\n      jump\t// in\n    tag_374:\n        /* \"#utility.yul\":18645:18764   */\n    tag_373:\n        /* \"#utility.yul\":18803:18804   */\n      0x00\n        /* \"#utility.yul\":18828:18889   */\n      tag_375\n        /* \"#utility.yul\":18881:18888   */\n      dup5\n        /* \"#utility.yul\":18872:18878   */\n      dup3\n        /* \"#utility.yul\":18861:18870   */\n      dup6\n        /* \"#utility.yul\":18857:18879   */\n      add\n        /* \"#utility.yul\":18828:18889   */\n      tag_207\n      jump\t// in\n    tag_375:\n        /* \"#utility.yul\":18818:18889   */\n      swap2\n      pop\n        /* \"#utility.yul\":18774:18899   */\n      pop\n        /* \"#utility.yul\":18561:18906   */\n      swap3\n      swap2\n      pop\n      pop\n      jump\t// out\n        /* \"#utility.yul\":18912:19354   */\n    tag_140:\n        /* \"#utility.yul\":19061:19065   */\n      0x00\n        /* \"#utility.yul\":19099:19101   */\n      0x60\n        /* \"#utility.yul\":19088:19097   */\n      dup3\n        /* \"#utility.yul\":19084:19102   */\n      add\n        /* \"#utility.yul\":19076:19102   */\n      swap1\n      pop\n        /* \"#utility.yul\":19112:19183   */\n      tag_377\n        /* \"#utility.yul\":19180:19181   */\n      0x00\n        /* \"#utility.yul\":19169:19178   */\n      dup4\n        /* \"#utility.yul\":19165:19182   */\n      add\n        /* \"#utility.yul\":19156:19162   */\n      dup7\n        /* \"#utility.yul\":19112:19183   */\n      tag_171\n      jump\t// in\n    tag_377:\n        /* \"#utility.yul\":19193:19265   */\n      tag_378\n        /* \"#utility.yul\":19261:19263   */\n      0x20\n        /* \"#utility.yul\":19250:19259   */\n      dup4\n        /* \"#utility.yul\":19246:19264   */\n      add\n        /* \"#utility.yul\":19237:19243   */\n      dup6\n        /* \"#utility.yul\":19193:19265   */\n      tag_170\n      jump\t// in\n    tag_378:\n        /* \"#utility.yul\":19275:19347   */\n      tag_379\n        /* \"#utility.yul\":19343:19345   */\n      0x40\n        /* \"#utility.yul\":19332:19341   */\n      dup4\n        /* \"#utility.yul\":19328:19346   */\n      add\n        /* \"#utility.yul\":19319:19325   */\n      dup5\n        /* \"#utility.yul\":19275:19347   */\n      tag_171\n      jump\t// in\n    tag_379:\n        /* \"#utility.yul\":18912:19354   */\n      swap5\n      swap4\n      pop\n      pop\n      pop\n      pop\n      jump\t// out\n        /* \"#utility.yul\":19360:19526   */\n    tag_208:\n        /* \"#utility.yul\":19500:19518   */\n      0x496e76616c6964206f7264657220494400000000000000000000000000000000\n        /* \"#utility.yul\":19496:19497   */\n      0x00\n        /* \"#utility.yul\":19488:19494   */\n      dup3\n        /* \"#utility.yul\":19484:19498   */\n      add\n        /* \"#utility.yul\":19477:19519   */\n      mstore\n        /* \"#utility.yul\":19360:19526   */\n      pop\n      jump\t// out\n        /* \"#utility.yul\":19532:19898   */\n    tag_209:\n        /* \"#utility.yul\":19674:19677   */\n      0x00\n        /* \"#utility.yul\":19695:19762   */\n      tag_382\n        /* \"#utility.yul\":19759:19761   */\n      0x10\n        /* \"#utility.yul\":19754:19757   */\n      dup4\n        /* \"#utility.yul\":19695:19762   */\n      tag_176\n      jump\t// in\n    tag_382:\n        /* \"#utility.yul\":19688:19762   */\n      swap2\n      pop\n        /* \"#utility.yul\":19771:19864   */\n      tag_383\n        /* \"#utility.yul\":19860:19863   */\n      dup3\n        /* \"#utility.yul\":19771:19864   */\n      tag_208\n      jump\t// in\n    tag_383:\n        /* \"#utility.yul\":19889:19891   */\n      0x20\n        /* \"#utility.yul\":19884:19887   */\n      dup3\n        /* \"#utility.yul\":19880:19892   */\n      add\n        /* \"#utility.yul\":19873:19892   */\n      swap1\n      pop\n        /* \"#utility.yul\":19532:19898   */\n      swap2\n      swap1\n      pop\n      jump\t// out\n        /* \"#utility.yul\":19904:20323   */\n    tag_144:\n        /* \"#utility.yul\":20070:20074   */\n      0x00\n        /* \"#utility.yul\":20108:20110   */\n      0x20\n        /* \"#utility.yul\":20097:20106   */\n      dup3\n        /* \"#utility.yul\":20093:20111   */\n      add\n        /* \"#utility.yul\":20085:20111   */\n      swap1\n      pop\n        /* \"#utility.yul\":20157:20166   */\n      dup2\n        /* \"#utility.yul\":20151:20155   */\n      dup2\n        /* \"#utility.yul\":20147:20167   */\n      sub\n        /* \"#utility.yul\":20143:20144   */\n      0x00\n        /* \"#utility.yul\":20132:20141   */\n      dup4\n        /* \"#utility.yul\":20128:20145   */\n      add\n        /* \"#utility.yul\":20121:20168   */\n      mstore\n        /* \"#utility.yul\":20185:20316   */\n      tag_385\n        /* \"#utility.yul\":20311:20315   */\n      dup2\n        /* \"#utility.yul\":20185:20316   */\n      tag_209\n      jump\t// in\n    tag_385:\n        /* \"#utility.yul\":20177:20316   */\n      swap1\n      pop\n        /* \"#utility.yul\":19904:20323   */\n      swap2\n      swap1\n      pop\n      jump\t// out\n\n    auxdata: 0xa26469706673582212205a6a3c1e0a589acbe87087d5416356b69b73c3ecbd7c98901b81b64886b29bf864736f6c63430008120033\n}\n",
				"bytecode": {
					"linkReferences": {},
					"object": "60806040523480156200001157600080fd5b5033600073ffffffffffffffffffffffffffffffffffffffff168173ffffffffffffffffffffffffffffffffffffffff1603620000885760006040517f1e4fbdf70000000000000000000000000000000000000000000000000000000081526004016200007f9190620001a9565b60405180910390fd5b6200009981620000a060201b60201c565b50620001c6565b60008060009054906101000a900473ffffffffffffffffffffffffffffffffffffffff169050816000806101000a81548173ffffffffffffffffffffffffffffffffffffffff021916908373ffffffffffffffffffffffffffffffffffffffff1602179055508173ffffffffffffffffffffffffffffffffffffffff168173ffffffffffffffffffffffffffffffffffffffff167f8be0079c531659141344cd1fd0a4f28419497f9722a3daafe3b4186f6b6457e060405160405180910390a35050565b600073ffffffffffffffffffffffffffffffffffffffff82169050919050565b6000620001918262000164565b9050919050565b620001a38162000184565b82525050565b6000602082019050620001c0600083018462000198565b92915050565b611a8e80620001d66000396000f3fe608060405234801561001057600080fd5b506004361061009e5760003560e01c80638da5cb5b116100665780638da5cb5b1461011f578063a85c38ef1461013d578063c0d5d96f14610171578063ec7dd7bb1461018d578063f2fde38b146101c15761009e565b806307540ca6146100a35780632a58b330146100bf578063514fcac7146100dd578063687b1df8146100f9578063715018a614610115575b600080fd5b6100bd60048036038101906100b891906110d0565b6101dd565b005b6100c7610415565b6040516100d4919061111f565b60405180910390f35b6100f760048036038101906100f2919061113a565b61041b565b005b610113600480360381019061010e9190611167565b610581565b005b61011d610842565b005b610127610856565b60405161013491906111b6565b60405180910390f35b6101576004803603810190610152919061113a565b61087f565b604051610168959493929190611248565b60405180910390f35b61018b60048036038101906101869190611167565b610902565b005b6101a760048036038101906101a2919061113a565b610d3e565b6040516101b8959493929190611248565b60405180910390f35b6101db60048036038101906101d6919061129b565b610e5e565b005b60008211610220576040517f08c379a00000000000000000000000000000000000000000000000000000000081526004016102179061134b565b60405180910390fd5b600073ffffffffffffffffffffffffffffffffffffffff168173ffffffffffffffffffffffffffffffffffffffff160361028f576040517f08c379a0000000000000000000000000000000000000000000000000000000008152600401610286906113b7565b60405180910390fd5b600260008154809291906102a290611406565b9190505550600254600160006002548152602001908152602001600020600001819055503360016000600254815260200190815260200160002060010160006101000a81548173ffffffffffffffffffffffffffffffffffffffff021916908373ffffffffffffffffffffffffffffffffffffffff16021790555081600160006002548152602001908152602001600020600201819055508060016000600254815260200190815260200160002060030160006101000a81548173ffffffffffffffffffffffffffffffffffffffff021916908373ffffffffffffffffffffffffffffffffffffffff160217905550600060016000600254815260200190815260200160002060030160146101000a81548160ff021916908360028111156103cd576103cc6111d1565b5b02179055507fbdff0cf754bd4e2ee390fda990f59e49114328e6b402c87ac12d06ed2bb7170f600254338484604051610409949392919061144e565b60405180910390a15050565b60025481565b610423610ee4565b80600060016000838152602001908152602001600020600001540361047d576040517f08c379a0000000000000000000000000000000000000000000000000000000008152600401610474906114df565b60405180910390fd5b60006002811115610491576104906111d1565b5b6001600084815260200190815260200160002060030160149054906101000a900460ff1660028111156104c7576104c66111d1565b5b14610507576040517f08c379a00000000000000000000000000000000000000000000000000000000081526004016104fe9061154b565b60405180910390fd5b60026001600084815260200190815260200160002060030160146101000a81548160ff02191690836002811115610541576105406111d1565b5b02179055507f61b9399f2f0f32ca39ce8d7be32caed5ec22fe07a6daba3a467ed479ec60658282604051610575919061111f565b60405180910390a15050565b60006002811115610595576105946111d1565b5b6001600084815260200190815260200160002060030160149054906101000a900460ff1660028111156105cb576105ca6111d1565b5b1461060b576040517f08c379a00000000000000000000000000000000000000000000000000000000081526004016106029061154b565b60405180910390fd5b6001600083815260200190815260200160002060040160003373ffffffffffffffffffffffffffffffffffffffff1673ffffffffffffffffffffffffffffffffffffffff16815260200190815260200160002060009054906101000a900460ff16156106ac576040517f08c379a00000000000000000000000000000000000000000000000000000000081526004016106a3906115b7565b60405180910390fd5b600081036106ef576040517f08c379a00000000000000000000000000000000000000000000000000000000081526004016106e690611623565b60405180910390fd5b6000823383604051602001610706939291906116ac565b60405160208183030381529060405280519060200120905060016000848152602001908152602001600020600501600082815260200190815260200160002060009054906101000a900460ff1615610793576040517f08c379a000000000000000000000000000000000000000000000000000000000815260040161078a90611735565b60405180910390fd5b600180600085815260200190815260200160002060040160003373ffffffffffffffffffffffffffffffffffffffff1673ffffffffffffffffffffffffffffffffffffffff16815260200190815260200160002060006101000a81548160ff0219169083151502179055506001806000858152602001908152602001600020600501600083815260200190815260200160002060006101000a81548160ff021916908315150217905550505050565b61084a610ee4565b6108546000610f6b565b565b60008060009054906101000a900473ffffffffffffffffffffffffffffffffffffffff16905090565b60016020528060005260406000206000915090508060000154908060010160009054906101000a900473ffffffffffffffffffffffffffffffffffffffff16908060020154908060030160009054906101000a900473ffffffffffffffffffffffffffffffffffffffff16908060030160149054906101000a900460ff16905085565b816001600082815260200190815260200160002060040160003373ffffffffffffffffffffffffffffffffffffffff1673ffffffffffffffffffffffffffffffffffffffff16815260200190815260200160002060009054906101000a900460ff166109a3576040517f08c379a000000000000000000000000000000000000000000000000000000000815260040161099a906117c7565b60405180910390fd5b600060028111156109b7576109b66111d1565b5b6001600085815260200190815260200160002060030160149054906101000a900460ff1660028111156109ed576109ec6111d1565b5b14610a2d576040517f08c379a0000000000000000000000000000000000000000000000000000000008152600401610a249061154b565b60405180910390fd5b6000833384604051602001610a44939291906116ac565b60405160208183030381529060405280519060200120905060016000858152602001908152602001600020600501600082815260200190815260200160002060009054906101000a900460ff16610ad0576040517f08c379a0000000000000000000000000000000000000000000000000000000008152600401610ac790611833565b60405180910390fd5b60006001600086815260200190815260200160002060030160009054906101000a900473ffffffffffffffffffffffffffffffffffffffff16905060016000868152602001908152602001600020600201548173ffffffffffffffffffffffffffffffffffffffff166370a08231306040518263ffffffff1660e01b8152600401610b5b91906111b6565b602060405180830381865afa158015610b78573d6000803e3d6000fd5b505050506040513d601f19601f82011682018060405250810190610b9c9190611868565b1015610bdd576040517f08c379a0000000000000000000000000000000000000000000000000000000008152600401610bd490611907565b60405180910390fd5b8073ffffffffffffffffffffffffffffffffffffffff1663a9059cbb3360016000898152602001908152602001600020600201546040518363ffffffff1660e01b8152600401610c2e929190611927565b6020604051808303816000875af1158015610c4d573d6000803e3d6000fd5b505050506040513d601f19601f82011682018060405250810190610c719190611988565b50600180600087815260200190815260200160002060030160146101000a81548160ff02191690836002811115610cab57610caa6111d1565b5b02179055507f74521722fc86dc8b2bda041d06bd7a9029ef72153c049c301a329c8ce6fbdeef3360016000888152602001908152602001600020600201546001600089815260200190815260200160002060030160009054906101000a900473ffffffffffffffffffffffffffffffffffffffff16604051610d2f939291906119b5565b60405180910390a15050505050565b6000806000806000600254861115610d8b576040517f08c379a0000000000000000000000000000000000000000000000000000000008152600401610d8290611a38565b60405180910390fd5b60016000878152602001908152602001600020600001546001600088815260200190815260200160002060010160009054906101000a900473ffffffffffffffffffffffffffffffffffffffff166001600089815260200190815260200160002060020154600160008a815260200190815260200160002060030160009054906101000a900473ffffffffffffffffffffffffffffffffffffffff16600160008b815260200190815260200160002060030160149054906101000a900460ff169450945094509450945091939590929450565b610e66610ee4565b600073ffffffffffffffffffffffffffffffffffffffff168173ffffffffffffffffffffffffffffffffffffffff1603610ed85760006040517f1e4fbdf7000000000000000000000000000000000000000000000000000000008152600401610ecf91906111b6565b60405180910390fd5b610ee181610f6b565b50565b610eec61102f565b73ffffffffffffffffffffffffffffffffffffffff16610f0a610856565b73ffffffffffffffffffffffffffffffffffffffff1614610f6957610f2d61102f565b6040517f118cdaa7000000000000000000000000000000000000000000000000000000008152600401610f6091906111b6565b60405180910390fd5b565b60008060009054906101000a900473ffffffffffffffffffffffffffffffffffffffff169050816000806101000a81548173ffffffffffffffffffffffffffffffffffffffff021916908373ffffffffffffffffffffffffffffffffffffffff1602179055508173ffffffffffffffffffffffffffffffffffffffff168173ffffffffffffffffffffffffffffffffffffffff167f8be0079c531659141344cd1fd0a4f28419497f9722a3daafe3b4186f6b6457e060405160405180910390a35050565b600033905090565b600080fd5b6000819050919050565b61104f8161103c565b811461105a57600080fd5b50565b60008135905061106c81611046565b92915050565b600073ffffffffffffffffffffffffffffffffffffffff82169050919050565b600061109d82611072565b9050919050565b6110ad81611092565b81146110b857600080fd5b50565b6000813590506110ca816110a4565b92915050565b600080604083850312156110e7576110e6611037565b5b60006110f58582860161105d565b9250506020611106858286016110bb565b9150509250929050565b6111198161103c565b82525050565b60006020820190506111346000830184611110565b92915050565b6000602082840312156111505761114f611037565b5b600061115e8482850161105d565b91505092915050565b6000806040838503121561117e5761117d611037565b5b600061118c8582860161105d565b925050602061119d8582860161105d565b9150509250929050565b6111b081611092565b82525050565b60006020820190506111cb60008301846111a7565b92915050565b7f4e487b7100000000000000000000000000000000000000000000000000000000600052602160045260246000fd5b60038110611211576112106111d1565b5b50565b600081905061122282611200565b919050565b600061123282611214565b9050919050565b61124281611227565b82525050565b600060a08201905061125d6000830188611110565b61126a60208301876111a7565b6112776040830186611110565b61128460608301856111a7565b6112916080830184611239565b9695505050505050565b6000602082840312156112b1576112b0611037565b5b60006112bf848285016110bb565b91505092915050565b600082825260208201905092915050565b7f546f6b656e20616d6f756e74206d75737420626520677265617465722074686160008201527f6e20300000000000000000000000000000000000000000000000000000000000602082015250565b60006113356023836112c8565b9150611340826112d9565b604082019050919050565b6000602082019050818103600083015261136481611328565b9050919050565b7f496e76616c696420746f6b656e20636f6e747261637420616464726573730000600082015250565b60006113a1601e836112c8565b91506113ac8261136b565b602082019050919050565b600060208201905081810360008301526113d081611394565b9050919050565b7f4e487b7100000000000000000000000000000000000000000000000000000000600052601160045260246000fd5b60006114118261103c565b91507fffffffffffffffffffffffffffffffffffffffffffffffffffffffffffffffff8203611443576114426113d7565b5b600182019050919050565b60006080820190506114636000830187611110565b61147060208301866111a7565b61147d6040830185611110565b61148a60608301846111a7565b95945050505050565b7f4f7264657220646f6573206e6f74206578697374000000000000000000000000600082015250565b60006114c96014836112c8565b91506114d482611493565b602082019050919050565b600060208201905081810360008301526114f8816114bc565b9050919050565b7f4f72646572206973206e6f7420696e2043524541544544207374617465000000600082015250565b6000611535601d836112c8565b9150611540826114ff565b602082019050919050565b6000602082019050818103600083015261156481611528565b9050919050565b7f427579657220616c726561647920726567697374657265640000000000000000600082015250565b60006115a16018836112c8565b91506115ac8261156b565b602082019050919050565b600060208201905081810360008301526115d081611594565b9050919050565b7f52616e646f6d206e756d6265722063616e6e6f74206265207a65726f00000000600082015250565b600061160d601c836112c8565b9150611618826115d7565b602082019050919050565b6000602082019050818103600083015261163c81611600565b9050919050565b6000819050919050565b61165e6116598261103c565b611643565b82525050565b60008160601b9050919050565b600061167c82611664565b9050919050565b600061168e82611671565b9050919050565b6116a66116a182611092565b611683565b82525050565b60006116b8828661164d565b6020820191506116c88285611695565b6014820191506116d8828461164d565b602082019150819050949350505050565b7f52616e646f6d206e756d62657220616c72656164792075736564000000000000600082015250565b600061171f601a836112c8565b915061172a826116e9565b602082019050919050565b6000602082019050818103600083015261174e81611712565b9050919050565b7f4f6e6c7920726567697374657265642062757965722063616e2063616c6c207460008201527f6869730000000000000000000000000000000000000000000000000000000000602082015250565b60006117b16023836112c8565b91506117bc82611755565b604082019050919050565b600060208201905081810360008301526117e0816117a4565b9050919050565b7f496e76616c69642072616e646f6d206e756d6265720000000000000000000000600082015250565b600061181d6015836112c8565b9150611828826117e7565b602082019050919050565b6000602082019050818103600083015261184c81611810565b9050919050565b60008151905061186281611046565b92915050565b60006020828403121561187e5761187d611037565b5b600061188c84828501611853565b91505092915050565b7f546f6b656e20646f65736e277420657869737420696e2074686520737973746560008201527f6d20506c6561736520636f6e74616374207468652073656c6c65722000000000602082015250565b60006118f1603c836112c8565b91506118fc82611895565b604082019050919050565b60006020820190508181036000830152611920816118e4565b9050919050565b600060408201905061193c60008301856111a7565b6119496020830184611110565b9392505050565b60008115159050919050565b61196581611950565b811461197057600080fd5b50565b6000815190506119828161195c565b92915050565b60006020828403121561199e5761199d611037565b5b60006119ac84828501611973565b91505092915050565b60006060820190506119ca60008301866111a7565b6119d76020830185611110565b6119e460408301846111a7565b949350505050565b7f496e76616c6964206f7264657220494400000000000000000000000000000000600082015250565b6000611a226010836112c8565b9150611a2d826119ec565b602082019050919050565b60006020820190508181036000830152611a5181611a15565b905091905056fea26469706673582212205a6a3c1e0a589acbe87087d5416356b69b73c3ecbd7c98901b81b64886b29bf864736f6c63430008120033",
					"opcodes": "PUSH1 0x80 PUSH1 0x40 MSTORE CALLVALUE DUP1 ISZERO PUSH3 0x11 JUMPI PUSH1 0x0 DUP1 REVERT JUMPDEST POP CALLER PUSH1 0x0 PUSH20 0xFFFFFFFFFFFFFFFFFFFFFFFFFFFFFFFFFFFFFFFF AND DUP2 PUSH20 0xFFFFFFFFFFFFFFFFFFFFFFFFFFFFFFFFFFFFFFFF AND SUB PUSH3 0x88 JUMPI PUSH1 0x0 PUSH1 0x40 MLOAD PUSH32 0x1E4FBDF700000000000000000000000000000000000000000000000000000000 DUP2 MSTORE PUSH1 0x4 ADD PUSH3 0x7F SWAP2 SWAP1 PUSH3 0x1A9 JUMP JUMPDEST PUSH1 0x40 MLOAD DUP1 SWAP2 SUB SWAP1 REVERT JUMPDEST PUSH3 0x99 DUP2 PUSH3 0xA0 PUSH1 0x20 SHL PUSH1 0x20 SHR JUMP JUMPDEST POP PUSH3 0x1C6 JUMP JUMPDEST PUSH1 0x0 DUP1 PUSH1 0x0 SWAP1 SLOAD SWAP1 PUSH2 0x100 EXP SWAP1 DIV PUSH20 0xFFFFFFFFFFFFFFFFFFFFFFFFFFFFFFFFFFFFFFFF AND SWAP1 POP DUP2 PUSH1 0x0 DUP1 PUSH2 0x100 EXP DUP2 SLOAD DUP2 PUSH20 0xFFFFFFFFFFFFFFFFFFFFFFFFFFFFFFFFFFFFFFFF MUL NOT AND SWAP1 DUP4 PUSH20 0xFFFFFFFFFFFFFFFFFFFFFFFFFFFFFFFFFFFFFFFF AND MUL OR SWAP1 SSTORE POP DUP2 PUSH20 0xFFFFFFFFFFFFFFFFFFFFFFFFFFFFFFFFFFFFFFFF AND DUP2 PUSH20 0xFFFFFFFFFFFFFFFFFFFFFFFFFFFFFFFFFFFFFFFF AND PUSH32 0x8BE0079C531659141344CD1FD0A4F28419497F9722A3DAAFE3B4186F6B6457E0 PUSH1 0x40 MLOAD PUSH1 0x40 MLOAD DUP1 SWAP2 SUB SWAP1 LOG3 POP POP JUMP JUMPDEST PUSH1 0x0 PUSH20 0xFFFFFFFFFFFFFFFFFFFFFFFFFFFFFFFFFFFFFFFF DUP3 AND SWAP1 POP SWAP2 SWAP1 POP JUMP JUMPDEST PUSH1 0x0 PUSH3 0x191 DUP3 PUSH3 0x164 JUMP JUMPDEST SWAP1 POP SWAP2 SWAP1 POP JUMP JUMPDEST PUSH3 0x1A3 DUP2 PUSH3 0x184 JUMP JUMPDEST DUP3 MSTORE POP POP JUMP JUMPDEST PUSH1 0x0 PUSH1 0x20 DUP3 ADD SWAP1 POP PUSH3 0x1C0 PUSH1 0x0 DUP4 ADD DUP5 PUSH3 0x198 JUMP JUMPDEST SWAP3 SWAP2 POP POP JUMP JUMPDEST PUSH2 0x1A8E DUP1 PUSH3 0x1D6 PUSH1 0x0 CODECOPY PUSH1 0x0 RETURN INVALID PUSH1 0x80 PUSH1 0x40 MSTORE CALLVALUE DUP1 ISZERO PUSH2 0x10 JUMPI PUSH1 0x0 DUP1 REVERT JUMPDEST POP PUSH1 0x4 CALLDATASIZE LT PUSH2 0x9E JUMPI PUSH1 0x0 CALLDATALOAD PUSH1 0xE0 SHR DUP1 PUSH4 0x8DA5CB5B GT PUSH2 0x66 JUMPI DUP1 PUSH4 0x8DA5CB5B EQ PUSH2 0x11F JUMPI DUP1 PUSH4 0xA85C38EF EQ PUSH2 0x13D JUMPI DUP1 PUSH4 0xC0D5D96F EQ PUSH2 0x171 JUMPI DUP1 PUSH4 0xEC7DD7BB EQ PUSH2 0x18D JUMPI DUP1 PUSH4 0xF2FDE38B EQ PUSH2 0x1C1 JUMPI PUSH2 0x9E JUMP JUMPDEST DUP1 PUSH4 0x7540CA6 EQ PUSH2 0xA3 JUMPI DUP1 PUSH4 0x2A58B330 EQ PUSH2 0xBF JUMPI DUP1 PUSH4 0x514FCAC7 EQ PUSH2 0xDD JUMPI DUP1 PUSH4 0x687B1DF8 EQ PUSH2 0xF9 JUMPI DUP1 PUSH4 0x715018A6 EQ PUSH2 0x115 JUMPI JUMPDEST PUSH1 0x0 DUP1 REVERT JUMPDEST PUSH2 0xBD PUSH1 0x4 DUP1 CALLDATASIZE SUB DUP2 ADD SWAP1 PUSH2 0xB8 SWAP2 SWAP1 PUSH2 0x10D0 JUMP JUMPDEST PUSH2 0x1DD JUMP JUMPDEST STOP JUMPDEST PUSH2 0xC7 PUSH2 0x415 JUMP JUMPDEST PUSH1 0x40 MLOAD PUSH2 0xD4 SWAP2 SWAP1 PUSH2 0x111F JUMP JUMPDEST PUSH1 0x40 MLOAD DUP1 SWAP2 SUB SWAP1 RETURN JUMPDEST PUSH2 0xF7 PUSH1 0x4 DUP1 CALLDATASIZE SUB DUP2 ADD SWAP1 PUSH2 0xF2 SWAP2 SWAP1 PUSH2 0x113A JUMP JUMPDEST PUSH2 0x41B JUMP JUMPDEST STOP JUMPDEST PUSH2 0x113 PUSH1 0x4 DUP1 CALLDATASIZE SUB DUP2 ADD SWAP1 PUSH2 0x10E SWAP2 SWAP1 PUSH2 0x1167 JUMP JUMPDEST PUSH2 0x581 JUMP JUMPDEST STOP JUMPDEST PUSH2 0x11D PUSH2 0x842 JUMP JUMPDEST STOP JUMPDEST PUSH2 0x127 PUSH2 0x856 JUMP JUMPDEST PUSH1 0x40 MLOAD PUSH2 0x134 SWAP2 SWAP1 PUSH2 0x11B6 JUMP JUMPDEST PUSH1 0x40 MLOAD DUP1 SWAP2 SUB SWAP1 RETURN JUMPDEST PUSH2 0x157 PUSH1 0x4 DUP1 CALLDATASIZE SUB DUP2 ADD SWAP1 PUSH2 0x152 SWAP2 SWAP1 PUSH2 0x113A JUMP JUMPDEST PUSH2 0x87F JUMP JUMPDEST PUSH1 0x40 MLOAD PUSH2 0x168 SWAP6 SWAP5 SWAP4 SWAP3 SWAP2 SWAP1 PUSH2 0x1248 JUMP JUMPDEST PUSH1 0x40 MLOAD DUP1 SWAP2 SUB SWAP1 RETURN JUMPDEST PUSH2 0x18B PUSH1 0x4 DUP1 CALLDATASIZE SUB DUP2 ADD SWAP1 PUSH2 0x186 SWAP2 SWAP1 PUSH2 0x1167 JUMP JUMPDEST PUSH2 0x902 JUMP JUMPDEST STOP JUMPDEST PUSH2 0x1A7 PUSH1 0x4 DUP1 CALLDATASIZE SUB DUP2 ADD SWAP1 PUSH2 0x1A2 SWAP2 SWAP1 PUSH2 0x113A JUMP JUMPDEST PUSH2 0xD3E JUMP JUMPDEST PUSH1 0x40 MLOAD PUSH2 0x1B8 SWAP6 SWAP5 SWAP4 SWAP3 SWAP2 SWAP1 PUSH2 0x1248 JUMP JUMPDEST PUSH1 0x40 MLOAD DUP1 SWAP2 SUB SWAP1 RETURN JUMPDEST PUSH2 0x1DB PUSH1 0x4 DUP1 CALLDATASIZE SUB DUP2 ADD SWAP1 PUSH2 0x1D6 SWAP2 SWAP1 PUSH2 0x129B JUMP JUMPDEST PUSH2 0xE5E JUMP JUMPDEST STOP JUMPDEST PUSH1 0x0 DUP3 GT PUSH2 0x220 JUMPI PUSH1 0x40 MLOAD PUSH32 0x8C379A000000000000000000000000000000000000000000000000000000000 DUP2 MSTORE PUSH1 0x4 ADD PUSH2 0x217 SWAP1 PUSH2 0x134B JUMP JUMPDEST PUSH1 0x40 MLOAD DUP1 SWAP2 SUB SWAP1 REVERT JUMPDEST PUSH1 0x0 PUSH20 0xFFFFFFFFFFFFFFFFFFFFFFFFFFFFFFFFFFFFFFFF AND DUP2 PUSH20 0xFFFFFFFFFFFFFFFFFFFFFFFFFFFFFFFFFFFFFFFF AND SUB PUSH2 0x28F JUMPI PUSH1 0x40 MLOAD PUSH32 0x8C379A000000000000000000000000000000000000000000000000000000000 DUP2 MSTORE PUSH1 0x4 ADD PUSH2 0x286 SWAP1 PUSH2 0x13B7 JUMP JUMPDEST PUSH1 0x40 MLOAD DUP1 SWAP2 SUB SWAP1 REVERT JUMPDEST PUSH1 0x2 PUSH1 0x0 DUP2 SLOAD DUP1 SWAP3 SWAP2 SWAP1 PUSH2 0x2A2 SWAP1 PUSH2 0x1406 JUMP JUMPDEST SWAP2 SWAP1 POP SSTORE POP PUSH1 0x2 SLOAD PUSH1 0x1 PUSH1 0x0 PUSH1 0x2 SLOAD DUP2 MSTORE PUSH1 0x20 ADD SWAP1 DUP2 MSTORE PUSH1 0x20 ADD PUSH1 0x0 KECCAK256 PUSH1 0x0 ADD DUP2 SWAP1 SSTORE POP CALLER PUSH1 0x1 PUSH1 0x0 PUSH1 0x2 SLOAD DUP2 MSTORE PUSH1 0x20 ADD SWAP1 DUP2 MSTORE PUSH1 0x20 ADD PUSH1 0x0 KECCAK256 PUSH1 0x1 ADD PUSH1 0x0 PUSH2 0x100 EXP DUP2 SLOAD DUP2 PUSH20 0xFFFFFFFFFFFFFFFFFFFFFFFFFFFFFFFFFFFFFFFF MUL NOT AND SWAP1 DUP4 PUSH20 0xFFFFFFFFFFFFFFFFFFFFFFFFFFFFFFFFFFFFFFFF AND MUL OR SWAP1 SSTORE POP DUP2 PUSH1 0x1 PUSH1 0x0 PUSH1 0x2 SLOAD DUP2 MSTORE PUSH1 0x20 ADD SWAP1 DUP2 MSTORE PUSH1 0x20 ADD PUSH1 0x0 KECCAK256 PUSH1 0x2 ADD DUP2 SWAP1 SSTORE POP DUP1 PUSH1 0x1 PUSH1 0x0 PUSH1 0x2 SLOAD DUP2 MSTORE PUSH1 0x20 ADD SWAP1 DUP2 MSTORE PUSH1 0x20 ADD PUSH1 0x0 KECCAK256 PUSH1 0x3 ADD PUSH1 0x0 PUSH2 0x100 EXP DUP2 SLOAD DUP2 PUSH20 0xFFFFFFFFFFFFFFFFFFFFFFFFFFFFFFFFFFFFFFFF MUL NOT AND SWAP1 DUP4 PUSH20 0xFFFFFFFFFFFFFFFFFFFFFFFFFFFFFFFFFFFFFFFF AND MUL OR SWAP1 SSTORE POP PUSH1 0x0 PUSH1 0x1 PUSH1 0x0 PUSH1 0x2 SLOAD DUP2 MSTORE PUSH1 0x20 ADD SWAP1 DUP2 MSTORE PUSH1 0x20 ADD PUSH1 0x0 KECCAK256 PUSH1 0x3 ADD PUSH1 0x14 PUSH2 0x100 EXP DUP2 SLOAD DUP2 PUSH1 0xFF MUL NOT AND SWAP1 DUP4 PUSH1 0x2 DUP2 GT ISZERO PUSH2 0x3CD JUMPI PUSH2 0x3CC PUSH2 0x11D1 JUMP JUMPDEST JUMPDEST MUL OR SWAP1 SSTORE POP PUSH32 0xBDFF0CF754BD4E2EE390FDA990F59E49114328E6B402C87AC12D06ED2BB7170F PUSH1 0x2 SLOAD CALLER DUP5 DUP5 PUSH1 0x40 MLOAD PUSH2 0x409 SWAP5 SWAP4 SWAP3 SWAP2 SWAP1 PUSH2 0x144E JUMP JUMPDEST PUSH1 0x40 MLOAD DUP1 SWAP2 SUB SWAP1 LOG1 POP POP JUMP JUMPDEST PUSH1 0x2 SLOAD DUP2 JUMP JUMPDEST PUSH2 0x423 PUSH2 0xEE4 JUMP JUMPDEST DUP1 PUSH1 0x0 PUSH1 0x1 PUSH1 0x0 DUP4 DUP2 MSTORE PUSH1 0x20 ADD SWAP1 DUP2 MSTORE PUSH1 0x20 ADD PUSH1 0x0 KECCAK256 PUSH1 0x0 ADD SLOAD SUB PUSH2 0x47D JUMPI PUSH1 0x40 MLOAD PUSH32 0x8C379A000000000000000000000000000000000000000000000000000000000 DUP2 MSTORE PUSH1 0x4 ADD PUSH2 0x474 SWAP1 PUSH2 0x14DF JUMP JUMPDEST PUSH1 0x40 MLOAD DUP1 SWAP2 SUB SWAP1 REVERT JUMPDEST PUSH1 0x0 PUSH1 0x2 DUP2 GT ISZERO PUSH2 0x491 JUMPI PUSH2 0x490 PUSH2 0x11D1 JUMP JUMPDEST JUMPDEST PUSH1 0x1 PUSH1 0x0 DUP5 DUP2 MSTORE PUSH1 0x20 ADD SWAP1 DUP2 MSTORE PUSH1 0x20 ADD PUSH1 0x0 KECCAK256 PUSH1 0x3 ADD PUSH1 0x14 SWAP1 SLOAD SWAP1 PUSH2 0x100 EXP SWAP1 DIV PUSH1 0xFF AND PUSH1 0x2 DUP2 GT ISZERO PUSH2 0x4C7 JUMPI PUSH2 0x4C6 PUSH2 0x11D1 JUMP JUMPDEST JUMPDEST EQ PUSH2 0x507 JUMPI PUSH1 0x40 MLOAD PUSH32 0x8C379A000000000000000000000000000000000000000000000000000000000 DUP2 MSTORE PUSH1 0x4 ADD PUSH2 0x4FE SWAP1 PUSH2 0x154B JUMP JUMPDEST PUSH1 0x40 MLOAD DUP1 SWAP2 SUB SWAP1 REVERT JUMPDEST PUSH1 0x2 PUSH1 0x1 PUSH1 0x0 DUP5 DUP2 MSTORE PUSH1 0x20 ADD SWAP1 DUP2 MSTORE PUSH1 0x20 ADD PUSH1 0x0 KECCAK256 PUSH1 0x3 ADD PUSH1 0x14 PUSH2 0x100 EXP DUP2 SLOAD DUP2 PUSH1 0xFF MUL NOT AND SWAP1 DUP4 PUSH1 0x2 DUP2 GT ISZERO PUSH2 0x541 JUMPI PUSH2 0x540 PUSH2 0x11D1 JUMP JUMPDEST JUMPDEST MUL OR SWAP1 SSTORE POP PUSH32 0x61B9399F2F0F32CA39CE8D7BE32CAED5EC22FE07A6DABA3A467ED479EC606582 DUP3 PUSH1 0x40 MLOAD PUSH2 0x575 SWAP2 SWAP1 PUSH2 0x111F JUMP JUMPDEST PUSH1 0x40 MLOAD DUP1 SWAP2 SUB SWAP1 LOG1 POP POP JUMP JUMPDEST PUSH1 0x0 PUSH1 0x2 DUP2 GT ISZERO PUSH2 0x595 JUMPI PUSH2 0x594 PUSH2 0x11D1 JUMP JUMPDEST JUMPDEST PUSH1 0x1 PUSH1 0x0 DUP5 DUP2 MSTORE PUSH1 0x20 ADD SWAP1 DUP2 MSTORE PUSH1 0x20 ADD PUSH1 0x0 KECCAK256 PUSH1 0x3 ADD PUSH1 0x14 SWAP1 SLOAD SWAP1 PUSH2 0x100 EXP SWAP1 DIV PUSH1 0xFF AND PUSH1 0x2 DUP2 GT ISZERO PUSH2 0x5CB JUMPI PUSH2 0x5CA PUSH2 0x11D1 JUMP JUMPDEST JUMPDEST EQ PUSH2 0x60B JUMPI PUSH1 0x40 MLOAD PUSH32 0x8C379A000000000000000000000000000000000000000000000000000000000 DUP2 MSTORE PUSH1 0x4 ADD PUSH2 0x602 SWAP1 PUSH2 0x154B JUMP JUMPDEST PUSH1 0x40 MLOAD DUP1 SWAP2 SUB SWAP1 REVERT JUMPDEST PUSH1 0x1 PUSH1 0x0 DUP4 DUP2 MSTORE PUSH1 0x20 ADD SWAP1 DUP2 MSTORE PUSH1 0x20 ADD PUSH1 0x0 KECCAK256 PUSH1 0x4 ADD PUSH1 0x0 CALLER PUSH20 0xFFFFFFFFFFFFFFFFFFFFFFFFFFFFFFFFFFFFFFFF AND PUSH20 0xFFFFFFFFFFFFFFFFFFFFFFFFFFFFFFFFFFFFFFFF AND DUP2 MSTORE PUSH1 0x20 ADD SWAP1 DUP2 MSTORE PUSH1 0x20 ADD PUSH1 0x0 KECCAK256 PUSH1 0x0 SWAP1 SLOAD SWAP1 PUSH2 0x100 EXP SWAP1 DIV PUSH1 0xFF AND ISZERO PUSH2 0x6AC JUMPI PUSH1 0x40 MLOAD PUSH32 0x8C379A000000000000000000000000000000000000000000000000000000000 DUP2 MSTORE PUSH1 0x4 ADD PUSH2 0x6A3 SWAP1 PUSH2 0x15B7 JUMP JUMPDEST PUSH1 0x40 MLOAD DUP1 SWAP2 SUB SWAP1 REVERT JUMPDEST PUSH1 0x0 DUP2 SUB PUSH2 0x6EF JUMPI PUSH1 0x40 MLOAD PUSH32 0x8C379A000000000000000000000000000000000000000000000000000000000 DUP2 MSTORE PUSH1 0x4 ADD PUSH2 0x6E6 SWAP1 PUSH2 0x1623 JUMP JUMPDEST PUSH1 0x40 MLOAD DUP1 SWAP2 SUB SWAP1 REVERT JUMPDEST PUSH1 0x0 DUP3 CALLER DUP4 PUSH1 0x40 MLOAD PUSH1 0x20 ADD PUSH2 0x706 SWAP4 SWAP3 SWAP2 SWAP1 PUSH2 0x16AC JUMP JUMPDEST PUSH1 0x40 MLOAD PUSH1 0x20 DUP2 DUP4 SUB SUB DUP2 MSTORE SWAP1 PUSH1 0x40 MSTORE DUP1 MLOAD SWAP1 PUSH1 0x20 ADD KECCAK256 SWAP1 POP PUSH1 0x1 PUSH1 0x0 DUP5 DUP2 MSTORE PUSH1 0x20 ADD SWAP1 DUP2 MSTORE PUSH1 0x20 ADD PUSH1 0x0 KECCAK256 PUSH1 0x5 ADD PUSH1 0x0 DUP3 DUP2 MSTORE PUSH1 0x20 ADD SWAP1 DUP2 MSTORE PUSH1 0x20 ADD PUSH1 0x0 KECCAK256 PUSH1 0x0 SWAP1 SLOAD SWAP1 PUSH2 0x100 EXP SWAP1 DIV PUSH1 0xFF AND ISZERO PUSH2 0x793 JUMPI PUSH1 0x40 MLOAD PUSH32 0x8C379A000000000000000000000000000000000000000000000000000000000 DUP2 MSTORE PUSH1 0x4 ADD PUSH2 0x78A SWAP1 PUSH2 0x1735 JUMP JUMPDEST PUSH1 0x40 MLOAD DUP1 SWAP2 SUB SWAP1 REVERT JUMPDEST PUSH1 0x1 DUP1 PUSH1 0x0 DUP6 DUP2 MSTORE PUSH1 0x20 ADD SWAP1 DUP2 MSTORE PUSH1 0x20 ADD PUSH1 0x0 KECCAK256 PUSH1 0x4 ADD PUSH1 0x0 CALLER PUSH20 0xFFFFFFFFFFFFFFFFFFFFFFFFFFFFFFFFFFFFFFFF AND PUSH20 0xFFFFFFFFFFFFFFFFFFFFFFFFFFFFFFFFFFFFFFFF AND DUP2 MSTORE PUSH1 0x20 ADD SWAP1 DUP2 MSTORE PUSH1 0x20 ADD PUSH1 0x0 KECCAK256 PUSH1 0x0 PUSH2 0x100 EXP DUP2 SLOAD DUP2 PUSH1 0xFF MUL NOT AND SWAP1 DUP4 ISZERO ISZERO MUL OR SWAP1 SSTORE POP PUSH1 0x1 DUP1 PUSH1 0x0 DUP6 DUP2 MSTORE PUSH1 0x20 ADD SWAP1 DUP2 MSTORE PUSH1 0x20 ADD PUSH1 0x0 KECCAK256 PUSH1 0x5 ADD PUSH1 0x0 DUP4 DUP2 MSTORE PUSH1 0x20 ADD SWAP1 DUP2 MSTORE PUSH1 0x20 ADD PUSH1 0x0 KECCAK256 PUSH1 0x0 PUSH2 0x100 EXP DUP2 SLOAD DUP2 PUSH1 0xFF MUL NOT AND SWAP1 DUP4 ISZERO ISZERO MUL OR SWAP1 SSTORE POP POP POP POP JUMP JUMPDEST PUSH2 0x84A PUSH2 0xEE4 JUMP JUMPDEST PUSH2 0x854 PUSH1 0x0 PUSH2 0xF6B JUMP JUMPDEST JUMP JUMPDEST PUSH1 0x0 DUP1 PUSH1 0x0 SWAP1 SLOAD SWAP1 PUSH2 0x100 EXP SWAP1 DIV PUSH20 0xFFFFFFFFFFFFFFFFFFFFFFFFFFFFFFFFFFFFFFFF AND SWAP1 POP SWAP1 JUMP JUMPDEST PUSH1 0x1 PUSH1 0x20 MSTORE DUP1 PUSH1 0x0 MSTORE PUSH1 0x40 PUSH1 0x0 KECCAK256 PUSH1 0x0 SWAP2 POP SWAP1 POP DUP1 PUSH1 0x0 ADD SLOAD SWAP1 DUP1 PUSH1 0x1 ADD PUSH1 0x0 SWAP1 SLOAD SWAP1 PUSH2 0x100 EXP SWAP1 DIV PUSH20 0xFFFFFFFFFFFFFFFFFFFFFFFFFFFFFFFFFFFFFFFF AND SWAP1 DUP1 PUSH1 0x2 ADD SLOAD SWAP1 DUP1 PUSH1 0x3 ADD PUSH1 0x0 SWAP1 SLOAD SWAP1 PUSH2 0x100 EXP SWAP1 DIV PUSH20 0xFFFFFFFFFFFFFFFFFFFFFFFFFFFFFFFFFFFFFFFF AND SWAP1 DUP1 PUSH1 0x3 ADD PUSH1 0x14 SWAP1 SLOAD SWAP1 PUSH2 0x100 EXP SWAP1 DIV PUSH1 0xFF AND SWAP1 POP DUP6 JUMP JUMPDEST DUP2 PUSH1 0x1 PUSH1 0x0 DUP3 DUP2 MSTORE PUSH1 0x20 ADD SWAP1 DUP2 MSTORE PUSH1 0x20 ADD PUSH1 0x0 KECCAK256 PUSH1 0x4 ADD PUSH1 0x0 CALLER PUSH20 0xFFFFFFFFFFFFFFFFFFFFFFFFFFFFFFFFFFFFFFFF AND PUSH20 0xFFFFFFFFFFFFFFFFFFFFFFFFFFFFFFFFFFFFFFFF AND DUP2 MSTORE PUSH1 0x20 ADD SWAP1 DUP2 MSTORE PUSH1 0x20 ADD PUSH1 0x0 KECCAK256 PUSH1 0x0 SWAP1 SLOAD SWAP1 PUSH2 0x100 EXP SWAP1 DIV PUSH1 0xFF AND PUSH2 0x9A3 JUMPI PUSH1 0x40 MLOAD PUSH32 0x8C379A000000000000000000000000000000000000000000000000000000000 DUP2 MSTORE PUSH1 0x4 ADD PUSH2 0x99A SWAP1 PUSH2 0x17C7 JUMP JUMPDEST PUSH1 0x40 MLOAD DUP1 SWAP2 SUB SWAP1 REVERT JUMPDEST PUSH1 0x0 PUSH1 0x2 DUP2 GT ISZERO PUSH2 0x9B7 JUMPI PUSH2 0x9B6 PUSH2 0x11D1 JUMP JUMPDEST JUMPDEST PUSH1 0x1 PUSH1 0x0 DUP6 DUP2 MSTORE PUSH1 0x20 ADD SWAP1 DUP2 MSTORE PUSH1 0x20 ADD PUSH1 0x0 KECCAK256 PUSH1 0x3 ADD PUSH1 0x14 SWAP1 SLOAD SWAP1 PUSH2 0x100 EXP SWAP1 DIV PUSH1 0xFF AND PUSH1 0x2 DUP2 GT ISZERO PUSH2 0x9ED JUMPI PUSH2 0x9EC PUSH2 0x11D1 JUMP JUMPDEST JUMPDEST EQ PUSH2 0xA2D JUMPI PUSH1 0x40 MLOAD PUSH32 0x8C379A000000000000000000000000000000000000000000000000000000000 DUP2 MSTORE PUSH1 0x4 ADD PUSH2 0xA24 SWAP1 PUSH2 0x154B JUMP JUMPDEST PUSH1 0x40 MLOAD DUP1 SWAP2 SUB SWAP1 REVERT JUMPDEST PUSH1 0x0 DUP4 CALLER DUP5 PUSH1 0x40 MLOAD PUSH1 0x20 ADD PUSH2 0xA44 SWAP4 SWAP3 SWAP2 SWAP1 PUSH2 0x16AC JUMP JUMPDEST PUSH1 0x40 MLOAD PUSH1 0x20 DUP2 DUP4 SUB SUB DUP2 MSTORE SWAP1 PUSH1 0x40 MSTORE DUP1 MLOAD SWAP1 PUSH1 0x20 ADD KECCAK256 SWAP1 POP PUSH1 0x1 PUSH1 0x0 DUP6 DUP2 MSTORE PUSH1 0x20 ADD SWAP1 DUP2 MSTORE PUSH1 0x20 ADD PUSH1 0x0 KECCAK256 PUSH1 0x5 ADD PUSH1 0x0 DUP3 DUP2 MSTORE PUSH1 0x20 ADD SWAP1 DUP2 MSTORE PUSH1 0x20 ADD PUSH1 0x0 KECCAK256 PUSH1 0x0 SWAP1 SLOAD SWAP1 PUSH2 0x100 EXP SWAP1 DIV PUSH1 0xFF AND PUSH2 0xAD0 JUMPI PUSH1 0x40 MLOAD PUSH32 0x8C379A000000000000000000000000000000000000000000000000000000000 DUP2 MSTORE PUSH1 0x4 ADD PUSH2 0xAC7 SWAP1 PUSH2 0x1833 JUMP JUMPDEST PUSH1 0x40 MLOAD DUP1 SWAP2 SUB SWAP1 REVERT JUMPDEST PUSH1 0x0 PUSH1 0x1 PUSH1 0x0 DUP7 DUP2 MSTORE PUSH1 0x20 ADD SWAP1 DUP2 MSTORE PUSH1 0x20 ADD PUSH1 0x0 KECCAK256 PUSH1 0x3 ADD PUSH1 0x0 SWAP1 SLOAD SWAP1 PUSH2 0x100 EXP SWAP1 DIV PUSH20 0xFFFFFFFFFFFFFFFFFFFFFFFFFFFFFFFFFFFFFFFF AND SWAP1 POP PUSH1 0x1 PUSH1 0x0 DUP7 DUP2 MSTORE PUSH1 0x20 ADD SWAP1 DUP2 MSTORE PUSH1 0x20 ADD PUSH1 0x0 KECCAK256 PUSH1 0x2 ADD SLOAD DUP2 PUSH20 0xFFFFFFFFFFFFFFFFFFFFFFFFFFFFFFFFFFFFFFFF AND PUSH4 0x70A08231 ADDRESS PUSH1 0x40 MLOAD DUP3 PUSH4 0xFFFFFFFF AND PUSH1 0xE0 SHL DUP2 MSTORE PUSH1 0x4 ADD PUSH2 0xB5B SWAP2 SWAP1 PUSH2 0x11B6 JUMP JUMPDEST PUSH1 0x20 PUSH1 0x40 MLOAD DUP1 DUP4 SUB DUP2 DUP7 GAS STATICCALL ISZERO DUP1 ISZERO PUSH2 0xB78 JUMPI RETURNDATASIZE PUSH1 0x0 DUP1 RETURNDATACOPY RETURNDATASIZE PUSH1 0x0 REVERT JUMPDEST POP POP POP POP PUSH1 0x40 MLOAD RETURNDATASIZE PUSH1 0x1F NOT PUSH1 0x1F DUP3 ADD AND DUP3 ADD DUP1 PUSH1 0x40 MSTORE POP DUP2 ADD SWAP1 PUSH2 0xB9C SWAP2 SWAP1 PUSH2 0x1868 JUMP JUMPDEST LT ISZERO PUSH2 0xBDD JUMPI PUSH1 0x40 MLOAD PUSH32 0x8C379A000000000000000000000000000000000000000000000000000000000 DUP2 MSTORE PUSH1 0x4 ADD PUSH2 0xBD4 SWAP1 PUSH2 0x1907 JUMP JUMPDEST PUSH1 0x40 MLOAD DUP1 SWAP2 SUB SWAP1 REVERT JUMPDEST DUP1 PUSH20 0xFFFFFFFFFFFFFFFFFFFFFFFFFFFFFFFFFFFFFFFF AND PUSH4 0xA9059CBB CALLER PUSH1 0x1 PUSH1 0x0 DUP10 DUP2 MSTORE PUSH1 0x20 ADD SWAP1 DUP2 MSTORE PUSH1 0x20 ADD PUSH1 0x0 KECCAK256 PUSH1 0x2 ADD SLOAD PUSH1 0x40 MLOAD DUP4 PUSH4 0xFFFFFFFF AND PUSH1 0xE0 SHL DUP2 MSTORE PUSH1 0x4 ADD PUSH2 0xC2E SWAP3 SWAP2 SWAP1 PUSH2 0x1927 JUMP JUMPDEST PUSH1 0x20 PUSH1 0x40 MLOAD DUP1 DUP4 SUB DUP2 PUSH1 0x0 DUP8 GAS CALL ISZERO DUP1 ISZERO PUSH2 0xC4D JUMPI RETURNDATASIZE PUSH1 0x0 DUP1 RETURNDATACOPY RETURNDATASIZE PUSH1 0x0 REVERT JUMPDEST POP POP POP POP PUSH1 0x40 MLOAD RETURNDATASIZE PUSH1 0x1F NOT PUSH1 0x1F DUP3 ADD AND DUP3 ADD DUP1 PUSH1 0x40 MSTORE POP DUP2 ADD SWAP1 PUSH2 0xC71 SWAP2 SWAP1 PUSH2 0x1988 JUMP JUMPDEST POP PUSH1 0x1 DUP1 PUSH1 0x0 DUP8 DUP2 MSTORE PUSH1 0x20 ADD SWAP1 DUP2 MSTORE PUSH1 0x20 ADD PUSH1 0x0 KECCAK256 PUSH1 0x3 ADD PUSH1 0x14 PUSH2 0x100 EXP DUP2 SLOAD DUP2 PUSH1 0xFF MUL NOT AND SWAP1 DUP4 PUSH1 0x2 DUP2 GT ISZERO PUSH2 0xCAB JUMPI PUSH2 0xCAA PUSH2 0x11D1 JUMP JUMPDEST JUMPDEST MUL OR SWAP1 SSTORE POP PUSH32 0x74521722FC86DC8B2BDA041D06BD7A9029EF72153C049C301A329C8CE6FBDEEF CALLER PUSH1 0x1 PUSH1 0x0 DUP9 DUP2 MSTORE PUSH1 0x20 ADD SWAP1 DUP2 MSTORE PUSH1 0x20 ADD PUSH1 0x0 KECCAK256 PUSH1 0x2 ADD SLOAD PUSH1 0x1 PUSH1 0x0 DUP10 DUP2 MSTORE PUSH1 0x20 ADD SWAP1 DUP2 MSTORE PUSH1 0x20 ADD PUSH1 0x0 KECCAK256 PUSH1 0x3 ADD PUSH1 0x0 SWAP1 SLOAD SWAP1 PUSH2 0x100 EXP SWAP1 DIV PUSH20 0xFFFFFFFFFFFFFFFFFFFFFFFFFFFFFFFFFFFFFFFF AND PUSH1 0x40 MLOAD PUSH2 0xD2F SWAP4 SWAP3 SWAP2 SWAP1 PUSH2 0x19B5 JUMP JUMPDEST PUSH1 0x40 MLOAD DUP1 SWAP2 SUB SWAP1 LOG1 POP POP POP POP POP JUMP JUMPDEST PUSH1 0x0 DUP1 PUSH1 0x0 DUP1 PUSH1 0x0 PUSH1 0x2 SLOAD DUP7 GT ISZERO PUSH2 0xD8B JUMPI PUSH1 0x40 MLOAD PUSH32 0x8C379A000000000000000000000000000000000000000000000000000000000 DUP2 MSTORE PUSH1 0x4 ADD PUSH2 0xD82 SWAP1 PUSH2 0x1A38 JUMP JUMPDEST PUSH1 0x40 MLOAD DUP1 SWAP2 SUB SWAP1 REVERT JUMPDEST PUSH1 0x1 PUSH1 0x0 DUP8 DUP2 MSTORE PUSH1 0x20 ADD SWAP1 DUP2 MSTORE PUSH1 0x20 ADD PUSH1 0x0 KECCAK256 PUSH1 0x0 ADD SLOAD PUSH1 0x1 PUSH1 0x0 DUP9 DUP2 MSTORE PUSH1 0x20 ADD SWAP1 DUP2 MSTORE PUSH1 0x20 ADD PUSH1 0x0 KECCAK256 PUSH1 0x1 ADD PUSH1 0x0 SWAP1 SLOAD SWAP1 PUSH2 0x100 EXP SWAP1 DIV PUSH20 0xFFFFFFFFFFFFFFFFFFFFFFFFFFFFFFFFFFFFFFFF AND PUSH1 0x1 PUSH1 0x0 DUP10 DUP2 MSTORE PUSH1 0x20 ADD SWAP1 DUP2 MSTORE PUSH1 0x20 ADD PUSH1 0x0 KECCAK256 PUSH1 0x2 ADD SLOAD PUSH1 0x1 PUSH1 0x0 DUP11 DUP2 MSTORE PUSH1 0x20 ADD SWAP1 DUP2 MSTORE PUSH1 0x20 ADD PUSH1 0x0 KECCAK256 PUSH1 0x3 ADD PUSH1 0x0 SWAP1 SLOAD SWAP1 PUSH2 0x100 EXP SWAP1 DIV PUSH20 0xFFFFFFFFFFFFFFFFFFFFFFFFFFFFFFFFFFFFFFFF AND PUSH1 0x1 PUSH1 0x0 DUP12 DUP2 MSTORE PUSH1 0x20 ADD SWAP1 DUP2 MSTORE PUSH1 0x20 ADD PUSH1 0x0 KECCAK256 PUSH1 0x3 ADD PUSH1 0x14 SWAP1 SLOAD SWAP1 PUSH2 0x100 EXP SWAP1 DIV PUSH1 0xFF AND SWAP5 POP SWAP5 POP SWAP5 POP SWAP5 POP SWAP5 POP SWAP2 SWAP4 SWAP6 SWAP1 SWAP3 SWAP5 POP JUMP JUMPDEST PUSH2 0xE66 PUSH2 0xEE4 JUMP JUMPDEST PUSH1 0x0 PUSH20 0xFFFFFFFFFFFFFFFFFFFFFFFFFFFFFFFFFFFFFFFF AND DUP2 PUSH20 0xFFFFFFFFFFFFFFFFFFFFFFFFFFFFFFFFFFFFFFFF AND SUB PUSH2 0xED8 JUMPI PUSH1 0x0 PUSH1 0x40 MLOAD PUSH32 0x1E4FBDF700000000000000000000000000000000000000000000000000000000 DUP2 MSTORE PUSH1 0x4 ADD PUSH2 0xECF SWAP2 SWAP1 PUSH2 0x11B6 JUMP JUMPDEST PUSH1 0x40 MLOAD DUP1 SWAP2 SUB SWAP1 REVERT JUMPDEST PUSH2 0xEE1 DUP2 PUSH2 0xF6B JUMP JUMPDEST POP JUMP JUMPDEST PUSH2 0xEEC PUSH2 0x102F JUMP JUMPDEST PUSH20 0xFFFFFFFFFFFFFFFFFFFFFFFFFFFFFFFFFFFFFFFF AND PUSH2 0xF0A PUSH2 0x856 JUMP JUMPDEST PUSH20 0xFFFFFFFFFFFFFFFFFFFFFFFFFFFFFFFFFFFFFFFF AND EQ PUSH2 0xF69 JUMPI PUSH2 0xF2D PUSH2 0x102F JUMP JUMPDEST PUSH1 0x40 MLOAD PUSH32 0x118CDAA700000000000000000000000000000000000000000000000000000000 DUP2 MSTORE PUSH1 0x4 ADD PUSH2 0xF60 SWAP2 SWAP1 PUSH2 0x11B6 JUMP JUMPDEST PUSH1 0x40 MLOAD DUP1 SWAP2 SUB SWAP1 REVERT JUMPDEST JUMP JUMPDEST PUSH1 0x0 DUP1 PUSH1 0x0 SWAP1 SLOAD SWAP1 PUSH2 0x100 EXP SWAP1 DIV PUSH20 0xFFFFFFFFFFFFFFFFFFFFFFFFFFFFFFFFFFFFFFFF AND SWAP1 POP DUP2 PUSH1 0x0 DUP1 PUSH2 0x100 EXP DUP2 SLOAD DUP2 PUSH20 0xFFFFFFFFFFFFFFFFFFFFFFFFFFFFFFFFFFFFFFFF MUL NOT AND SWAP1 DUP4 PUSH20 0xFFFFFFFFFFFFFFFFFFFFFFFFFFFFFFFFFFFFFFFF AND MUL OR SWAP1 SSTORE POP DUP2 PUSH20 0xFFFFFFFFFFFFFFFFFFFFFFFFFFFFFFFFFFFFFFFF AND DUP2 PUSH20 0xFFFFFFFFFFFFFFFFFFFFFFFFFFFFFFFFFFFFFFFF AND PUSH32 0x8BE0079C531659141344CD1FD0A4F28419497F9722A3DAAFE3B4186F6B6457E0 PUSH1 0x40 MLOAD PUSH1 0x40 MLOAD DUP1 SWAP2 SUB SWAP1 LOG3 POP POP JUMP JUMPDEST PUSH1 0x0 CALLER SWAP1 POP SWAP1 JUMP JUMPDEST PUSH1 0x0 DUP1 REVERT JUMPDEST PUSH1 0x0 DUP2 SWAP1 POP SWAP2 SWAP1 POP JUMP JUMPDEST PUSH2 0x104F DUP2 PUSH2 0x103C JUMP JUMPDEST DUP2 EQ PUSH2 0x105A JUMPI PUSH1 0x0 DUP1 REVERT JUMPDEST POP JUMP JUMPDEST PUSH1 0x0 DUP2 CALLDATALOAD SWAP1 POP PUSH2 0x106C DUP2 PUSH2 0x1046 JUMP JUMPDEST SWAP3 SWAP2 POP POP JUMP JUMPDEST PUSH1 0x0 PUSH20 0xFFFFFFFFFFFFFFFFFFFFFFFFFFFFFFFFFFFFFFFF DUP3 AND SWAP1 POP SWAP2 SWAP1 POP JUMP JUMPDEST PUSH1 0x0 PUSH2 0x109D DUP3 PUSH2 0x1072 JUMP JUMPDEST SWAP1 POP SWAP2 SWAP1 POP JUMP JUMPDEST PUSH2 0x10AD DUP2 PUSH2 0x1092 JUMP JUMPDEST DUP2 EQ PUSH2 0x10B8 JUMPI PUSH1 0x0 DUP1 REVERT JUMPDEST POP JUMP JUMPDEST PUSH1 0x0 DUP2 CALLDATALOAD SWAP1 POP PUSH2 0x10CA DUP2 PUSH2 0x10A4 JUMP JUMPDEST SWAP3 SWAP2 POP POP JUMP JUMPDEST PUSH1 0x0 DUP1 PUSH1 0x40 DUP4 DUP6 SUB SLT ISZERO PUSH2 0x10E7 JUMPI PUSH2 0x10E6 PUSH2 0x1037 JUMP JUMPDEST JUMPDEST PUSH1 0x0 PUSH2 0x10F5 DUP6 DUP3 DUP7 ADD PUSH2 0x105D JUMP JUMPDEST SWAP3 POP POP PUSH1 0x20 PUSH2 0x1106 DUP6 DUP3 DUP7 ADD PUSH2 0x10BB JUMP JUMPDEST SWAP2 POP POP SWAP3 POP SWAP3 SWAP1 POP JUMP JUMPDEST PUSH2 0x1119 DUP2 PUSH2 0x103C JUMP JUMPDEST DUP3 MSTORE POP POP JUMP JUMPDEST PUSH1 0x0 PUSH1 0x20 DUP3 ADD SWAP1 POP PUSH2 0x1134 PUSH1 0x0 DUP4 ADD DUP5 PUSH2 0x1110 JUMP JUMPDEST SWAP3 SWAP2 POP POP JUMP JUMPDEST PUSH1 0x0 PUSH1 0x20 DUP3 DUP5 SUB SLT ISZERO PUSH2 0x1150 JUMPI PUSH2 0x114F PUSH2 0x1037 JUMP JUMPDEST JUMPDEST PUSH1 0x0 PUSH2 0x115E DUP5 DUP3 DUP6 ADD PUSH2 0x105D JUMP JUMPDEST SWAP2 POP POP SWAP3 SWAP2 POP POP JUMP JUMPDEST PUSH1 0x0 DUP1 PUSH1 0x40 DUP4 DUP6 SUB SLT ISZERO PUSH2 0x117E JUMPI PUSH2 0x117D PUSH2 0x1037 JUMP JUMPDEST JUMPDEST PUSH1 0x0 PUSH2 0x118C DUP6 DUP3 DUP7 ADD PUSH2 0x105D JUMP JUMPDEST SWAP3 POP POP PUSH1 0x20 PUSH2 0x119D DUP6 DUP3 DUP7 ADD PUSH2 0x105D JUMP JUMPDEST SWAP2 POP POP SWAP3 POP SWAP3 SWAP1 POP JUMP JUMPDEST PUSH2 0x11B0 DUP2 PUSH2 0x1092 JUMP JUMPDEST DUP3 MSTORE POP POP JUMP JUMPDEST PUSH1 0x0 PUSH1 0x20 DUP3 ADD SWAP1 POP PUSH2 0x11CB PUSH1 0x0 DUP4 ADD DUP5 PUSH2 0x11A7 JUMP JUMPDEST SWAP3 SWAP2 POP POP JUMP JUMPDEST PUSH32 0x4E487B7100000000000000000000000000000000000000000000000000000000 PUSH1 0x0 MSTORE PUSH1 0x21 PUSH1 0x4 MSTORE PUSH1 0x24 PUSH1 0x0 REVERT JUMPDEST PUSH1 0x3 DUP2 LT PUSH2 0x1211 JUMPI PUSH2 0x1210 PUSH2 0x11D1 JUMP JUMPDEST JUMPDEST POP JUMP JUMPDEST PUSH1 0x0 DUP2 SWAP1 POP PUSH2 0x1222 DUP3 PUSH2 0x1200 JUMP JUMPDEST SWAP2 SWAP1 POP JUMP JUMPDEST PUSH1 0x0 PUSH2 0x1232 DUP3 PUSH2 0x1214 JUMP JUMPDEST SWAP1 POP SWAP2 SWAP1 POP JUMP JUMPDEST PUSH2 0x1242 DUP2 PUSH2 0x1227 JUMP JUMPDEST DUP3 MSTORE POP POP JUMP JUMPDEST PUSH1 0x0 PUSH1 0xA0 DUP3 ADD SWAP1 POP PUSH2 0x125D PUSH1 0x0 DUP4 ADD DUP9 PUSH2 0x1110 JUMP JUMPDEST PUSH2 0x126A PUSH1 0x20 DUP4 ADD DUP8 PUSH2 0x11A7 JUMP JUMPDEST PUSH2 0x1277 PUSH1 0x40 DUP4 ADD DUP7 PUSH2 0x1110 JUMP JUMPDEST PUSH2 0x1284 PUSH1 0x60 DUP4 ADD DUP6 PUSH2 0x11A7 JUMP JUMPDEST PUSH2 0x1291 PUSH1 0x80 DUP4 ADD DUP5 PUSH2 0x1239 JUMP JUMPDEST SWAP7 SWAP6 POP POP POP POP POP POP JUMP JUMPDEST PUSH1 0x0 PUSH1 0x20 DUP3 DUP5 SUB SLT ISZERO PUSH2 0x12B1 JUMPI PUSH2 0x12B0 PUSH2 0x1037 JUMP JUMPDEST JUMPDEST PUSH1 0x0 PUSH2 0x12BF DUP5 DUP3 DUP6 ADD PUSH2 0x10BB JUMP JUMPDEST SWAP2 POP POP SWAP3 SWAP2 POP POP JUMP JUMPDEST PUSH1 0x0 DUP3 DUP3 MSTORE PUSH1 0x20 DUP3 ADD SWAP1 POP SWAP3 SWAP2 POP POP JUMP JUMPDEST PUSH32 0x546F6B656E20616D6F756E74206D757374206265206772656174657220746861 PUSH1 0x0 DUP3 ADD MSTORE PUSH32 0x6E20300000000000000000000000000000000000000000000000000000000000 PUSH1 0x20 DUP3 ADD MSTORE POP JUMP JUMPDEST PUSH1 0x0 PUSH2 0x1335 PUSH1 0x23 DUP4 PUSH2 0x12C8 JUMP JUMPDEST SWAP2 POP PUSH2 0x1340 DUP3 PUSH2 0x12D9 JUMP JUMPDEST PUSH1 0x40 DUP3 ADD SWAP1 POP SWAP2 SWAP1 POP JUMP JUMPDEST PUSH1 0x0 PUSH1 0x20 DUP3 ADD SWAP1 POP DUP2 DUP2 SUB PUSH1 0x0 DUP4 ADD MSTORE PUSH2 0x1364 DUP2 PUSH2 0x1328 JUMP JUMPDEST SWAP1 POP SWAP2 SWAP1 POP JUMP JUMPDEST PUSH32 0x496E76616C696420746F6B656E20636F6E747261637420616464726573730000 PUSH1 0x0 DUP3 ADD MSTORE POP JUMP JUMPDEST PUSH1 0x0 PUSH2 0x13A1 PUSH1 0x1E DUP4 PUSH2 0x12C8 JUMP JUMPDEST SWAP2 POP PUSH2 0x13AC DUP3 PUSH2 0x136B JUMP JUMPDEST PUSH1 0x20 DUP3 ADD SWAP1 POP SWAP2 SWAP1 POP JUMP JUMPDEST PUSH1 0x0 PUSH1 0x20 DUP3 ADD SWAP1 POP DUP2 DUP2 SUB PUSH1 0x0 DUP4 ADD MSTORE PUSH2 0x13D0 DUP2 PUSH2 0x1394 JUMP JUMPDEST SWAP1 POP SWAP2 SWAP1 POP JUMP JUMPDEST PUSH32 0x4E487B7100000000000000000000000000000000000000000000000000000000 PUSH1 0x0 MSTORE PUSH1 0x11 PUSH1 0x4 MSTORE PUSH1 0x24 PUSH1 0x0 REVERT JUMPDEST PUSH1 0x0 PUSH2 0x1411 DUP3 PUSH2 0x103C JUMP JUMPDEST SWAP2 POP PUSH32 0xFFFFFFFFFFFFFFFFFFFFFFFFFFFFFFFFFFFFFFFFFFFFFFFFFFFFFFFFFFFFFFFF DUP3 SUB PUSH2 0x1443 JUMPI PUSH2 0x1442 PUSH2 0x13D7 JUMP JUMPDEST JUMPDEST PUSH1 0x1 DUP3 ADD SWAP1 POP SWAP2 SWAP1 POP JUMP JUMPDEST PUSH1 0x0 PUSH1 0x80 DUP3 ADD SWAP1 POP PUSH2 0x1463 PUSH1 0x0 DUP4 ADD DUP8 PUSH2 0x1110 JUMP JUMPDEST PUSH2 0x1470 PUSH1 0x20 DUP4 ADD DUP7 PUSH2 0x11A7 JUMP JUMPDEST PUSH2 0x147D PUSH1 0x40 DUP4 ADD DUP6 PUSH2 0x1110 JUMP JUMPDEST PUSH2 0x148A PUSH1 0x60 DUP4 ADD DUP5 PUSH2 0x11A7 JUMP JUMPDEST SWAP6 SWAP5 POP POP POP POP POP JUMP JUMPDEST PUSH32 0x4F7264657220646F6573206E6F74206578697374000000000000000000000000 PUSH1 0x0 DUP3 ADD MSTORE POP JUMP JUMPDEST PUSH1 0x0 PUSH2 0x14C9 PUSH1 0x14 DUP4 PUSH2 0x12C8 JUMP JUMPDEST SWAP2 POP PUSH2 0x14D4 DUP3 PUSH2 0x1493 JUMP JUMPDEST PUSH1 0x20 DUP3 ADD SWAP1 POP SWAP2 SWAP1 POP JUMP JUMPDEST PUSH1 0x0 PUSH1 0x20 DUP3 ADD SWAP1 POP DUP2 DUP2 SUB PUSH1 0x0 DUP4 ADD MSTORE PUSH2 0x14F8 DUP2 PUSH2 0x14BC JUMP JUMPDEST SWAP1 POP SWAP2 SWAP1 POP JUMP JUMPDEST PUSH32 0x4F72646572206973206E6F7420696E2043524541544544207374617465000000 PUSH1 0x0 DUP3 ADD MSTORE POP JUMP JUMPDEST PUSH1 0x0 PUSH2 0x1535 PUSH1 0x1D DUP4 PUSH2 0x12C8 JUMP JUMPDEST SWAP2 POP PUSH2 0x1540 DUP3 PUSH2 0x14FF JUMP JUMPDEST PUSH1 0x20 DUP3 ADD SWAP1 POP SWAP2 SWAP1 POP JUMP JUMPDEST PUSH1 0x0 PUSH1 0x20 DUP3 ADD SWAP1 POP DUP2 DUP2 SUB PUSH1 0x0 DUP4 ADD MSTORE PUSH2 0x1564 DUP2 PUSH2 0x1528 JUMP JUMPDEST SWAP1 POP SWAP2 SWAP1 POP JUMP JUMPDEST PUSH32 0x427579657220616C726561647920726567697374657265640000000000000000 PUSH1 0x0 DUP3 ADD MSTORE POP JUMP JUMPDEST PUSH1 0x0 PUSH2 0x15A1 PUSH1 0x18 DUP4 PUSH2 0x12C8 JUMP JUMPDEST SWAP2 POP PUSH2 0x15AC DUP3 PUSH2 0x156B JUMP JUMPDEST PUSH1 0x20 DUP3 ADD SWAP1 POP SWAP2 SWAP1 POP JUMP JUMPDEST PUSH1 0x0 PUSH1 0x20 DUP3 ADD SWAP1 POP DUP2 DUP2 SUB PUSH1 0x0 DUP4 ADD MSTORE PUSH2 0x15D0 DUP2 PUSH2 0x1594 JUMP JUMPDEST SWAP1 POP SWAP2 SWAP1 POP JUMP JUMPDEST PUSH32 0x52616E646F6D206E756D6265722063616E6E6F74206265207A65726F00000000 PUSH1 0x0 DUP3 ADD MSTORE POP JUMP JUMPDEST PUSH1 0x0 PUSH2 0x160D PUSH1 0x1C DUP4 PUSH2 0x12C8 JUMP JUMPDEST SWAP2 POP PUSH2 0x1618 DUP3 PUSH2 0x15D7 JUMP JUMPDEST PUSH1 0x20 DUP3 ADD SWAP1 POP SWAP2 SWAP1 POP JUMP JUMPDEST PUSH1 0x0 PUSH1 0x20 DUP3 ADD SWAP1 POP DUP2 DUP2 SUB PUSH1 0x0 DUP4 ADD MSTORE PUSH2 0x163C DUP2 PUSH2 0x1600 JUMP JUMPDEST SWAP1 POP SWAP2 SWAP1 POP JUMP JUMPDEST PUSH1 0x0 DUP2 SWAP1 POP SWAP2 SWAP1 POP JUMP JUMPDEST PUSH2 0x165E PUSH2 0x1659 DUP3 PUSH2 0x103C JUMP JUMPDEST PUSH2 0x1643 JUMP JUMPDEST DUP3 MSTORE POP POP JUMP JUMPDEST PUSH1 0x0 DUP2 PUSH1 0x60 SHL SWAP1 POP SWAP2 SWAP1 POP JUMP JUMPDEST PUSH1 0x0 PUSH2 0x167C DUP3 PUSH2 0x1664 JUMP JUMPDEST SWAP1 POP SWAP2 SWAP1 POP JUMP JUMPDEST PUSH1 0x0 PUSH2 0x168E DUP3 PUSH2 0x1671 JUMP JUMPDEST SWAP1 POP SWAP2 SWAP1 POP JUMP JUMPDEST PUSH2 0x16A6 PUSH2 0x16A1 DUP3 PUSH2 0x1092 JUMP JUMPDEST PUSH2 0x1683 JUMP JUMPDEST DUP3 MSTORE POP POP JUMP JUMPDEST PUSH1 0x0 PUSH2 0x16B8 DUP3 DUP7 PUSH2 0x164D JUMP JUMPDEST PUSH1 0x20 DUP3 ADD SWAP2 POP PUSH2 0x16C8 DUP3 DUP6 PUSH2 0x1695 JUMP JUMPDEST PUSH1 0x14 DUP3 ADD SWAP2 POP PUSH2 0x16D8 DUP3 DUP5 PUSH2 0x164D JUMP JUMPDEST PUSH1 0x20 DUP3 ADD SWAP2 POP DUP2 SWAP1 POP SWAP5 SWAP4 POP POP POP POP JUMP JUMPDEST PUSH32 0x52616E646F6D206E756D62657220616C72656164792075736564000000000000 PUSH1 0x0 DUP3 ADD MSTORE POP JUMP JUMPDEST PUSH1 0x0 PUSH2 0x171F PUSH1 0x1A DUP4 PUSH2 0x12C8 JUMP JUMPDEST SWAP2 POP PUSH2 0x172A DUP3 PUSH2 0x16E9 JUMP JUMPDEST PUSH1 0x20 DUP3 ADD SWAP1 POP SWAP2 SWAP1 POP JUMP JUMPDEST PUSH1 0x0 PUSH1 0x20 DUP3 ADD SWAP1 POP DUP2 DUP2 SUB PUSH1 0x0 DUP4 ADD MSTORE PUSH2 0x174E DUP2 PUSH2 0x1712 JUMP JUMPDEST SWAP1 POP SWAP2 SWAP1 POP JUMP JUMPDEST PUSH32 0x4F6E6C7920726567697374657265642062757965722063616E2063616C6C2074 PUSH1 0x0 DUP3 ADD MSTORE PUSH32 0x6869730000000000000000000000000000000000000000000000000000000000 PUSH1 0x20 DUP3 ADD MSTORE POP JUMP JUMPDEST PUSH1 0x0 PUSH2 0x17B1 PUSH1 0x23 DUP4 PUSH2 0x12C8 JUMP JUMPDEST SWAP2 POP PUSH2 0x17BC DUP3 PUSH2 0x1755 JUMP JUMPDEST PUSH1 0x40 DUP3 ADD SWAP1 POP SWAP2 SWAP1 POP JUMP JUMPDEST PUSH1 0x0 PUSH1 0x20 DUP3 ADD SWAP1 POP DUP2 DUP2 SUB PUSH1 0x0 DUP4 ADD MSTORE PUSH2 0x17E0 DUP2 PUSH2 0x17A4 JUMP JUMPDEST SWAP1 POP SWAP2 SWAP1 POP JUMP JUMPDEST PUSH32 0x496E76616C69642072616E646F6D206E756D6265720000000000000000000000 PUSH1 0x0 DUP3 ADD MSTORE POP JUMP JUMPDEST PUSH1 0x0 PUSH2 0x181D PUSH1 0x15 DUP4 PUSH2 0x12C8 JUMP JUMPDEST SWAP2 POP PUSH2 0x1828 DUP3 PUSH2 0x17E7 JUMP JUMPDEST PUSH1 0x20 DUP3 ADD SWAP1 POP SWAP2 SWAP1 POP JUMP JUMPDEST PUSH1 0x0 PUSH1 0x20 DUP3 ADD SWAP1 POP DUP2 DUP2 SUB PUSH1 0x0 DUP4 ADD MSTORE PUSH2 0x184C DUP2 PUSH2 0x1810 JUMP JUMPDEST SWAP1 POP SWAP2 SWAP1 POP JUMP JUMPDEST PUSH1 0x0 DUP2 MLOAD SWAP1 POP PUSH2 0x1862 DUP2 PUSH2 0x1046 JUMP JUMPDEST SWAP3 SWAP2 POP POP JUMP JUMPDEST PUSH1 0x0 PUSH1 0x20 DUP3 DUP5 SUB SLT ISZERO PUSH2 0x187E JUMPI PUSH2 0x187D PUSH2 0x1037 JUMP JUMPDEST JUMPDEST PUSH1 0x0 PUSH2 0x188C DUP5 DUP3 DUP6 ADD PUSH2 0x1853 JUMP JUMPDEST SWAP2 POP POP SWAP3 SWAP2 POP POP JUMP JUMPDEST PUSH32 0x546F6B656E20646F65736E277420657869737420696E20746865207379737465 PUSH1 0x0 DUP3 ADD MSTORE PUSH32 0x6D20506C6561736520636F6E74616374207468652073656C6C65722000000000 PUSH1 0x20 DUP3 ADD MSTORE POP JUMP JUMPDEST PUSH1 0x0 PUSH2 0x18F1 PUSH1 0x3C DUP4 PUSH2 0x12C8 JUMP JUMPDEST SWAP2 POP PUSH2 0x18FC DUP3 PUSH2 0x1895 JUMP JUMPDEST PUSH1 0x40 DUP3 ADD SWAP1 POP SWAP2 SWAP1 POP JUMP JUMPDEST PUSH1 0x0 PUSH1 0x20 DUP3 ADD SWAP1 POP DUP2 DUP2 SUB PUSH1 0x0 DUP4 ADD MSTORE PUSH2 0x1920 DUP2 PUSH2 0x18E4 JUMP JUMPDEST SWAP1 POP SWAP2 SWAP1 POP JUMP JUMPDEST PUSH1 0x0 PUSH1 0x40 DUP3 ADD SWAP1 POP PUSH2 0x193C PUSH1 0x0 DUP4 ADD DUP6 PUSH2 0x11A7 JUMP JUMPDEST PUSH2 0x1949 PUSH1 0x20 DUP4 ADD DUP5 PUSH2 0x1110 JUMP JUMPDEST SWAP4 SWAP3 POP POP POP JUMP JUMPDEST PUSH1 0x0 DUP2 ISZERO ISZERO SWAP1 POP SWAP2 SWAP1 POP JUMP JUMPDEST PUSH2 0x1965 DUP2 PUSH2 0x1950 JUMP JUMPDEST DUP2 EQ PUSH2 0x1970 JUMPI PUSH1 0x0 DUP1 REVERT JUMPDEST POP JUMP JUMPDEST PUSH1 0x0 DUP2 MLOAD SWAP1 POP PUSH2 0x1982 DUP2 PUSH2 0x195C JUMP JUMPDEST SWAP3 SWAP2 POP POP JUMP JUMPDEST PUSH1 0x0 PUSH1 0x20 DUP3 DUP5 SUB SLT ISZERO PUSH2 0x199E JUMPI PUSH2 0x199D PUSH2 0x1037 JUMP JUMPDEST JUMPDEST PUSH1 0x0 PUSH2 0x19AC DUP5 DUP3 DUP6 ADD PUSH2 0x1973 JUMP JUMPDEST SWAP2 POP POP SWAP3 SWAP2 POP POP JUMP JUMPDEST PUSH1 0x0 PUSH1 0x60 DUP3 ADD SWAP1 POP PUSH2 0x19CA PUSH1 0x0 DUP4 ADD DUP7 PUSH2 0x11A7 JUMP JUMPDEST PUSH2 0x19D7 PUSH1 0x20 DUP4 ADD DUP6 PUSH2 0x1110 JUMP JUMPDEST PUSH2 0x19E4 PUSH1 0x40 DUP4 ADD DUP5 PUSH2 0x11A7 JUMP JUMPDEST SWAP5 SWAP4 POP POP POP POP JUMP JUMPDEST PUSH32 0x496E76616C6964206F7264657220494400000000000000000000000000000000 PUSH1 0x0 DUP3 ADD MSTORE POP JUMP JUMPDEST PUSH1 0x0 PUSH2 0x1A22 PUSH1 0x10 DUP4 PUSH2 0x12C8 JUMP JUMPDEST SWAP2 POP PUSH2 0x1A2D DUP3 PUSH2 0x19EC JUMP JUMPDEST PUSH1 0x20 DUP3 ADD SWAP1 POP SWAP2 SWAP1 POP JUMP JUMPDEST PUSH1 0x0 PUSH1 0x20 DUP3 ADD SWAP1 POP DUP2 DUP2 SUB PUSH1 0x0 DUP4 ADD MSTORE PUSH2 0x1A51 DUP2 PUSH2 0x1A15 JUMP JUMPDEST SWAP1 POP SWAP2 SWAP1 POP JUMP INVALID LOG2 PUSH5 0x6970667358 0x22 SLT KECCAK256 GAS PUSH11 0x3C1E0A589ACBE87087D541 PUSH4 0x56B69B73 0xC3 0xEC 0xBD PUSH29 0x98901B81B64886B29BF864736F6C634300081200330000000000000000 "
				},
				"gasEstimates": {
					"creation": {
						"codeDepositCost": "1359600",
						"executionCost": "infinite",
						"totalCost": "infinite"
					},
					"external": {
						"cancelOrder(uint256)": "infinite",
						"completeOrder(uint256,uint256)": "infinite",
						"createOrder(uint256,address)": "infinite",
						"getOrderDetails(uint256)": "infinite",
						"nextOrderId()": "2452",
						"orders(uint256)": "infinite",
						"owner()": "2522",
						"registerBuyer(uint256,uint256)": "infinite",
						"renounceOwnership()": "infinite",
						"transferOwnership(address)": "infinite"
					}
				},
				"methodIdentifiers": {
					"cancelOrder(uint256)": "514fcac7",
					"completeOrder(uint256,uint256)": "c0d5d96f",
					"createOrder(uint256,address)": "07540ca6",
					"getOrderDetails(uint256)": "ec7dd7bb",
					"nextOrderId()": "2a58b330",
					"orders(uint256)": "a85c38ef",
					"owner()": "8da5cb5b",
					"registerBuyer(uint256,uint256)": "687b1df8",
					"renounceOwnership()": "715018a6",
					"transferOwnership(address)": "f2fde38b"
				}
			},
			"storageLayout": {
				"storage": [
					{
						"astId": 8,
						"contract": "TradeContract.sol:TradeContract",
						"label": "_owner",
						"offset": 0,
						"slot": "0",
						"type": "t_address"
					},
					{
						"astId": 642,
						"contract": "TradeContract.sol:TradeContract",
						"label": "orders",
						"offset": 0,
						"slot": "1",
						"type": "t_mapping(t_uint256,t_struct(Order)637_storage)"
					},
					{
						"astId": 644,
						"contract": "TradeContract.sol:TradeContract",
						"label": "nextOrderId",
						"offset": 0,
						"slot": "2",
						"type": "t_uint256"
					}
				],
				"types": {
					"t_address": {
						"encoding": "inplace",
						"label": "address",
						"numberOfBytes": "20"
					},
					"t_bool": {
						"encoding": "inplace",
						"label": "bool",
						"numberOfBytes": "1"
					},
					"t_bytes32": {
						"encoding": "inplace",
						"label": "bytes32",
						"numberOfBytes": "32"
					},
					"t_enum(OrderState)617": {
						"encoding": "inplace",
						"label": "enum TradeContract.OrderState",
						"numberOfBytes": "1"
					},
					"t_mapping(t_address,t_bool)": {
						"encoding": "mapping",
						"key": "t_address",
						"label": "mapping(address => bool)",
						"numberOfBytes": "32",
						"value": "t_bool"
					},
					"t_mapping(t_bytes32,t_bool)": {
						"encoding": "mapping",
						"key": "t_bytes32",
						"label": "mapping(bytes32 => bool)",
						"numberOfBytes": "32",
						"value": "t_bool"
					},
					"t_mapping(t_uint256,t_struct(Order)637_storage)": {
						"encoding": "mapping",
						"key": "t_uint256",
						"label": "mapping(uint256 => struct TradeContract.Order)",
						"numberOfBytes": "32",
						"value": "t_struct(Order)637_storage"
					},
					"t_struct(Order)637_storage": {
						"encoding": "inplace",
						"label": "struct TradeContract.Order",
						"members": [
							{
								"astId": 619,
								"contract": "TradeContract.sol:TradeContract",
								"label": "orderId",
								"offset": 0,
								"slot": "0",
								"type": "t_uint256"
							},
							{
								"astId": 621,
								"contract": "TradeContract.sol:TradeContract",
								"label": "seller",
								"offset": 0,
								"slot": "1",
								"type": "t_address"
							},
							{
								"astId": 623,
								"contract": "TradeContract.sol:TradeContract",
								"label": "tokenAmount",
								"offset": 0,
								"slot": "2",
								"type": "t_uint256"
							},
							{
								"astId": 625,
								"contract": "TradeContract.sol:TradeContract",
								"label": "tokenContract",
								"offset": 0,
								"slot": "3",
								"type": "t_address"
							},
							{
								"astId": 628,
								"contract": "TradeContract.sol:TradeContract",
								"label": "state",
								"offset": 20,
								"slot": "3",
								"type": "t_enum(OrderState)617"
							},
							{
								"astId": 632,
								"contract": "TradeContract.sol:TradeContract",
								"label": "registeredBuyers",
								"offset": 0,
								"slot": "4",
								"type": "t_mapping(t_address,t_bool)"
							},
							{
								"astId": 636,
								"contract": "TradeContract.sol:TradeContract",
								"label": "usedRandomNumbers",
								"offset": 0,
								"slot": "5",
								"type": "t_mapping(t_bytes32,t_bool)"
							}
						],
						"numberOfBytes": "192"
					},
					"t_uint256": {
						"encoding": "inplace",
						"label": "uint256",
						"numberOfBytes": "32"
					}
				}
			},
			"userdoc": {
				"kind": "user",
				"methods": {},
				"version": 1
			}
		}
	}
}